:020000040000FA
:1000000080280020150400001D0400001F040000CB
:10001000210400002304000025040000000000006B
:1000200000000000000000000000000027040000A5
:1000300029040000000000002B0400002D04000033
:10004000110700002F0400005D0A00002F040000CB
:100050002F0400002F040000390500002F040000C9
:100060002F0400002F0400002F0400002F040000C4
:100070002F0400002F0400002F0400002F040000B4
:100080002F040000990700002F0400002F04000037
:10009000BD0700002F0400002F0400002F04000003
:1000A0002F0400002F0400002F0400002F04000084
:1000B000690700002F04000000000000000000009D
:1000C0002F04000079070000890700002F040000BA
:1000D0002F0400002F0400002F0400000000000087
:1000E0000000000000000000000000000000000010
:1000F0000000000000000000000000000000000000
:1001000000000000000000000000000000000000EF
:1001100000000000000000000000000000000000DF
:10040000DFF80CD000F066F80048004745200000F7
:10041000802800200648804706480047FEE7FEE7A0
:10042000FEE7FEE7FEE7FEE7FEE7FEE7FEE7FEE7A4
:10043000C1070000010400000048704704360000B6
:1004400040EA01039B0703D009E008C9121F08C056
:10045000042AFAD203E011F8013B00F8013B521ED6
:10046000F9D27047421C10F8011B0029FBD1801AF9
:1004700070472DE9F05F0546002092469B4688466E
:100480000646814640241BE0284641464746224610
:1004900000F041F853465A46C01A914110D3114614
:1004A0001846224600F028F82D1A67EB01084F463F
:1004B00022460120002100F01FF817EB00094E41F1
:1004C000201EA4F10104DFDC484631462A4643469B
:1004D000BDE8F09F064C074D06E0E06840F00103E0
:1004E00094E8070098471034AC42F6D3FFF78CFF2E
:1004F0001436000034360000202A04DB203A00FACB
:1005000002F1002070479140C2F1200320FA03F36A
:10051000194390407047202A04DB203A21FA02F068
:100520000021704721FA02F3D040C2F1200291402D
:1005300008431946704700002DE9F04700268CB0AB
:10054000DFF86091B0464FF4807501243746069677
:10055000284602F0D9F938B1D9F80403204203D073
:10056000284602F0C7F926432D1D64007F1CADB25A
:10057000082FEDD34FF4BE74204602F0C5F948B100
:10058000204602F0B7F946F0004606AA01210020F5
:1005900002F09CF9444D16F0FF0F15D001270024FE
:1005A00037420DD009EB8401D1F81005D1F81015B0
:1005B000C0F3042055F82420C1F3014102B1904753
:1005C0007F00641C082CEBD3002E67DA4FF0FF305D
:1005D000CDE9088000263446281910F8507F90F99C
:1005E000000027F0C008401C44D009A9404601F093
:1005F0006DFD58B34FEA9719404601F0D7F855F80A
:1006000020701FB1B9F1030F03D00FE0B9F1030F50
:1006100030D108A84FEAD80208F00703815C4FF0F8
:10062000010C0CFA03FC41EA0C0181544FF0A0418B
:1006300001EB8800D0F8000706A9C0F3014A404644
:1006400001F044FD18B1BAF1020F03D012E0BAF183
:10065000030F0FD1B9F1030F08D1BAF1020F1BD06C
:100660000221404602F016F9761CF6B217B149464F
:100670004046B847641C042CAED3002E0ED06A4608
:100680000121002002F022F906990098884205D045
:100690000690089809909DE70321E2E70CB0BDE8B9
:1006A000F0870000006000409402002000F01F026C
:1006B000012191404009800000F1E020C0F8801243
:1006C000704700F01F02012191404009800000F1B5
:1006D000E020C0F80011704700F01F020121914096
:1006E0004009800000F1E020C0F80012704749077F
:1006F000090E002806DA00F00F0000F1E02080F873
:10070000141D704700F1E02080F8001470470000CD
:100710002DE9F0414FF48077384601F0DFFC0124E9
:10072000104EA50748B1384601F0DFFC0120C5F89E
:1007300008037470002001F041F84FF482773846C6
:1007400001F0CCFC00280BD0384601F0CEFC022092
:10075000C5F80803B470BDE8F041012001F02EB8DF
:10076000BDE8F081800200200149024801F056BB3B
:10077000EC02002000C001400149024801F04EBBDC
:10078000F4020020001002400149024801F046BB7B
:10079000FC0200200020024007480021C0F8401160
:1007A000C0F84411C0F84811C0F84C11C0F800114D
:1007B000C0F8041102F088BC0010014002F000BC37
:1007C000F0B598480023021D01780125101D4FF057
:1007D0008056062907D11478240704D10478C4F37D
:1007E0000314032C02D0062904D00FE08F4F8E4C47
:1007F0007C670EE01478240708D10478C4F303144E
:10080000032C06D0042C04D0052C02D0062907D0D6
:100810000EE0D6F84442864FC4F342343C6002E016
:100820001478240704D10478C4F30314032C02D0F1
:10083000062906D011E07F4C276827F080772760D3
:100840000EE01478240708D10478C4F30314032CB1
:1008500006D0042C04D0052C02D006290AD011E0C1
:100860004FF08044C4F80C31C4F81031704C241F90
:10087000236002E01478240704D10478C4F303143D
:10088000032C02D0062905D00CE0694F03246437FD
:100890003C600AE01478240704D10478C4F30314FC
:1008A000032C02D006290DD014E0634F05243C60D0
:1008B000614C78342560604C083423603F243F1D30
:1008C0003C6002E01478240704D10478C4F30314D4
:1008D000052C02D0062957D068E058490968584AC3
:1008E00011605649091D0968121D116053490831EC
:1008F0000968121D116051490C310968121D1160FF
:100900004E4910310968121D11604C4914310968B3
:10091000121D1160494918310968494A2032116095
:1009200046491C310968121D11604449203109688B
:10093000121D1160414924310968121D11603F499F
:1009400028310968121D11603C492C310968121DBB
:1009500011603A4930310968394A403211603749EB
:1009600034310968121D1160344938310968121D8B
:10097000116032493C310968121D11602F49403124
:100980000968121D116002E0117809070ED1007884
:10099000C0F30310032803D0042801D0052805D193
:1009A000D6F85802274900F04F00086021487438F3
:1009B000016841F470010160BFF34F8FBFF36F8F87
:1009C0004FF01021D1F80002002803DBD1F8040217
:1009D000002822DA1C4A15601C480468002CFCD050
:1009E0001524C1F800420568002DFCD0C1F804426E
:1009F00001680029FCD0136001680029FCD0BFF316
:100A00004F8F0C48F0380168114A01F4E06111433E
:100A10000160BFF34F8F00BFFDE70F490D4808602D
:100A2000F0BD0000E00F00F00DF0ADBA00C00740CF
:100A30003C050040FCED00E01056004004040010AE
:100A400020C50040E40E004004E5014000E4014000
:100A50000400FA050090D003CC0000200448017F78
:100A600004480029024901D002F03FBC02F0AEBBAD
:100A700004030020002000400FB41CB50A46521E9B
:100A8000CDE9000207A9054B6A46069800F018F860
:100A9000009A002111701CBC5DF814FB230F0000AC
:100AA00002E008C8121F08C1002AFAD17047704737
:100AB000002001E001C1121F002AFBD17047000095
:100AC0002DE9FF4F8DB00F460546002606E025288C
:100AD0000BD0DDE90F1290476D1C761C287800289A
:100AE000F5D111B03046BDE8F08F0024A246A146F2
:100AF0000122EC4900E0044315F8013F203B02FAD3
:100B000003F00842F7D128782A2810D06FF02F027E
:100B10002878A0F13001092914D80AEB8A0102EBE8
:100B2000410144F0020400EB010A6D1CF0E701CF23
:100B30005FEA000A03D544F40054CAF1000A44F005
:100B400002046D1C28782E2817D115F8010F44F0E7
:100B500004042A280ED06FF02F022878A0F130016B
:100B600009290AD809EB890102EB410100EB0109CF
:100B70006D1CF2E757F8049B6D1C28786C280FD089
:100B800006DC4C2817D068280DD06A2814D104E060
:100B9000742810D07A280FD10DE044F400140AE034
:100BA00044F4801401E044F440146978814202D195
:100BB00004F580146D1C6D1C2A786E2A1FD00CDC85
:100BC000632A31D004DC002A8BD0582A11D1A3E04B
:100BD000642A68D0692A0CD165E0732A2ED004DC1F
:100BE0006F2A73D0702A04D19BE0752A6FD0782ABF
:100BF0006ED01046DDE90F129047761C50E1C4F329
:100C00000250022806D0032809D0042801CF09D0B9
:100C1000066045E101CFF117C0E9006140E101CF75
:100C200006803DE106703BE117F8040B8DF80000EB
:100C300000208DF80100EB46012003E057F804BBCB
:100C40004FF0FF3061074FF0000102D40DE008F1D2
:100C50000101884649450FDA8045F8DB1BF808108A
:100C60000029F4D108E008F1010188468142FADB4D
:100C70001BF808100029F6D1DDE90F23AAEB0800C4
:100C80008146214600F036F9304400EB080604E0C6
:100C9000DDE90F121BF8010B9047B8F10108F7D2FC
:100CA00021464846F7E00A21C4F302534FF0000BF7
:100CB0000891022B04D001CFC117032B09D00AE001
:100CC000FF1D27F00707F7E8020108E032E01FE008
:100CD00020E000B2C117042B01D140B2C117031E9E
:100CE00071F1000307DA4FF0000CD0EB0C006CEB55
:100CF00001012D2302E0230504D52B238DF8243098
:100D0000012303E0E30701D02023F7E7984658E0EA
:100D10000A2110E010210EE010204FF0000B089087
:100D20000CE010214FF0000B44F004044FF00809D0
:100D3000089103E008214FF0000B0891C4F302531F
:100D4000022B04D001CF0021032B06D006E0FF1DAB
:100D500027F00707F7E8020103E080B2042B00D177
:100D6000C0B24FF0000823072BD5702A07D0DDF85A
:100D700020C08CF0100C5CEA0B0C05D00EE0402378
:100D80008DF82430012308E050EA010306D0302317
:100D90008DF824308DF8252002239846DDF820C0F8
:100DA0008CF0080C5CEA0B0C0BD150EA010301D16A
:100DB000630706D530238DF824304FF00108A9F1E0
:100DC0000109582A04D038A20B9208AA0A920BE013
:100DD0003AA2F9E75B46089AFFF74BFB0B9B9B5C3B
:100DE0000A9A521E0A92137050EA0102F2D10A982E
:100DF000ADEB000000F1200B600702D524F4803435
:100E000001E04FF00109D94502DDA9EB0B0000E03C
:100E1000002000EB0B0141440890AAEB010AE0031B
:100E200006D4DDE90F232146504600F063F806445E
:100E30004FF0000908E009A911F80900DDE90F12D7
:100E4000904709F10109761CC145F4DBE0030CD59C
:100E5000DDE90F232146504600F04CF8064404E03B
:100E6000DDE90F1230209047761C0899481E089043
:100E70000029F5DC08E00A980A990078491C0A91D3
:100E8000DDE90F129047761CBBF10001ABF1010BBD
:100E9000F1DC21465046DDE90F2300F019F8064445
:100EA0006D1C1BE6092801003031323334353637EA
:100EB00038396162636465660000000030313233A6
:100EC0003435363738394142434445460000000046
:100ED0002DE9F041044600251E461746880404D437
:100EE00005E039462020B0476D1C641EF9D5284620
:100EF000BDE8F0812DE9F041044600251E469046EC
:100F0000C80301D5302700E02027880404D505E078
:100F100041463846B0476D1C641EF9D52846BDE8E9
:100F2000F0814A68002A06D00A68531C0B601070D2
:100F30004868401E48607047022000F0A1B90000D8
:100F400070B50024064D06E06868012110F83400F1
:100F500001F096F9641C28788442F5D3002070BD16
:100F600084000020F8B515460C460646052A01D235
:100F70000720F8BD01F06AFA18B901F039FA002823
:100F8000F7D1104900204E600C70C1E902500E4D9F
:100F900008610DE006EBC4006968009181788DF866
:100FA00001100078094A694601F0BCF90028E0D137
:100FB000641EE4B2EED2BDE8F840054A00210248C2
:100FC00000F052B884000020343500004D1D0000B0
:100FD000AD1C000070B514460D46064600F0A1F9A0
:100FE000224629463046BDE8704000F00BB80EB5E9
:100FF00000210091CDE901106A4644F20100FFF79B
:10100000E9FF0EBD08B501238DF800309DF80030D2
:10101000144B186059609A606FF48041401807D0F3
:1010200001280FD1DA60D86800889861D86807E095
:101030001A61186980685861186900889861186990
:101040004068D861186858689868D86818695869FD
:101050009869D86972B600BF9DF800000028FBD1DE
:1010600062B608BD44030020074B5B6823B12AB178
:1010700020B10068037C1BB108207047072070472F
:101080004174426100207047A80000202DE9F0471C
:10109000074698461446894690074FF0000526D12A
:1010A0002CB301F00DFF134E06F11000C6F80C80B2
:1010B0000570457080F802904460756035707570F9
:1010C0001420FFF7F3FA07211420FFF710FB142078
:1010D000FFF7F7FA0848076007211120FFF707FB21
:1010E0000548001F0068B0600020BDE8F0870720B9
:1010F000FBE7000098000020081501402DE9F843A7
:10110000DFF87090D9F804305BB350B3052902D2F0
:101110000720BDE8F88343691BB3437C012B22D031
:1011200000270446002588461646284600F036F873
:10113000684602F053F9C0B1012101700E494460C4
:101140000968C0E90218C0E904769DF8000089F832
:101150000100002000F024F81420FFF7BDFA284613
:10116000D7E70820D5E70F46DBE70425002000F08D
:1011700017F8F4E7A8000020041501400649496863
:1011800039B130B1416921B100210174022101F06E
:101190007BBF082070470000A800002000F002B8C4
:1011A00000F008B872B602480168491C0160704737
:1011B000B800002003490868401E086000D162B6EC
:1011C00070470000B80000202DE9F041064608688D
:1011D0000C46411C4FF0A0474FF0010506D005FA20
:1011E00000F1C7F80815206801F04AFB6068411C4F
:1011F00002D0002101F03BFB3079204901EB401087
:10120000A169007F00283068C0F8241525D0607DD2
:10121000227D31681043C1F86C05D4E900123068B2
:10122000C0F80C15C0F8142524E0A068411C02D0B9
:10123000002101F01CFBE068411C05D08540C7F887
:101240000855E06801F01CFBD4E902123068C0F8D0
:101250000825C0F81015BDE8F081607D217D326859
:101260000843C2F86C05D4E900123068C0F81425B0
:10127000C0F80C15207D0128D7D0ECE7040300202E
:1012800007490B5C4FF0A041D1F80425012098409C
:1012900020EA0203C1F808351040C1F80C05704778
:1012A000FC3400000249085C012101F004BB00008D
:1012B000FC3400000249085C002101F0FCBA000087
:1012C000FC3400000649095C4FF0A040D0F804054A
:1012D000C84010F0010000D0012080F001007047EC
:1012E000FC3400007CB50024084E25460122305D08
:1012F000009500231146019501F07AFA641C042C34
:10130000F4D3BDE87C4000F003B80000FC340000DA
:1013100010B500242046FFF7C5FF641C042CF9D348
:1013200010BD10B500242046FFF7C4FF641C042C38
:10133000F9D310BD10B50246064B4FF0FF30002127
:101340005C5C944201D1084610BD491C0429F7D3C6
:1013500010BD0000003500002DE9F0470D46814624
:10136000FFF7E8FF0446042838D2DFF878801C48ED
:101370001D4EA8F1100735B3012D0ED0022D2DD131
:1013800004EB440030444578002D27D0F96800294B
:1013900024D02846BDE8F047084704EB4401755CBB
:1013A0000E44717859B179680E4A01EB8101490008
:1013B0000E3A8068FFF7A2FE08B987F80290B1786C
:1013C00008F80410E0E78068FFF7D8FE04EB44015A
:1013D000314418F804008D78A842D5D0BDE8F087D4
:1013E000043500008000002054020020FFF7A8BD53
:1013F00070B50023042810D20D4D00EB4004012AE3
:1014000002D101290CD00022094E00EB40003044EB
:1014100061B1012906D0022906D00723184670BD04
:101420000E30C2B22A55F9E74270F7E78270F5E74D
:101430005402002070B586B0064614221949684649
:10144000FEF7FEFF184C00250E2E617806D00F2EF9
:1014500025D1042908D2491C617006E009B1491E52
:10146000FAE70420607000E065702078C00703D0C0
:101470000D48001D01F0B2F82078800703D50A4816
:101480000C3001F0ABF82078400703D50648143043
:1014900001F0A4F8257061785DF82100804706B05E
:1014A00070BD0000E8340000000000202DE9F0418C
:1014B00006461F4800240F464160C0E90262B0079B
:1014C0001FD50025012211462846FFF791FF6D1C0C
:1014D0000446042D02D2002CF4D012E08CB97A0814
:1014E00004211448FFF73EFD04000AD1FFF728FD50
:1014F000040006D10F48104A0021001FFFF7B4FD79
:101500000446F00701D0FFF7EDFE74B909480B4A15
:1015100000210C38FFF7A8FD040006D10548084A51
:1015200001210838FFF7A0FD04462046BDE8F08100
:10153000700000201035000041170000D11E00008F
:10154000390F00002DE9F047594C05460026607818
:1015500018B100206070FFF7DBFE0120554F4FF4FB
:101560007A694FF4C87A4FF06408182D2CD2DFE85E
:1015700005F0890C0C2C3A4751565A615A619B6907
:1015800069696969898C8F929B9B0020FFF79AFE9D
:1015900000284FF0000008D0FFF784FE022D02D192
:1015A0004FF4E16006E0484604E0FFF783FE022DB9
:1015B0002ED05046B0FBF8F1257060684143002200
:1015C0003868FFF79BFD064659E00020FFF77AFEDA
:1015D00028B10020FFF766FE4FF44870EAE70020CC
:1015E000FFF768FE14E00020FFF76CFE00284FF0C4
:1015F000000002D0FFF756FED5E7FFF75BFED8E705
:101600000020FFF75FFE0028E9D00020FFF74AFE28
:10161000C820CFE70020FFF733FE257007E0002049
:101620003FE025702BE060700120FFF729FE0022CB
:101630006168C5E760700120FFF722FE606800EB7B
:101640008001BCE77868FFF799FD0646D5F11100E7
:1016500000D01EB10220FFF725FE10E001280BD9B3
:10166000C82110FB01F1B1FBF8F160680022414391
:101670007868FFF743FD06460220FFF71BFE304661
:10168000BDE8F087FFF744FECBE7FFF741FEC6E772
:10169000FFF73EFE04E0FFF73BFE0020FFF70AFEE7
:1016A0000120FFF707FEBCE7FFF73BFEB9E70000AC
:1016B0007000002004350000002901DA0020704786
:1016C00002681144016001207047000070B5461C9B
:1016D0000D4601240020FFF761FD114A10682860C3
:1016E000D2E900109568081A2B1A701C5B1C9842EE
:1016F0000FD963B10B480C4B294000681B6802EB03
:10170000810163F39F20C8601068401C10600024B2
:1017100001E0881910600020FFF742FD204670BDEF
:10172000640400205C350000C8000020034803C8A2
:10173000814201D1012070470020704764040020DD
:1017400000780221FFF708BE05494FF0FF32082854
:1017500041F8202002D3084480F848207047000058
:1017600094020020F0B54FF0FF3512B10023082697
:1017700001E008230C260C4C05E000BF54F8237050
:101780007F1C04D05B1CB342F8D32846F0BD26185A
:101790005DB286F8305044F82310002AF5D1E118E4
:1017A00081F84800F1E70000940200200249084453
:1017B00090F93000704700009402002070B5084C8A
:1017C000050009D010342168002907D0086820607E
:1017D000496828468847F6E70834F4E770BD0000FA
:1017E000800200202DE9F05F26484168F1B3DFF860
:1017F00098B00E688146DBF8004087688078E11B6E
:1018000021F07F45ED1CB0B9DFF880804FF48030C7
:10181000C8F84403C8F804031120FEF747FF11205D
:10182000FEF74FFF4FF0010AC8F800A02F2000F08C
:1018300065FC89F802A0B54200D23546124BE81982
:101840003C3320F07F401860DBF800105A46091B3B
:1018500021F07F41001B20F07F40C91C81420FD93D
:10186000106818602F2000F049FC00E004E0BDE89B
:10187000F05F1120FEF730BFBDE8F05F01F020BB44
:10188000BDE8F09F980000200415014000100140C1
:10189000FFB5002301244FF0A0456E46CA5CFF2A25
:1018A00012D0D70922F0800246F8232004FA02F76A
:1018B00002D0C5F8087501E0C5F80C7505EB820289
:1018C0000327C2F8007703E04FF0FF3246F82320E9
:1018D0005B1CDBB2042BE1D3016832465FF00000F1
:1018E00001EB800452F82030C4F86035401CC0B2CF
:1018F0000428F5D3FFBD00000EB513A1032001F0AD
:101900000FFA164A07CA8DE80700154A69461548B6
:1019100000F0DCFD08B1FFF76AFB124A0223121F38
:1019200002F11C01107840F00100107000200880C6
:1019300048808880C8809070084901221039094881
:1019400000F014FE0EBD00004150503A494E464F83
:101950003A44656D6F20310D0A0000001C34000010
:10196000691900000400002070B5002822D1124837
:101970004FF0000200F11C0483785D0813F0010FA2
:1019800034F8151004D0C8390904090C06D006E053
:10199000C83189B242F21076B14200D3012224F854
:1019A0001510002A06D05B1CD9B28170082901D31A
:1019B0000021817070BD00000000002010B58CB0C7
:1019C0001EA1032001F0ACF9214C09AB04F11C006D
:1019D00007C883E80700002209A91E4800F076FD29
:1019E00008B1FFF704FB1B480DF1040C001F017840
:1019F00041F00101017004F128000FC88CE80F00CC
:101A00000021154B4FF4C8720846114489B223F8DF
:101A10001010401CC0B21928F7D338340DF1140C43
:101A200094E80F008CE80F0002200090012305AA23
:101A300001A9084800F01CFD0CB010BD4150503AFF
:101A4000494E464F3A44656D6F20320D0A00000042
:101A50000C34000004000020D000002010B588B035
:101A600012A1032001F05CF9154C04AB04F148000D
:101A700007C883E80700002204A9124800F026FDE9
:101A800008B1FFF7B4FA0F485434001F017841F051
:101A90000101017094E80F008DE80F00012303227B
:101AA0006946084800F062FD08B010BD4150503A48
:101AB000494E464F3A44656D6F20330D0A000000D1
:101AC0000C34000004000020F0B59BB054A10320AA
:101AD00001F026F9574E02AB06F16400FF2407C857
:101AE00083E8070091208DF808008DF809409220C6
:101AF0008DF80A0007208DF80D0047F61220ADF88A
:101B0000100001208DF812008DF80B40002202A970
:101B1000494800F0DBFC08B1FFF769FA464D05AF14
:101B20002D1F7036287840F00100287096E80F00CD
:101B300087E80F0004208DF80D00002041F2883660
:101B4000ADF810603D4A8DF8120001466423194437
:101B500089B222F8101002EB400C771A401CC0B278
:101B6000ACF864703228F2D38DF808408DF8094043
:101B700093208DF80A0030488DF80B40002202A90E
:101B8000083000F0A3FC08B1FFF731FA2878294E9D
:101B900040F00200803628700FCE09AF87E80F00B2
:101BA00096E80F000DAF103E87E80F008DF8084053
:101BB0008DF809408DF80A4094208DF80B001E48DE
:101BC000002202A9103000F081FC08B1FFF70FFAE3
:101BD0002878203640F0040028700FCE11AC84E83D
:101BE0000F0096E80F0015AC84E80F0002230122D5
:101BF00005A9114800F0BAFC0F48022401230DAAE0
:101C000009A90830009400F033FC0B48012315AA01
:101C100011A91030009400F02BFC1BB0F0BD0000A7
:101C20004150503A494E464F3A44656D6F20340D4D
:101C30000A0000000C340000040000200201002013
:101C400010B588B012A1032001F06AF8154C04AB5E
:101C500004F1400007C883E80700002204A91248E5
:101C600000F034FC08B1FFF7C2F90F484C34001FF4
:101C7000017841F00101017094E80F008DE80F0038
:101C8000022301226946084800F070FC08B010BD2C
:101C90004150503A494E464F3A44656D6F20350DDC
:101CA0000A0000008C340000040000202DE9F041FF
:101CB00000260125144C22E06068226900EBC6076B
:101CC000387805FA00F1114217D08A43226100F0FA
:101CD00085FB02463878E36805FA00F1194002FAFC
:101CE00000F3994209D17978012901D0012100E05E
:101CF000002151407A6802B19047761CF6B22078F4
:101D00008642D9D3BDE8F081840000200E4910B589
:101D10000A784C780023A24212D0521CD2B20A7028
:101D2000022A00D10B70084A0B78183252F823208F
:101D300002608868104420F07F408860012010BD58
:101D40000360002010BD0000980000202DE9F04144
:101D5000124E07460125BD403068FFF70FFA0028F4
:101D60000DD10F4C2069284207D1384600F036FBD0
:101D70000028E06805D0284304E0A8432061BDE8BE
:101D8000F081A843E060206928432061A1683068A1
:101D9000BDE8F0410022FFF7B1B900003435000082
:101DA0008400002070B50E460446007918494FF4AF
:101DB000A27501EB4010017F2068A1B14FF488713A
:101DC00001F024F84FF49071206801F01FF84FF4EF
:101DD0009271206801F01AF82946206801F016F87F
:101DE0000C49206809E04FF48E7100F0FEFF29468F
:101DF000206800F0FAFF08492068C0F80413206842
:101E000000F03BFA3146BDE8704000F01ABA00001D
:101E100004030020100302008000020070B50C468D
:101E20000546102100F0C7FF68B14FF488763146AF
:101E3000284600F0B5FF30B13146284600F0B5FF26
:101E40002168012088472021284600F0B4FF68B1AE
:101E50004FF48A763146284600F0A2FF30B1314671
:101E6000284600F0A2FF21680220884780212846EA
:101E700000F0A1FF68B14FF48E763146284600F09D
:101E80008FFF30B13146284600F08FFF21680020D7
:101E900088474FF482763146284600F081FF0028BB
:101EA0000AD03146284600F080FF012020712168C9
:101EB000BDE870400320084770BD0268134602E089
:101EC0008A4204D01268002AFAD10B600160704780
:101ED0000348017AC90702D00078FFF733BB704787
:101EE000700000202DE9F043264CA4F1100922785F
:101EF000D9F8048099F80350404694F801C0D9F805
:101F0000086031E002EB42036168521C01EBC3013F
:101F1000A378D2B2934200D100220B78022B02D0D8
:101F2000032B21D11DE003464F68194603E0B94257
:101F300003D00B46C969B9B1F9E7A9B18B4205D104
:101F4000C06918B9104E0125B56000260F68C9692F
:101F5000D96149B10B683B440B6005E00174C0696D
:101F600000E000210028F9D19445CBD1C9E9010650
:101F700089F80350404502D00120BDE8F0830020DD
:101F8000FBE70000A8000020001001402DE9F0410F
:101F90002A4F0446002607F11005D7F804803EE0DA
:101FA00002D02046E4691DE02878696800EB400211
:101FB000401CC0B201EBC2012870AA78904200D147
:101FC0002E700A784868012A2BD1027C4ABB8A68A5
:101FD0004260CA6882600A69C26049698161F978B1
:101FE00001B146604368BA68DFF854C0991A21F01D
:101FF0007F41614502D28268114406E0D11A8268AD
:1020000021F07F418A4202D9511A016000E0066046
:102010004660012186600174C66101F017F8002C4A
:10202000BED1287869788842BED17968414502D00E
:102030000120BDE8F0810020FBE7000098000020AF
:10204000FFFF7F0000F0A0F808B1FEF7D0FF0020EE
:1020500000F0BCF80023154A03211846FFF716F8D4
:1020600008B1FEF7C4FF124A40F6CD410220FFF747
:102070001DFA08B1FEF7BBFFFFF7B8F908B1FEF78C
:10208000B6FF002000F07AFE08B1FEF7B0FF09A10C
:10209000032000F045FEFFF72FFC20BF40BF20BF0C
:1020A00000F09CFD0028FBD1F7E70000CC010020E8
:1020B000351400004150503A494E464F3A50574D62
:1020C000206578616D706C650D0A0000C20800F033
:1020D00007030120895C98400840704700F1804068
:1020E0000068002800D00120704708B500F180404A
:1020F000002101600068009008BD000000283ED06B
:102100001F49204A096800BF00BF00BF00BF00BFD1
:1021100000BF00BF00BF91422FD000BF00BF00BF73
:1021200000BF00BF00BF00BF00BF00BF00BF00BFB7
:1021300000BF00BF00BF00BF00BF00BF00BF00BFA7
:1021400000BF00BF00BF00BF00BF00BF00BF00BF97
:1021500000BF00BF00BF00BF00BF00BF00BF00BF87
:1021600000BF00BF00BF00BF00BF00BF00BF00BF77
:1021700000BF00BF00BF00BF00BF0138C3D1704720
:10218000CC0000200024F40070B50E4C002520780F
:1021900008B1852513E00021A16061602161E16043
:1021A0004FF0E020D0F80001012610F0010F03D11C
:1021B0000721002000F045F80348066026702846F5
:1021C00070BD0000800200201805004070B5154D5C
:1021D0000446A87838B114B161680120884700200E
:1021E000FEF7DCFF15E00020FEF7D8FF24B10D4814
:1021F00021461030FFF761FEE86850B94FF4827055
:10220000FFF773FF02204107C1F8040306490120CC
:102210000860E868401CE860BDE870400020FEF7F8
:10222000BFBF0000800200200800004000F01F0235
:10223000012191404009800000F1E020C0F88011A8
:1022400070474907090E002806DA00F00F0202F174
:10225000E02282F8141D03E000F1E02282F800146D
:1022600000F01F02012191404009800000F1E020B0
:10227000C0F88012C0F800117047000B40B27047E0
:102280002DE9F0418846054600F0C6FD234E0028A2
:1022900028461AD0FFF78AFA304490F8480080099F
:1022A000032802D001280ED007E04FF0A040D0F85C
:1022B0001005E84010F0010F05D003212846BDE8C5
:1022C000F04100F0E7BA0221F8E700F0B1FD002884
:1022D00022D02846FFF76AFA04464FF4807000EBDC
:1022E00084000F4F81B207EB8400D0F8102542F034
:1022F0000102C0F81025084600F0FCFAB8F1000F02
:102300000AD02846FFF752FA56F82000002803D0DA
:102310000120A040C7F80403BDE8F081940200202A
:10232000006000402DE9FC41DFF8A480044608EB82
:102330000400002790F930001346C0170E46401CD9
:1023400001D0082741E0F27819462046FFF70AFA43
:102350000546401C38D0B07850B14FF0A04000EB9B
:102360008400D0F8001721F00201C0F8001707E040
:1023700000217378204600910A46019100F04AFA44
:10238000F078C0B11348317800EB8500D0F8102503
:10239000114B1A40C0F810254FF4F8524FF4403357
:1023A00002EA042203EA01410A43D0F810150A4365
:1023B000C0F8102509E008EB0500327810F8481F36
:1023C00041EA8211017000E004273846BDE8FC8133
:1023D0009402002000600040FFE0FCFF4FF0A041AD
:1023E000D1F81015C14011F0010000D00120704754
:1023F00070B5144D95F8540008B1082070BD002048
:10240000411E2A18401CC0B282F830102028F8D390
:1024100000242046FFF798F9641CE4B20C2CF8D392
:1024200007210620FFF70DFF4FF4BE7000F062FA9F
:1024300005494FF00040C1F80403012085F854001D
:10244000002070BD9402002000600040034890F816
:102450005400002800D001207047000094020020A2
:102460000121B1EB507F01D101207047002070475E
:102470002DE9F041904604460079134A1F4602EBCD
:10248000C0060A46069D0021206800F09AFC4246DC
:102490000121206800F095FC2068C0F81475E80759
:1024A00001D0102004E0A80701D5042000E000209E
:1024B0002168C1F80002EAB231462046BDE8F04189
:1024C000082300F05DBD0000EC0200202DE9F04182
:1024D0000D4604460079244901EBC006307910B15D
:1024E0000820BDE8F081294620463260FFF7D0F988
:1024F00020680127C0F8007520686B79AA792989BE
:10250000C0F80C35C0F80425C0F80815AA7AE87A96
:10251000216842EA0020C1F8100520680021C0F8B7
:1025200000122068C0F800134FF48E71206800F08C
:102530003CFC4FF48871206800F037FC4FF48A713E
:10254000206800F032FC4FF48271206800F02DFC0E
:10255000306828B120682979000B40B2FFF771FE7E
:1025600037710020BDE70000EC0200202DE9F041AA
:102570000F46044600791849164601EBC0081D466F
:102580003A460021206800F01CFC3A4601212068F0
:1025900000F017FC206806F0010101EB5602C0F8BC
:1025A0001425E80701D0102007E0A80704D509B1D9
:1025B000082002E0042000E000202268C2F80002A7
:1025C00009B10C2300E00823EAB241462046BDE8E9
:1025D000F04100F0D5BC0000EC02002010B50179FC
:1025E0000A4A012302EBC1020168090B49B201F05A
:1025F0001F04A3404909890001F1E021C1F880319D
:1026000000680021C0F80015117110BDEC02002017
:102610002DE9F04105460079164F904607EB40142E
:102620000E46E07E10B10820BDE8F081707F207773
:102630002846FEF7C9FD5FEA080060603169216045
:1026400003D0317F2846FFF7ADFB287907EB401018
:10265000007F0028286801D0082100E00421C0F88C
:1026600000150020E0752076A0750121E176A076A6
:10267000DAE70000040300202DE9F0470546007961
:102680003F4E904606EB40140F46207F18B1084697
:10269000FFF7E6FE30B1284600F074F820B11120B3
:1026A000BDE8F0871020FBE784F81680A7600027BC
:1026B000A78228794FF0010806EB40143E46207FA0
:1026C0000028286825D04FF49079494600F09EFBF9
:1026D0004FF4AC7A5146286800F098FB2868A17D39
:1026E000A268C0F84425C0F848152868C0F80880DA
:1026F0006068F0B94946286800F083FB804651467F
:10270000286800F07EFB58EA0001F3D058BBA7759B
:102710000FE04FF48E7A514600F067FB2868C0F84E
:1027200008802146286800F02BFD61684FF4807016
:1027300089B13046B4E75146286800F051FB10B922
:10274000A08A4845F7D1A08A484505D02146286887
:1027500000F016FD00E08146A08AA17D8842EAD300
:10276000A08A484501D10F26D1E75146286800F0DC
:1027700037FB0028F9D02868C0F80C80C7E70000B4
:10278000040300200079044901EB4010807D0028FB
:1027900000D00120704700000403002070B50446FB
:1027A00000791149002601EB401520682A7FC0F806
:1027B0000065686888B1207901EB4010007F00282F
:1027C000206801D0094901E008498C39C0F8081394
:1027D0002068FFF752FDFFF729FD204600F034FB8B
:1027E000EE766E6070BD000004030020100302004E
:1027F00070B541EA4201DDE904564FF0A04441EAD8
:10280000830141EA052104EB800041EA0641C0F85A
:10281000001770BD70B541EA4201DDE904564FF082
:10282000A04441EA830141EA052104EB800041EA2A
:102830000641C0F8001770BD70B541EA4201DDE9FC
:1028400004564FF0A04441EA830141EA052104EB1C
:10285000800041EA0641C0F8001770BD1CB5002198
:1028600000910B4601220191FFF7E6FF1CBD1CB54C
:1028700000220B46009211460192FFF7DDFF1CBDBE
:102880001CB5002100910B46012201911146FFF772
:10289000D3FF1CBD4FF0A04202EB8000D0F8002710
:1028A00022F44032C0F80027D0F8002742EA014164
:1028B000C0F80017704701224FF0A043824011B1C9
:1028C000C3F808257047C3F80C25704718B5084BA6
:1028D0006C4601441B68009306E000BF54F82030AA
:1028E000D3F81035401C08C28142F7D818BD00004B
:1028F00030350000034908B5084400210160006834
:10290000009008BD0060004002494058012800D0F6
:102910000020704700600040004870479129000087
:1029200030B5184C054689B0207828B160788542CA
:1029300002D1002009B030BD202213496846FDF7BE
:102940007FFD00208DF814000620009008200190E3
:1029500005200390072002904FF0EB700690094885
:10296000001DFFF71BFF0DB1002200E0074A0548DC
:102970006946001DFFF74CFE0028DBD101202070C6
:102980006570D6E7BC0000203C350000BD3100007A
:102990002DE9F04FC1B00D004FF0000140914D986E
:1029A0004B991C46174601EB000B01D00A2000E0B2
:1029B0000020804600F0C8FA00287CD16E46BCB9E1
:1029C000409840AA3118284600F0C0FB002872D079
:1029D0003846FDF747FDC22800D9C2200546409879
:1029E0002A4630443946FDF72BFD40982844409054
:1029F0004FF0200A409901EB080231320DEB01053E
:102A00000DEB0206002002E005F801AB401C40453A
:102A1000FAD300275C4508D305F801AB05F801ABF4
:102A200005F801AB06F801AB2DE04B98844202D2C9
:102A30004A98005D02E0211A4C98405C2B46814682
:102A400002460121880022FA00F000F00F00092858
:102A500001D9373000E03030C1F1010C491E03F8D4
:102A60000C00EFD29D1C05F801ABFDF7E5FC0168F9
:102A700011F8090010F03E0F01D0484600E02E206A
:102A800006F8010B641C7F1C102FC3D30D2030707F
:102A90000A20707085F800A040996846414443318F
:102AA000409100F057FA30B100F04EFA18B900200A
:102AB00040905C459ED341B02046BDE8F08F2DE9A3
:102AC000F043C7B000251C46904689464E9F459569
:102AD00000F03AFA00287AD1459805AE311845AA97
:102AE000484600F033FB002835D0072F27D2DFE817
:102AF00007F004121B35424F5D004046FDF7B2FC63
:102B0000054645982918FF2919D830442A464146D8
:102B1000FDF796FC13E045982368C0F580713044BA
:102B20004246FDF7A9FF09E06068009045982368D8
:102B3000C0F5807130444246FDF79EFF05462946A8
:102B400045A8FEF7B9FD459978B3B1F5807F3ED829
:102B500005A800F0FFF947B0BDE8F083D4E9010112
:102B6000CDE9000145982368C0F5807130444246A4
:102B7000FDF782FFE2E7201D07C88DE807004598B2
:102B80002368C0F5807130444246FDF775FFD5E7F4
:102B9000201D0FC88DE80F0045982368C0F580718F
:102BA00030444246FDF768FFC8E710E004F1080032
:102BB00001AD0FC885E80F00606800904598236854
:102BC000C0F5807130444246FDF756FFB6E700205D
:102BD000C1E7000000487047BF2A00002DE9F04F10
:102BE00087B0FEF7A3FD18B1002007B0BDE8F08F55
:102BF000454ED6E9014704EA070006EB8000A146EE
:102C0000641CC5680CE000BFC5F3891000EB95504B
:102C1000044404EA070006EB8000A146C568641C72
:102C2000A807F1D005F003004FF0000B022805D0F3
:102C3000AA0A01A8C5F38313002153E004EA0700A0
:102C400006EB800004F1010A0AEA0704C268381B97
:102C500080004FEA9558001DC5F38913804521D99E
:102C600029490C3138B106EB840400F0FF0CA8EBC5
:102C700000000C3404E00C46002108F0FF0C08466C
:102C8000C0B2CDE90210CDE9004CD6F81444C5F32A
:102C9000C2005946A047404511D108F103080AEB8C
:102CA00098042AE0002106EB84000C300090CDE966
:102CB00001810391C5F3C200D6F81444EAE760F33A
:102CC0008F1509EA070006EB8000C56016E000BF1B
:102CD00004EA070C06EB8C0C491CDCF80CC040F82D
:102CE00004CB641C9942F3D3C5F3C2000093D6F819
:102CF000105401AB5946A84700B17460FEF716FDA9
:102D000080F0010071E7000064040020034AFF2303
:102D1000936000231360536000F028B8640400201F
:102D20002DE9F8430F4F884604460025694628469A
:102D3000BE68FEF7CBFC002812D00B48002140688B
:102D400061F38200009964F3C50001EA060265F3AD
:102D5000891007EB820268F39F20491CD060009124
:102D6000BDE8F883640400205C350000024A02F5E7
:102D7000826203C2704700006404002070B50646FA
:102D80000020FFF7CDFD040008D1FFF7C5FD054683
:102D9000FFF720FF32462946FFF7B8FF204670BDF7
:102DA0004058002800D00120704708B5002242504A
:102DB0004058009008BDD0F80403084000D001201E
:102DC000704700EB41101368C0F820359188C0F8B7
:102DD00024159168C0F82815D168C0F82C157047E3
:102DE0004058002800D00120704708B5002242500A
:102DF0004058009008BDD0F80403084000D00120DE
:102E000070474058002800D00120704708B50022C4
:102E100042504058009008BD0449084490F93000E1
:102E2000082801DB01207047002070479402002031
:102E30000449084490F93000082801D20120704765
:102E4000002070479402002070B5034600791B49AA
:102E500001EB40101968027F4FF0FF30002AD1F8D3
:102E60000C25D1F81465D1F80855D1F8104504D0D7
:102E7000C1F80C05C1F8140503E0C1F81405C1F848
:102E80000C051968C1F80805C1F81005501C02D0DE
:102E90001046FFF7E3FC701C02D03046FFF7DEFC63
:102EA000601C02D02046FFF7D9FC681C04D02846DD
:102EB000BDE87040FFF7D2BC70BD000004030020E5
:102EC00070B5012670044FF0E0210025C1F88001A3
:102ED000084C4010C4F84803C4F8080366602F206B
:102EE000FFF70CF9A660044C2F20A560FFF706F948
:102EF000A57070BD001001409800002070B5054617
:102F0000C87D0C4600284FF4847128460AD0FFF78C
:102F10006CFFD5F81805627EE1688854607E401C1D
:102F2000607670BDFFF761FFD5F8180570BD1FB55D
:102F300001238DF800308DF808100192D0E90012BD
:102F4000684690471FBD00000148FFF71BBC00000A
:102F5000C000002070B50D460A460146012406480F
:102F6000FDF76EFAEAB204490448FFF785FB00B1A9
:102F70000024204670BD000064030020C000002033
:102F800070B5044602201D460871086870B18221A0
:102F9000500700D59221100701D541F02001D0063D
:102FA00001D521F080012068C0F800134FF4827130
:102FB0002068FFF7FAFE20680121415170BD000032
:102FC0002DE9F84F204C00256846D4E901B6FEF7FC
:102FD0009DFE8046FEF786FF0746A946B8F1000F22
:102FE00025D00023009ACC46606819E007680146A6
:102FF000974202D9BA1A026014E0C1F800C0D1F8B1
:103000000C80D21BC8693B448A46B8F1000F07D038
:10301000F71827F07F47C1E90178CAF81C500D4620
:103020000028E3D160602846FEF7B0FF04E02846A0
:10303000FEF7ACFF00B917B15846FEF7D3FB84F892
:103040000390BDE8F88F0000980000200D4B10B5EC
:10305000596831B102680C68A24204D8A21A0A6009
:10306000C161586010BD0B4603E00B46C969121BD5
:1030700021B10C689442F8D3A41A0C600260C161BB
:10308000D86110BD98000020F8B5064600240D4612
:103090002046FEF783F8684600F0A0F968B1057095
:1030A000084946609DF8000048700020FEF778F857
:1030B0001420FDF711FB2046F8BD04240020FEF784
:1030C0006FF8F8E7A80000202DE9F0411D4D6C686D
:1030D000002C35D01C4800270068A968B846401A63
:1030E00020F07F462068B04215D82246361A0744A1
:1030F000E469107C68B182F81080EB6833B1D2E9E2
:103100000501984728B1FDF772FF02E0D2E90510EA
:103110008847002CE6D129786878814206D1401C86
:10312000C0B26870022801D185F80180054869782D
:10313000183040F82170BDE8F0411420FDF7CCBAFA
:10314000BDE8F081980000200415014010B5144638
:1031500002004FF001000CD00846136806A24FF49D
:103160008071FDF789FC01462046BDE81040FEF75E
:10317000A3BA0021216010BD5B253038645D0000DA
:1031800070B50C4605464FF48E71FFF72EFEA18AEE
:10319000A068415CA08A401CA082C5F81C1570BDC7
:1031A0001FB500228DF800208DF80810816801916C
:1031B0008275D0E90012684690471FBD007801284B
:1031C00001D1014988707047BC0000202DE9FF47FC
:1031D0000C4605464FF40071FFF70DFE01274FF432
:1031E0000178002618B34FF4927949462846FFF734
:1031F000F7FDE0B149462846FFF7F7FDC5F808831B
:10320000A07E00B96F6002208DF80000D5F8800420
:10321000C5F880040390E07D8DF80800E068019017
:10322000E6752676D4E900126846904727E0042127
:103230002846FFF7E0FD10B34FF484712846FFF7EE
:10324000CFFDE0B121462846FFF758FEE07D617EC4
:10325000884214D1207E38B1617EE268E075206931
:10326000E0602676667607E0A07E00B96F60C5F85C
:103270000883E675617EE2682046FFF758FE4FF44A
:103280008E7841462846FFF7ABFD88B1A08AA17D24
:10329000884204D221462846FFF772FF08E04146E3
:1032A0002846FFF7A2FDA17D11B12046FFF778FF68
:1032B0004FF4A27841462846FFF792FD002812D02D
:1032C00041462846FFF791FDA07E00B12F60E07DCA
:1032D000002808D0E675617EE26804B02046BDE8AB
:1032E000F047FFF724BEBDE8FF872DE9FF410C46FC
:1032F0004FF4927705463946FFF783FD0026C0B1AB
:1033000039462846FFF782FD02208DF80000D5F8E7
:103310008004C5F880040390D5F83C058DF80800BA
:10332000E0680190E6752676D4E900126846904779
:1033300024E04FF4887739462846FFF762FDE8B16C
:1033400039462846FFF762FDD5F83C05C1B2E07D5D
:10335000884213D1207E60B1E268D5F8000220F0E7
:103360002000C5F80002207EE0752069E060267626
:1033700001E0E675E2682046FFF7D9FD4FF4A27739
:1033800039462846FFF73DFD68B139462846FFF724
:103390003DFDE07D38B1E675D5F83C05E268C1B287
:1033A0002046FFF7C4FD4FF4907631462846FFF7DC
:1033B00028FD00280FD031462846FFF727FDA07DC5
:1033C000002808D0D5F84C0504B0C1B22046BDE8AD
:1033D000F041FFF7E5BEBDE8FF8100000A4A10B5E5
:1033E00053789478591CC9B28C4200D100211478CA
:1033F0008C4201D1002010BD0170506803EB4301E5
:1034000000EBC10010BD0000A80000201C0000203F
:10341000040000000000000000000000919294935E
:103420000704000010270200919293940705000002
:1034300010270000D000002019000000010000004B
:10344000000000002400002006000000040000002E
:103450000000000091FFFFFF07070000A8610000C7
:103460003000002006000000000000000400000002
:103470000000000007000000000000003C000020E9
:103480000800000001000000000000000201002010
:103490006400000000000000000000004C0000205C
:1034A0000200000095000000000000004C00002019
:1034B00002000000310000000000000002010020B6
:1034C000640000000200000000000000919394924C
:1034D00007070000093D0200500000201000000016
:1034E0000000000000000000F9180000BD190000F5
:1034F0005D1A0000C91A0000411C000011121314CB
:103500000D0E0F1014020020340200206002002073
:103510000D000300591300000E00030059130000B2
:103520000F0003005913000010000300591300009E
:10353000000000502403002003000000FFFFFFFFF5
:10354000FFFFFFFFFFFFFFFFFFFFFFFF0000000087
:10355000000000000000D601070100002900000063
:103560000100000001000000010000000100000057
:103570000100000001000000010000000200000046
:103580000040404040404040404041414141414076
:10359000404040404040404040404040404040402B
:1035A00040050202020202020202020202020202BA
:1035B00002202020202020202020200202020202BF
:1035C0000202909090909090101010101010101017
:1035D0001010101010101010101010100202020223
:1035E0000202888888888888080808080808080867
:1035F0000808080808080808080808080202020263
:1036000040000000813500004F766572666C6F7770
:103610000D0A00003436000000000020D000000039
:10362000A00A000004370000D0000020B0270000EE
:10363000B00A00000000000000C0014000000000CF
:1036400000100240010000000020024002000000C3
:10365000000000000000000000000080000000806A
:1036600000000000008000000080000000800000DA
:10367000000000000080000000000080008000804A
:10368000000000000080000000000000000000803A
:1036900000000000000000000080000000000000AA
:1036A000000000800000000000000000000000009A
:1036B000000000000000000000000000000000000A
:1036C00000000000000000000000000000000000FA
:1036D00000000000000000000000000000000000EA
:1036E00000000000000000000000000000000000DA
:1036F000000000000020004000000000083600002C
:043700000090D00362
:0400000500000401F2
:00000001FF
