:020000040000FA
:1000000008210020150400001D0400001F0400004A
:10001000210400002304000025040000000000006B
:1000200000000000000000000000000027040000A5
:1000300029040000000000002B0400002D04000033
:100040002F0400002F040000890700002F04000087
:100050002F0400002F040000810400002F04000082
:1000600061070000750700002F0400002F04000046
:100070002F0400002F0400002F0400002F040000B4
:100080002F0400002F0400002F0400002F040000A4
:100090002F0400002F0400002F0400002F04000094
:1000A0002F0400002F0400002F0400002F04000084
:1000B0002F0400002F0400000000000000000000DA
:1000C0002F0400002F0400002F0400002F04000064
:1000D0002F0400002F0400002F0400002F04000054
:1000E0002F0400002F0400002F0400002F04000044
:1000F000000000002F0400000000000000000000CD
:1001000000000000000000000000000000000000EF
:1001100000000000000000000000000000000000DF
:1001200000000000000000000000000000000000CF
:1001300000000000000000000000000000000000BF
:10040000DFF80CD000F02AF800480047C10C0000CB
:10041000082100200648804706480047FEE7FEE71F
:10042000FEE7FEE7FEE7FEE7FEE7FEE7FEE7FEE7A4
:10043000390600000104000040EA01039B0703D0D5
:1004400009E008C9121F08C0042AFAD203E011F813
:10045000013B00F8013B521EF9D27047064C074D94
:1004600006E0E06840F0010394E807009847103484
:10047000AC42F6D3FFF7C8FF14190000341900008E
:100480002DE9F04F00258DB0DFF8A481A946059530
:100490004FF4807601242F460695304600F0D2FFB7
:1004A00038B1D8F80403204203D0304600F0C0FF32
:1004B0002543361D64007F1CB6B2082FEDD34FF4E0
:1004C000BE74204600F0BEFF48B1204600F0B0FFE9
:1004D00045F0004505AA0221002000F093FF554E8B
:1004E00015F0FF0F15D0012700242F420DD008EB87
:1004F0008401D1F81005D1F81015C0F3062056F884
:100500002420C1F3014102B190477F00641C082CF4
:10051000EBD3002D4DDA0020CDF82490411E4FF092
:10052000010A0DF1140B07ADCDF8289045F8201005
:10053000401C0228FAD300BF96F854704FF0000810
:1005400078B227F0C004401C33D007A9204600F041
:10055000FFFB00282DD04FEA9719204600F074FBCE
:1005600056F820701FB1B9F1030F03D00CE0B9F1B8
:10057000030F1ED109A8E10804F00702435C0AFA40
:1005800002FC43EA0C03435402A8029400F00AFF61
:10059000029900EB8100D0F8000705A9C0F30140E3
:1005A0000290204600F0D4FB0028029804D00228D4
:1005B00004D00DB0BDE8F08F0328FAD1B9F1030FD4
:1005C00008D1029802282CD00221204600F0BEFE5D
:1005D0004FF0010817B149462046B847B8F1000F5F
:1005E000E7D001AA0221002000F00CFF00205A46AB
:1005F0000DF1040152F8204051F82030A34212D0EE
:10060000002009AB51F8204042F8204053F8204028
:1006100045F82040401C0228F4D3B8F1000F8BD1DC
:10062000C7E70321D1E7401C0228E3D3C1E700005C
:10063000006000404000002030B54FF080500021A5
:10064000D0F830210124082A02D1D0F8343113B176
:10065000082A09D00BE04FF08042C2F80C11C2F812
:100660001011334A116005E0D0F8343113B1082A73
:1006700004D006E0304B2F4A1A6005E0D0F8343140
:1006800013B1082A04D006E02C4BFB221A6005E0C7
:10069000D0F8343113B1082A08D00EE090F858325F
:1006A0002748026863F30302026002E0D0F83401D5
:1006B00018B9244A4FF4007010602348026842F4CD
:1006C00070020260BFF34F8FBFF36F8F4FF01022A5
:1006D000D2F80002002803DBD2F80402002822DA54
:1006E0001A4B1C601A480468002CFCD01224C2F873
:1006F00000420568002DFCD0C2F804420268002ABE
:10070000FCD0196001680029FCD0BFF34F8F0E4860
:100710007C3801680F4A01F4E06111430160BFF3C6
:100720004F8F00BFFDE70D490B48086030BD00004A
:1007300038050040488103008C56004018F5004001
:10074000E40E00404096024088ED00E004E50140E0
:1007500000E401400400FA050090D00318000020D6
:1007600004220249024800F077BA000098000020F5
:100770000080004004220249024800F06DBA0000E7
:10078000A4000020009000400448017F0448002994
:10079000024901D001F02AB800F099BFB000002052
:1007A0000020004002E008C8121F08C1002AFAD148
:1007B00070477047002001E001C1121F002AFBD1E1
:1007C00070470000BFF34F8F05480168054A01F4E8
:1007D000E06111430160BFF34F8F00BFFDE70000F0
:1007E0000CED00E00400FA050EB500210091CDE902
:1007F00001106A4644F20100FFF7E4FF0EBD00005D
:1008000030B542680B4C1379E15C0120FF290ED012
:10081000FE290DD012684FF4A86505EB81015158EF
:10082000054A52F82320914202D1FF20E0540020D3
:1008300030BD00000D000020D000002003681B8B9D
:100840009BB253436422B3FBF2F292B2AFF3008047
:1008500070B50446006816460D4690F8212001EB5D
:10086000450100EB8101022A01D0082070BD4968D2
:10087000B14205D1C16909B36068007988471DE0BC
:100880002046FFF7BDFF08B1112070BD61680C4A1A
:10089000FE200979505432462946204600F068FE71
:1008A0002068C06950B16168064A0220097902EBEC
:1008B000410148550221606800F06AFC002070BDCB
:1008C0000D000020E40000202DE9F84F066889465D
:1008D000054601EB490896F821001F46934606EBB2
:1008E000880410B10820BDE8F88F4FF0000A2F48A7
:1008F000C4F804A0A772006800900A22296802EBDD
:100900008800085C40B100208DF801006946584617
:1009100000F0CCFA88B901E00120F5E746F828B0EC
:10092000584617B100F034FD01E000F061FD0026EB
:10093000A019083000F066FB08B10420D3E7761C4C
:10094000F6B2022EF4D3207A00F0AEFB607A00F00B
:10095000ABFB206837B100F065FA0646206800F06E
:1009600045FB05E000F042FB0646206800F05AFA1D
:1009700007464946686800F0FCFB0146207A32468B
:1009800000F070FB0221686800F0F3FB0146607A1A
:100990003A4600F067FB0120E0726968044A097971
:1009A00002EB410202F809A000209CE708190000B0
:1009B000E40000202DE9F0470025DFF86890076883
:1009C0000446A846626805EB450007EB80061379EC
:1009D00009EB430202F80580F17A71B10A2221681D
:1009E00002EB8000085CD8B10021306800F0C8FA42
:1009F000306800F0B3FAC6F804806D1C022DE1D314
:100A00006168094AFF2009795054606800F09CFB36
:100A1000606800F0DDFB022087F82100BDE8F08768
:100A20000121E2E7E40000200D0000202DE9F74F4E
:100A300084B00E00044607D0256895F8210028B13F
:100A4000082007B0BDE8F08F0B20FAE700F070FB3C
:100A500018B1852801D00420F3E700F01DFA20B971
:100A600000F0ECF908B10320EBE74E48DFF838A1BD
:100A7000002100784FF0010BC0F30310032821D0B0
:100A80008AF800B0FF2285F82020002091464FF020
:100A9000FF3C00BF00EB400705EB8703401CD97209
:100AA00083F8089083F80990C0B245F827C002285F
:100AB000F0D305F1200000F0A5FA30B1204600F097
:100AC000F1FCC8E78AF80010DCE7002756F8272079
:100AD000501C12D0F0193946037A2046FFF7F4FE75
:100AE0005FEA000804D0204600F0DCFC4046A8E79E
:100AF000002239462046FFF7ABFE7F1CFFB2022FD3
:100B0000E4D3002009224FF48053316901E0490801
:100B1000401C994201D39042F9D39AF8001009B1D0
:100B200000B90120214AD2E90112CDE901128DF864
:100B3000040060681E4A01A900790290606800F014
:100B40006BFB070004D0204600F0ACFC384678E789
:100B5000606831690068D0F810050E01C640AE61CA
:100B6000606800F0F1FACDF800B05F460423324629
:100B70000221606800F03AFB0221606800F001FB8E
:100B80000698E86160680B49074A0079521C41F8F1
:100B900020406168097902F8019085F821700020F1
:100BA0004FE70000E80F00F00C00002008190000DB
:100BB00019150000F000002000F002B800F008B89D
:100BC00072B602480168491C016070471400002099
:100BD00003490868401E086000D162B670470000F3
:100BE0001400002005494FF0FF32082841F820206A
:100BF00002D3084480F84C207047000040000020D9
:100C0000F0B54FF0FF3512B10023082601E00823AC
:100C100009260C4C05E000BF54F823707F1C04D05B
:100C20005B1CB342F8D32846F0BD26185DB286F8A7
:100C3000245044F82310002AF5D1E11881F84C0023
:100C4000F1E70000400000200249084490F9240028
:100C500070470000400000202DE9F84300251646AB
:100C6000884604462F4614E04FF4A07000EB850040
:100C70004FF480312258A9404AB1D4F804230A42E3
:100C800005D0275021580091D8E9002190476D1CCC
:100C9000EDB2B542E8D3BDE8F88300000121814000
:100CA00003484068014201D001207047002070478E
:100CB0000400002001218140080300D0012070477A
:100CC00086B014221F496846FFF7B6FB01208DF855
:100CD00009001C481C4A69460838FFF7A7FE08B1FE
:100CE000FFF782FD17480838FFF764FE174D002410
:100CF000274601E0142C02D204EB840604E0C4F180
:100D0000140000EB800664362F700E48B2B200214A
:100D10000838FFF793FD1128F7D028780028FCD079
:100D20000848B2B201210838FFF788FD08B1FFF783
:100D30005BFD46F2A81000F013F8641CE4B2282C06
:100D4000D5D2D7E7EC1800000D15000000000020F8
:100D5000C20800F007030120895C984008407047F2
:100D600000283ED01F49204A096800BF00BF00BFCD
:100D700000BF00BF00BF00BF00BF91422FD000BF27
:100D800000BF00BF00BF00BF00BF00BF00BF00BF6B
:100D900000BF00BF00BF00BF00BF00BF00BF00BF5B
:100DA00000BF00BF00BF00BF00BF00BF00BF00BF4B
:100DB00000BF00BF00BF00BF00BF00BF00BF00BF3B
:100DC00000BF00BF00BF00BF00BF00BF00BF00BF2B
:100DD00000BF00BF00BF00BF00BF00BF00BF0138A1
:100DE000C3D17047180000200024F4004907090E01
:100DF000002806DA00F00F0202F1E02282F8141D4A
:100E000003E000F1E02282F8001400F01F0201214B
:100E100091404009800000F1E020C0F88012C0F845
:100E20000011704710B5FFF70FFF602101EB800044
:100E30000149C0B2084410BD0060004070B5144DB7
:100E400095F8550008B1082070BD0020411E2A18F1
:100E5000401CC0B282F824103028F8D30024204669
:100E6000FFF7C0FE641CE4B2092CF8D3072106206A
:100E7000FFF7BCFF4FF4BE7000F0DAFA05494FF0FF
:100E80000040C1F80403012085F85500002070BD22
:100E90004000002000600040034890F85500002802
:100EA00000D0012070470000400000202DE9FC41E7
:100EB000044627480D462044002690F92410491C7A
:100EC00001D008263EE0A978002751B30122002175
:100ED0002046FFF795FE411C21D083001D482A784B
:100EE00018446978D0F81035DFF86CC003EA0C03B9
:100EF000C0F81035D0F810354FF4FE4C0CEA042C35
:100F000043EA0C034FF4403C0CEA02424FF4801CCD
:100F10000CEA01510A431343C0F8103504E00426DB
:100F200010E0FE2180F824106878012820460CD0BB
:100F300000F024FA01222046009700231146019771
:100F400000F0E2F93046BDE8FC8100F047FAF1E735
:100F50004000002000600040FF80ECFF064908448C
:100F600090F92400810005480844D0F8101541F09C
:100F70000301C0F8101570474000002000600040D9
:100F800001B10121064A104490F92400820005486D
:100F90001044D0F8102561F31452C0F810257047A2
:100FA000400000200060004010B5044600F06EFADA
:100FB00070B12046FFF748FEC0B2FFF713FE20468F
:100FC000FFF742FE074A002102EB8000C0F810152F
:100FD0000549FF20214481F824002046BDE8104047
:100FE00000F0ABB9006000404000002010B5FFF7F2
:100FF0002BFE302101EB80000149C0B2084410BD36
:10100000006000402DE9F0470427144E814600247B
:101010004FF001080020FFF7CFFD08FA04F5354234
:1010200003D02046FFF73AFE58B10020FFF7C6FD77
:1010300027B104F10104AE43E4B2EBD13846BDE878
:10104000F087074908FA04F000274A68104348600F
:1010500089F800403846FFF7B1FDEFE7FFFF0F00CA
:10106000040000202DE9F04114460D00074612D07F
:101070008CB10026FFF71EFE78B13846FFF70EFE52
:1010800068B1084800EBC700C0F81055C0F8144517
:101090003046BDE8F0810E20FBE70726F8E708267A
:1010A000F6E7000000F0014070B504460126002577
:1010B000A640FFF7FFFD18B12046FFF7EFFD18B17E
:1010C00002480660284670BD0825FBE708F5014088
:1010D00070B5044601260025A640FFF7EBFD18B1C8
:1010E0002046FFF7DBFD18B102480660284670BDB8
:1010F0000825FBE704F5014070B504460026FFF71C
:10110000D9FD78B108480125A54005600020FFF70A
:1011100053FD06484168A94341600020FFF74EFD9A
:10112000304670BD0726FBE708F5014004000020AB
:101130000448017809B18520704701210170002021
:10114000704700000400002000680121C160704762
:1011500030B54FF4803405688C4013B1C5F80443B2
:1011600001E0C5F80843006800EB8100C0F84025A5
:1011700030BD02684FF4A07000EB810080B21044D3
:10118000704702684FF480308840C2F80803704707
:1011900018B54FF4A07202EB8102036892B20024EA
:1011A0009C509A58009202684FF480308840C2F8F0
:1011B000040318BD0268012111610079034A00EBA4
:1011C000400002EB80000172704700009800002090
:1011D000016801220A600079034A00EB400002EB3B
:1011E000800002210172704798000020F0B404686A
:1011F000049E40F20115D4F800728D40AF43C4F84C
:1012000000720468D4F800521D43C4F800523346FB
:10121000F0BCFFF79DBF0000F8B504460D4600790D
:10122000204900EB400001EB8006307A08B108202D
:10123000F8BD3AB1326068687060002003464FF430
:10124000A07709E00720F8BD226807EB8001535022
:101250005158401CC0B2009161798142F4D8206895
:10126000E978000B40B2FFF7C1FD20686978D0F83B
:10127000042561F30102C0F804252068A978D0F89C
:10128000082561F30102C0F8082520682978D0F804
:10129000102561F30302C0F81025012030720020F0
:1012A000F8BD00009800002030B503460068012119
:1012B000000B40B200F01F0291404009800000F195
:1012C000E020C0F8801119684FF0FF30D1F80022FB
:1012D0000024C1F800421968C1F808031879094DC3
:1012E00000EB400005EB8000007A022802D118468E
:1012F000FFF760FF187900EB400005EB80000472F7
:1013000030BD0000980000202DE9FF411C46DDE9BA
:101310000A7815460E46684600F044F846EA45014C
:1013200041EA840141EA072242EA0841009A00EBBF
:101330008200C0F80017BDE8FF811CB500210091B4
:101340000B4601220191FFF7DFFF1CBD13B50C46D0
:10135000684600F027F8009900EB8101D1F80027DA
:1013600022F44032C1F80027009900EB8100D0F848
:10137000001741EA0441C0F800171CBD01B56846DA
:1013800000F010F8009A01219140C0F80C1508BD3A
:1013900001B5684600F014F8009A01219140C0F8A8
:1013A0000C1508BD0168202902D24FF0A0407047FB
:1013B00001F01F0101600148704700000003005068
:1013C0000168202902D24FF0A040704701F01F01B0
:1013D00001600148704700000003005001B56846F5
:1013E000FFF7E0FF009A01219140C0F8081508BD01
:1013F00001B56846FFF7E4FF009A01219140C0F86B
:10140000081508BD1CB5094C0144D4E90034CDE9E8
:1014100000346C4606E000BF54F82030D3F8103595
:10142000401C08C28142F7D81CBD00000019000012
:10143000034908B50844002101600068009008BD18
:101440000060004002494058012800D00020704749
:10145000006000404058002800D00120704708B5C7
:10146000002242504058009008BDD0F804030840C4
:1014700000D0012070474058002800D0012070475C
:1014800008B5002242504058009008BD0449084465
:1014900090F92400082801D20120704700207047ED
:1014A000400000202DE9F05F0668834696F8200092
:1014B000FFF722FE002505EB450800244FF0FF0A48
:1014C00006EB880707EB040999F80800FF2803D00A
:1014D000FFF712FE89F808A0641CE4B2022CF1D3D5
:1014E00056F82800411C05D0FFF75EFD4FF0FF3194
:1014F00046F8281000206D1CEDB2F872022DDAD3E8
:10150000DBF80400BDE8F05FFFF7CEBE0149012023
:1015100008707047000000202DE9F04113480D4687
:101520000127002400F10C0800EB4506305D28B1CE
:10153000305D401E3055305D70B10027641CE4B250
:10154000022CF3D3002F0ED058F82500022140685A
:10155000BDE8F041FFF715BE58F825000068C169E5
:1015600028468847EAE7BDE8F0810000E400002053
:101570002DE9F04788460546076801EB480007EB70
:101580008004164697F82000FFF78EFDDFF8B09034
:101590004FF0FF0A7EB1B869B04211D886B2207A06
:1015A000FFF782FD94F80900FFF792FD69680A7958
:1015B00009F802A040E0607AFFF776FD207AF3E7B1
:1015C0006268824228D03AB3B24225D9002303216F
:1015D0006868FFF7BDFDA07A0028206802D0FFF7F9
:1015E00021FC01E0FFF702FD824603216868FFF756
:1015F000C0FD014617F8200F5246FFF733FD38783B
:10160000FFF766FD69680A7909F8028068680D4984
:10161000007941F8206003E069680A7909F802A0BE
:101620000023324641466868FFF792FD207AFFF7B3
:101630004FFD607AFFF74CFD6660BDE8F087000063
:101640000D000020D000002070B50546C87D0C4676
:1016500000284FF4847128460AD0FFF700FFD5F820
:101660001805627EE1688854607E401C607670BD1B
:10167000FFF7F5FED5F8180570BD1FB501238DF8ED
:1016800000308DF808100192D0E9001268469047AA
:101690001FBD70B50C4605464FF48E71FFF7DFFE97
:1016A000A18AA068415CA08A401CA082C5F81C15D4
:1016B00070BD1FB500228DF800208DF808108168DC
:1016C00001918275D0E90012684690471FBD2DE94F
:1016D000FF470C4605464FF40071FFF7C6FE012791
:1016E0004FF40178002618B34FF492794946284602
:1016F000FFF7B0FEE0B149462846FFF7B0FEC5F857
:101700000883A07E00B96F6002208DF80000D5F834
:101710008004C5F880040390E07D8DF80800E0683F
:101720000190E6752676D4E900126846904727E0D6
:1017300004212846FFF799FE10B34FF48471284620
:10174000FFF788FEE0B121462846FFF77DFFE07DE8
:10175000617E884214D1207E38B1617EE268E075F6
:101760002069E0602676667607E0A07E00B96F60AB
:10177000C5F80883E675617EE2682046FFF77DFFC5
:101780004FF48E7841462846FFF764FE88B1A08A60
:10179000A17D884204D221462846FFF77AFF08E05F
:1017A00041462846FFF75BFEA17D11B12046FFF7B9
:1017B00080FF4FF4A27841462846FFF74BFE0028F1
:1017C00012D041462846FFF74AFEA07E00B12F60A6
:1017D000E07D002808D0E675617EE26804B020460E
:1017E000BDE8F047FFF749BFBDE8FF872DE9FF419E
:1017F0000C464FF4927705463946FFF73CFE00262B
:10180000C0B139462846FFF73BFE02208DF80000A4
:10181000D5F88004C5F880040390D5F83C058DF810
:101820000800E0680190E6752676D4E90012684663
:10183000904724E04FF4887739462846FFF71BFE8F
:10184000E8B139462846FFF71BFED5F83C05C1B282
:10185000E07D884213D1207E60B1E268D5F80002B5
:1018600020F02000C5F80002207EE0752069E060CD
:10187000267601E0E675E2682046FFF7FEFE4FF4AB
:10188000A27739462846FFF7F6FD68B13946284663
:10189000FFF7F6FDE07D38B1E675D5F83C05E26866
:1018A000C1B22046FFF7E9FE4FF490763146284654
:1018B000FFF7E1FD00280FD031462846FFF7E0FD95
:1018C000A07D002808D0D5F84C0504B0C1B2204650
:1018D000BDE8F041FFF7EDBEBDE8FF81009000409C
:1018E000010400001C000020DC1800000D000000B6
:1018F0000E0000000000000002000000881300003D
:101900000000005000030050030001000000000729
:101910000000000034190000000000201C0000003E
:10192000A4070000501900001C000020EC2000005B
:10193000B4070000000000000000000000000000EC
:101940000000000000000000000000000090D00334
:0400000500000401F2
:00000001FF
