:020000040000FA
:1000000038200020150400001D0400001F0400001B
:10001000210400002304000025040000000000006B
:1000200000000000000000000000000027040000A5
:1000300029040000000000002B0400002D04000033
:100040002F0400002F040000D10500002F04000041
:100050002F0400002F0400002F0400002F040000D4
:10006000850500002F0400002F0400002F0400006D
:100070002F0400002F0400002F0400002F040000B4
:100080002F0400002F0400002F0400002F040000A4
:100090002F0400002F0400002F0400002F04000094
:1000A0002F0400002F0400002F0400002F04000084
:1000B0002F0400002F0400000000000000000000DA
:1000C0002F0400002F0400002F0400002F04000064
:1000D0002F0400002F0400002F0400002F04000054
:1000E0002F0400002F0400002F0400002F04000044
:1000F000000000002F0400000000000000000000CD
:1001000000000000000000000000000000000000EF
:1001100000000000000000000000000000000000DF
:1001200000000000000000000000000000000000CF
:1001300000000000000000000000000000000000BF
:10040000DFF80CD000F018F800480047C5060000DF
:10041000382000200648804706480047FEE7FEE7F0
:10042000FEE7FEE7FEE7FEE7FEE7FEE7FEE7FEE7A4
:100430005D04000001040000064C074D06E0E06882
:1004400040F0010394E8070098471034AC42F6D31B
:10045000FFF7DAFFC40B0000E40B000030B54FF0EB
:1004600080500021D0F830210124082A02D1D0F890
:10047000343113B1082A09D00BE04FF08042C2F8A2
:100480000C11C2F81011334A116005E0D0F8343174
:1004900013B1082A04D006E0304B2F4A1A6005E059
:1004A000D0F8343113B1082A04D006E02C4BFB22DB
:1004B0001A6005E0D0F8343113B1082A08D00EE0F4
:1004C00090F858322748026863F30302026002E0A2
:1004D000D0F8340118B9244A4FF400701060234852
:1004E000026842F470020260BFF34F8FBFF36F8F58
:1004F0004FF01022D2F80002002803DBD2F80402E9
:10050000002822DA1A4B1C601A480468002CFCD020
:100510001224C2F800420568002DFCD0C2F8044243
:100520000268002AFCD0196001680029FCD0BFF3E2
:100530004F8F0E487C3801680F4A01F4E061114387
:100540000160BFF34F8F00BFFDE70D490B48086006
:1005500030BD000038050040488103008C56004043
:1005600018F50040E40E00404096024088ED00E09F
:1005700004E5014000E401400400FA050090D003C6
:10058000040000202DE9F84300250F4C04274FF408
:10059000A078BE034FEA050908EB850006FA05F1CD
:1005A00022585AB1D4F804230A4207D044F80090E4
:1005B0002158064A00915168126890476D1CEDB2AF
:1005C000BD42E9D3BDE8F883008000400800002068
:1005D0000448017F04480029024901D000F06DBAA7
:1005E00000F0DCB9140000200020004002E008C840
:1005F000121F08C1002AFAD170477047002001E09D
:1006000001C1121F002AFBD170470000BFF34F8FBA
:1006100005480168054A01F4E06111430160BFF338
:100620004F8F00BFFDE700000CED00E00400FA056D
:100630000EB500210091CDE901106A4644F2010097
:10064000FFF7E4FF0EBD0000094908B5085C009003
:10065000684600F013F9D0F80425009B0121994069
:1006600021EA0203C0F808351140C0F80C1508BD96
:10067000BC0B00000249085C012100F00DB900002C
:10068000BC0B00007CB50024084E25460122305DDD
:10069000009500231146019500F0D6F8641C042C47
:1006A000F4D3BDE87C4000F003B80000BC0B0000B0
:1006B00010B500242046FFF7DDFF641C042CF9D39D
:1006C00010BD00000EB5FFF7DDFF0F490F4AD1E95D
:1006D0000201CDE9010101A90B4800F06DF808B154
:1006E000FFF7A6FF08480068D0F81005084A002167
:1006F000C240012003460090034800F047F802483A
:1007000000F036F830BFFDE7AC0B000041090000F7
:1007100000127A004907090E002806DA00F00F02DD
:1007200002F1E02282F8141D03E000F1E02282F8D9
:10073000001400F01F02012191404009800000F1E7
:10074000E020C0F88012C0F80011704730B54FF4B7
:10075000803405688C4013B1C5F8044301E0C5F846
:100760000843006800EB8100C0F8402530BD000060
:10077000016801220A600079034A00EB400002EBA5
:10078000800002210172704708000020F0B4046864
:10079000049E40F20115D4F800728D40AF43C4F8B6
:1007A00000720468D4F800521D43C4F80052334666
:1007B000F0BCFFF7CBBF0000F8B504460D4600794A
:1007C000204900EB400001EB8006307A08B1082098
:1007D000F8BD3AB1326068687060002003464FF49B
:1007E000A07709E00720F8BD226807EB800153508D
:1007F0005158401CC0B2009161798142F4D8206800
:10080000E978000B40B2FFF785FF20686978D0F8DF
:10081000042561F30102C0F804252068A978D0F806
:10082000082561F30102C0F8082520682978D0F86E
:10083000102561F30302C0F810250120307200205A
:10084000F8BD0000080000202DE9FF411C46DDE94D
:100850000A7815460E46684600F010F846EA45014B
:1008600041EA840141EA072242EA0841009A00EB8A
:100870008200C0F80017BDE8FF8100000168202950
:1008800002D24FF0A040704701F01F010160014803
:10089000704700000003005038B5012400906846FE
:1008A00031B1FFF7EBFF00998C40C0F8084538BD27
:1008B000FFF7E4FF00998C40C0F80C4538BD405864
:1008C000002800D00120704708B50022425040584F
:1008D000009008BDD0F80403084000D00120704704
:1008E0004058002800D00120704708B5002242502F
:1008F0004058009008BD70B50546C87D0C460028DC
:100900004FF4847128460AD0FFF7DEFFD5F81805AA
:10091000627EE1688854607E401C607670BDFFF79F
:10092000D3FFD5F8180570BD1FB501238DF8003031
:100930008DF808100192D0E90012684690471FBD5B
:10094000064A0346116801F00300491C1160B3F523
:10095000A07F01D1FFF778BE7047000000000020A3
:1009600070B50C4605464FF48E71FFF7ADFFA18AB6
:10097000A068415CA08A401CA082C5F81C1570BD0F
:100980001FB500228DF800208DF8081081680191B4
:100990008275D0E90012684690471FBD2DE9FF47D8
:1009A0000C4605464FF40071FFF794FF01274FF402
:1009B0000178002618B34FF4927949462846FFF78C
:1009C0007EFFE0B149462846FFF77EFFC5F8088361
:1009D000A07E00B96F6002208DF80000D5F8800479
:1009E000C5F880040390E07D8DF80800E068019070
:1009F000E6752676D4E900126846904727E0042180
:100A00002846FFF767FF10B34FF484712846FFF7BD
:100A100056FFE0B121462846FFF76DFFE07D617E7D
:100A2000884214D1207E38B1617EE268E075206989
:100A3000E0602676667607E0A07E00B96F60C5F8B4
:100A40000883E675617EE2682046FFF76DFF4FF48C
:100A50008E7841462846FFF732FF88B1A08AA17DF3
:100A6000884204D221462846FFF77AFF08E0414633
:100A70002846FFF729FFA17D11B12046FFF780FF2F
:100A80004FF4A27841462846FFF719FF002812D0FC
:100A900041462846FFF718FFA07E00B12F60E07D99
:100AA000002808D0E675617EE26804B02046BDE803
:100AB000F047FFF739BFBDE8FF872DE9FF410C463E
:100AC0004FF4927705463946FFF70AFF0026C0B17A
:100AD00039462846FFF709FF02208DF80000D5F8B7
:100AE0008004C5F880040390D5F83C058DF8080013
:100AF000E0680190E6752676D4E9001268469047D2
:100B000024E04FF4887739462846FFF7E9FEE8B13C
:100B100039462846FFF7E9FED5F83C05C1B2E07D2D
:100B2000884213D1207E60B1E268D5F8000220F03F
:100B30002000C5F80002207EE0752069E06026767E
:100B400001E0E675E2682046FFF7EEFE4FF4A2777B
:100B500039462846FFF7C4FE68B139462846FFF7F4
:100B6000C4FEE07D38B1E675D5F83C05E268C1B257
:100B70002046FFF7D9FE4FF4907631462846FFF71E
:100B8000AFFE00280FD031462846FFF7AEFEA07D0D
:100B9000002808D0D5F84C0504B0C1B22046BDE805
:100BA000F041FFF7EDBEBDE8FF810000008000408E
:100BB0000004000000000307000000000D0E0F10ED
:100BC0000B0C1819E40B00000000002008000000C6
:100BD000EC050000EC0B00000800002030200000B5
:0C0BE000FC050000000000000090D003A5
:0400000500000401F2
:00000001FF
