:020000040000FA
:1000000030080020D5000000EF000000F1000000E3
:1000100000000000000000000000000000000000E0
:10002000000000000000000000000000F3000000DD
:100030000000000000000000F5000000F7000000D4
:10004000F9000000F900000015020000F9000000AE
:10005000F900000000000000F9000000F9000000B5
:10006000D1010000F9000000F9000000F9000000D3
:10007000F9000000F9000000F9000000F90000009C
:10008000F9000000F9000000F9000000F90000008C
:10009000F9000000F9000000F9000000F90000007C
:1000A000F9000000F900000000000000000000005E
:1000B0000000000000000000000000000000000040
:1000C0000348854600F022F8004800473503000049
:1000D000300800200321094802680A4302600848EA
:1000E00002680A4302600748804707480047FEE766
:1000F000FEE7FEE7FEE7FEE7FEE70000240500401E
:100100005405004031010000C1000000064C0125EB
:10011000064E05E0E36807CC2B430C3C98471034AF
:10012000B442F7D3FFF7D0FF2C0700004C070000C4
:1001300010B500F0DBF8002805D01F491D484860C5
:10014000C8131E4988611E48018CC9B201290BD110
:10015000828C120708D1028D1206120F042A03D1D5
:10016000828D1206120F0AD0012921D1818C090734
:100170001ED1018D0906090F0A2904D007E0114A92
:1001800001219160F5E7828D1206120F05D00D292D
:100190000ED1808D0006000F0AD10B48016801299D
:1001A00004D00A49016001680129FCD1C0214161E4
:1001B00010BD0000DFFF07C000050040006C0040DC
:1001C000C00F00F00006004000EC064075930000F0
:1001D000F8B50E4C04270025BE03A8003146A940FF
:1001E000FF3041302258002A0BD003221202A218FD
:1001F00052680A4205D000212150054A5168126810
:1002000090476D1CEDB2BD42E7D3F8BD00800040C1
:100210000800002010B50249024800F0E6F910BDC0
:10022000140000200020004002E008C8121F08C18E
:10023000002AFAD170477047002001E001C1121F67
:10024000002AFBD170470000BFF34F8F04490348D9
:10025000C860BFF34F8F00BFFDE700000400FA0540
:1002600000ED00E00EB50021029000916A46019178
:100270000148FFF7E9FF0EBD0140000005490B5C96
:1002800005494A6801209840034693438B6010401B
:10029000C8607047240700000005005010B50349EE
:1002A000085C012100F040F910BD000024070000A7
:1002B0007CB50024074E2546305D012200950023C1
:1002C0001146019500F01CF9641C042CF4D300F0D5
:1002D00003F87CBD2407000010B500242046FFF77A
:1002E000DDFF641C042CF9D310BD00001048018C04
:1002F000C9B2012917D1818C090714D1018D0906D2
:100300000A0F03D1828D1206120F0ED0090F012998
:1003100003D1828D1206120F07D0032903D1808DDD
:100320000006000F01D00020704701207047000038
:10033000C00F00F00EB5FFF7BBFF1149114A8868E6
:10034000C9680291019001A90D4800F08BF80028BE
:1003500001D0FFF787FF0A4805210068090240180D
:100360000069094A0021C240012003460090044868
:1003700000F060F8024800F04FF830BFFDE70000E1
:10038000140700009505000000127A008207D30EC2
:10039000FF229A408907090E10B5994000280BDA10
:1003A00003071B0F083B9C080C4BA400E318DC69F7
:1003B00094430C43DC6107E08408094BA400E41873
:1003C000236893430B432360C106C90E0120884074
:1003D000044908600449086010BD000000ED00E019
:1003E00000E400E080E200E000E100E070B50124FC
:1003F00024048C40032605683602AD19002B01D079
:100400006C6000E0AC6000688900081805210902F2
:100410004018026470BD0000016801220A60007982
:100420000C225043024A02218018017270470000DA
:1004300008000020F0B5FF25023504688D40FF3428
:10044000FF340234059E2768AF4327600468FF34F9
:10045000FF34023425681D4325603346FFF7C6FF8D
:10046000F0BD000070B504460D4600790C214843EC
:1004700022494618307A002801D0082070BD002A91
:1004800005D03260686870600020034608E00720ED
:1004900070BD8100FF31226841315350401CC0B211
:1004A00061798142F5D82068E978000B40B2FFF706
:1004B0006DFF05202168000209186A784B68D20791
:1004C0005B085B00D20F13434B602168AA780918C0
:1004D0008B6892079B089B00920F13438B602268E6
:1004E000297810180269090712091201090F0A4335
:1004F000026101203072002070BD00000800002061
:1005000070B552000A439900049D0A432902059ED2
:100510000A43310405240A432407800007210019F7
:1005200009024018026070BD012282400348002980
:1005300001D082607047C260704700000005005023
:100540004058002800D00120704703221202801872
:100550004068084000D00120704730B5FF220523D5
:10056000CD7D002409321B02C318002D84509869E8
:1005700005D04B7ECA68D054487E401C487630BDBA
:100580001FB501246B461C701972019206C868469B
:1005900090471FBD10B5064AFF3811688B07491CEC
:1005A0009B0F1160412802D11846FFF767FE10BD6E
:1005B00000000020FF221D32002383508B8A8A68AE
:1005C000D25C8B8A5B1C8B82052109024018C261B8
:1005D00070471FB500226B461A701972816801912D
:1005E000827506C8684690471FBDF0B50C460121CC
:1005F00085B005464902FFF7A8FF032109026F18DD
:100600000026002826D0FF2125312846FFF798FF35
:1006100000281FD0FF2025302E5081208000B86098
:10062000A07E002801D10120686002216846017087
:100630000920C0012918086808600390E17D684618
:100640000172E0680190E675267606CC6846083CA3
:1006500090472DE004212846FFF777FF002827D098
:10066000FF2109312846FFF76BFF002820D02146E3
:100670002846FFF772FFE07D617E884218D1207E18
:10068000002807D0617EE268E0752069E060267688
:1006900066760AE0A07E002801D1012068608120F2
:1006A0008000B860E675617EE2682046FFF768FF6B
:1006B000FF271D3739462846FFF742FF00280FD095
:1006C000A08AA17D884204D221462846FFF772FF06
:1006D00006E0EE51A17D002902D02046FFF779FF08
:1006E000FF27453739462846FFF72AFF00280ED056
:1006F000EE51A07E002801D001202860E07D002876
:1007000005D0E675617EE2682046FFF739FF05B047
:10071000F0BD000000800040000400000000030362
:100720000000000015161718111213144C070000D2
:10073000000000200800000028020000540700000C
:100740000800002028080000380200000000000017
:040750000024F4008D
:04000005000000C136
:00000001FF
