:020000040000FA
:10000000D0310020AD040000B5040000B7040000AA
:10001000B9040000BB040000BD04000000000000A3
:1000200000000000000000000000000015040000B7
:10003000C10400000000000051040000C5040000DD
:10004000B1060000C7040000E1090000C704000079
:10005000C7040000C70400003D050000C7040000FD
:10006000C7040000C7040000C7040000C704000064
:10007000C7040000C7040000C7040000C704000054
:10008000C704000009070000C7040000C7040000FF
:10009000C7040000C7040000C7040000C704000034
:1000A000C7040000C7040000C7040000C704000024
:1000B000C7040000C70400000000000000000000AA
:1000C000C7040000C7040000C7040000C704000004
:1000D000C7040000C7040000C704000000000000BF
:1000E0000000000000000000000000000000000010
:1000F0000000000000000000000000000000000000
:1001000000000000000000000000000000000000EF
:1001100000000000000000000000000000000000DF
:10040000DFF80CD000F088F8004800477D0B0000B2
:10041000D0310020244B19680868B0E8F04F80F311
:100420000988BFF36F8F4FF0000080F31188704789
:10043000000000000548006880F3088862B661B6D5
:10044000BFF34F8FBFF36F8F00DF0000000000008D
:10045000EFF30980BFF36F8F134B1A681EF0100F74
:1004600008BF20ED108A20E9F04F106008B44FF06B
:10047000200080F31188BFF34F8FBFF36F8F01F01F
:1004800079FA4FF0000080F3118808BC19680868F9
:10049000B0E8F04F1EF0100F08BFB0EC108A80F3E8
:1004A0000988BFF36F8F704714000020064880470B
:1004B00006480047FEE7FEE7FEE7FEE7FEE7FEE749
:1004C000FEE7FEE7FEE7FEE7450700000104000047
:1004D00040EA01039B0703D009E008C9121F08C0C6
:1004E000042AFAD203E011F8013B00F8013B521E46
:1004F000F9D27047D2B201E000F8012B491EFBD2BD
:1005000070470022F6E710B513460A46044619461E
:10051000FFF7F0FF204610BD064C074D06E0E068EF
:1005200040F0010394E8070098471034AC42F6D33A
:10053000FFF76AFF2C2200004C2200002DE9F04753
:1005400000268CB0DFF86091B0464FF4807501242E
:1005500037460696284600F027FC38B1D9F8040340
:10056000204203D0284600F015FC26432D1D6400D0
:100570007F1CADB2082FEDD34FF4BE74204600F0BF
:1005800013FC48B1204600F005FC46F0004606AAE0
:100590000121002000F0EAFB444D16F0FF0F15D0BA
:1005A0000127002437420DD009EB8401D1F8100552
:1005B000D1F81015C0F3042055F82420C1F30141EF
:1005C00002B190477F00641C082CEBD3002E67DA41
:1005D0004FF0FF30CDE9088000263446281910F886
:1005E000507F90F9000027F0C008401C44D009A9B2
:1005F000404600F007FB58B34FEA9719404600F019
:100600007BFA55F820701FB1B9F1030F03D00FE04A
:10061000B9F1030F30D108A84FEAD80208F0070358
:10062000815C4FF0010C0CFA03FC41EA0C0181548F
:100630004FF0A04101EB8800D0F8000706A9C0F3F5
:10064000014A404600F0DEFA18B1BAF1020F03D0B9
:1006500012E0BAF1030F0FD1B9F1030F08D1BAF1CB
:10066000020F1BD00221404600F064FB761CF6B25C
:1006700017B149464046B847641C042CAED3002E3F
:100680000ED06A460121002000F070FB0699009808
:10069000884205D00690089809909DE70321E2E77B
:1006A0000CB0BDE8F0870000006000405811002049
:1006B0002DE9F0414FF48077384600F0ABFA012481
:1006C000104EA50748B1384600F0ABFA0120C5F836
:1006D00008037470002000F017FA4FF48277384650
:1006E00000F098FA00280BD0384600F09AFA022061
:1006F000C5F80803B470BDE8F041012000F004BA69
:10070000BDE8F0814411002010B50C4C4FF480710D
:10071000204600F051FB4FF4A071204600F04CFB46
:10072000202080F3118801F0FBFB18B1044920045C
:10073000086040BF002080F3118810BD0010014008
:1007400004ED00E0F0B598480023021D0178012572
:10075000101D4FF08056062907D11478240704D1C4
:100760000478C4F30314032C02D0062904D00FE04C
:100770008F4F8E4C7C670EE01478240708D10478E4
:10078000C4F30314032C06D0042C04D0052C02D08F
:10079000062907D00EE0D6F84442864FC4F342340F
:1007A0003C6002E01478240704D10478C4F30314F5
:1007B000032C02D0062906D011E07F4C276827F0D1
:1007C000807727600EE01478240708D10478C4F3FA
:1007D0000314032C06D0042C04D0052C02D00629C7
:1007E0000AD011E04FF08044C4F80C31C4F8103145
:1007F000704C241F236002E01478240704D104788D
:10080000C4F30314032C02D0062905D00CE0694F71
:10081000032464373C600AE01478240704D1047888
:10082000C4F30314032C02D006290DD014E0634F47
:1008300005243C60614C78342560604C08342360AA
:100840003F243F1D3C6002E01478240704D1047863
:10085000C4F30314052C02D0062957D068E0584988
:100860000968584A11605649091D0968121D11602E
:10087000534908310968121D116051490C3109684A
:10088000121D11604E4910310968121D11604C494A
:1008900014310968121D1160494918310968494A23
:1008A0002032116046491C310968121D116044490B
:1008B00020310968121D1160414924310968121D57
:1008C00011603F4928310968121D11603C492C31E3
:1008D0000968121D11603A4930310968394A4032BD
:1008E0001160374934310968121D116034493831BB
:1008F0000968121D116032493C310968121D1160EE
:100900002F4940310968121D116002E01178090772
:100910000ED10078C0F30310032803D0042801D0BF
:10092000052805D1D6F85802274900F04F00086085
:1009300021487438016841F470010160BFF34F8FA2
:10094000BFF36F8F4FF01021D1F80002002803DBB6
:10095000D1F80402002822DA1C4A15601C480468F9
:10096000002CFCD01524C1F800420568002DFCD0F5
:10097000C1F8044201680029FCD013600168002915
:10098000FCD0BFF34F8F0C48F0380168114A01F4D6
:10099000E06111430160BFF34F8F00BFFDE70F49D6
:1009A0000D480860F0BD0000E00F00F00DF0ADBA9A
:1009B00000C007403C050040FCED00E01056004040
:1009C0000404001020C50040E40E004004E501408E
:1009D00000E401400400FA050090D0036800002004
:1009E0000448017F04480029024901D000F05EBD9F
:1009F00000F0CDBCB01100200020004002E008C88B
:100A0000121F08C1002AFAD170477047002001E088
:100A100001C1121F002AFBD170470000BFF34F8FA6
:100A200005480168054A01F4E06111430160BFF324
:100A30004F8F00BFFDE700000CED00E00400FA0559
:100A40000EB500210091CDE901106A4644F2010083
:100A5000FFF7E4FF0EBD00F003B800F009B8000096
:100A600072B602480168491C0160704764000020AA
:100A700003490868401E086000D162B67047000054
:100A80006400002007490B5C4FF0A041D1F8042519
:100A90000120984020EA0203C1F808351040C1F84F
:100AA0000C0570471C2200000249085C012100F07F
:100AB00052B900001C2200007CB50024084E2546D7
:100AC0000122305D009500231146019500F020F9C8
:100AD000641C042CF4D3BDE87C4000F003B8000093
:100AE0001C22000010B500242046FFF7DDFF641C27
:100AF000042CF9D310BD00000249084490F93000DD
:100B0000704700005811002070B5084C050009D04E
:100B100010342168002907D00868206049682846F9
:100B20008847F6E70834F4E770BD00004411002060
:100B300005490120096809B1002070470349096A85
:100B40000029F9D170470000E010002014000020B7
:100B50000268134602E08A4204D01268002AFAD1E1
:100B60000B60016070470020FFF78CFFC82000F089
:100B70000BFEF8E70120FFF785BF00001FB500F06E
:100B800059F808B1FFF75CFFFFF796FFFFF7AAFFE0
:100B90000221002400911348CDE9010423464FF4BB
:100BA000827211A11248039401F0E8F811480090F4
:100BB000002301224FF47A710FA001F0C7FA094D0A
:100BC000686001F0A7F902460094002301216868DB
:100BD00001F0FCFA0A48016841F00401016000F0EC
:100BE00091FEFEE7000000204C454430000000006C
:100BF000670B0000750B00004C45443100000000FD
:100C000010ED00E0C20800F007030120895C984065
:100C10000840704700F180400068002800D00120A3
:100C2000704708B500F18040002101600068009025
:100C300008BD000070B50E4C0025207808B1852550
:100C400013E00021A16061602161E1604FF0E020CC
:100C5000D0F80001012610F0010F03D10721002078
:100C600000F03AF8034806602670284670BD000080
:100C7000441100201805004070B5154D0446A878B1
:100C800038B114B16168012088470020FFF7E3FE06
:100C900015E00020FFF7DFFE24B10D48214610309B
:100CA000FFF756FFE86850B94FF48270FFF7B9FFBD
:100CB00002204107C1F80403064901200860E868E2
:100CC000401CE860BDE870400020FFF7C6BE000091
:100CD00044110020080000404907090E002806DAE8
:100CE00000F00F0202F1E02282F8141D03E000F18F
:100CF000E02282F8001400F01F0201219140400917
:100D0000800000F1E020C0F88012C0F800117047A8
:100D100070B541EA4201DDE904564FF0A04441EAD2
:100D2000830141EA052104EB800041EA0641C0F855
:100D3000001770BD4FF0A04202EB8000D0F80027F2
:100D400022F44032C0F80027D0F8002742EA0141DF
:100D5000C0F80017704701224FF0A043824011B144
:100D6000C3F808257047C3F80C25704718B5084B21
:100D70006C4601441B68009306E000BF54F8203025
:100D8000D3F81035401C08C28142F7D818BD0000C6
:100D900028220000034908B50844002101600068CA
:100DA000009008BD0060004002494058012800D072
:100DB000002070470060004008B5002242504058B3
:100DC000009008BD4058002800D00120704708B5A9
:100DD000002242504058009008BDD0F8040308405B
:100DE00000D0012070474058002800D001207047F3
:100DF00008B5002242504058009008BD70B50B4C19
:100E000005462068456020692168854205D2A06BAF
:100E1000BDE87040091D00F0E7BB606B091D00F0E4
:100E2000E3FBE06A854200D2E56270BD1400002059
:100E300010B500F0FDFB0E4C2068A0B90D4800F085
:100E4000C5FB0C48143000F0C1FB0A48E0601430C8
:100E5000206100221021202000F0D4FD206010B17C
:100E600005A100F061FCBDE8104000F0EBBB000004
:100E7000500000201C110020546D72510000000031
:100E800070B5124E124C1AE000F06CFD3068D0B113
:100E900001F004F900F0CCFBF068C568281D00F0F3
:100EA00083FBE068401EE0606068401E606000F008
:100EB000C9FB286B00F0D0FB284600F0CDFB606832
:100EC0000028E1D170BD01F0E9F8F8E7F410002046
:100ED0001400002030B4026C0B46002A0BD0C1680D
:100EE0001144C1604468A14201D30168C16030BCB3
:100EF0001846FFF7EDBA30BC704770B51646026C65
:100F00000446002582B1C6B1E068FFF7E1FAE16866
:100F1000206C091AE1602268914202D26168081AC5
:100F2000E060022E16D01AE02068C0B9606801F0B7
:100F300047F805460020606011E0A068FFF7C8FA96
:100F4000216CA0680844A0606168884207D32068CB
:100F5000A06004E0A06B10B1A06B401EA063A06B6A
:100F6000401CA063284670BD06480168C96A09B1E3
:100F700000207047044909680129F9D8C16A00694D
:100F8000081A7047140000207C1000200E4C4FF00F
:100F900080550E4EFFF774FF2068012805D9356093
:100FA00040BFBFF34F8FBFF36F8FFFF7DDFF022806
:100FB000F0D300F0D7FCFFF7D7FF022801D300F0F1
:100FC00069FB01F06BF8E5E77C10002004ED00E020
:100FD00070B5002441600B4D0061914206D8D11AD2
:100FE0008269914206D2011D286907E09A4203D224
:100FF000994201D3012403E0011DE86800F0F4FAEE
:10100000204670BD5000002030B589B0274D42E029
:101010000498002806DADDE90601059A904704984D
:10102000002838DB069C606910B1201D00F0BCFA76
:1010300002A800F099F8024604980A282BD2DFE8AB
:1010400000F00505052A1F2705052A1F0598A16937
:10105000034601442046FFF7BBFF01281BD1616A0C
:1010600020468847E069012815D1002000900598A6
:10107000A169002342181946204601F0A7F80AE0AA
:101080000598A061811813462046FFF7A1FF02E0F2
:10109000204600F0E1FA00231A4604A9286800F06F
:1010A000CFFC0028B4D109B030BD000050000020B2
:1010B0002DE9FC410F46054600F054FC01A800F064
:1010C00053F80446019818B100F0E8FFBDE8FC8130
:1010D0001B4E17BBA54220D800F0E0FFF068274662
:1010E000C068C468201D00F05FFAE069012810D1D3
:1010F000A0692B4641193A462046FFF769FF0128AF
:1011000007D100200346014600902A46204601F000
:101110005DF8616A20468847D8E7291B306800F0EF
:1011200017FB00F0BBFF0028D0D106494FF08050DC
:10113000086040BFBFF34F8FBFF36F8FC6E700005B
:101140005000002004ED00E00648416B096829B119
:10115000416BC968C9684968C16270474FF0FF3187
:10116000FAE700001400002070B5054600F0D2FE3A
:10117000064E0446B068844203D200F009F801200C
:1011800000E0002028602046B46070BD50000020C0
:10119000F8B5144D1EE0C068C4680668201D00F054
:1011A00003FA616A20468847E069012812D1A069E4
:1011B0003044B04206D924616060211DE86800F027
:1011C00013FA07E00020034601460090324620460D
:1011D00000F0FCFFE86801680029DCD12969C5E955
:1011E0000310F8BD50000020202080F31188FEE796
:1011F000074CE068016841B1C0680021D0F80000E8
:10120000FFF756FFFFF700FFF3E701210020F7E7A4
:101210005000002070B5044600F00AFA04F12405DD
:101220000AE0606A58B1284600F002FF08B100F0F9
:10123000D5FAA06C401EA064A06C0028F1DC4FF031
:10124000FF36A66400F0FEF900F0F2F904F1100593
:101250000AE0206958B1284600F0EAFE08B100F023
:10126000BDFA606C401E6064606C0028F1DC66644E
:10127000BDE8704000F0E6B970B5044600254007AF
:1012800004D004F00700C0F10800044400F06AFB39
:101290000A49486818B90A4820F0070048600A68F7
:1012A00040F6F8731019984204D2904202D94B6864
:1012B00008609D1800F0F2FE284670BD080000206E
:1012C000740000200449086818B10868C26B521CF9
:1012D000C2630868704700001400002010B5084C75
:1012E000031F24681C601B1F1960191F054B0B602E
:1012F00014390A60091F6FF0020244380A6010BDF9
:1013000024220000E911000070B50546C87D0C4696
:1013100000284FF4847128460AD0FFF758FDD5F80D
:101320001805627EE1688854607E401C607670BD5E
:10133000FFF74DFDD5F8180570BD1FB501238DF8D9
:1013400000308DF808100192D0E9001268469047ED
:101350001FBD70B50C4605464FF48E71FFF737FD83
:10136000A18AA068415CA08A401CA082C5F81C1517
:1013700070BD1FB500228DF800208DF8081081681F
:1013800001918275D0E90012684690471FBD2DE992
:10139000FF470C4605464FF40071FFF71EFD01277D
:1013A0004FF40178002618B34FF492794946284645
:1013B000FFF708FDE0B149462846FFF708FDC5F8EC
:1013C0000883A07E00B96F6002208DF80000D5F878
:1013D0008004C5F880040390E07D8DF80800E06883
:1013E0000190E6752676D4E900126846904727E01A
:1013F00004212846FFF7F1FC10B34FF4847128460E
:10140000FFF7E0FCE0B121462846FFF77DFFE07DD5
:10141000617E884214D1207E38B1617EE268E07539
:101420002069E0602676667607E0A07E00B96F60EE
:10143000C5F80883E675617EE2682046FFF77DFF08
:101440004FF48E7841462846FFF7BCFC88B1A08A4D
:10145000A17D884204D221462846FFF77AFF08E0A2
:1014600041462846FFF7B3FCA17D11B12046FFF7A6
:1014700080FF4FF4A27841462846FFF7A3FC0028DE
:1014800012D041462846FFF7A2FCA07E00B12F6093
:10149000E07D002808D0E675617EE26804B0204651
:1014A000BDE8F047FFF749BFBDE8FF872DE9FF41E1
:1014B0000C464FF4927705463946FFF794FC002618
:1014C000C0B139462846FFF793FC02208DF8000092
:1014D000D5F88004C5F880040390D5F83C058DF854
:1014E0000800E0680190E6752676D4E900126846A7
:1014F000904724E04FF4887739462846FFF773FC7D
:10150000E8B139462846FFF773FCD5F83C05C1B26F
:10151000E07D884213D1207E60B1E268D5F80002F8
:1015200020F02000C5F80002207EE0752069E06010
:10153000267601E0E675E2682046FFF7FEFE4FF4EE
:10154000A27739462846FFF74EFC68B1394628464F
:10155000FFF74EFCE07D38B1E675D5F83C05E26852
:10156000C1B22046FFF7E9FE4FF490763146284697
:10157000FFF739FC00280FD031462846FFF738FC2A
:10158000A07D002808D0D5F84C0504B0C1B2204693
:10159000BDE8F041FFF7EDBEBDE8FF81EFF311803C
:1015A000202181F311887047D0E9013201699A60E6
:1015B000D0E901235A604A68824201D182684A60B8
:1015C000002202610868401E0860704700F10801AF
:1015D0004FF0FF32C0E90112C160016100210160DA
:1015E000704700210161704730B50B685A1C02D06A
:1015F00000F1080202E0026904E02246546825680E
:101600009D42FAD953684B6099608A6051600861C5
:101610000168491C016030BD42684A6093688B6074
:1016200093685960916008610168491C01607047C6
:10163000202080F3118802480168491C016070472E
:101640001000002003490868401E086001D180F3A3
:1016500011887047100000207047000010B500206E
:10166000FFF70AFB09482021C0F808150121C0F83E
:101670000413816001600649E02081F800044FF006
:10168000E0214FF40030C1F8000110BD001001400E
:1016900011E000E02DE9F04104462148844200D9E0
:1016A000044672B61F4DD5F80465FFF741FA98B3AA
:1016B0003019012120F07F40C5F80813C5F8400516
:1016C0004FF4A0712846FFF777FB4FF48030C5F840
:1016D0000403BFF34F8F44B14FF0E02120BFD1F896
:1016E0000022D1F804321A43F8D0C5F80803D5F81F
:1016F00004754FF480712846FFF75EFB0120C5F8A2
:101700000403BE4201D907F18077B81BA04200D97B
:10171000204608B100F01EF962B6BDE8F081000075
:10172000FDFFFF000010014010B5084B002200BF74
:1017300053F832401CB1521C022AF9D310BD43F8B1
:10174000321003EBC201486010BD00006C10002095
:1017500070B50D460446FFF76BFF616C0020491C15
:1017600000D16064A16C491C00D1A064FFF76AFF3E
:10177000A06B20B9294604F1240000F05DF8204652
:10178000BDE87040FFF746BD70B5020018D000F00C
:10179000E9F8104C206985182068001DFFF704FF48
:1017A00038B9206890F82C10012088406169814385
:1017B00061612846FFF722FB00F070FC002808D189
:1017C00005494FF08050086040BFBFF34F8FBFF313
:1017D0006F8F70BD1400002004ED00E0014901206E
:1017E000086270471400002070B5114C0D46216846
:1017F0001831FFF7F9FE2068001DFFF7D5FE38B954
:10180000206890F82C100120884061698143616153
:10181000681C05D020692844BDE87040FFF7EEBA87
:101820002168BDE870400348091DFFF7F5BE0000C0
:10183000140000200811002070B50C4C0D462168E2
:101840001831FFF7E9FE2068001DFFF7ADFE38B93B
:10185000206890F82C100120884061698143616103
:1018600020692844BDE87040FFF7C8BA1400002082
:1018700070B5040039D01D4DE06A2968C96A8842F4
:1018800033D2A069002804DB2868C06AC0F10300D5
:10189000A061E16A164E01EB8101606906EB8101EE
:1018A00088421FD1201DFFF77FFE012150B9E06A59
:1018B00000EB800256F8222022B96A6901FA00F092
:1018C00082436A612868C06AE0626A6981401143A4
:1018D000696100EB800006EB8000211DBDE87040CF
:1018E000FFF79ABE2868C06AE06270BD140000204D
:1018F0007C10002002494A6A026009694160704711
:10190000140000201FB500240E480294CDE90040C9
:1019100023463C220CA10E48039400F02FFA012824
:101920000FD100F031FC01280BD1202080F3118869
:1019300004480121083881610461BDE81F4000F0BE
:101940003BB81FBD1C00002049444C45000000006E
:101950008D0F000002490A691044086170470000B9
:10196000140000200248016B491C0163704700000D
:10197000140000200E48016B11B101210162704773
:101980000021016241690B4AB1FA81F1C1F11F01E5
:1019900001EB810102EB810101F108034A68526801
:1019A0004A609A4201D152684A60D168016070472A
:1019B000140000207C1000200E49E02081F8140D56
:1019C000FFF74CFE0C49002008600C48016841F408
:1019D000700101600A48016841F040410160074818
:1019E0007838016841F010010160FEF723FDFFF730
:1019F000FBFB00000EE000E01000002088ED00E09E
:101A000034EF00E070B50E0005464FF0000413D02F
:101A100005FB06F0401C4C30FFF72EFC50B104468D
:101A200066B104F14C002060C4E90F560121204644
:101A300000F09AF8204670BD0020ECE72460F3E740
:101A40002DE9FF470027474E82B099468A46044653
:101A5000B8464FF0805500BFFFF7EAFDA06B68B3B2
:101A600051462046E768FFF735FAB9F1000F13D069
:101A7000E760606A50B104F1240000F0D9FA28B19F
:101A8000356040BFBFF34F8FBFF36F8FFFF7DAFDB5
:101A9000012006B0BDE8F087A06B401EA06320685F
:101AA00010B9FFF70FFC606020690028EED004F148
:101AB000100000F0BDFA0128E2D0E7E7049808B171
:101AC0001FB106E0FFF7BEFD1FE06846FFF712FFFB
:101AD0000127FFF7B7FDFFF745FFFFF7A9FD606C92
:101AE000401C01D1C4F84480A06C401C01D1C4F852
:101AF0004880FFF7A7FD04A9684600F01BF930B144
:101B00002046FFF787FB00F0C9FA0020C1E7FFF786
:101B10008FFDA06B38B1FFF795FD2046FFF77AFBEC
:101B200000F0BCFA98E7FFF78DFD206830B9FFF7A9
:101B30007FFD6068FFF79CFEFFF784FD04F1240041
:101B40000499FFF751FE2046FFF764FB00F0A6FA68
:101B5000002881D1356040BFBFF34F8FBFF36F8F37
:101B60007AE7000004ED00E070B50D460446FFF78B
:101B70005FFDD4E90F12206801FB020060600020C5
:101B8000A0632068A0600146E06B401E00FB0210CD
:101B9000E0604FF0FF306064A06404F110004DB1CC
:101BA000FFF714FD04F12400FFF710FDFFF74AFDD5
:101BB000012070BD21690029F8D000F039FA012810
:101BC000F4D104490007086040BFBFF34F8FBFF353
:101BD0006F8FEBE704ED00E02DE9FF4700273C4E57
:101BE00082B099468A460446B8464FF0805500BFF9
:101BF000FFF71EFDA06BE16B884206D3B9F1020F1F
:101C000003D00498E0B1F7B121E04A46514620469E
:101C1000FFF773F9616A31B104F1240000F008FAAA
:101C2000012801D006E028B1356040BFBFF34F8FD7
:101C3000BFF36F8FFFF706FD012006B0BDE8F08708
:101C4000FFF700FD1FE06846FFF754FE0127FFF78E
:101C5000F9FCFFF787FEFFF7EBFC606C401C01D13D
:101C6000C4F84480A06C401C01D1C4F84880FFF740
:101C7000E9FC04A9684600F05DF830B12046FFF7A2
:101C8000C9FA00F00BFA0020D7E7FFF7D1FCA06BF0
:101C9000E16B884214D1FFF7D5FC04F110000499E0
:101CA000FFF7A2FD2046FFF7B5FA00F0F7F900288C
:101CB0009ED1356040BFBFF34F8FBFF36F8F97E763
:101CC000FFF7C0FC2046FFF7A5FA00F0E7F98FE721
:101CD00004ED00E02DE9F0411F4616468846044613
:101CE000FFF75CFC0546A06BE16B884207D3022F2F
:101CF00005D00020E9B281F31188BDE8F0813A46B1
:101D000041462046FFF7F9F8A06C401C04D0A06CB7
:101D1000401CA0640120EDE7606A0028FAD004F1BD
:101D2000240000F085F90028F4D0002EF2D0012024
:101D30003060EFE770B50D460446FFF779FC0E4AB8
:101D400011692868431C0FD02368526A934202D05D
:101D500062688A420AD96268891A814206D2401AA8
:101D600028602046FFF7C6FD002400E00124FFF7AD
:101D700069FC204670BD0000140000202DE9FF5FC3
:101D80008A46DDE90F9091000E9F9B4615468846D6
:101D900010B90846FFF770FA060018D04820FFF780
:101DA0006BFA0400304610D0A52241462063FEF7AE
:101DB000A1FB6FF0030101EB8501206B3D46084458
:101DC00020F007085146002004E0FFF745FC4FF0E3
:101DD000FF3486E022180B5C82F834300A5C12B1C2
:101DE000401C0428F6D3002684F83760032D00D366
:101DF0000225E562C4E90E56201DFFF7F2FB04F14F
:101E00001800FFF7EEFB2461C5F103016462A161D4
:101E1000266484F844605A4640460099FFF75EFA0B
:101E20002060B9F1000F01D0C9F80040FFF700FCB5
:101E30002E4DE868401CE8602868DFF8B48010B1D7
:101E4000A86940B32CE02C60E868012828D100265E
:101E500006EB860108EB8100FFF7B8FB761C032E2A
:101E6000F6D323483C30FFF7B1FB21485030FFF751
:101E7000ADFB1F486430FFF7A9FB1D487830FFF722
:101E8000A5FB1B488C30FFF7A1FB19483C30686369
:101E90001430A86304E02868C06AB84200D82C60F7
:101EA000A86A0121401CA862E06A6A698140114366
:101EB000696100EB800108EB8100211DFFF7ACFB9D
:101EC0000124FFF7BFFBA86958B12868C06AB8426F
:101ED00007D208492007086040BFBFF34F8FBFF308
:101EE0006F8F04B02046BDE8F09F00001400002072
:101EF0007C10002004ED00E00548816919B1006BF9
:101F000018B1002070470120704702207047000080
:101F100014000020014800697047000014000020F0
:101F20002DE9F041244C0027206B40B1E069401CB2
:101F3000E061206A00B101273846BDE8F0812069E0
:101F4000401C2061266946B9606BA16B6163A06388
:101F5000606A401C6062FFF7F7F8E06A8642E8D3E7
:101F6000606B006838B1606BC068C568686886429D
:101F700004D2E062DDE74FF0FF30FAE7281DFFF7FB
:101F800013FBA86A18B105F11800FFF70DFBE96A09
:101F90000120626988401043606101EB81000749BC
:101FA00001EB8000291DFFF737FBE86A2168C96A49
:101FB0008842D5D30127D3E7140000207C100020ED
:101FC00070B504004FF000012BD0E06B401EE063C1
:101FD000A36BE26A9A4224D018BB201DFFF7E4FAF3
:101FE000114B124A012150B9E06A00EB800553F809
:101FF000255025B9556901FA00F085435561A06B5C
:10200000E062C0F10300A061E06A556981402943A4
:10201000516100EB800003EB8000211DFFF7FCFA0B
:102020000121084670BD00007C1000201400002033
:102030002DE9F041C068C46804F118000746FFF7B5
:10204000B3FA144D286B012660B11348394600BF1E
:10205000FFF7E2FAE06A2968C96A884213D90124C5
:102060002E6211E0201DFFF79FFAE16A6A6906FA05
:1020700001F01043686101EB81000749643901EB0D
:102080008000211DE4E70024FFF75EF82046BDE84C
:10209000F081000014000020E01000202DE9F0473E
:1020A0000027FFF7C5FA264C206B401E2063206BEB
:1020B00098BBE168234E012079B3A6F164098046FC
:1020C0003068E8B1F068C56805F11800FFF76CFAF0
:1020D000281DFFF769FAE96A626908FA01F01043FE
:1020E000606101EB810109EB8100291DFFF794FA82
:1020F000E86A2168C96A8842E2D3C4F82080DFE731
:10210000E06958B14546E06940B1FFF709FF00B109
:102110002562E069401EE061F5E70BE0206A0128D6
:1021200008D1094901270007086040BFBFF34F8F5E
:10213000BFF36F8FFFF786FA3846BDE8F0870000DF
:1021400014000020E010002004ED00E02DE9F0472D
:102150001E46DDF8209017460D00804612D028203C
:10216000FFF78AF804000AD0FEF762FEC4F8008088
:10217000C4E90657C4E90869201DFFF732FA204672
:10218000BDE8F0870024FAE71FB50024FEF750FEF3
:102190000A48006870B10949022200200092091D16
:1021A000CDE9011003460390502205A10648FFF730
:1021B000E5FD044604B0204610BD0000500000209C
:1021C000546D722053766300F11100002DE9FF4138
:1021D000114C1F460346266800200A9D002E0ED093
:1021E0008DE80E0006290FDAFFF786FE02284FF071
:1021F000000307D0002269462068FFF7EDFC04B019
:10220000BDE8F0812A46F6E700233A4669463046A3
:10221000FFF760FDF3E700005000002011121314D7
:102220000D0E0F1000000001000000504C220000B5
:10223000000000206C000000FC090000B822000033
:102240006C000020643100000C0A00000000000057
:10225000000000000000000000000000000000007E
:10226000000000000000000000000000000000006E
:10227000000000000000000000000000000000005E
:10228000000000000000000000000000FFFFFFFF52
:10229000000000000000000000000000000000003E
:1022A000000000000000000000000000000000002E
:0822B000000000000090D003C3
:0400000500000401F2
:00000001FF
