:020000040000FA
:10000000500D0020D5000000EF000000F1000000BE
:1000100000000000000000000000000000000000E0
:10002000000000000000000000000000F3000000DD
:100030000000000000000000F5000000F7000000D4
:10004000F9000000F9000000B1020000F900000012
:10005000F900000000000000F9000000F9000000B5
:10006000F9000000F9000000F9000000F9000000AC
:10007000F9000000F9000000F9000000F90000009C
:10008000F9000000F9000000F9000000F90000008C
:10009000F9000000F9000000F9000000F90000007C
:1000A000F9000000F900000000000000000000005E
:1000B0000000000000000000000000000000000040
:1000C0000348854600F070F800480047A509000085
:1000D000500D00200321094802680A4302600848C5
:1000E00002680A4302600748804707480047FEE766
:1000F000FEE7FEE7FEE7FEE7FEE70000240500401E
:100100005405004011020000C10000000048704783
:100110000C15000003460B439B0703D009E008C9F8
:10012000121F08C0042AFAD203E00B780370401CA7
:10013000491C521EF9D27047421C0178401C00290C
:10014000FBD1801A7047F0B51FB40646002082B07C
:1001500005464024019100901BE0019922460F467C
:10016000304600F043F8049A059B801A994110D359
:1001700010461946224600F029F8361A8F41019799
:10018000224601200021009F00F020F838184D4140
:1001900000902046641E0028DFDC019B0098294661
:1001A000324607B0F0BD0000064C0125064E05E0C2
:1001B000E36807CC2B430C3C98471034B442F7D388
:1001C000FFF782FF1C1500003C15000010B5202A27
:1001D00004DB0146203A9140002010BD91402023CD
:1001E0009C1A0346E3401943904010BD10B5202AE5
:1001F00004DB0846203AD040002110BD0B46D34016
:10020000D0402024A21A91400843194610BD000096
:1002100010B500F0A3FB002805D01F491D48486019
:10022000C8131E4988611E48018CC9B201290BD12F
:10023000828C120708D1028D1206120F042A03D1F4
:10024000828D1206120F0AD0012921D1818C090753
:100250001ED1018D0906090F0A2904D007E0114AB1
:1002600001219160F5E7828D1206120F05D00D294C
:100270000ED1808D0006000F0AD10B4801680129BC
:1002800004D00A49016001680129FCD1C021416103
:1002900010BD0000DFFF07C000050040006C0040FB
:1002A000C00F00F00006004000EC0640759300000F
:1002B00010B50249024801F031F810BD18000020C5
:1002C000002000400FB41CB50A46521E0192009057
:1002D00007A9064B6A46069800F026F8009A002106
:1002E00011701CBC08BC04B0184700009D0700003A
:1002F00030B47446641E2578641CAB4200D21D469F
:10030000635D5B00E31830BC184702E008C8121FA9
:1003100008C1002AFAD170477047002001E001C1EE
:10032000121F002AFBD17047FFB591B00F4605465A
:10033000002606E025280AD0149A139990476D1CD0
:10034000761C28780028F5D1304615B0F0BD002481
:1003500000940121F34A029400E004436D1C2B78C1
:100360000846203B98401042F7D128782A280ED022
:10037000022128780246303A092A15D8009A0A2321
:100380005A43303A80180C436D1C0090F1E701CFBE
:100390000090002805DA0120400304430098404201
:1003A0000090022004436D1C28782E2815D10420CB
:1003B000044368786D1C2A280AD101CF6D1C029075
:1003C0000BE002990A225143303940186D1C02900B
:1003D0002878014630390929F3D928786C2810D0BB
:1003E00006DC4C281AD068280ED06A2817D104E001
:1003F000742813D07A2812D110E00120400504435C
:100400000CE00121090501E0032109050C4369788D
:10041000814203D10120000524186D1C6D1C287831
:1004200003906E281ED00CDC632831D004DC002839
:100430008AD0582811D1B2E064287BD069280CD129
:1004400078E073282DD004DC6F2870D0702804D198
:10045000A7E075286CD078286BD0149A1399904730
:10046000761C62E06002400F022807D003280AD001
:10047000042838680AD006603F1D56E03868F11736
:1004800006604160F8E738680680F5E70670F3E734
:100490003878694608740020487404A80390012045
:1004A00003E0386803900020C0433F1D61070FD56B
:1004B000002101E00199491C029A0191914213DA4D
:1004C0008142F7DB019A0399895C0029F2D10BE0A4
:1004D000002101E00199491C01918142FADB019A56
:1004E0000399895C0029F5D101990098139A401A63
:1004F00000902146149B00F03BF9019980194618A1
:1005000007E0039803990078491C0391149A139902
:1005100090470198401E0190401CF2D12146149B47
:10052000139A009800F014F986196D1C09E741E050
:1005300033E034E00A200021049005916002410F6D
:10054000022905D001CFC2179446032905D007E040
:10055000FF1DFF08FF0003CF06E000B2C21794465C
:10056000042902D140B2C1178C460022614694454D
:1005700006DA0A460021404291418C462D2102E0D4
:10058000210504D52B216A461176012103E0E107FC
:1005900001D02021F7E7019154E00A200BE0102060
:1005A00009E0102004900021042004430820059154
:1005B000029003E008200021059104906002410FA1
:1005C000022905D001CF00229446032906D006E077
:1005D000FF1DFF08FF0003CF8C4603E080B2042913
:1005E00000D1C0B20021019121072BD503997029B8
:1005F00006D0049A1021059B4A401A4305D00EE00C
:1006000040216A461176012108E06146014306D087
:1006100030216A4611760399517602210191049A9C
:100620000821059B4A401A430CD16146014301D180
:10063000610707D530216A4611760121019102999F
:10064000491E02910399582904D037A103910FA99B
:100650000F910DE039A1F9E76146059B049AFFF778
:1006600072FD039B8C469B5C0F9A521E0F92137077
:1006700061460143F0D10F9807A9081A2030039072
:10068000600704D5012000048443029801E00120A2
:1006900002900399884201DD401A00E000204118D1
:1006A0000290019809180098401A0090E00306D4BF
:1006B0002146149B139A009800F05AF886190020DE
:1006C000049008E006A9085C149A139990470498CE
:1006D000401C761C049001998842F3DBE0030CD5A2
:1006E0002146149B139A009800F042F8861904E002
:1006F000149A302013999047761C0299481E029054
:100700000029F5DC08E00F980F990078491C0F913B
:10071000149A13999047761C0399481E0390002958
:10072000F1DCFBE60928010030313233343536374D
:10073000383961626364656600000000303132332D
:1007400034353637383941424344454600000000CD
:10075000F8B5044600251E461746880404D405E073
:1007600039462020B0476D1C641EF9D52846F8BDD7
:10077000FFB50446002581B01E46C80301D53027C9
:1007800000E02027880404D505E038460399B047E7
:100790006D1C641EF9D5284605B0F0BD4A68002AD4
:1007A00006D00A68531C0B6010704868401E4860F1
:1007B0007047000009A1012000F0BCFC00F002FC21
:1007C00000F006FC0028FBD1BFF34F8F0A4909480F
:1007D000C860BFF34F8F00BFFDE700004150505F7E
:1007E0004552524F523A4552524F523A4661746105
:1007F0006C0D0A000400FA0500ED00E00EB50021C2
:10080000029000916A4601910148FFF7D3FF0EBDA7
:100810000140000000B500F005F800BD00B500F093
:1008200009F800BD72B602480168491C01607047B2
:100830000000002003490868401E086000D162B62D
:100840007047000000000020F8B5074608680C4615
:100850000526411C01253602002906D02946814083
:1008600019488160206800F043FA6068411C02D09A
:10087000002100F034FA3968A06989194862607D66
:10088000217D3A6808439119C866386806CC8019FA
:100890004261C160207B083C012814D1A068411C42
:1008A00002D0002100F01BFAE068411C05D0854011
:1008B00005488560E06800F01BFA3A68E168921923
:1008C000A06891601061F8BD00050050002901DAB0
:1008D0000020704702685118016001207047000035
:1008E00070B5461C0D4601240020FFF793FF134A04
:1008F00010682860116850689368081A1D1A701CE7
:100900006D1CA84212D9002D0ED00D480D4C008848
:10091000246880051940800DA402890020438918AD
:10092000C8601068401C1060002401E08819106045
:100930000020FFF773FF204670BD00003401002047
:100940006414000010000020034803C8814201D154
:100950000120704700207047340100201048018CAE
:10096000C9B2012917D1818C090714D1018D09065B
:100970000A0F03D1828D1206120F0ED0090F012922
:1009800003D1828D1206120F07D0032903D1808D67
:100990000006000F01D000207047012070470000C2
:1009A000C00F00F008B500271B4C3846676000F008
:1009B0001DFC002801D0FFF721FF184D0126184922
:1009C0000E6028680028FCD02F60A0688005A06811
:1009D00001D5144A1043C217920F101880100090CE
:1009E0004E6011A10320009A00F0CAFB1849174875
:1009F0000968420100BF00BF00BF00BF00BF00BFC9
:100A000000BF00BF914200D000BF0138F2D100F01A
:100A1000DFFA0028FBD1D2E700C5004000C100404A
:100A200000C0004000FCFFFF4150503A494E464F85
:100A30003A41637475616C2074656D7065726174A0
:100A40007572653A2025640D0A00000020A1070098
:100A5000140000208207D30EFF229A408907090E56
:100A600010B5994000280BDA03071B0F083B9C08C0
:100A70000C4BA400E318DC6994430C43DC6107E0F1
:100A80008408094BA400E418236893430B432360B4
:100A9000C106C90E01208840044908600449086065
:100AA00010BD000000ED00E000E400E080E200E0A6
:100AB00000E100E0F8B506460F4600791C214843E6
:100AC0001A4915464418E07E002801D00820F8BDD8
:100AD00039463046FFF7B8FE656038692060284621
:100AE0000025002813D0FF223068397F1D32855041
:100AF000FF22306845328550032330681B020C4AC0
:100B0000C01842603068000B40B2FFF7A3FF052217
:100B100030680421120280180160E5752576A575FC
:100B20000121E1762846A576F8BD000018000020D6
:100B30008000020070B505460C4600791C21484330
:100B400008494318284600F055F8002801D0112024
:100B500070BD9A7500209C609882284600F004F8C9
:100B600070BD000018000020F8B5044600791C2173
:100B700048431F4900264518FF2720681D37C651E6
:100B80002068012181602946206800F0A3FB696884
:100B9000002913D027E0FF270137FF211D312068EE
:100BA00000F036FB002802D1A88AB842F5D1A88A05
:100BB000B84203D02946206800F08CFBA88AA97DA2
:100BC0008842E8D3A98AC81FF9380ED0FF271D37FD
:100BD0003946206800F01CFB0028F9D0206801216C
:100BE000C1600020A8753046F8BD0F26F9E7000067
:100BF0001800002000791C21484303494018807DDB
:100C0000002800D00120704718000020F8B50179B5
:100C10001C225143204A00238D180522016812022C
:100C200089180B60696800290CD00324016824022C
:100C30001A4B09198B600168C903CB0E0121994039
:100C4000174B19600522016812028A18D368566989
:100C5000976814690021C9435161D1600068052279
:100C60001202801881600161581C02D0184600F001
:100C70002DF8701C02D0304600F028F8601C02D01D
:100C8000204600F023F8781C02D0384600F01EF809
:100C90000020E8766860F8BD180000208402020099
:100CA00080E100E070B552000A439900049D0A43B8
:100CB0002902059E0A43310405240A4324078000C3
:100CC0000721001909024018026070BD1CB50021FF
:100CD00000910B4601220191FFF7E4FF1CBD1CB5FA
:100CE00000220B46009211460192FFF7DBFF1CBD6C
:100CF0001CB5002100910B46012201911146FFF71E
:100D0000D1FF1CBD00487047850D000030B5194C5F
:100D10000546207889B0002805D06078854202D148
:100D2000002009B030BD202213496846FFF7F2F9D0
:100D3000002069460875092000900B2001900820CA
:100D400003900A2002900D4806900A48001DFFF704
:100D50005DFF002D01D0002200E0094A05486946E8
:100D6000001DFFF7A7FE0028DBD101202070657071
:100D7000D6E70000040000204414000000E0D70182
:100D80000D130000F0B5C5B00C46002100914D9840
:100D90004B991E46081817460390002C01D00A20D4
:100DA00000E00020019000F05DFA00287ED104AD43
:100DB000002E17D100986A462918204600F070FAD4
:100DC000002875D03846FFF7B7F9C22800D9C220ED
:100DD00004460098224628183946FFF79BF90098E8
:100DE00000190090009901980A1804A8441831329B
:100DF0008518002003E020212170401C641C01990B
:100E00008842F8D300270398864207D32020207019
:100E10006070A0702870E41C6D1C2CE04B9886421A
:100E200002D24A98805D02E0311A4C98405C22461A
:100E30008446012102908B006046D8400007000FD5
:100E4000092801D9373000E0303001235B1AD05433
:100E5000491EF0D220209070D41CFFF757F901688A
:100E60000298085C8006C00E01D0029800E02E2097
:100E700028706D1C761C7F1C102FC4D30D20287089
:100E80000A206870202020700099019809184331C9
:100E900004A8009100F0EEF9002809D000F0E2F972
:100EA000002805D100900398864200E000E099D325
:100EB000304645B0F0BDFFB5C7B00025509F1C4679
:100EC000059500F0CFF9002875D1059806AE3118C8
:100ED00005AA489800F0E4F9002836D03846FF27E4
:100EE00001370300FFF704FA0705131B333F4B5785
:100EF00025004998FFF720F9059905464018FF2875
:100F000017D870182A464999FFF704F911E0059897
:100F10002368391A3018499AFFF7D4F908E0606855
:100F2000009005982368391A3018499AFFF7CAF9D2
:100F30000546294605A8FFF7C9FC059900283AD0BF
:100F4000B94238D806A800F095F94BB0F0BDA168B9
:100F500060680090019105982368391A3018499A01
:100F6000FFF7B0F9E4E7201D07C86B4607C30598F3
:100F70002368391A3018499AFFF7A4F9D8E7201DD9
:100F80000FC86D460FC505982368391A3018499A5D
:100F9000FFF798F9CCE7204608300FC801AD0FC520
:100FA0006068009005982368391A3018499AFFF74D
:100FB00089F9BDE7FFE70020C7E700000048704758
:100FC000B70E000010B50120FFF7A0FE10BD000015
:100FD000F0B595B0FFF7B8FC002802D0002015B09E
:100FE000F0BD4B48446886682146314089000918A5
:100FF0000C94CD680BE02904A80D890D4018041944
:1010000020463040810042480C940818C568641C92
:10101000A807F0D000200890A807800F3D4B0228B9
:1010200007D0AA0AA805000F84460EA996460020FC
:1010300059E02046304081003548641C0818C068DB
:10104000049486462804800D84463440301B80007A
:10105000AF0D001D874222D92D490C31002807D041
:101060002B4AA400A21814460C34C2B2381A03E06A
:101070000C460021FAB20846C0B2039001920291D8
:101080000094A8065C69400F634672460899A04721
:10109000B84213D1FF1C0498B9080C1830E01C4862
:1010A000A200101800210C300090029101970391CA
:1010B000A8065C69400F63467246E8E7164980055A
:1010C0000D40000C05430C98304081001048081872
:1010D000C56017E027463740BA000D4F401CD719AE
:1010E000FF68641C80C167466045F3D3A80600977B
:1010F0001D69400F0EAB72460899A847002801D021
:1011000003484460FFF720FC0121484067E70000E6
:1011100034010020340500203F00FFFF00B5044AE1
:10112000FF23936000231360536000F059F800BD63
:1011300034010020F8B5104D0E46074600206946E0
:10114000AC68FFF7CDFB002815D00C483C21808807
:1011500088437907890E08430F2189018843810557
:10116000890DB002014300980246224092005219B4
:10117000401CD1600090F8BD3401002064140000D0
:10118000F7B5154C82B00E46074601206946A568A2
:10119000FFF7A6FB00281CD010483C21008988439B
:1011A0007907890E08430F218901884340210843AC
:1011B0008105890DB0020143009802462A40920041
:1011C0001219D160401C0090284080000019049939
:1011D000C16005B0F0BD00003401002064140000BF
:1011E000014A5161106170473405002070B5064610
:1011F0000020FFF78BFD040008D1FFF783FD0546B3
:10120000FFF7DCFE32462946FFF788FF204670BD17
:101210004058002800D00120704703221202801895
:101220004068084000D00120704730B5FF220523F8
:10123000CD7D002409321B02C318002D845098690B
:1012400005D04B7ECA68D054487E401C487630BDDD
:101250001FB501246B461C701972019206C86846BE
:1012600090471FBD10B50248FFF7C4FC10BD000039
:101270000800002070B50D460A46014601240648C4
:10128000FEF748FFEAB204490448FFF753FC002880
:1012900000D00024204670BD34000020080000204B
:1012A00010B5144602460120002A0BD008461368E8
:1012B000FF2106A20131FFF705F801462046FFF79E
:1012C00005FB10BD0021216010BD00005B253038FA
:1012D000645D0000FF221D32002383508B8A8A68E0
:1012E000D25C8B8A5B1C8B82052109024018C2618B
:1012F00070471FB500226B461A7019728168019100
:10130000827506C8684690471FBD00000078012816
:1013100001D101498870704704000020F0B50C46E7
:10132000012185B005464902FFF777FF0321090235
:101330006F180026002826D0FF2125312846FFF708
:1013400067FF00281FD0FF2025302E50812080000D
:10135000B860A07E002801D10120686002216846A3
:1013600001700920C0012918086808600390E17D18
:1013700068460172E0680190E675267606CC6846FC
:10138000083C90472DE004212846FFF746FF00283F
:1013900027D0FF2109312846FFF73AFF002820D047
:1013A00021462846FFF741FFE07D617E884218D143
:1013B000207E002807D0617EE268E0752069E06049
:1013C000267666760AE0A07E002801D101206860BA
:1013D00081208000B860E675617EE2682046FFF7F4
:1013E00037FFFF271D3739462846FFF711FF002832
:1013F0000FD0A08AA17D884204D221462846FFF75B
:1014000069FF06E0EE51A17D002902D02046FFF7DA
:1014100070FFFF27453739462846FFF7F9FE0028B9
:101420000ED0EE51A07E002801D001202860E07D82
:10143000002805D0E675617EE2682046FFF708FFC8
:1014400005B0F0BDFFFFFFFFFFFFFFFFFFFFFFFF46
:10145000FFFFFFFF000000000000000000E0D701D8
:10146000030000002900000001000000010000004E
:101470000100000001000000010000000100000068
:101480000100000002000000004040404040404099
:101490004040414141414140404040404040404047
:1014A00040404040404040404005020202020202EB
:1014B000020202020202020202202020202020203A
:1014C000202020020202020202029090909090904E
:1014D000101010101010101010101010101010100C
:1014E0001010101002020202020288888888888880
:1014F000080808080808080808080808080808086C
:1015000008080808020202024000000089140000D6
:101510004F766572666C6F770D0A00003C1500000F
:1015200000000020180000000A030000541500000D
:1015300018000020380D00001A0300000000000011
:101540000000000000200040000000001015000016
:041550000024F4007F
:04000005000000C136
:00000001FF
