:020000040800F2
:10000000E0040020796F0F08A16C0F08A36C0F08A3
:10001000A56C0F08A76C0F08A96C0F080000000062
:10002000000000000000000000000000AB6C0F08A2
:10003000AD6C0F0800000000AF6C0F08B16C0F082A
:10004000B96F0F08BD6F0F08C16F0F08C56F0F089C
:10005000C96F0F08CD6F0F08D16F0F08B56C0F086F
:10006000D96F0F08DD6F0F08E16F0F08AD530F0850
:10007000E96F0F08ED6F0F08F16F0F08F56F0F08AC
:10008000F96F0F08FD6F0F0801700F0805700F085A
:1000900009700F080D700F0811700F0815700F0808
:1000A00019700F081D700F0821700F0825700F08B8
:1000B00029700F082D700F08E16C0F0835700F08BC
:1000C00039700F083D700F0841700F0845700F0818
:1000D00049700F084D700F0851700F0855700F08C8
:1000E00059700F085D700F0861700F0865700F0878
:1000F00069700F086D700F0871700F081B530F089F
:1001000079700F087D700F0881700F083F540F0839
:1001100089700F088D700F0891700F0895700F0887
:1001200099700F089D700F08A1700F08A5700F0837
:10013000A9700F08AD700F08B1700F08B5700F08E7
:10014000B9700F08BD700F08C1700F08C5700F0897
:10015000C9700F08CD700F08D1700F08D5700F0847
:10016000D9700F08DD700F08E1700F08E5700F08F7
:10017000E9700F08ED700F08F1700F08F5700F08A7
:10018000F9700F08FD700F08524946466E4F0F0078
:1001900057415645666D74201200000001000200B0
:1001A00080BB000000EE0200040010000000666149
:1001B000637404000000CFD30300646174613C4F9A
:1001C0000F00000000000000000000000000000020
:1001D000000000000000000000000000000000001F
:1001E000000000000000000000000000000000000F
:1001F00000000000000000000000000000000000FF
:1002000000000000000000000000000000000000EE
:10633000000000000100000001000000010000005A
:106340000100000001000000010000000100000049
:10635000000000000000000000000000000000003D
:10636000000000000000000000000000000000002D
:106370000100000001000000010001000100010017
:106380000100010001000100010000000000000008
:1063900000000000000000000000000000000000FD
:1063A00000000000000000000000000000000000ED
:1063B00000000000000000000000000000000000DD
:1063C00000000000000000000000000000000000CD
:1063D00000000000000000000000000000000000BD
:1063E00000000000000000000000000000000000AD
:1063F000000000000000000000000000000000009D
:10640000000000000000000000000000000000008C
:10641000000000000000000000000000000000007C
:10642000000000000000000000000000000000006C
:10643000000000000000000000000000000000005C
:10644000000000000000000000000000000000004C
:10645000000000000000000000000000000000003C
:10646000000000000000000000000000000000002C
:10647000000000000000000000000000000000001C
:10648000000000000000000000000000000000000C
:1064900000000000000000000000000000000000FC
:1064A00000000000000000000000000000000000EC
:1064B00000000000000000000000000000000000DC
:1064C00000000000000000000000000000000000CC
:1064D00000000000000000000000000000000000BC
:1064E00000000000000000000000000000000000AC
:1064F000000000000000000000000000000000009C
:10650000000000000000000000000000000000008B
:10651000000000000000000000000000000000007B
:10652000000000000000000000000000010000006A
:106530000100000001000000000000000000000059
:10654000000000000000000000000000000000004B
:10655000000000000000000000000000000000003B
:10656000000000000000000000000000000000002B
:10657000000000000000000000000000000000001B
:10658000000000000000000000000000000000000B
:1065900000000000000000000000000000000000FB
:1065A00000000000000000000000000000000000EB
:1065B00000000000000000000000000000000000DB
:1065C00000000000000000000000000000000000CB
:1065D00000000000000000000000000000000000BB
:1065E00000000000000000000000000000000000AB
:1065F000000000000000000000000000000000009B
:10660000000000000000000000000000000000008A
:10661000000000000000000000000000000000007A
:10662000000000000000000000000000000000006A
:10663000000000000000000000000000000000005A
:10664000000000000000000000000000000000004A
:10665000000000000000000000000000000000003A
:10666000000000000000000000000000000000002A
:106670000000000000000100000001000000010017
:106680000000010000000000000000000000000009
:1066900000000000000000000000000000000000FA
:1066A00000000000000000000000000000000000EA
:1066B00000000000000000000000000000000000DA
:1066C00000000000000000000000000000000000CA
:1066D00000000000000000000000000000000000BA
:1066E00000000000000000000000000000000000AA
:1066F000000000000000000000000000000000009A
:106700000000000000000000000000000000000089
:106710000000000000000000000000000000000079
:106720000000000000000000000000000000000069
:106730000000000000000000000000000000000059
:106740000000000000000000000000000000000049
:106750000000000000000000000000000000000039
:106760000000000000000000000000000000000029
:106770000000000000000000000000000000000019
:106780000000000000000000000000000000000009
:1067900000000000000000000000000000000000F9
:1067A00000000000000000000000000000000000E9
:1067B00000000000000000000000000000000000D9
:1067C00000000000000000000000000000000000C9
:1067D00000000000000000000000000000000000B9
:1067E00000000000000000000000000000000000A9
:1067F0000100000001000000010000000100000095
:106800000100000001000000000000000000000086
:1068100000000000000000000000FFFF0000FFFF7C
:106820000000FFFFFFFFFFFFFFFFFFFFFFFFFFFF76
:10683000FFFF00000000000000000000000000005A
:106840000000000000000100000001000000010045
:106850000000010000000000000000000000000037
:106860000000000000000000000000000000000028
:106870000000000000000000000000000000000018
:106880000000010000000100000001000100010003
:1068900001000100010001000100000000000000F3
:1068A00000000000000000000000000000000000E8
:1068B00000000000000000000000000000000000D8
:1068C00001000000010000000000000000000000C6
:1068D00000000000000000000000000000000000B8
:1068E00000000000000000000000000000000000A8
:1068F0000000000000000000000000000100000097
:106900000100000001000000010000000100000083
:106910000000000000000000000000000000000077
:106920000000000000000000000000000000000067
:106930000000000000000000000000000000000057
:106940000000010001000100010001000100010040
:106950000100010001000100010001000000010030
:106960000000010000000100000001000000000024
:106970000000000000000000000000000000010016
:106980000000010000000100000001000000010003
:1069900001000100010001000100010001000100EF
:1069A000010001000000010000000000FFFF0000E6
:1069B000FFFF0000000000000000FFFFFFFFFFFFDF
:1069C000FFFF0000000000000000000000000000C9
:1069D00000000000000001000100010001000000B3
:1069E0000000000000000000000000000000FFFFA9
:1069F0000000FFFF0000FFFFFFFFFFFFFFFFFFFFA3
:106A0000FFFF0000000000000000FFFF0000FFFF8C
:106A10000000FFFF0000FFFF0000FFFF0000FFFF7E
:106A200000000000000000000000FFFFFFFFFFFF6C
:106A3000FFFFFFFFFFFFFFFF0000FFFF0000FFFF62
:106A40000000FFFF00000000000000000000000048
:106A50000000000000000000000000000000000036
:106A60000100000001000000010001000100010020
:106A70000100010001000100010000000000000011
:106A80000000010001000100010000000000000002
:106A90000000000000000000000000000000FFFFF8
:106AA0000000FFFF0000FFFF0000FFFF0000FEFFEF
:106AB0000000FEFF0000FEFF0000FEFF0000FEFFE2
:106AC0000000FEFF0000FEFF0000FEFF0000FEFFD2
:106AD0000000FEFF0000FEFF0000FFFF0100FFFFBF
:106AE0000100FFFF0000FFFF0000000001000000A8
:106AF0000100000001000000010000000100000092
:106B0000010000000100FFFF0000FFFF0000000087
:106B10000100000001000000000000000000010072
:106B2000010001000100010001000100010001005D
:106B300001000000000000000000FFFF0000FFFF58
:106B40000000FDFFFEFFFDFFFEFFFEFFFFFFFEFF5B
:106B5000FFFFFDFFFEFFFDFFFEFFFDFFFEFFFEFF4F
:106B6000FFFFFEFFFFFFFCFFFDFFFCFFFDFFFEFF41
:106B70000000FEFF0000FDFFFEFFFDFFFEFFFEFF29
:106B8000FFFFFEFFFFFFFFFF0000FFFF0000FFFF12
:106B900000000100020001000200000001000000EE
:106BA0000100FFFF0000FFFF0000000001000000E7
:106BB0000100FFFF0000FFFF0000FFFF00000000DA
:106BC000010000000100FFFF0100FFFF01000100C4
:106BD000020001000200FEFFFFFFFEFFFFFF0100B9
:106BE000020001000200FEFFFFFFFEFFFFFFFEFFAD
:106BF000FFFF01000200010002000100010001008E
:106C00000100020002000200020001000100010078
:106C1000010002000200020002000000000000006B
:106C2000000000000000010001000100010002005E
:106C3000020002000200FEFFFFFFFEFFFFFFFDFF5C
:106C4000FFFFFDFFFFFFFCFFFEFFFCFFFEFFFCFF61
:106C5000FEFFFDFF0000FDFF0000F7FFFAFFF7FF5A
:106C6000FAFFFAFFFDFFFAFFFDFFF6FFF9FFF6FF5F
:106C7000F9FFFAFFFDFFFAFFFDFFF8FFF9FFF8FF4C
:106C8000F9FFF8FFF9FFFDFFFDFFFDFFFDFF00002D
:106C9000FFFF0000FFFF0100FFFF0100FFFF0200F8
:106CA0000000020000000100FEFF0100FEFF0300E3
:106CB00000000300000003000000020000000200CA
:106CC00000000500040005000400010002000100AE
:106CD00002000000030000000300FAFFFEFFFAFFBD
:106CE000FEFFFAFFFEFFFBFF0100FBFF0100FAFFC2
:106CF0000000FAFF0000F7FFFEFFF7FFFEFFFCFFBA
:106D00000200FCFF0200F9FFFEFFF9FFFEFFF8FFA3
:106D1000FDFFF8FFFDFFF8FFFDFFFFFF0200FFFF93
:106D20000200010004000100040006000800060043
:106D3000080002000400020004000500080005002D
:106D4000080005000800FEFF0200FEFF0200FDFF34
:106D50000300FDFF030002000A0002000A00FFFF1B
:106D60000900FFFF0900FDFF0800FDFF0800F9FF13
:106D70000500F9FF0500F9FF0500F7FF0400F7FF24
:106D80000400F5FF0100F5FF0100FBFF0600FBFF1B
:106D90000600F4FFFEFFF4FFFEFFFDFF0600FDFF0F
:106DA0000600FAFF0100FAFF0100FAFF0100FCFFF4
:106DB0000100FCFF0100FDFF0100FDFF0100FCFFE1
:106DC0000000FCFF0000F7FFFBFFF7FFFBFFFAFFEF
:106DD000FFFFFAFFFFFFFAFFFFFFFDFF0200FDFFCD
:106DE0000200FBFF0200FBFF0200FEFF0600FEFFA9
:106DF0000600FEFF0700FEFF0700F9FF0400F9FF91
:106E00000400F5FF0000F5FF0000F5FF00000000A2
:106E10000B0000000B00F4FF0000F4FF0000FCFF7B
:106E20000800FCFF0800FDFF0800FDFF0800FDFF53
:106E30000800FDFF0800F5FF0100F5FF0100F5FF68
:106E40000100FDFF0800FDFF0800F6FF0000F6FF4F
:106E50000000FAFF0400FAFF040004000E00040022
:106E60000E0000000A0000000A0000000A00FBFFFC
:106E70000400FBFF0400FBFF0400FBFF0400000014
:106E8000080000000800F7FFFFFFF7FFFFFFFEFF0D
:106E90000600FEFF0600F5FFFEFFF5FFFEFFF5FF13
:106EA000FEFFFAFF0400FAFF0400F5FF0100F5FF02
:106EB00001000500120005001200FDFF0B00FDFFA0
:106EC0000B000600150006001500F7FF0600F7FF8F
:106ED0000600F7FF0600F9FF0800F9FF08000200AE
:106EE000100002001000F6FF0200F6FF02000C0086
:106EF00014000C001400F9FFFFFFF9FFFFFFF9FF7A
:106F0000FFFF0E0010000E0010000B000A000B0027
:106F10000A000200FEFF0200FEFF0A0003000A0052
:106F200003000300FBFF0300FBFF0400FBFF040062
:106F3000FBFF0400FBFF0600FDFF0600FDFF0A004B
:106F400001000A0001000B0003000B000300FBFF1F
:106F5000F4FFFBFFF4FF12000B0012000B00060011
:106F6000FFFF0600FFFF0600FFFF09000100090008
:106F700001000F0006000F0006000A0000000A00D2
:106F800000000F0003000F0003000300F6FF0300E2
:106F9000F6FF0300F6FF0D0000000D0000000500E5
:106FA000F9FF0500F9FF0F0005000F000500FBFFCA
:106FB000F4FFFBFFF4FF0600020006000200FEFFE4
:106FC000FEFFFEFFFEFFFEFFFEFFF9FFFCFFF9FFE5
:106FD000FCFF010008000100080004000D0004008F
:106FE0000D00090013000900130009001400090036
:106FF00014000A0014000A0014000A001400000023
:107000000800000008000400090004000900060050
:107010000900060009000F000F000F000F00FAFF23
:10702000F8FFFAFFF8FFFAFFF8FF08000400080075
:1070300004000A0006000A000600FBFFF6FFFBFF43
:10704000F6FF05000000050000000400FEFF04003C
:10705000FEFFFDFFF6FFFDFFF6FFFDFFF6FF06005A
:10706000FEFF0600FEFF0A0001000A0001001400F6
:107070000900140009000500F7FF0500F7FF0A00EA
:10708000F9FF0A00F9FF16000300160003001600BE
:1070900003001B0008001B00080020000D0020005A
:1070A0000D00130002001300020011000200110085
:1070B00002000800FDFF0800FDFF0800FDFF0C00B6
:1070C00005000C000500F7FFF4FFF7FFF4FF0B00CD
:1070D0000C000B000C000300080003000800050072
:1070E0000C0005000C001600200016002000160001
:1070F000200013001E0013001E0003000F000300F9
:107100000F0003000F0003000F000C001A000C001A
:107110001A00FEFF0D00FEFF0D000E001F000E0006
:107120001F000E001F00FEFF1200FEFF1200F6FF00
:107130000D00F6FF0D00FDFF1800FDFF1800F0FF29
:107140000E00F0FF0E00F6FF1600F6FF1600F6FF29
:1071500016000800290008002900FFFF1F00FFFF9C
:107160001F00FBFF1800FBFF1800F6FF0F00F6FFE3
:107170000F00FEFF1200FEFF1200FAFF0900FAFFE7
:107180000900FAFF090007001100070011000500BF
:107190000A0005000A0008000A0008000A001100A1
:1071A0001200110012000400050004000500070091
:1071B0000B0007000B0007000B001B0023001B0047
:1071C000230017002100170021000600140006000C
:1071D00014000400140004001400ECFFFDFFECFF99
:1071E000FDFFECFFFDFFFBFF0A00FBFF0A000300B1
:1071F0000F0003000F000B0013000B001300090029
:107200000C0009000C0015001300150013001C00F1
:1072100016001C0016001C00160021001900210099
:107220001900090001000900010010000900100008
:1072300009000E000D000E000D00130018001300D1
:107240001800130018000A0017000A001700F2FFC8
:107250000700F2FF07000300200003002000F1FFF9
:107260001400F1FF1400F8FF2000F8FF2000EFFFEA
:107270001900EFFF1900EFFF19000C0035000C009A
:107280003500F5FF1B00F5FF1B001A003B001A003C
:107290003B00090024000900240007001C0007002F
:1072A0001C000F001F000F001F000F001F00F6FF43
:1072B0000000F6FF00000B0010000B001000F6FFAE
:1072C000F8FFF6FFF8FF0C000D000C000D00F3FFB7
:1072D000F3FFF3FFF3FFF3FFF3FFF1FFF1FFF1FF24
:1072E000F1FFECFFECFFECFFECFFF3FFF4FFF3FF2B
:1072F000F4FF06000700060007000A000B000A0062
:107300000B00F9FFFCFFF9FFFCFFF9FFFCFF0C008D
:107310000F000C000F00FAFFFEFFFAFFFEFF08004F
:107320000D0008000D00FFFF0500FFFF0500F8FF3E
:107330000000F8FF0000FEFF0700FEFF0700FEFF51
:10734000070004000E0004000E00FAFF0500FAFF1B
:107350000500D8FFE3FFD8FFE3FF0C0017000C0087
:107360001700E6FFF0FFE6FFF0FFE6FFF0FF090081
:10737000120009001200110019001100190012007A
:1073800019001200190007000D0007000D0005008C
:107390000A0005000A00F7FFFDFFF7FFFDFFF7FFFA
:1073A000FDFFF4FFFAFFF4FFFAFF24002A00240097
:1073B0002A0016001C0016001C0018001E001800F1
:1073C0001E0016001C0016001C000F0013000F000A
:1073D00013000F00130010001100100011001B001B
:1073E00017001B001700120009001200090011000D
:1073F0000200110002001000FAFF1000FAFF100056
:10740000FAFF2E0013002E001300250006002500B1
:10741000060039001700390017000D00EBFF0D00C2
:10742000EBFF1D00FDFF1D00FDFF27000C002700E6
:107430000C0027000C001000FBFF1000FBFF3300C6
:107440002500330025000B0004000B0004001B0086
:107450001B001B001B0005000B0005000B00F8FFC4
:107460000100F8FF0100F8FF01000600100006000F
:10747000100001000A0001000A00FBFF0000FBFFF2
:107480000000FDFFFEFFFDFFFEFFE9FFE3FFE9FF58
:10749000E3FFE9FFE3FFF6FFEAFFF6FFEAFF010083
:1074A000EFFF0100EFFF1300FBFF1300FBFF2900BC
:1074B0000D0029000D002200030022000300290016
:1074C000070029000700290007002000FDFF200019
:1074D000FDFF0D00E9FF0D00E9FF1C00F7FF1C0098
:1074E000F7FF26000000260000002500FDFF250014
:1074F000FDFF2F0003002F0003002F0003002800D2
:10750000F8FF2800F8FF1900E5FF1900E5FF070064
:10751000CFFF0700CFFF1A00DFFF1A00DFFF0A00CE
:10752000CEFF0A00CEFF0A00CEFF0D00D1FF0D00F6
:10753000D1FFFAFFC1FFFAFFC1FF2100EEFF2100DA
:10754000EEFF0D00E1FF0D00E1FFE5FFC2FFE5FFEB
:10755000C2FFE9FFD1FFE9FFD1FFE9FFD1FFDDFF66
:10756000D0FFDDFFD0FFEFFFEDFFEFFFEDFFD9FF15
:10757000E3FFD9FFE3FFE3FFF6FFE3FFF6FFDCFFE6
:10758000F7FFDCFFF7FFCBFFEDFFCBFFEDFFCBFFFE
:10759000EDFFD8FFFFFFD8FFFFFFEAFF1500EAFF6E
:1075A0001500DDFF0D00DDFF0D00000033000000C1
:1075B0003300F7FF2F00F7FF2F00F7FF2F00EFFF3B
:1075C0002A00EFFF2A00F6FF3700F6FF3700E1FF41
:1075D0002700E1FF2700CFFF1900CFFF1900DBFFD5
:1075E0002900DBFF2900CDFF1E00CDFF1E00CDFFCF
:1075F0001E00CDFF2000CDFF2000D0FF2000D0FFD7
:107600002000BDFF0B00BDFF0B00B9FF0000B9FF5C
:1076100000009FFFDEFF9FFFDEFFDEFF1400DEFFA6
:107620001400DEFF1400D2FFFDFFD2FFFDFFCAFFF2
:10763000E9FFCAFFE9FFC9FFDFFFC9FFDFFFD2FF94
:10764000DEFFD2FFDEFFD2FFD6FFD2FFD6FFD2FF92
:10765000D6FFC2FFC1FFC2FFC1FFCFFFC9FFCFFFEF
:10766000C9FFE2FFDAFFE2FFDAFFEEFFE4FFEEFF21
:10767000E4FFECFFE1FFECFFE1FFFEFFF1FFFEFFA7
:10768000F1FFFEFFF1FFE8FFDAFFE8FFDAFFE1FFBD
:10769000D0FFE1FFD0FFF6FFE0FFF6FFE0FFFBFFCA
:1076A000E1FFFBFFE1FF0B00ECFF0B00ECFF230011
:1076B000000023000000230000001300ECFF130073
:1076C000ECFF1600EEFF1600EEFFF6FFCFFFF6FF11
:1076D000CFFFEDFFC9FFEDFFC9FFEEFFCFFFEEFFCC
:1076E000CFFFEEFFCFFFE5FFCEFFE5FFCEFFE9FFC7
:1076F000DAFFE9FFDAFFE6FFE0FFE6FFE0FFC2FFA7
:10770000C3FFC2FFC3FFE3FFEBFFE3FFEBFFD0FFCD
:10771000DCFFD0FFDCFFD0FFDCFFE0FFECFFE0FF91
:10772000ECFFF9FF0300F9FF0300D2FFD7FFD2FF00
:10773000D7FF0A0007000A000700D1FFC6FFD1FFEC
:10774000C6FFD1FFC6FFF0FFDCFFF0FFDCFF01004A
:10775000E5FF0100E5FF0F00EDFF0F00EDFF1A0050
:10776000F3FF1A00F3FF0400DAFF0400DAFFFCFF66
:10777000D3FFFCFFD3FFFCFFD3FF0200DAFF0200C0
:10778000DAFF0B00E6FF0B00E6FF0200E1FF02005C
:10779000E1FF0200E5FF0200E5FF0E00F4FF0E002E
:1077A000F4FF0600EEFF0600EEFF0600EEFF2800E5
:1077B0001100280011003D0026003D002600FDFFBD
:1077C000E5FFFDFFE5FF1300FAFF1300FAFFFEFFE0
:1077D000E3FFFEFFE3FFFEFFE3FF1600FBFF1600E3
:1077E000FBFF0E00F2FF0E00F2FF3F0023003F0000
:1077F00023000B00EFFF0B00EFFF1D0003001D0037
:107800000300200008002000080020000800D8FF26
:10781000C1FFD8FFC1FF0900F4FF0900F4FFFDFF1D
:10782000E9FFFDFFE9FF0700F4FF0700F4FFE7FFB2
:10783000D4FFE7FFD4FF0C00F8FF0C00F8FF0C00AA
:10784000F8FFF6FFE2FFF6FFE2FF0300EEFF0300A2
:10785000EEFF0300EEFF0300EEFFF7FFE1FFF7FF8F
:10786000E1FF1500FEFF1500FEFF1500FEFF1A00E8
:1078700001001A000100F7FFDCFFF7FFDCFFF8FF53
:10788000DAFFF8FFDAFFD5FFB4FFD5FFB4FFF0FF52
:10789000CAFFF0FFCAFFEFFFC5FFEFFFC5FFEFFF15
:1078A000C5FFE1FFB2FFE1FFB2FFF0FFBDFFF0FF58
:1078B000BDFFCBFF96FFCBFF96FF0500D1FF050074
:1078C000D1FFD1FFA0FFD1FFA0FF1100E6FF110003
:1078D000E6FF1100E6FFFDFFDBFFFDFFDBFF04001D
:1078E000EEFF0400EEFF0800000008000000F0FFBB
:1078F000F4FFF0FFF4FFEBFFFAFFEBFFFAFFEBFF03
:10790000FAFFE2FFFBFFE2FFFBFFE8FF0600E8FFF4
:107910000600BCFFDBFFBCFFDBFFE8FF0400E8FF65
:107920000400DEFFF3FFDEFFF3FFEFFFFAFFEFFFE0
:10793000FAFFEFFFFAFFDAFFDAFFDAFFDAFFE5FF1F
:10794000D9FFE5FFD9FF0400EFFF0400EFFF1100AE
:10795000F5FF1100F5FF0600E8FF0600E8FF0A004A
:10796000EDFF0A00EDFF0A00EDFF0F00F6FF0F002C
:10797000F6FF1500030015000300EFFFE5FFEFFF22
:10798000E5FFD4FFD3FFD4FFD3FFE2FFE6FFE2FF22
:10799000E6FFE2FFE6FFDCFFE4FFDCFFE4FF0C00B4
:1079A00012000C0012001400160014001600F4FF60
:1079B000EFFFF4FFEFFF0200F4FF0200F4FF1800F6
:1079C000000018000000180000000600E5FF060097
:1079D000E5FF1900F1FF1900F1FF1000E4FF1000AE
:1079E000E4FF1300E9FF1300E9FF0500DEFF0500D7
:1079F000DEFFFCFFDDFFFCFFDDFFFCFFDDFFF6FF30
:107A0000E2FFF6FFE2FF0800FEFF0800FEFF19009C
:107A10001A0019001A00F0FFFBFFF0FFFBFFEDFF5B
:107A20000000EDFF0000EDFF0000F4FF0C00F4FF8C
:107A30000C00CFFFEAFFCFFFEAFFF1FF0E00F1FFDE
:107A40000E00EBFF0900EBFF0900E3FF0200E3FF7C
:107A50000200FAFF1B00FAFF1B00FAFF1B00D0FF19
:107A6000F4FFD0FFF4FFDCFF0500DCFF0500FBFFA7
:107A70002900FBFF29000E0041000E004100E0FF3D
:107A80001800E0FF180001003D0001003D0001006A
:107A90003D00E1FF1D00E1FF1D00D5FF0F00D5FFF8
:107AA0000F00DFFF1300DFFF1300D9FF0400D9FF31
:107AB0000400E1FF0100E1FF0100E1FF0100EDFF33
:107AC0000100EDFF01001800200018002000150043
:107AD0001200150012002A001E002A001E00FBFFE3
:107AE000E9FFFBFFE9FF1000FAFF1000FAFF1000AA
:107AF000FAFF29001100290011001E0006001E00D7
:107B000006001200FAFF1200FAFF0000E8FF000072
:107B1000E8FF1500FBFF1500FBFF0300E7FF030074
:107B2000E7FF0300E7FFF2FFD2FFF2FFD2FF2900D9
:107B3000040029000400F9FFD0FFF9FFD0FFFAFF8D
:107B4000CDFFFAFFCDFF1B00ECFF1B00ECFF1B007D
:107B5000ECFF1100E3FF1100E3FFFEFFD5FFFEFF86
:107B6000D5FF0300E3FF0300E3FF1600000016004B
:107B700000000F0006000F0006001B001F001B0086
:107B80001F001B001F000F001E000F001E000F0033
:107B900028000F002800DBFFF8FFDBFFF8FF0B00D9
:107BA0002A000B002A00E1FFFCFFE1FFFCFFF2FFCF
:107BB0000700F2FF0700F2FF070003000F000300B9
:107BC0000F000C000C000C000C000800FEFF080069
:107BD000FEFFF2FFDEFFF2FFDEFF0D00F2FF0D0001
:107BE000F2FF0D00F2FF0B00EBFF0B00EBFF30008C
:107BF0000D0030000D00FEFFD9FFFEFFD9FF380059
:107C00001200380012002300FCFF2300FCFF0800D4
:107C1000DFFF0800DFFF0800DFFF2300F5FF230080
:107C2000F5FF2600F1FF2600F1FF2900EBFF2900F8
:107C3000EBFF1600CEFF1600CEFF2300CFFF230080
:107C4000CFFF2300CFFF2F00D2FF2F00D2FF110064
:107C5000ACFF1100ACFF6A0002006A0002004000A5
:107C6000D9FF4000D9FF4600E3FF4600E3FF540080
:107C7000FAFF5400FAFF5400FAFF1D00CFFF1D0069
:107C8000CFFF5100110051001100F2FFC0FFF2FFC1
:107C9000C0FF2200FCFF2200FCFF1300F8FF1300CE
:107CA000F8FF3600210036002100360021003100A7
:107CB0001F0031001F001900070019000700110004
:107CC000FBFF1100FBFF1300F8FF1300F8FF150086
:107CD000F3FF1500F3FF1500F3FF0D00E5FF0D00A6
:107CE000E5FF2D00FFFF2D00FFFF1000DEFF10005D
:107CF000DEFF1500E1FF1500E1FF2D00F9FF2D006B
:107D0000F9FF5800250058002500580025001400F0
:107D1000E4FF1400E4FF33000800330008001B00F8
:107D2000F5FF1B00F5FF0400E5FF0400E5FF0C0074
:107D3000F2FF0C00F2FF2E001A002E001A002E0097
:107D40001A000B00FDFF0B00FDFF0B0001000B00F4
:107D500001002D0028002D002800F1FFEFFFF1FFAA
:107D6000EFFF0500050005000500050005000F00F8
:107D70000E000F000E0024002000240020001E0032
:107D800017001E00170028001A0028001A001F0004
:107D90000B001F000B000000E5FF0000E5FF0000E6
:107DA000E5FFF8FFD7FFF8FFD7FF0C00E9FF0C0055
:107DB000E9FFF8FFD3FFF8FFD3FF1000EFFF10003B
:107DC000EFFFFEFFE4FFFEFFE4FFF1FFE3FFF1FF43
:107DD000E3FFF1FFE3FF0000FFFF0000FFFFD9FF1B
:107DE000E8FFD9FFE8FFD8FFF8FFD8FFF8FFE9FF69
:107DF0001800E9FF1800DAFF1600DAFF1600DAFFB4
:107E00001600F3FF3600F3FF3600EFFF3600EFFFFA
:107E10003600C0FF0500C0FF0500DCFF1D00DCFFD1
:107E20001D00F2FF2B00F2FF2B00030033000300C4
:107E30003300030033002C0053002C00530041009A
:107E40006200410062002700450027004500F8FF5E
:107E50001700F8FF1700FDFF2100FDFF21001500AE
:107E600042001500420015004200DCFF1300DCFF59
:107E70001300F5FF3700F5FF3700DEFF2B00DEFFB4
:107E80002B00F2FF4600F2FF4600F1FF4A00F1FF2F
:107E90004A00F1FF4A0003005D0003005D00EDFFB2
:107EA0004400EDFF4400FAFF4B00FAFF4B00EDFFEA
:107EB0003600EDFF3600F1FF3200F1FF32000D0019
:107EC00045000D0045000D004500F5FF2700F5FFBA
:107ED00027003A0066003A006600CAFFF2FFCAFFB8
:107EE000F2FFF9FF1F00F9FF1F00D4FFF6FFD4FFD8
:107EF000F6FFE4FF0300E4FF0300E4FF0300BCFF20
:107F0000D5FFBCFFD5FFC7FFD6FFC7FFD6FFD0FF09
:107F1000D4FFD0FFD4FFE0FFD6FFE0FFD6FF020082
:107F2000E7FF0200E7FF0200E7FF6300370063009E
:107F300037000B01CE000B01CE004E0102014E01B5
:107F400002010A02B1010A02B1013702D40137026B
:107F5000D401B7024C02B7024C02B7024C02F9023C
:107F60008702F9028702B0033903B00339032604FC
:107F7000A7032604A703A5041D04A5041D04ED04FE
:107F80005904ED0459042D058A042D058A042D0594
:107F90008A045705A2045705A2048D05C7048D0560
:107FA000C704C705F104C705F104320652053206BD
:107FB00052053C0658053C0658053C0658052A065D
:107FC0004D052A064D0546067A0546067A058705BB
:107FD000D9048705D904DC045704DC045704900352
:107FE0003D0390033D03E602CB02E602CB02E6022C
:107FF000CB028E01AE018E01AE018700E100870049
:10800000E1000EFF9DFF0EFF9DFFE8FDA3FEE8FDD2
:10801000A3FEA1FC7FFDA1FC7FFDF0FBE6FCF0FBD5
:10802000E6FCF0FBE6FC70FB74FC70FB74FCE0FA11
:10803000E9FBE0FAE9FBB8FABFFBB8FABFFB2FFA9D
:1080400033FB2FFA33FB26FA25FB26FA25FB26FA0B
:1080500025FB9AF998FA9AF998FA1CFA1DFB1CFA72
:108060001DFB10FA19FB10FA19FB3BFA52FB3BFA05
:1080700052FBF9F922FBF9F922FBC1F900FBC1F926
:1080800000FBC1F900FB79F9CDFA79F9CDFA2CF9A9
:1080900095FA2CF995FA6EF8E8F96EF8E8F9E9F72F
:1080A00070F9E9F770F9E8F676F8E8F676F899F5F8
:1080B0002AF799F52AF799F52AF7C3F453F6C3F48A
:1080C00053F60FF49BF50FF49BF55EF4E4F55EF4C4
:1080D000E4F578F4FAF578F4FAF5E5F466F6E5F403
:1080E00066F6E5F466F608F58CF608F58CF662F5AA
:1080F000EDF662F5EDF657F5EFF657F5EFF665F5A7
:108100000EF765F50EF7C5F482F6C5F482F671F444
:1081100045F671F445F671F445F6A2F38EF5A2F337
:108120008EF5FCF2FEF4FCF2FEF4F0F107F4F0F14F
:1081300007F432F158F332F158F35EF18FF35EF148
:108140008FF35EF18FF3AAF1E0F3AAF1E0F330F2DE
:1081500064F430F264F451F27DF451F27DF4B8F23B
:10816000D7F4B8F2D7F46AF279F46AF279F488F2C3
:1081700084F488F284F488F284F414F2FEF314F2A6
:10818000FEF315F2EFF315F2EFF39DF16BF39DF1B2
:108190006BF39AF162F39AF162F31EF1E7F21EF1CA
:1081A000E7F2E6F0B7F2E6F0B7F2E6F0B7F220F168
:1081B00000F320F100F314F109F314F109F31EF1B7
:1081C0002CF31EF12CF3BCF0E5F2BCF0E5F2B8F0B4
:1081D000FDF2B8F0FDF2B8F0FDF27FF0DDF27FF0D5
:1081E000DDF240F0B3F240F0B3F26EEFF2F16EEF79
:1081F000F2F115EFA4F115EFA4F1A7EE3CF1A7EE13
:108200003CF1EDED85F0EDED85F0EDED85F037ED30
:10821000D0EF37EDD0EFBEEC58EFBEEC58EF72EC7C
:108220000EEF72EC0EEF60EC01EF60EC01EF2CEC66
:10823000D4EE2CECD4EE87EC39EF87EC39EF87ECF9
:1082400039EF22ECDEEE22ECDEEE8FEC54EF8FEC19
:1082500054EF8FEC5AEF8FEC5AEFA7EC73EFA7ECCB
:1082600073EF40ED04F040ED04F040ED04F081EDDB
:1082700037F081ED37F095ED34F095ED34F04AEDBF
:10828000CDEF4AEDCDEFF9ED5DF0F9ED5DF014EED7
:1082900058F014EE58F006EF2DF106EF2DF106EF31
:1082A0002DF114EF24F114EF24F163F064F263F084
:1082B00064F2C7F0C4F2C7F0C4F24CF14DF34CF1D4
:1082C0004DF384F192F384F192F340F160F340F1C5
:1082D00060F340F160F301F134F301F134F352F053
:1082E00096F252F096F27EF0CFF27EF0CFF20CF0E2
:1082F00060F20CF060F21EF06CF21EF06CF21EF0F8
:108300006CF28AEFCAF18AEFCAF101F029F201F0AA
:1083100029F245F050F245F050F223F10FF323F12A
:108320000FF344F113F344F113F392F148F392F194
:1083300048F392F148F394F137F394F137F395F160
:108340002EF395F12EF3C7F15EF3C7F15EF354F10E
:10835000EEF254F1EEF205F1A8F205F1A8F261F0A7
:108360000DF261F00DF261F00DF2D5F08AF2D5F068
:108370008AF268F023F268F023F226F0E2F126F0A8
:10838000E2F194F04DF294F04DF21AF1CDF21AF1BF
:10839000CDF21AF1CDF2D2F07EF2D2F07EF2F9F007
:1083A0009EF2F9F09EF281F122F381F122F347F17E
:1083B000E8F247F1E8F297F03BF297F03BF226F053
:1083C000D1F126F0D1F126F0D1F1EAF09DF2EAF0F8
:1083D0009DF2ABF062F2ABF062F27CF031F27CF035
:1083E00031F24AF2F3F34AF2F3F3DFF36FF5DFF31E
:1083F0006FF5E0F549F7E0F549F7E0F549F7B1F732
:10840000E5F8B1F7E5F857F948FA57F948FAEEF9FF
:1084100093FAEEF993FA88FBDAFB88FBDAFBD1FDDD
:10842000CEFDD1FDCEFDD1FDCEFD9DFF49FF9DFFCF
:1084300049FF4E02AE014E02AE010A0426030A04B1
:1084400026035A0638055A0638054507EC05450740
:10845000EC05DF085207DF085207DF085207AE09B4
:10846000EE07AE09EE07730C7D0A730C7D0A7D0FD3
:108470004A0D7D0F4A0D5B11E70E5B11E70EAF123F
:10848000F40FAF12F40FA810A40DA810A40DA8109B
:10849000A40D3311E90D3311E90D8713FF0F871375
:1084A000FF0FA916F212A916F212C016ED12C0168D
:1084B000ED12E6150E12E6150E12E6150E12E11576
:1084C0001D12E1151D12F3145A11F3145A117014F0
:1084D0001511701415114413331044133310621224
:1084E000A10F6212A10F9512211095122110951261
:1084F0002110E413B011E413B0119A1396119A13DA
:108500009611C612DE10C612DE108712A510871251
:10851000A5103511460F3511460F27121D102712D1
:108520001D1027121D10D612A810D612A81007135E
:10853000B4100713B410E2147012E214701218157C
:108540009212181592123C14B0113C14B0113C1444
:10855000B0115F13DC105F13DC105413E8105413D8
:10856000E8102211D60E2211D60EEC0FC60DEC0F1C
:10857000C60DE00FDF0DE00FDF0DA50CC40AA50C42
:10858000C40AA50CC40A370C6C0A370C6C0A7A0BA7
:10859000BA097A0BBA09570B9709570B97090A0CB6
:1085A000400A0A0C400AB90AE108B90AE108BF0BFF
:1085B000D909BF0BD909BF0BD9096D0A7D086D0A0E
:1085C0007D088E0A9F088E0A9F0865098407650941
:1085D00084078B07C6058B07C605D2053604D2056E
:1085E0003604D20536043702D1003702D1004602E4
:1085F0001D0146021D0120FF37FE20FF37FE08FE49
:108600005FFD08FE5FFD3DFDCCFC3DFDCCFCCCFAE2
:108610008DFACCFA8DFACCFA8DFA71FA57FA71FA12
:1086200057FA74F976F974F976F92DFA41FA2DFAB8
:1086300041FA98FAB8FA98FAB8FAB3FAD9FAB3FA4A
:10864000D9FAB3FAD9FAE1F90CFAE1F90CFA0BF814
:108650003CF80BF83CF852F78BF752F78BF7CBF559
:108660000EF6CBF50EF633F582F533F582F52BF4E5
:1086700088F42BF488F42BF488F49FF209F39FF22A
:1086800009F345F2B8F245F2B8F238F1B1F138F138
:10869000B1F1F5F06FF1F5F06FF1C2F036F1C2F023
:1086A00036F1C6F032F1C6F032F1C6F032F15AF0CE
:1086B000B9F05AF0B9F020F071F020F071F04CF1FF
:1086C0008FF14CF18FF116F14CF116F14CF182F073
:1086D000ADF082F0ADF082F0ADF006F127F106F1D9
:1086E00027F15AF072F05AF072F0EBF0FCF0EBF078
:1086F000FCF0C8F0D1F0C8F0D1F087F185F187F136
:1087000085F1D4F1C4F1D4F1C4F1D4F1C4F1D6F1BE
:10871000B4F1D6F1B4F140F305F340F305F34BF3B4
:10872000F5F24BF3F5F26CF5F6F46CF5F6F424F68D
:108730008AF524F68AF505F947F805F947F805F9A9
:1087400047F8DBFAF7F9DBFAF7F9F2FBE8FAF2FBA4
:10875000E8FA46FE16FD46FE16FD62FF0EFE62FFBB
:108760000EFE8E0114008E0114008E011400A10271
:108770000301A102030132046C0232046C02F7050A
:108780000A04F7050A04FF06E804FF06E804800966
:108790003F0780093F07FE0B9209FE0B9209FE0B73
:1087A0009209CD0D370BCD0D370B0410450D04107C
:1087B000450DB012CB0FB012CB0FC015B912C015BA
:1087C000B9129B1777149B1777143A1AFE163A1AA8
:1087D000FE163A1AFE162C1DDC192C1DDC19D81EAB
:1087E0007A1BD81E7A1BBC20521DBC20521DFC22B5
:1087F000891FFC22891F6323E91F6323E91F632369
:10880000E91F3625B8213625B82192251222922556
:108810001222F3267423F3267423E6246A21E62425
:108820006A211C23A91F1C23A91F1423AF1F142373
:10883000AF1F1423AF1FD21F821CD21F821CE21F46
:10884000AE1CE21FAE1C6F1D5E1A6F1D5E1AA51EC8
:10885000BD1BA51EBD1B401D851A401D851A031D8D
:10886000771A031D771A031D771AFC1C9F1AFC1C2C
:108870009F1A221BF218221BF218BE1BB819BE1B2E
:10888000B819FD1B1B1AFD1B1B1A151E501C151EAB
:10889000501C151E501CF71C4A1BF71C4A1B151CAC
:1088A000791A151C791A521BC219521BC219831945
:1088B000FC178319FC172218A2162218A216D71625
:1088C0005E15D7165E15D7165E15B3164315B3168B
:1088D0004315C8156314C8156314A4134E12A413CA
:1088E0004E12B4126F11B4126F111110E30E111069
:1088F000E30EE20FCC0EE20FCC0EE20FCC0E131003
:10890000190F1310190FC811EB10C811EB104411F7
:108910008510441185106C10CB0F6C10CB0F3F10DD
:10892000BD0F3F10BD0F3F10BD0FFA0E950EFA0E92
:10893000950E600D180D600D180D8A0C5E0C8A0CDA
:108940005E0CD40DC30DD40DC30D310C3A0C310C9B
:108950003A0C1B0B3E0B1B0B3E0B1B0B3E0B340749
:108960007007340770079005E5059005E5052C01B3
:1089700099012C019901AD003301AD003301D3FE03
:1089800073FFD3FE73FFD3FC8CFDD3FC8CFDD3FCB3
:108990008CFD22FAF4FA22FAF4FA42F72DF842F7A3
:1089A0002DF866F768F866F768F8DBF3F3F4DBF3A5
:1089B000F3F473F59DF673F59DF673F59DF654F497
:1089C0008DF554F48DF577F5B9F677F5B9F6DAF15A
:1089D00020F3DAF120F311F055F111F055F1E1EE49
:1089E0001CF0E1EE1CF052EC81ED52EC81ED52EC0A
:1089F00081ED76EC94ED76EC94ED79EA85EB79EA0D
:108A000085EB57EA50EB57EA50EBF1E9DBEAF1E985
:108A1000DBEA03EBE0EB03EBE0EBCEECA3EDCEEC1B
:108A2000A3EDCEECA3ED56EC2BED56EC2BED66EC66
:108A300040ED66EC40ED6FED54EE6FED54EE66EEFA
:108A40005BEF66EE5BEFFCEF04F1FCEF04F1FCEF93
:108A500004F173F091F173F091F184F1B8F284F1C3
:108A6000B8F253F09CF153F09CF1C5F021F2C5F03F
:108A700021F2C2F030F2C2F030F2D5F152F3D5F16A
:108A800052F3D5F152F3E6F170F3E6F170F303F42B
:108A900099F503F499F55FF402F65FF402F6DDF25E
:108AA0008CF4DDF28CF4A1F15EF3A1F15EF3B9F187
:108AB00084F3B9F184F3B9F184F3A1F37CF5A1F364
:108AC0007CF5DDF2C8F4DDF2C8F43BF436F63BF495
:108AD00036F6E3F3EDF5E3F3EDF586F69EF886F66C
:108AE0009EF886F69EF81DF540F71DF540F77AF4DE
:108AF000A7F67AF4A7F618F34CF518F34CF528F31B
:108B000062F528F362F516F657F816F657F88AF666
:108B1000D1F88AF6D1F88AF6D1F8D4F323F6D4F353
:108B200023F6EDF045F3EDF045F34BF0ADF24BF0ED
:108B3000ADF280F1EDF380F1EDF34EF1C8F34EF1BB
:108B4000C8F34EF1C8F34BF0D1F24BF0D1F240F143
:108B5000D0F340F1D0F352EEEBF052EEEBF035EF04
:108B6000D4F135EFD4F119EDBEEF19EDBEEFC6EE3D
:108B70006EF1C6EE6EF1C6EE6EF164F00FF364F0C6
:108B80000FF300F3AEF500F3AEF515F3C8F515F3EA
:108B9000C8F5FFEFB9F2FFEFB9F240EF04F240EF92
:108BA00004F21FF0EFF21FF0EFF21FF0EFF2C3F24A
:108BB000A3F5C3F2A3F59BF18BF49BF18BF477F152
:108BC0007AF477F17AF4DDEFF1F2DDEFF1F28EEE87
:108BD000B1F18EEEB1F18EEEB1F115ED45F015ED7E
:108BE00045F0BDECF7EFBDECF7EF8EEACFED8EEA86
:108BF000CFEDB0EBF5EEB0EBF5EE1EED65F01EED52
:108C000065F082EFCAF282EFCAF282EFCAF286EC16
:108C1000D0EF86ECD0EF81EBCDEE81EBCDEE27ED02
:108C200076F027ED76F02CED7FF02CED7FF009F15A
:108C30005EF409F15EF4A7EFFEF2A7EFFEF2A7EFF4
:108C4000FEF2C0F116F5C0F116F567F2B7F567F25E
:108C5000B7F50FF354F60FF354F67BF2B0F57BF251
:108C6000B0F591F1B1F491F1B1F491F1B1F4A0F357
:108C7000A7F6A0F3A7F69BF387F69BF387F64DF4D0
:108C80001DF74DF41DF7A4F25AF5A4F25AF5F1EFD1
:108C900090F2F1EF90F2D9EE67F1D9EE67F1D9EEEB
:108CA00067F131EDB1EF31EDB1EF8DED04F08DED08
:108CB00004F037EAA7EC37EAA7EC6DEBD6ED6DEBE5
:108CC000D6EDFDEC5CEFFDEC5CEF5EEDAFEF5EED45
:108CD000AFEF5EEDAFEF7CEBB8ED7CEBB8ED3DE7D1
:108CE0005BE93DE75BE9FFE6F7E8FFE6F7E861E50A
:108CF0002CE761E52CE71BE7B4E81BE7B4E81BE7CA
:108D0000B4E82DE58FE62DE58FE6E1E50DE7E1E539
:108D10000DE7E3E5DCE6E3E5DCE6DDE8A7E9DDE831
:108D2000A7E9D4E775E8D4E775E858E6D5E658E64C
:108D3000D5E658E6D5E617E775E717E775E73BE9A7
:108D40007EE93BE97EE920EE47EE20EE47EE55EF67
:108D50005DEF55EF5DEFB3F197F1B3F197F136F1B8
:108D6000EFF036F1EFF036F1EFF075F4FCF375F457
:108D7000FCF317F663F517F663F553F860F753F84D
:108D800060F722F8ECF622F8ECF684FC0CFB84FC8D
:108D90000CFB84FC0CFB73FFBDFD73FFBDFDDEFE11
:108DA000F2FCDEFEF2FC690152FF690152FFBA01DA
:108DB00084FFBA0184FFB7046E02B7046E028C060A
:108DC0003D048C063D048C063D0467061A046706C4
:108DD0001A041008CC051008CC0595075F05950707
:108DE0005F05500A2808500A28088A0B6F098A0B69
:108DF0006F097E0A6C087E0A6C087E0A6C08440EB5
:108E0000370C440E370C3B0B2F093B0B2F09260C5C
:108E1000180A260C180AB409A107B409A1076908A1
:108E20005306690853066908530674085A067408FD
:108E30005A0687096D0787096D07710D5A0B710D69
:108E40005A0B650D530B650D530BEF0FE50DEF0F2F
:108E5000E50DBC10BB0EBC10BB0EBC10BB0EAD12A2
:108E6000B510AD12B510D013E011D013E011E2131C
:108E7000F811E213F81161157A1361157A13381697
:108E800052143816521484179C1584179C15841795
:108E90009C15CB18E016CB18E01677178A157717B4
:108EA0008A151E1931171E1931170C1B21190C1B9D
:108EB0002119571C721A571C721A571C721A481C17
:108EC0006C1A481C6C1A6E1D9F1B6E1D9F1BED1D9E
:108ED000301CED1D301CB81F0F1EB81F0F1E671E63
:108EE000D41C671ED41CBC1A4019BC1A4019BC1AE9
:108EF00040196017FC156017FC15F417A816F41735
:108F0000A816711B3C1A711B3C1AC217A416C21773
:108F1000A416291924182919241815182917151801
:108F20002917151829179317C0169317C016A316DB
:108F3000EB15A316EB154115A3144115A314F71453
:108F40007514F7147514F0148914F0148914F014BE
:108F50008914E8149A14E8149A140A15D4140A15FA
:108F6000D41441111E1141111E11360C240C360C63
:108F7000240C3A0B340B3A0B340B730A750A730A40
:108F8000750A730A750A8E0A950A8E0A950A7E0674
:108F900087067E068706FE030804FE030804D8FF42
:108FA000E0FFD8FFE0FFAFFEB6FEAFFEB6FEE5FD88
:108FB000E9FDE5FDE9FDE5FDE9FDE9FCECFCE9FC89
:108FC000ECFCFDFCFDFCFDFCFDFC87FE83FE87FE4A
:108FD00083FE25FE1CFE25FE1CFE0DFCFDFB0DFC8C
:108FE000FDFB0DFCFDFB80FB65FB80FB65FB76F963
:108FF0004DF976F94DF958F91CF958F91CF98BFA25
:109000003AFA8BFA3AFA75F90BF975F90BF9EEF7AA
:1090100068F7EEF768F7EEF768F7CAF826F8CAF8C7
:1090200026F85FF89CF75FF89CF72AF846F72AF8CD
:1090300046F7D7F7D4F6D7F7D4F64CFA29F94CFA15
:1090400029F94CFA29F9A5F962F8A5F962F8ADFAFF
:109050004BF9ADFA4BF986FA04F986FA04F9E2F90C
:1090600040F8E2F940F872F9B1F772F9B1F7F9FA9C
:1090700018F9F9FA18F9F9FA18F93EFF3BFD3EFF25
:109080003BFDCEFFA9FDCEFFA9FD1102CBFF1102D2
:10909000CBFF1F03B8001F03B800A6042002A604DC
:1090A000200212066D0312066D0312066D031A07E5
:1090B00059041A0759048C09B2068C09B206B50B7B
:1090C000C308B50BC3083B0C35093B0C3509900DA3
:1090D000780A900D780A900D780A770D500A770D6E
:1090E000500A5B12260F5B12260FF313B310F31313
:1090F000B31076152B1276152B1260180D1560180B
:109100000D15AF195316AF195316AF195316791B16
:109110001718791B17180D1BA6170D1BA617751A04
:109120000A17751A0A174E18E1144E18E114E319BC
:109130007616E3197616EE198216EE198216EE19D6
:109140008216C01B5818C01B58184D19EA154D1926
:10915000EA155A18FF145A18FF140E19BE150E19E5
:10916000BE150617C2130617C2130617C2139B17A4
:1091700066149B17661461173D1461173D1444175C
:109180003414441734140C1710140C17101402164E
:109190001E1302161E13BB16F113BB16F113BB16DA
:1091A000F1135314A4115314A411B0131F11B013CD
:1091B0001F11F5158213F5158213DD148B12DD14C2
:1091C0008B12A9167714A916771440143112401483
:1091D000311240143112DE11F10FDE11F10F401087
:1091E000770E4010770EC70E220DC70E220D970C7A
:1091F000160B970C160BDA0B7E0ADA0B7E0ADA0BCB
:109200007E0A8E0C580B8E0C580B920C810B920C14
:10921000810BAD0BC10AAD0BC10A3C0C760B3C0CAB
:10922000760B480BA80A480BA80AE30B690BE30B63
:10923000690BE30B690B330EDE0D330EDE0D0C0EE6
:10924000DC0D0C0EDC0D480F3C0F480F3C0F4D0B96
:10925000650B4D0B650B3D0C780C3D0C780C750ABD
:10926000D10A750AD10A750AD10AB7083309B708B5
:1092700033091909B4091909B4095F0819095F0804
:1092800019099B0772089B077208C504B905C50434
:10929000B905C504B905DC00EB01DC00EB012DFDCF
:1092A00056FE2DFD56FE19FB5CFC19FB5CFCA7FA73
:1092B00003FCA7FA03FC04FA77FB04FA77FBB5F882
:1092C0003EFAB5F83EFAB5F83EFA06FBA4FC06FBFA
:1092D000A4FC7EF730F97EF730F932F5F6F632F578
:1092E000F6F6B1F385F5B1F385F580F064F280F020
:1092F00064F23DEF2EF13DEF2EF13DEF2EF1E2EE67
:10930000DFF0E2EEDFF026ED2EEF26ED2EEF14ED8E
:1093100025EF14ED25EF13EE2CF013EE2CF09AEE62
:10932000BAF09AEEBAF09AEEBAF0AAECD1EEAAEC44
:10933000D1EEECEA17EDECEA17EDCCEBFCEDCCEB63
:10934000FCEDC3EBF7EDC3EBF7ED3EEE75F03EEE53
:1093500075F0F5EE2EF1F5EE2EF1F5EE2EF108EEAC
:1093600044F008EE44F024EB61ED24EB61ED45E9B7
:1093700083EB45E983EB4EEA8DEC4EEA8DECB5EBE1
:10938000F4EDB5EBF4EDEFEA2EEDEFEA2EEDEFEABA
:109390002EED04ED42EF04ED42EF69ECA7EE69EC2F
:1093A000A7EE09ED45EF09ED45EFBDEEF9F0BDEE95
:1093B000F9F05EEE99F05EEE99F05EEE99F043ED15
:1093C0007EEF43ED7EEF57EC92EE57EC92EEB2EE6D
:1093D000EEF0B2EEEEF037ED74EF37ED74EF08ED2E
:1093E00046EF08ED46EFBCEBFCEDBCEBFCEDBCEB57
:1093F000FCED08EC4BEE08EC4BEEB5EDFBEFB5EDFC
:10940000FBEFA0EEEAF0A0EEEAF0F9EE47F1F9EE9C
:1094100047F1EEED41F0EEED41F09FECF6EE9FEC02
:10942000F6EE9FECF6EEA5EC01EFA5EC01EF7BEA82
:10943000DCEC7BEADCEC45EBACED45EBACED61EC58
:10944000CFEE61ECCFEE8FED03F08FED03F08FEDFB
:1094500003F066EDE0EF66EDE0EF03EC84EE03EC85
:1094600084EE81ED09F081ED09F0CAEC59EFCAEC08
:1094700059EFF0EF86F2F0EF86F278EF15F278EF21
:1094800015F278EF15F2CEF072F3CEF072F31EEF14
:10949000C9F11EEFC9F14EF0FFF24EF0FFF2FDEF01
:1094A000B5F2FDEFB5F217F0D5F217F0D5F2AFF344
:1094B00073F6AFF373F6AFF373F6CEF197F4CEF124
:1094C00097F419F5E7F719F5E7F745F518F845F5B5
:1094D00018F822F5FAF722F5FAF745F420F745F4E3
:1094E00020F745F420F7FFF2DEF5FFF2DEF56CF32E
:1094F0004DF66CF34DF6FEF4E2F7FEF4E2F71EF8DB
:1095000003FB1EF803FB40F927FC40F927FCD5F8C4
:10951000BCFBD5F8BCFBD5F8BCFB50F837FB50F8CA
:1095200037FBB7F89DFBB7F89DFB0CFBF0FD0CFB80
:10953000F0FD36FC17FF36FC17FF97FE750197FE0E
:10954000750197FE750175FD4E0075FD4E00D7FD46
:10955000AB00D7FDAB0011FEDF0011FEDF0067FDA1
:109560002E0067FD2E00CDFF8C02CDFF8C025DFF2B
:1095700014025DFF14025DFF14021502C1041502FE
:10958000C104A9014B04A9014B04AF024605AF0277
:109590004605F3017D04F3017D04B0FD2D00B0FD0F
:1095A0002D00F6FA64FDF6FA64FDF6FA64FD68F93A
:1095B000C7FB68F9C7FBE2F831FBE2F831FB69F859
:1095C000A7FA69F8A7FAA1F7CCF9A1F7CCF91FF728
:1095D00037F91FF737F91FF737F931F535F731F557
:1095E00035F799F588F799F588F7E5F3BEF5E5F3D2
:1095F000BEF586F048F286F048F212F0BDF112F0A6
:10960000BDF11CEFAEF01CEFAEF01CEFAEF008F1B8
:1096100081F208F181F228EF87F028EF87F07EEEE3
:10962000C2EF7EEEC2EFF5ED1FEFF5ED1FEF59EF44
:1096300067F059EF67F086EF77F086EF77F086EF07
:1096400077F0CDF0A1F1CDF0A1F130F2E7F230F2F8
:10965000E7F2C9F362F4C9F362F43AF4B5F43AF408
:10966000B5F408F365F308F365F308F365F3A3F4C1
:10967000E1F4A3F4E1F48FF5AFF58FF5AFF50BF955
:109680000DF90BF90DF9F0F7D3F7F0F7D3F722FA4C
:10969000E8F922FAE8F9E2FA89FAE2FA89FAE2FA52
:1096A00089FA2FFBB9FA2FFBB9FAFBFD69FDFBFD27
:1096B00069FD060058FF060058FF06013C00060140
:1096C0003C00540170005401700024012600240164
:1096D000260024012600F600E0FFF600E0FFEE0180
:1096E000C100EE01C10070032E0270032E023D0581
:1096F000E7033D05E7035A04F1025A04F1025A0454
:10970000F102A4052B04A4052B04A8051F04A80539
:109710001F04A6040F03A6040F03B4031102B4032D
:1097200011029901EDFF9901EDFF080154FF0801B5
:1097300054FF080154FF9701DEFF9701DEFF470148
:1097400089FF470189FFB302F400B302F400B102BC
:10975000F200B102F2005304960253049602C505CA
:109760000C04C5050C04C5050C045706A5045706D2
:10977000A50439088F0639088F06880AE808880A80
:10978000E808310B9D09310B9D09270BA109270B17
:10979000A109270BA109930C1C0B930C1C0B720C39
:1097A0000C0B720C0C0BB10D5D0CB10D5D0CE90DC9
:1097B000A90CE90DA90C890E5E0D890E5E0D500FE6
:1097C0003B0E500F3B0E500F3B0EAA13AC12AA13C8
:1097D000AC122A1543142A154314271558142715BB
:1097E00058147013BA127013BA120A126C110A12BA
:1097F0006C114F12CB114F12CB114F12CB11C5115F
:109800005911C51159117B1228127B1228129C1173
:1098100060119C116011BC129712BC1297127A133E
:109820006C137A136C137A136C134C1353134C137D
:109830005313CB12E612CB12E612C412F212C41268
:10984000F2124B118A114B118A1107135613071389
:109850005613B4111112B4111112B41111125D107A
:10986000C6105D10C610FC0E6F0FFC0E6F0F120DB0
:109870008D0D120D8D0D0C0D8C0D0C0D8C0D850BA1
:10988000090C850B090C500AD50A500AD50A500A52
:10989000D50A2D08B1082D08B1084A05CA054A05A0
:1098A000CA05E6006101E600610161FFD3FF61FFC7
:1098B000D3FF4EFDB4FD4EFDB4FD4EFDB4FDE9FDFC
:1098C00042FEE9FD42FEB6FE00FFB6FE00FF62FF6B
:1098D0009AFF62FF9AFFBDFEE0FEBDFEE0FE78FB50
:1098E00086FB78FB86FB4AFA40FA4AFA40FA4AFAC3
:1098F00040FAE9F9C4F9E9F9C4F900FABFF900FA44
:10990000BFF9ACF94DF9ACF94DF96BF8EDF76BF81F
:10991000EDF7F6F757F7F6F757F7BFF6FEF5BFF690
:10992000FEF5BFF6FEF53AF656F53AF656F5C9F5E8
:10993000C2F4C9F5C2F4FFF4D4F3FFF4D4F3E6F5AE
:1099400096F4E6F596F4E4F56EF4E4F56EF4E4F5D9
:109950006EF40BF670F40BF670F4A5F4E4F2A5F4D3
:10996000E4F241F55AF341F55AF35BF551F35BF537
:1099700051F34CF71DF54CF71DF556F803F656F864
:1099800003F656F803F660F9EBF660F9EBF69EFA8B
:1099900007F89EFA07F8F5FA3DF8F5FA3DF802FCEB
:1099A0002BF902FC2BF916FD22FA16FD22FA910082
:1099B00081FD910081FD910081FD2402FAFE2402C7
:1099C000FAFE1204D0001204D0003E05E5013E0567
:1099D000E501A9063C03A9063C03170998051709E8
:1099E0009805170998050E0B7F070E0B7F07140CBF
:1099F0007708140C77084F0FA70B4F0FA70BAE116A
:109A0000FD0DAE11FD0D9515DE119515DE11E51656
:109A10002A13E5162A13E5162A13CA170D14CA17B6
:109A20000D14E2162513E21625139614DD10961474
:109A3000DD100C1757130C17571312166512121658
:109A4000651212166512CD172914CD1729141F1788
:109A500087131F1787137E17F4137E17F4138D18BF
:109A600012158D18121571160713711607136F153D
:109A700018126F1518126F1518120A15C8110A1549
:109A8000C8112716FC122716FC12261712142617C7
:109A900012140116061301160613F6131611F61307
:109AA0001611281363102813631028136310A014D1
:109AB000F611A014F6115A16CD135A16CD131A1713
:109AC000AA141A17AA145B1609145B1609140016B7
:109AD000CD130016CD130016CD136E1559136E1548
:109AE0005913B813C311B813C311A312CD10A31285
:109AF000CD107710BF0E7710BF0E4B12B3104B1264
:109B0000B31093111A1093111A1093111A10821096
:109B1000270F8210270F9D0F600E9D0F600EFE0D08
:109B2000DE0CFE0DDE0CC30EC10DC30EC10DBB0F4E
:109B3000D60EBB0FD60E8210B90F8210B90F82104D
:109B4000B90FDA102D10DA102D10DD114B11DD11C7
:109B50004B116411EC106411EC104A0FEB0E4A0F1C
:109B6000EB0E4E0E070E4E0E070E4E0E070E9D0DFF
:109B70006F0D9D0D6F0DA70D900DA70D900DBD0ED6
:109B8000BC0EBD0EBC0E410C570C410C570C940A78
:109B9000BF0A940ABF0A3007700730077007300702
:109BA00070076006B4066006B4067D04E4047D0414
:109BB000E40400037B0300037B03FD028B03FD022F
:109BC0008B03AA024903AA024903D0038104D003EC
:109BD0008104D003810461032404610324049403F9
:109BE00068049403680458013C0258013C02B10027
:109BF000A701B100A70139FE3FFF39FE3FFF39FE43
:109C00003FFF17FD2DFE17FD2DFEA1FAC7FBA1FAA0
:109C1000C7FBB2FAE8FBB2FAE8FB6CFCB2FD6CFCE5
:109C2000B2FD8DFBE3FC8DFBE3FC05FC6AFD05FC4E
:109C30006AFD05FC6AFD5DF9D2FA5DF9D2FA15F804
:109C400098F915F898F990F823FA90F823FA47F95B
:109C5000E9FA47F9E9FA96F848FA96F848FA33F734
:109C6000F4F833F7F4F833F7F4F845F714F945F757
:109C700014F909F6E6F709F6E6F763F44EF663F42D
:109C80004EF661F35AF561F35AF550F358F550F377
:109C900058F550F358F5F0F304F6F0F304F647F4F2
:109CA00068F647F468F6CFF4FCF6CFF4FCF643F21E
:109CB0007BF443F27BF4AAF2EDF4AAF2EDF431F373
:109CC0007FF531F37FF531F37FF581F3D8F581F33B
:109CD000D8F571F2D1F471F2D1F413F17BF313F1F1
:109CE0007BF3E2F152F4E2F152F435F0AAF235F0EE
:109CF000AAF280EFFAF180EFFAF180EFFAF160EE6C
:109D0000DFF060EEDFF0D5ED57F0D5ED57F031EE36
:109D1000B5F031EEB5F04BEED0F04BEED0F010ECEC
:109D200095EE10EC95EE10EC95EE08EB8CED08EB53
:109D30008CEDABEA2EEDABEA2EED28EBA8ED28EB8F
:109D4000A8ED80EAFCEC80EAFCEC4DEAC4EC4DEABC
:109D5000C4ECB8E92AECB8E92AECB8E92AECCDE879
:109D600038EBCDE838EB03E967EB03E967EB54E840
:109D7000AFEA54E8AFEA76E8C9EA76E8C9EA82E8E9
:109D8000CBEA82E8CBEA81E9C1EB81E9C1EB81E969
:109D9000C1EB5CE891EA5CE891EAA6E7D1E9A6E7C5
:109DA000D1E9DAE7FAE9DAE7FAE9C0E9D5EBC0E99F
:109DB000D5EB1EEB28ED1EEB28ED1EEB28ED9BED01
:109DC00099EF9BED99EFE1EDD5EFE1EDD5EF46EDA4
:109DD0002FEF46ED2FEF3DED1CEF3DED1CEF8AED33
:109DE0005EEF8AED5EEF08EED2EF08EED2EF08EEFE
:109DF000D2EF1FEDE0EE1FEDE0EE5DEF15F15DEF50
:109E000015F15DF00DF25DF00DF276F21DF476F2D3
:109E10001DF47AF319F57AF319F5ACF245F4ACF2C6
:109E200045F4ACF245F4B6F249F4B6F249F415F54E
:109E3000A3F615F5A3F6C0F549F7C0F549F73FF6C7
:109E4000C4F73FF6C4F7A4F725F9A4F725F9A4F75A
:109E500025F9CCF949FBCCF949FBCBFB46FDCBFB03
:109E600046FDADFA25FCADFA25FC37FBADFC37FB12
:109E7000ADFC5FFBD3FC5FFBD3FCFEFC70FEFEFC85
:109E800070FEFEFC70FE950005029500050237008D
:109E9000A6013700A60113FE7FFF13FE7FFF07FC1C
:109EA00071FD07FC71FDCBFA33FCCBFA33FC16FADB
:109EB0007BFB16FA7BFB16FA7BFBCFF730F9CFF76B
:109EC00030F9F1F74FF9F1F74FF99BF7F3F89BF7FA
:109ED000F3F8F2F644F8F2F644F8BFF40AF6BFF4E9
:109EE0000AF6BFF40AF610F253F310F253F349EFF7
:109EF00083F049EF83F047EF77F047EF77F000EF1B
:109F000024F000EF24F079ED90EE79ED90EE3BED4A
:109F100044EE3BED44EE3BED44EE4FEB48EC4FEBB3
:109F200048ECEBEAD3EBEBEAD3EB97E96DEA97E980
:109F30006DEAF0E9B1EAF0E9B1EA36E9E2E936E9D9
:109F4000E2E936E9E2E9B3EA48EBB3EA48EBD6EBFB
:109F500052ECD6EB52EC5AEBBDEB5AEBBDEBC1EA3F
:109F600009EBC1EA09EB30EC5CEC30EC5CEC21EF86
:109F700031EF21EF31EF21EF31EF21EF13EF21EF3F
:109F800013EF14F1E8F014F1E8F07DF332F37DF310
:109F900032F313F4A8F313F4A8F3E8F55DF5E8F54C
:109FA0005DF575F8CBF775F8CBF775F8CBF79DF93C
:109FB000D3F89DF9D3F854FC6AFB54FC6AFBA8FD66
:109FC0009EFCA8FD9EFC94006CFF94006CFF570063
:109FD00010FF570010FF570010FF6F000CFF6F00BD
:109FE0000CFFBB013B00BB013B0008026D000802F7
:109FF0006D00E6043203E60432035F0693045F0655
:10A0000093044F066C044F066C044F066C04D10594
:10A01000DA03D105DA0315060B0415060B04A304B5
:10A020008A02A3048A0253032B0153032B01BE02AD
:10A030008A00BE028A00E702AA00E702AA00E7023D
:10A04000AA0084024000840240001203C9001203E7
:10A05000C900DE039301DE0393013E04F4013E04D4
:10A06000F4018F0547038F0547038F054703460912
:10A0700004074609040757091C0757091C0721084C
:10A08000F1052108F105170AF307170AF307420B38
:10A090002E09420B2E09470D440B470D440B470D6B
:10A0A000440BB80EC70CB80EC70C4F10730E4F10F0
:10A0B000730E4810830E4810830EEE10420FEE1000
:10A0C000420F30129E1030129E101C11A50F1C1151
:10A0D000A50F1C11A50F1E11C30F1E11C30F1E13B8
:10A0E000E0111E13E0115E133E125E133E12F113D7
:10A0F000EF12F113EF123D135A123D135A123D1392
:10A100005A12F5123112F5123112D5122F12D51240
:10A110002F126A12E2116A12E2112F12C5112F12C8
:10A12000C5111D11D0101D11D010F011BF11F0116B
:10A13000BF11F011BF116C1256126C125612FD12A3
:10A140000113FD120113B312CF12B312CF12621317
:10A15000951362139513F1123813F11238131C1270
:10A1600076121C1276121C127612D3113F12D311E2
:10A170003F127612F0127612F0126711EE1167118B
:10A18000EE114A12DC124A12DC124812E112481295
:10A19000E1124812E1123F0FDE0F3F0FDE0FF00D0C
:10A1A000920EF00D920E7E0B200C7E0B200C5E0AA0
:10A1B000FF0A5E0AFF0AB0074C08B0074C084308C4
:10A1C000D9084308D9084308D9085A08E6085A08A4
:10A1D000E608C6064707C606470724089708240866
:10A1E00097084507A9074507A9070D065E060D064E
:10A1F0005E06E9062707E9062707E9062707B505EA
:10A20000DC05B505DC055E046E045E046E044F02D9
:10A2100046024F024602330110013301100183014F
:10A22000440183014401830144017C0121017C013B
:10A2300021014802CE014802CE01D6013E01D601DD
:10A240003E010D0157000D0157006D0098FF6D0094
:10A2500098FFE400F0FFE400F0FFE400F0FF5BFE95
:10A2600047FD5BFE47FDE7FEB4FDE7FEB4FD7CFE67
:10A270002AFD7CFE2AFD8BFE1BFD8BFE1BFDA5002F
:10A2800018FFA50018FFC8011F00C8011F00C80162
:10A290001F00CE020801CE020801120133FF120195
:10A2A00033FFE802EF00E802EF007203610172037E
:10A2B00061015D0237005D0237005D023700BA02BE
:10A2C0007F00BA027F004D04FF014D04FF017F05AE
:10A2D00020037F0520031A08AC051A08AC053C0AC8
:10A2E000C0073C0AC007950A0E08950A0E08950A91
:10A2F0000E08990B0809990B0809B40D1B0BB40D36
:10A300001B0BFC0E5D0CFC0E5D0C3610940D361014
:10A31000940DC811230FC811230F24127E0F24128D
:10A320007E0F24127E0F7113CD107113CD107F1389
:10A33000DE107F13DE10C1132511C1132511521435
:10A34000BC115214BC11E3145512E3145512E3145A
:10A3500055123016AB133016AB13F2157613F215F7
:10A360007613D9136811D91368115314EE115314CD
:10A37000EE111514BE111514BE110415B9120415F1
:10A38000B9120415B91299155D1399155D13971437
:10A390006A1297146A12B6139811B61398113112F3
:10A3A0002310311223100F1310110F131011B911B4
:10A3B000CA0FB911CA0FB911CA0FEE110E10EE1162
:10A3C0000E103A1369113A136911E3122211E312C4
:10A3D00022116F12BD106F12BD10AE110A10AE1116
:10A3E0000A10AE110A104110AC0E4110AC0E920EC4
:10A3F0000A0D920E0A0D2D0DB30B2D0DB30B8B0C08
:10A400001E0B8B0C1E0B8B0B2A0A8B0B2A0ABF0A06
:10A410006A09BF0A6A09BF0A6A09A0095608A009A1
:10A420005608A4096508A4096508C6099208C60962
:10A430009208020BD709020BD709700C4F0B700C56
:10A440004F0B700C4F0B140BFD09140BFD09D70AB1
:10A45000C909D70AC9091D0918081D091808D30810
:10A46000D707D308D707D407E106D407E106E208E7
:10A47000F807E208F807E208F807510971085109DE
:10A4800071082C0855072C085507560789065607EA
:10A490008906E1041F04E1041F0405024E010502C0
:10A4A0004E014E00A2FF4E00A2FF4E00A2FF9BFDF8
:10A4B000FDFC9BFDFDFC59FBC7FA59FBC7FA25FDC6
:10A4C000A1FC25FDA1FC0FFB9BFA0FFB9BFAB6FA42
:10A4D00051FAB6FA51FAB6FA51FA8FFA3BFA8FFAF4
:10A4E0003BFA5DFB1BFB5DFB1BFB41FA11FA41FADA
:10A4F00011FA94F878F894F878F852F74BF752F785
:10A500004BF7C1F4D0F4C1F4D0F4C1F4D0F41AF490
:10A510003FF41AF43FF4CAF307F4CAF307F468F4FB
:10A52000BDF468F4BDF41CF48AF41CF48AF44BF511
:10A53000D3F54BF5D3F580F523F680F523F680F5BA
:10A5400023F60DF5CBF50DF5CBF588F361F488F323
:10A5500061F4ECF3E2F4ECF3E2F4F9F40AF6F9F462
:10A560000AF62BF659F72BF659F72BF659F794F50F
:10A57000DFF694F5DFF6FEF465F6FEF465F6C0F45A
:10A5800045F6C0F445F659F4FAF559F4FAF5D5F460
:10A5900092F6D5F492F660F239F460F239F460F292
:10A5A00039F40FF204F40FF204F44AF35AF54AF3C3
:10A5B0005AF56BF396F56BF396F586F4CBF686F4C5
:10A5C000CBF631F58EF731F58EF755F2CBF455F227
:10A5D000CBF455F2CBF4DAF167F4DAF167F40FF16A
:10A5E000B1F30FF1B1F34AF001F34AF001F338F09F
:10A5F00002F338F002F34CEF29F24CEF29F24CEF62
:10A6000029F2D7EFC4F2D7EFC4F230F02BF330F0D9
:10A610002BF3FEEE08F2FEEE08F2AAEEC0F1AAEE6F
:10A62000C0F1A7EDC8F0A7EDC8F07FECA9EF7FEC73
:10A63000A9EF7FECA9EFAEEBE0EEAEEBE0EE16EBB0
:10A640004FEE16EB4FEEBFEBFEEEBFEBFEEEFFEA7A
:10A6500042EEFFEA42EE2BEC71EF2BEC71EFB3EB25
:10A66000FCEEB3EBFCEEB3EBFCEE8EEAD8ED8EEA3B
:10A67000D8ED04EA4FED04EA4FED81EACBED81EA33
:10A68000CBED61E9ABEC61E9ABECEDE835ECEDE885
:10A6900035ECEDE835EC96E6DDE996E6DDE975E5C5
:10A6A000BAE875E5BAE834E777EA34E777EA22E80A
:10A6B00063EB22E863EB7EE9BDEC7EE9BDECE4E907
:10A6C00020EDE4E920EDE4E920EDABEAE5EDABEACD
:10A6D000E5EDFBE933EDFBE933ED56EB8CEE56EBA4
:10A6E0008CEEC4E9F8ECC4E9F8ECFBE92CEDFBE9ED
:10A6F0002CEDE1EA10EEE1EA10EEE1EA10EEE1EB1A
:10A700000DEFE1EB0DEFECEB17EFECEB17EF21EDBD
:10A7100049F021ED49F069EF8FF269EF8FF2EDF02A
:10A7200010F4EDF010F4EDF010F451F271F551F277
:10A7300071F54FF26CF54FF26CF5CEF3E7F6CEF310
:10A74000E7F6ECF401F8ECF401F8AAF8BAFBAAF881
:10A75000BAFB76F981FC76F981FC76F981FC77FB0E
:10A760007CFE77FB7CFEECFBEBFEECFBEBFEEBFDFB
:10A77000E200EBFDE200AFFF9F02AFFF9F02C3FFCD
:10A78000AA02C3FFAA020402E3040402E3040402CF
:10A79000E30498026E0598026E059A0365069A0313
:10A7A00065063303F4053303F4054401F90344015A
:10A7B000F90392FE3B0192FE3B0192FE3B0124FE17
:10A7C000C00024FEC00089FE180189FE18010FFE9A
:10A7D00090000FFE900082FDF4FF82FDF4FFE4FB89
:10A7E00047FEE4FB47FE8EF9E0FB8EF9E0FB8EF9B5
:10A7F000E0FB6DF9AEFB6DF9AEFBB9F8E7FAB9F81D
:10A80000E7FAA2F8BCFAA2F8BCFAA9F6AFF8A9F6E2
:10A81000AFF83CF52BF73CF52BF778F34FF578F3D1
:10A820004FF578F34FF54CF209F44CF209F445F288
:10A83000E6F345F2E6F313F196F213F196F253F2D2
:10A84000B7F353F2B7F3C7F109F3C7F109F3C7F14F
:10A8500009F310F02EF110F02EF15FF057F15FF0D8
:10A8600057F16BF13BF26BF13BF269F110F269F1D8
:10A8700010F292F30DF492F30DF439F387F339F3F8
:10A8800087F339F387F3BEF4DFF4BEF4DFF44FF659
:10A8900040F64FF640F688F64BF688F64BF6E3F7AF
:10A8A00075F7E3F775F7BCF91FF9BCF91FF9CFFB92
:10A8B00003FBCFFB03FBCFFB03FB7EFE84FD7EFE91
:10A8C00084FDF3FFCCFEF3FFCCFE8CFF3AFE8CFF41
:10A8D0003AFEBBFF40FEBBFF40FE360093FE360053
:10A8E00093FE360093FEBC02F400BC02F400870322
:10A8F0009D0187039D01EB05E303EB05E30366067A
:10A900004204660642049B085E069B085E06360803
:10A91000E3053608E3053608E30595072F05950797
:10A920002F0583070D0583070D054908C60549084E
:10A93000C6052A099C062A099C06B3061E04B3060E
:10A940001E04B3061E048107E7048107E7042F06EF
:10A9500091032F069103F2075305F2075305C70829
:10A960002906C708290608086C0508086C05DA07D7
:10A970004205DA074205DA0742056B08D8056B087D
:10A98000D80508097B0608097B06CE0A4908CE0AC5
:10A990004908910A1608910A16087E090D077E09D2
:10A9A0000D07A50B3F09A50B3F09A50B3F09800D1E
:10A9B000280B800D280B1D0FD30C1D0FD30CE20F9D
:10A9C000A90DE20FA90DAB0E840CAB0E840C5A0E30
:10A9D000460C5A0E460C5A0E460C980F9A0D980FBC
:10A9E0009A0D4710610E4710610E2A115E0F2A1151
:10A9F0005E0F2D107C0E2D107C0E2211900F221157
:10AA0000900FA30F2F0EA30F2F0EA30F2F0E330F98
:10AA1000E10D330FE10D0F0DE10B0F0DE10BCE0A30
:10AA2000C409CE0AC409A80CC30BA80CC30B840D1F
:10AA3000C60C840DC60C590DC10C590DC10C590D15
:10AA4000C10CE80C760CE80C760C580C0D0C580C6C
:10AA50000D0CB10A8B0AB10A8B0A0C090A090C0900
:10AA60000A09CB07EB07CB07EB07CB07EB07A807D8
:10AA7000E907A807E9075F08BE085F08BE08DE0906
:10AA8000580ADE09580A2808BA082808BA08BC0774
:10AA90006408BC076408AB046505AB046505AB043A
:10AAA00065057C0343047C0343041602E802160296
:10AAB000E8023EFF16003EFF16002AFE05FF2AFEB2
:10AAC00005FF00FDDBFD00FDDBFDC4FC9BFDC4FCC0
:10AAD0009BFDC4FC9BFD37FC07FD37FC07FDDFFC3D
:10AAE000A5FDDFFCA5FDEEFCA6FDEEFCA6FD44FEEB
:10AAF000ECFE44FEECFEFBFD90FEFBFD90FEFBFD3C
:10AB000090FE9AFD1AFE9AFD1AFEC5FB2FFCC5FBAE
:10AB10002FFC24FC75FC24FC75FC70FAA7FA70FA73
:10AB2000A7FA98FBB4FB98FBB4FBBCFDBBFDBCFDD6
:10AB3000BBFDBCFDBBFD43FD24FD43FD24FD6AFEC2
:10AB40002EFE6AFE2EFE36FDDAFC36FDDAFC35FC02
:10AB5000BAFB35FCBAFB92FBF8FA92FBF8FA3CFC24
:10AB600082FB3CFC82FB3CFC82FB81FCA6FB81FC63
:10AB7000A6FB59FC5FFB59FC5FFB91FB78FA91FB4C
:10AB800078FA84FC4DFB84FC4DFB23FCCDFA23FCBE
:10AB9000CDFA23FCCDFAD5FD63FCD5FD63FC9BFE0D
:10ABA0000DFD9BFE0DFDB1FF08FEB1FF08FE91FFFC
:10ABB000CFFD91FFCFFD30FF56FD30FF56FDFE006B
:10ABC0000FFFFE000FFFFE000FFF09020500090244
:10ABD00005005E0448025E0448024A0524034A0553
:10ABE0002403F106BE04F106BE044A080A064A0818
:10ABF0000A06F50AAB08F50AAB08F50AAB08500CD3
:10AC0000FF09500CFF09C60C6F0AC60C6F0AED0F46
:10AC1000910DED0F910D2C12CF0F2C12CF0FD511DE
:10AC2000760FD511760FD511760FA8134A11A813F8
:10AC30004A116D1210106D1210106113071161137B
:10AC400007111414BD111414BD111114BD111114E8
:10AC5000BD11AB145C12AB145C12AB145C128B1400
:10AC600040128B144012F415AD13F415AD130F15EB
:10AC7000CD120F15CD12BF158113BF1581134D15C0
:10AC800014134D151413A3156F13A3156F13A315E8
:10AC90006F130513D7100513D710AF11860FAF111F
:10ACA000860F2710050E2710050E5310380E53106F
:10ACB000380E3911260F3911260F3911260FD010F1
:10ACC000C80ED010C80E7010730E7010730EF20FF5
:10ACD000020EF20F020E0F112D0F0F112D0F7B110F
:10ACE000AA0F7B11AA0FAE11F00FAE11F00FAE112B
:10ACF000F00FB5110B10B5110B103512A110351254
:10AD0000A110DB0F5F0EDB0F5F0E710F0E0E710FC8
:10AD10000E0EDF0D970CDF0D970CF40CC80BF40C26
:10AD2000C80BF40CC80BD40DC40CD40DC40C320FDA
:10AD30003E0E320F3E0E470E6E0D470E6E0DFF0F8C
:10AD4000400FFF0F400F9B10F60F9B10F60F9B104C
:10AD5000F60F4E0EBF0D4E0EBF0D720EF80D720E99
:10AD6000F80D340ECC0D340ECC0D2C0ED40D2C0E53
:10AD7000D40DD90C8E0CD90C8E0C4B0D090D4B0D2E
:10AD8000090D4B0D090DA90C6D0CA90C6D0C040BD4
:10AD9000CC0A040BCC0A8C0955098C0955093A09CF
:10ADA00001093A0901091107D4061107D40655060D
:10ADB00013065506130655061306C6047E04C6047C
:10ADC0007E046B031C036B031C03AB015601AB0138
:10ADD00056011901BF001901BF00A2024502A202DB
:10ADE0004502A20245024D01EE004D01EE00FA00BF
:10ADF0009D00FA009D0098013F0198013F01BA00B3
:10AE00006800BA0068003DFFF7FE3DFFF7FED4FD85
:10AE10009DFDD4FD9DFDD4FD9DFDEAFAC7FAEAFA39
:10AE2000C7FA86FA7AFA86FA7AFA71FA80FA71FA29
:10AE300080FAF3FB20FCF3FB20FC9CFAEAFA9CFA74
:10AE4000EAFA9CFAEAFA58FBC9FB58FBC9FB96FAE6
:10AE50002CFB96FA2CFBC8F983FAC8F983FAF7F9A8
:10AE6000D9FAF7F9D9FAB3F8BAF9B3F8BAF98AF90D
:10AE7000B7FA8AF9B7FA8AF9B7FA2BFA7BFB2BFAF9
:10AE80007BFBD5FB47FDD5FB47FDFCF98DFBFCF9B2
:10AE90008DFB62F80FFA62F80FFA9CF661F89CF6E7
:10AEA00061F86EF649F86EF649F86EF649F8F3F671
:10AEB000E0F8F3F6E0F89FF99AFB9FF99AFBAEF9F8
:10AEC000B5FBAEF9B5FBDEF9EDFBDEF9EDFB46F7C0
:10AED0005BF946F75BF946F75BF951F66AF851F60C
:10AEE0006AF8DAF6F5F8DAF6F5F802F51EF702F583
:10AEF0001EF7A7F7C3F9A7F7C3F97EF69AF87EF60F
:10AF00009AF890F7ADF990F7ADF990F7ADF957F7DA
:10AF100076F957F776F946F568F746F568F729F4B4
:10AF20004FF629F44FF64EF479F64EF479F6AFF475
:10AF3000E2F6AFF4E2F61FF35CF51FF35CF51FF3E6
:10AF40005CF5ADF1F4F3ADF1F4F370F1C4F370F12D
:10AF5000C4F3B4EF16F2B4EF16F2D2EF44F2D2EF2C
:10AF600044F294F015F394F015F394F015F382EF96
:10AF700013F282EF13F213EFB3F113EFB3F194EF87
:10AF800043F294EF43F21DEEDBF01DEEDBF001EB3C
:10AF9000CCED01EBCCED35EB0AEE35EB0AEE35EB03
:10AFA0000AEEB4EA93EDB4EA93ED22EA07ED22EA61
:10AFB00007ED90E97AEC90E97AECEDE9D9ECEDE96E
:10AFC000D9ECF1E8DCEBF1E8DCEBCEE7B6EACEE772
:10AFD000B6EACEE7B6EA71E754EA71E754EAECE97B
:10AFE000C7ECECE9C7EC52E924EC52E924ECFAE8AE
:10AFF000C0EBFAE8C0EB5DE917EC5DE917EC5DE941
:10B0000017EC88E734EA88E734EA11E8ADEA11E89A
:10B01000ADEA89E716EA89E716EAE5E762EAE5E7D5
:10B0200062EAC6E832EBC6E832EBE1E93DECE1E981
:10B030003DECE1E93DECABEAF6ECABEAF6ECF0EC2A
:10B040002BEFF0EC2BEF46ED70EF46ED70EF91EE4D
:10B05000ACF091EEACF060EE6CF060EE6CF07CF079
:10B0600078F27CF078F27CF078F2E8F1D5F3E8F150
:10B07000D5F353F232F453F232F442F313F542F3C0
:10B0800013F593F356F593F356F5F5F4ABF6F5F4A3
:10B09000ABF6F5F4ABF646F6EFF746F6EFF7F6F853
:10B0A00092FAF6F892FAE1F771F9E1F771F9AAF874
:10B0B0002FFAAAF82FFA62F7DCF862F7DCF848F802
:10B0C000B8F948F8B8F948F8B8F90DF774F80DF779
:10B0D00074F8A3F502F7A3F502F7EDF544F7EDF5E3
:10B0E00044F779F5C9F679F5C9F681F6CBF781F61B
:10B0F000CBF7B9F6FEF7B9F6FEF7B9F6FEF70EF69E
:10B100004FF70EF64FF71BF358F41BF358F42BF2DE
:10B1100064F32BF264F3EFEF25F1EFEF25F12DEF60
:10B1200060F02DEF60F02DEF60F02EEF5CF02EEF71
:10B130005CF043EF6AF043EF6AF038EF58F038EF15
:10B1400058F0A0EEB6EFA0EEB6EFBBEDC5EEBBED4E
:10B15000C5EEE9EBE3ECE9EBE3ECE9EBE3ECABEBBD
:10B1600092ECABEB92EC5BED2CEE5BED2CEEDBECC2
:10B1700092EDDBEC92ED66ED00EE66ED00EE40EF59
:10B18000B8EF40EFB8EF39F08CF039F08CF039F0CF
:10B190008CF0DDF007F1DDF007F1CCF1CAF1CCF174
:10B1A000CAF182F352F382F352F3C8F468F4C8F49C
:10B1B00068F419F788F619F788F619F788F6CBF9C5
:10B1C00007F9CBF907F941FB4CFA41FB4CFA48FB74
:10B1D00023FA48FB23FA31FDDCFB31FDDCFB54FD97
:10B1E000D4FB54FDD4FBD4FE2BFDD4FE2BFDD4FEAA
:10B1F0002BFD27005AFE27005AFE4302550043024A
:10B2000055004902400049024000F202D300F20218
:10B21000D300C7049802C7049802A0046502A004E2
:10B220006502A00465029806570498065704A20612
:10B230005F04A2065F04E306A304E306A304EC058F
:10B24000B103EC05B1032506F3032506F303250638
:10B25000F303810559038105590354053903540546
:10B260003903270518032705180322051F032205A4
:10B270001F03B804C102B804C1029707A9059707C4
:10B28000A9059707A9053B0854063B085406BE07C5
:10B29000DC05BE07DC05EA080A07EA080A07090810
:10B2A000270609082706DA0BF409DA0BF409650CFE
:10B2B000790A650C790A650C790A980EA30C980E28
:10B2C000A30C0E100E0E0E100E0EB210A80EB21021
:10B2D000A80E25120F1025120F10AB118B0FAB11FA
:10B2E0008B0FAB118B0FE810C00EE810C00ED511FC
:10B2F000A70FD511A70F2114F0112114F0114B1530
:10B300001B134B151B136B1442126B144212EE11DC
:10B31000D00FEE11D00FEE11D00F1011030F10113E
:10B32000030F980FA20D980FA20D790FA00D790FA2
:10B33000A00DBD10060FBD10060F3111A10F311168
:10B34000A10F3111A10FD710740FD710740F771000
:10B35000440F7710440F2C0F2C0E2C0F2C0E7A0E4E
:10B36000AE0D7A0EAE0D430EAE0D430EAE0D850E34
:10B37000250E850E250E850E250EB50E8A0EB50EF0
:10B380008A0E510E580E510E580EAD0CE20CAD0C3B
:10B39000E20CEA0B4A0CEA0B4A0CFE0A820BFE0A8C
:10B3A000820B3C0ADE0A3C0ADE0A3C0ADE0A290954
:10B3B000E3092909E3092207EC072207EC0737050F
:10B3C0000B0637050B06B2018802B20188020A009B
:10B3D000DC000A00DC000A00DC0047FF0D0047FF2C
:10B3E0000D0008FFBCFF08FFBCFF8FFE2CFF8FFE87
:10B3F0002CFFEB006D01EB006D01CC002E01CC00A9
:10B400002E011300520013005200130052003AFFA5
:10B4100054FF3AFF54FF0EFE01FE0EFE01FE4BFDEF
:10B4200017FD4BFD17FDAEFC53FCAEFC53FC40FE7C
:10B43000BFFD40FEBFFD94FEEDFD94FEEDFD94FECC
:10B44000EDFDFBFD32FDFBFD32FD00FD15FC00FDB9
:10B4500015FC6BFD61FC6BFD61FC9BFC74FB9BFCB4
:10B4600074FB6CFF2BFE6CFF2BFE6CFF2BFE56FF5C
:10B47000FDFD56FFFDFDAEFF40FEAEFF40FEA2FF0C
:10B480001FFEA2FF1FFE0A0075FE0A0075FEA50240
:10B49000FE00A502FE00380280003802800038025B
:10B4A0008000A803DF01A803DF01A503CC01A503E9
:10B4B000CC0128063F0428063F049F08A5069F08E4
:10B4C000A506DA09CF07DA09CF0728090B072809EB
:10B4D0000B0728090B07A2097307A2097307310C90
:10B4E000EF09310CEF09570E030C570E030C241013
:10B4F000BC0D2410BC0D0D11920E0D11920E0D11EC
:10B50000920EC8123B10C8123B102A148C112A1438
:10B510008C1122157212221572126E16AF136E164E
:10B52000AF1343177614431776140F1934160F19F7
:10B5300034160F193416791A9317791A9317E31AD8
:10B54000F317E31AF317DA1AE217DA1AE217991A5D
:10B550009C17991A9C17B41CB219B41CB219DC1CA4
:10B56000D719DC1CD719DC1CD719C41CBE19C41C84
:10B57000BE194D1D481A4D1D481A601D5D1A601DEB
:10B580005D1A741C7619741C7619CC1BD318CC1B4D
:10B59000D318CC1BD3182A1A39172A1A3917DB18D3
:10B5A000F215DB18F2159F17C0149F17C014CF16A1
:10B5B000FB13CF16FB136816A2136816A2134715C8
:10B5C000901247159012471590127B13D6107B13DB
:10B5D000D6106711D50E6711D50EC311480FC311D0
:10B5E000480FE710850EE710850EED11A50FED1140
:10B5F000A50FC311990FC311990FC311990F2E11E4
:10B60000250F2E11250F280F410D280F410DF30C8A
:10B61000320BF30C320BA00B070AA00B070A430AEC
:10B62000D208430AD208430AD2084409FE07440953
:10B63000FE07710956087109560833084407330894
:10B6400044075607920656079206D9083F08D908BC
:10B650003F0896072407960724079607240735090D
:10B66000E9083509E9080B08E2070B08E207C809F1
:10B67000BF09C809BF09BC09CD09BC09CD091E070E
:10B6800046071E07460735066F0635066F06350660
:10B690006F06E4032B04E4032B04020451040204A8
:10B6A0005104F0034204F00342043F0390033F03BC
:10B6B0009003460192014601920146019201240045
:10B6C0006800240068004CFF85FF4CFF85FF68FE82
:10B6D00095FE68FE95FE77FC96FC77FC96FC4CFB8D
:10B6E0005FFB4CFB5FFB64FB6BFB64FB6BFB64FB76
:10B6F0006BFB46FB45FB46FB45FB5BFB54FB5BFBE7
:10B7000054FB2EFB24FB2EFB24FB12F90BF912F940
:10B710000BF91EF71FF71EF71FF7B0F5BEF5B0F5D2
:10B72000BEF5B0F5BEF54FF570F54FF570F52FF598
:10B730006AF52FF56AF5F2F54BF6F2F54BF6A2F73E
:10B740001EF8A2F71EF866F70BF866F70BF866F717
:10B750000BF85FF530F65FF530F6DAF2DAF3DAF28D
:10B76000DAF393F1C3F293F1C3F2ACF10EF3ACF15F
:10B770000EF324F4B7F524F4B7F5D9F59DF7D9F510
:10B780009DF7D9F59DF7A5F697F8A5F697F8FCF57E
:10B7900018F8FCF518F85EF4A0F65EF4A0F6F2F1E5
:10B7A00055F4F2F155F403F282F403F282F480F1DD
:10B7B00015F480F115F480F115F467F20CF567F2D9
:10B7C0000CF5F4F2A3F5F4F2A3F533F2E7F433F257
:10B7D000E7F48BF23FF58BF23FF5D5F084F3D5F02B
:10B7E00084F3D5F084F389F12EF489F12EF49BF1E2
:10B7F00035F49BF135F449F2D6F449F2D6F4CBF2A4
:10B8000049F5CBF249F538F3A9F538F3A9F518F263
:10B810007DF418F27DF418F27DF4F5F150F4F5F1B1
:10B8200050F4A3F1F6F3A3F1F6F386F2D6F486F220
:10B83000D6F464F2B4F464F2B4F443F299F443F24B
:10B8400099F443F299F45FF2C0F45FF2C0F431EF7F
:10B85000A1F131EFA1F1AFF032F3AFF032F333F0F9
:10B86000CDF233F0CDF2F9EFAEF2F9EFAEF211F026
:10B87000E5F211F0E5F211F0E5F2FFEFF2F2FFEF81
:10B88000F2F20FF122F40FF122F4FCF02EF4FCF0AE
:10B890002EF42BEF7DF22BEF7DF27FEDEDF07FEDBF
:10B8A000EDF0BFED46F1BFED46F1BFED46F1BDEE67
:10B8B00059F2BDEE59F25DEE09F25DEE09F246EC89
:10B8C000FDEF46ECFDEF52EA0FEE52EA0FEED1E942
:10B8D0008CEDD1E98CEDD1E98CED42EAF6ED42EA4E
:10B8E000F6EDA2EA49EEA2EA49EE09EB9CEE09EB7D
:10B8F0009CEE9EEA19EE9EEA19EE9AEBF7EE9AEBB1
:10B90000F7EE52EB8FEE52EB8FEE52EB8FEEBBEB7E
:10B91000D4EEBBEBD4EEC3EAB4EDC3EAB4ED55EA22
:10B920001DED55EA1DED4BECEAEE4BECEAEEACEC0E
:10B9300023EFACEC23EF19EE67F019EE67F019EE88
:10B9400067F0C1EEE9F0C1EEE9F066EE6AF066EE8E
:10B950006AF04EF031F24EF031F2B5F27BF4B5F20E
:10B960007BF414F5BFF614F5BFF614F5BFF68AF6AE
:10B970001EF88AF61EF8F0F771F9F0F771F996F7EC
:10B9800008F996F708F9F9F65EF8F9F65EF8F3F7B4
:10B990004FF9F3F74FF9D4F629F8D4F629F8D4F68D
:10B9A00029F839F889F939F889F963F8B1F963F8B0
:10B9B000B1F934F980FA34F980FA50F99CFA50F967
:10B9C0009CFAFFF84AFAFFF84AFA65F8AFF965F809
:10B9D000AFF965F8AFF990F6DAF790F6DAF73AF6DC
:10B9E00082F73AF682F74CF792F84CF792F81CF887
:10B9F0005FF91CF85FF999F7D7F899F7D7F899F735
:10BA0000D7F8BCF7F5F8BCF7F5F824F556F624F5A9
:10BA100056F6FFF32AF5FFF32AF58EF0AFF18EF01C
:10BA2000AFF1D7F0EDF1D7F0EDF1DCF1E8F2DCF1B8
:10BA3000E8F2DCF1E8F22BF12AF22BF12AF2A7F37B
:10BA400099F4A7F399F43DF221F33DF221F351F07B
:10BA500025F151F025F1F3EFB6F0F3EFB6F0EAEF90
:10BA60009BF0EAEF9BF0EAEF9BF03CF0DBF03CF060
:10BA7000DBF07DF107F27DF107F20FF282F20FF2B7
:10BA800082F287F2E2F287F2E2F2FBF23DF3FBF29E
:10BA90003DF3FBF23DF30CF532F50CF532F52AF7E8
:10BAA00032F72AF732F705F8EEF705F8EEF78BF9DB
:10BAB00054F98BF954F9FAFBA1FBFAFBA1FB0DFD3C
:10BAC00091FC0DFD91FC0DFD91FCCAFD2AFDCAFD06
:10BAD0002AFDDBFD18FDDBFD18FDEDFE07FEEDFE8A
:10BAE00007FE5B0153005B015300DF02B501DF027B
:10BAF000B50176052F0476052F0476052F048F05F2
:10BB00002B048F052B044B06CE044B06CE042407D2
:10BB1000920524079205C4072106C40721067A0965
:10BB2000CA077A09CA077A09CA07AC09F407AC0937
:10BB3000F407680AAB08680AAB081D0C610A1D0C03
:10BB4000610AFD0C450BFD0C450BFF0C500BFF0C67
:10BB5000500BDD0C390BDD0C390BDD0C390BB40C43
:10BB60001D0BB40C1D0B9B0A13099B0A1309C80A71
:10BB70005109C80A5109F20A8B09F20A8B097609A0
:10BB80001F0876091F08D2098B08D2098B08D20931
:10BB90008B08EC08B207EC08B207E608B607E6081F
:10BBA000B607F708CF07F708CF07530A2F09530A3C
:10BBB0002F093F0C1B0B3F0C1B0B3F0C1B0BF20DFB
:10BBC000CC0CF20DCC0C180FEC0D180FEC0D131063
:10BBD000DF0E1310DF0E040FC40D040FC40DFB0E97
:10BBE000AF0DFB0EAF0DB60E5D0DB60E5D0DB60EB4
:10BBF0005D0D070FA10D070FA10DB7114610B7116D
