:020000040000FA
:1000000008200020150400001D0400001F0400004B
:10001000210400002304000025040000000000006B
:1000200000000000000000000000000027040000A5
:1000300029040000000000002B0400002D04000033
:100040002F0400002F0400002F0400002F040000E4
:100050002F0400002F0400002F0400002F040000D4
:100060002F0400002F0400002F0400002F040000C4
:100070002F0400002F0400002F0400002F040000B4
:100080002F0400002F0400002F0400002F040000A4
:100090002F0400002F0400002F0400002F04000094
:1000A0002F0400002F0400002F0400002F04000084
:1000B0002F0400002F0400000000000000000000DA
:1000C0002F0400002F0400002F0400002F04000064
:1000D0002F0400002F0400002F0400002F04000054
:1000E0002F0400002F0400002F0400002F04000044
:1000F000000000002F0400000000000000000000CD
:1001000000000000000000000000000000000000EF
:1001100000000000000000000000000000000000DF
:1001200000000000000000000000000000000000CF
:1001300000000000000000000000000000000000BF
:10040000DFF80CD000F018F800480047A305000002
:10041000082000200648804706480047FEE7FEE720
:10042000FEE7FEE7FEE7FEE7FEE7FEE7FEE7FEE7A4
:100430005D04000001040000064C074D06E0E06882
:1004400040F0010394E8070098471034AC42F6D31B
:10045000FFF7DAFFA4050000C405000030B54FF037
:1004600080500021D0F830210124082A02D1D0F890
:10047000343113B1082A09D00BE04FF08042C2F8A2
:100480000C11C2F81011334A116005E0D0F8343174
:1004900013B1082A04D006E0304B2F4A1A6005E059
:1004A000D0F8343113B1082A04D006E02C4BFB22DB
:1004B0001A6005E0D0F8343113B1082A08D00EE0F4
:1004C00090F858322748026863F30302026002E0A2
:1004D000D0F8340118B9244A4FF400701060234852
:1004E000026842F470020260BFF34F8FBFF36F8F58
:1004F0004FF01022D2F80002002803DBD2F80402E9
:10050000002822DA1A4B1C601A480468002CFCD020
:100510001224C2F800420568002DFCD0C2F8044243
:100520000268002AFCD0196001680029FCD0BFF3E2
:100530004F8F0E487C3801680F4A01F4E061114387
:100540000160BFF34F8F00BFFDE70D490B48086006
:1005500030BD000038050040488103008C56004043
:1005600018F50040E40E00404096024088ED00E09F
:1005700004E5014000E401400400FA050090D003C6
:100580000000002002E008C8121F08C1002AFAD1AA
:1005900070477047002001E001C1121F002AFBD103
:1005A0007047FEE7C40500000000002004000000C2
:1005B00084050000C805000004000020042000009D
:0805C000940500000090D00337
:020000041000EA
:041080007856341258
:0400000500000401F2
:00000001FF
