:020000040000FA
:1000000078290020E5040000ED040000B1040000A0
:10001000F1040000F3040000F504000000000000FB
:10002000000000000000000000000000F7040000D5
:10003000F904000000000000FB040000FD040000C3
:10004000AB080000FF040000090A0000FF040000E4
:10005000FF040000FF04000009060000FF04000088
:10006000FF040000FF040000FF040000FF04000084
:10007000FF040000FF040000FF040000FF04000074
:10008000FF040000B9080000FF040000FF040000A6
:10009000DD080000FF040000FF040000FF04000072
:1000A000FF040000FF040000FF040000FF04000044
:1000B000FF040000FF04000000000000000000003A
:1000C000FF040000FF040000FF040000FF04000024
:1000D000FF040000FF040000FF040000250A0000E8
:1000E000FF040000FF040000FF040000FF04000004
:1000F00000000000FF0400000000000000000000FD
:1001000000000000000000000000000000000000EF
:1001100000000000000000000000000000000000DF
:1001200000000000000000000000000000000000CF
:1001300000000000000000000000000000000000BF
:10040000DFF80CD000F0CEF800480047512400007F
:100410007829002030B4044654E8000F0D4644E823
:100420000053002BF8D1156030BC704730B404463F
:1004300054E8000F40EA010544E80053002BF7D1CF
:10044000156030BC704730B4044654E8000F00EA31
:10045000010544E80053002BF7D1156030BC70470C
:1004600030B4044654E8000F80EA010544E8005324
:10047000002BF7D1156030BC704730B4044654E807
:10048000000F00EB010544E80053002BF7D1156085
:1004900030BC704730B4044654E8000FA0EB0105AF
:1004A00044E80053002BF7D1156030BC70470000C2
:1004B000094B1EF0040F1CBFEFF309801847EFF340
:1004C00008800649064A884201D8904202D88D46E3
:1004D0004FF0000018470000CD07000078290020E9
:1004E000780900200648804706480047FEE7FEE7F7
:1004F000FEE7FEE7FEE7FEE7FEE7FEE7FEE7FEE7D4
:10050000E108000001040000004870474C5500005D
:1005100040EA01039B0703D009E008C9121F08C085
:10052000042AFAD203E011F8013B00F8013B521E05
:10053000F9D27047421C10F8011B0029FBD1801A28
:1005400070472DE9F05F0546002092469B4688469D
:100550000646814640241BE028464146474622463F
:1005600000F041F853465A46C01A914110D3114643
:100570001846224600F028F82D1A67EB01084F466E
:1005800022460120002100F01FF817EB00094E4120
:10059000201EA4F10104DFDC484631462A464346CA
:1005A000BDE8F09F064C074D06E0E06840F001030F
:1005B00094E8070098471034AC42F6D3FFF724FFC5
:1005C0002856000048560000202A04DB203A00FA92
:1005D00002F1002070479140C2F1200320FA03F39A
:1005E000194390407047202A04DB203A21FA02F098
:1005F0000021704721FA02F3D040C2F1200291405D
:1006000008431946704700002DE9F04F00268FB0CF
:10061000DFF8B081B14602964FF480750124374669
:100620000396284603F0C2FA38B1D8F804032042F2
:1006300003D0284603F0B0FA26432D1D64007F1C2A
:10064000ADB2082FEDD34FF4BE74204603F0AEFADE
:1006500048B1204603F0A0FA46F0004602AA022163
:10066000002003F05FFA584C16F0FF0F15D0012759
:10067000002537420DD008EB8501D1F81005D1F8DF
:100680001015C0F3062054F82520C1F3014102B132
:1006900090477F006D1C082DEBD3002E7DDA0020E3
:1006A000CDF82890411E0DF1080B08AACDF82C902A
:1006B00042F82010401C91460228F9D300252E460E
:1006C000A01910F8607F90F9000027F0C008401CC6
:1006D00049D008A9404601F095FF88B34FEA971A20
:1006E000404601F065FB54F820701FB1BAF1030FCA
:1006F00003D00FE0BAF1030F35D10AA84FEAD802B0
:1007000008F00703815C4FF0010C0CFA03FC41EA8E
:100710000C01815406A8CDF8188003F073F90699EE
:1007200000EB8100D0F8000702A9C0F30140069059
:10073000404601F067FF0028069802D0022802D048
:1007400011E003280FD1BAF1030F08D1069802284F
:1007500032D00221404603F008F96D1CEDB217B10A
:1007600051464046B847761C042EA9D3002D20D010
:1007700004AA0221002003F0D5F900205A4604A95A
:1007800052F8206051F82030B34217D000200AAE52
:100790004FEA090351F8207000E00AE042F82070A7
:1007A00056F8207043F82070401C0228F2D3002D28
:1007B00084D10FB0BDE8F08F0321CBE7401C0228A5
:1007C000DED3F6E700600040600100200446826945
:1007D00009A1012003F020FC03F052FB03F054FBBD
:1007E0000028FBD10D4804600D480068C00700D008
:1007F00000BE204600F016F8484152444641554C90
:10080000543A4552524F523A486172646661756C6F
:10081000742050433A25780D0A0000008000002023
:10082000F0ED00E0BFF34F8F05480168054A01F481
:10083000E06111430160BFF34F8F00BFFDE700008F
:100840000CED00E00400FA0500F01F0201219140C8
:100850004009800000F1E020C0F88012704700F0ED
:100860001F02012191404009800000F1E020C0F802
:100870000011704700F01F020121914040098000E3
:1008800000F1E020C0F8001270474907090E002867
:1008900006DA00F00F0000F1E02080F8141D704728
:1008A00000F1E02080F80014704710B502F054F811
:1008B000BDE8104002F0FAB907480021C0F8401125
:1008C000C0F84411C0F84811C0F84C11C0F800112C
:1008D000C0F8041103F0EEBF0010014003F066BF42
:1008E00030B54FF080500021D0F830210124082A83
:1008F00002D1D0F8343113B1082A09D00BE04FF0FF
:100900008042C2F80C11C2F81011334A116005E0A0
:10091000D0F8343113B1082A04D006E0304B2F4A06
:100920001A6005E0D0F8343113B1082A04D006E08B
:100930002C4BFB221A6005E0D0F8343113B1082AA1
:1009400008D00EE090F858322748026863F303029B
:10095000026002E0D0F8340118B9244A4FF4007064
:1009600010602348026842F470020260BFF34F8FA8
:10097000BFF36F8F4FF01022D2F80002002803DB84
:10098000D2F80402002822DA1A4B1C601A480468C4
:10099000002CFCD01224C2F800420568002DFCD0C7
:1009A000C2F804420268002AFCD0196001680029DC
:1009B000FCD0BFF34F8F0E487C3801680F4A01F41A
:1009C000E06111430160BFF34F8F00BFFDE70D49A8
:1009D0000B48086030BD0000380500404881030026
:1009E0008C56004018F50040E40E0040409602404E
:1009F00088ED00E004E5014000E401400400FA0550
:100A00000090D003940000200448017F044800298E
:100A1000024901D004F081B803F0F0BFC801002002
:100A2000002000402DE9F05F4E48D0F80453002428
:100A30002E46DFF834B14FF00108DFF8309113E0B3
:100A400096FAA6F0B0FA80F7B80000F580708246FA
:100A500003F012FD28B1504603F016FD08FA07F026
:100A6000044308FA07F08643002EE9D1B2464E4609
:100A70003069C6F810A028400443B078F0BBA0024B
:100A80005AD5394940F2A979091FC1F80090DBF81D
:100A90000020584612F0FF0C02D0026802EA0C0C4B
:100AA00040F2AA7EC1F800E0026812F0FF0201D015
:100AB00003681A4040F2AB730B60036813F0FF0346
:100AC00001D007683B4040F2AC770F60076817EA37
:100AD0000C0709D0D6F814C04CEA070CC6F814C0AD
:100AE000C1F800900760076840F2AD770F600768B3
:100AF000174009D0726942EA074200E01CE07261C7
:100B0000C1F800E00760026840F2AE720A60026855
:100B10001A400CD0D30701D044F40004D30601D509
:100B200044F0010440F2AB730B600260006870692E
:100B300010B105F080700443DFF8349054B194FA9A
:100B4000A4F0B0FA80F759F82700804708FA07F0B8
:100B50008443F3E704F05AF83069054288D1BDE8D0
:100B6000F09F000000700240047802403000002036
:100B7000DC5300007047000070B51348046804603F
:100B8000BFF36F8FBFF34F8FBFF36F8FBFF34F8FE5
:100B90000E4841690C430021012641610DE000BF70
:100BA00094FAA4F0B0FA80F5284600F0D8FD06FAD1
:100BB00005F18C43294604F0D3F9002CF0D1BDE8AF
:100BC000704004F023B800006C7402403000002034
:100BD000F8B50D480468204603F062FCBFF36F8F40
:100BE000BFF34F8F094D0A4EE00504D5A86A009067
:100BF000716868468847A00504D5E86A0090716866
:100C000068468847F8BD000000740240A853000001
:100C100030000020F8B51A4800681A4DC6B268784E
:100C200001F088F9012404FA00F12889EA68C04338
:100C300080B21043014202D0687804F00BF906F04C
:100C400080006870002001F075F904FA00F6802039
:100C500001F070F904FA00F006430A48F1430C3041
:100C600001F0CAFC802001F065F98440A8680443C3
:100C70000548AC60406A0090696868468847F8BDDE
:100C80008074024030000020A853000010B5054CCD
:100C9000607801F04FF901466078BDE8104004F03B
:100CA0005FB900003000002038B5002000900B48EC
:100CB0000068ADF80200882001F03CF9012505FA32
:100CC00000F4082001F036F9054985402C43886876
:100CD00004438C6049686846884738BD20750240E7
:100CE0003000002070B50B4804680460BFF36F8FBC
:100CF000BFF34F8F012609E094FAA4F0B0FA80F513
:100D0000284600F02CFD06FA05F08443002CF3D1B0
:100D100070BD00006874024038B5064C0020607059
:100D200004F0FEF80448406800906168684688470F
:100D300038BD000030000020A85300000F4910B556
:100D400000208870802001F029F904464C2003F02F
:100D5000B1FB6069002810D1204604F0BFF90028DB
:100D60000BD1802001F0E6F8012181400348C943FE
:100D7000BDE810400C3001F03FBC10BD3000002039
:100D8000812003F0F3B9822003F0F0B9832003F04F
:100D9000EDB9842003F0EAB9852003F0E7B9862095
:100DA00003F0E4B9872003F0E1B9882003F02CBAFE
:100DB00038B5104C0020A07001F0F0F8416911B96D
:100DC00004F08CF920B1BDE838404C2003F072BB30
:100DD000002001F0AFF8012181400648C9430C30E2
:100DE00001F00AFC0448C0680090616868468847C2
:100DF00038BD000030000020A8530000012003F09F
:100E00003BBA022003F038BA032003F035BA0420BD
:100E100003F032BA052003F02FBA062003F02CBAF3
:100E2000072003F029BA082003F0F2BA0FB41CB56A
:100E30000A46521ECDE9000207A9054B6A460698EC
:100E400000F018F8009A002111701CBC5DF814FB2A
:100E5000D712000002E008C8121F08C1002AFAD108
:100E600070477047002001E001C1121F002AFBD12A
:100E7000704700002DE9FF4F8DB00F460546002654
:100E800006E025280BD0DDE90F1290476D1C761C7B
:100E900028780028F5D111B03046BDE8F08F002445
:100EA000A246A1460122EC4900E0044315F8013FA7
:100EB000203B02FA03F00842F7D128782A2810D004
:100EC0006FF02F022878A0F13001092914D80AEB1D
:100ED0008A0102EB410144F0020400EB010A6D1C9F
:100EE000F0E701CF5FEA000A03D544F40054CAF1E9
:100EF000000A44F002046D1C28782E2817D115F83A
:100F0000010F44F004042A280ED06FF02F02287835
:100F1000A0F1300109290AD809EB890102EB41014E
:100F200000EB01096D1CF2E757F8049B6D1C287853
:100F30006C280FD006DC4C2817D068280DD06A2802
:100F400014D104E0742810D07A280FD10DE044F4B5
:100F500000140AE044F4801401E044F44014697879
:100F6000814202D104F580146D1C6D1C2A786E2A12
:100F70001FD00CDC632A31D004DC002A8BD0582A25
:100F800011D1A3E0642A68D0692A0CD165E0732AE4
:100F90002ED004DC6F2A73D0702A04D19BE0752A0E
:100FA0006FD0782A6ED01046DDE90F129047761C7C
:100FB00050E1C4F30250022806D0032809D00428C7
:100FC00001CF09D0066045E101CFF117C0E900610A
:100FD00040E101CF06803DE106703BE117F8040BCC
:100FE0008DF8000000208DF80100EB46012003E0A1
:100FF00057F804BB4FF0FF3061074FF0000102D4F7
:101000000DE008F10101884649450FDA8045F8DB1B
:101010001BF808100029F4D108E008F10101884606
:101020008142FADB1BF808100029F6D1DDE90F2315
:10103000AAEB08008146214600F036F9304400EB67
:10104000080604E0DDE90F121BF8010B9047B8F128
:101050000108F7D221464846F7E00A21C4F30253BB
:101060004FF0000B0891022B04D001CFC117032BC6
:1010700009D00AE0FF1D27F00707F7E8020108E0A2
:1010800032E01FE020E000B2C117042B01D140B2D2
:10109000C117031E71F1000307DA4FF0000CD0EB0B
:1010A0000C006CEB01012D2302E0230504D52B235A
:1010B0008DF82430012303E0E30701D02023F7E774
:1010C000984658E00A2110E010210EE010204FF061
:1010D000000B08900CE010214FF0000B44F00404CA
:1010E0004FF00809089103E008214FF0000B089128
:1010F000C4F30253022B04D001CF0021032B06D0EE
:1011000006E0FF1D27F00707F7E8020103E080B2C1
:10111000042B00D1C0B24FF0000823072BD5702A52
:1011200007D0DDF820C08CF0100C5CEA0B0C05D069
:101130000EE040238DF82430012308E050EA01033B
:1011400006D030238DF824308DF8252002239846D0
:10115000DDF820C08CF0080C5CEA0B0C0BD150EAD7
:10116000010301D1630706D530238DF824304FF0F9
:101170000108A9F10109582A04D038A20B9208AA43
:101180000A920BE03AA2F9E75B46089AFFF7D9F911
:101190000B9B9B5C0A9A521E0A92137050EA010242
:1011A000F2D10A98ADEB000000F1200B600702D5E8
:1011B00024F4803401E04FF00109D94502DDA9EBA8
:1011C0000B0000E0002000EB0B0141440890AAEB6B
:1011D000010AE00306D4DDE90F232146504600F062
:1011E00063F806444FF0000908E009A911F8090066
:1011F000DDE90F12904709F10109761CC145F4DBC6
:10120000E0030CD5DDE90F232146504600F04CF8F1
:10121000064404E0DDE90F1230209047761C08995F
:10122000481E08900029F5DC08E00A980A99007821
:10123000491C0A91DDE90F129047761CBBF10001B1
:10124000ABF1010BF1DC21465046DDE90F2300F044
:1012500019F806446D1C1BE60928010030313233B1
:1012600034353637383961626364656600000000E2
:1012700030313233343536373839414243444546CC
:10128000000000002DE9F041044600251E461746E7
:10129000880404D405E039462020B0476D1C641E44
:1012A000F9D52846BDE8F0812DE9F0410446002536
:1012B0001E469046C80301D5302700E02027880449
:1012C00004D505E041463846B0476D1C641EF9D58B
:1012D0002846BDE8F0814A68002A06D00A68531CF7
:1012E0000B6010704868401E48607047022000F094
:1012F00073BA000070B50A4D686818B909A190204A
:1013000000F022FA002406E06868012110F8340099
:1013100001F086FB641C28788442F5D3002070BD60
:10132000480000202E2E5C2E2E5C2E2E5C2E2E5C75
:101330002E2E5C2E2E5C636F6D706F6E656E7473F7
:101340005C6C69627261726965735C627574746FFA
:101350006E5C6170705F627574746F6E2E630000F6
:10136000F8B515460C460646052A01D20720F8BDF9
:1013700001F05AFC18B901F029FC0028F7D11049F6
:1013800000204E600C70C1E902500E4D08610DE066
:1013900006EBC4006968009181788DF8011000782F
:1013A000094A694601F09CFB0028E0D1641EE4B2C2
:1013B000EED2BDE8F840054A0021024800F068B8C6
:1013C000480000207C54000039200000951E0000D9
:1013D00070B50D460646144608A1012002F0F6FD40
:1013E00002F04EFD02F050FD0028FBD122462946B6
:1013F0003046BDE8704000F019B800004150505F21
:101400004552524F523A4552524F523A46617461D8
:101410006C0D0A000EB5ADF80010CDE901206A464A
:10142000002144F20100FFF7D3FF0EBD08B50123F0
:101430008DF800309DF80030144B186059609A60A8
:101440006FF48041401807D001280FD1DA60D868C6
:1014500000889861D86807E01A6118698068586147
:1014600018690088986118694068D86118685868D8
:101470009868D868186958699869D86972B600BFC1
:101480009DF800000028FBD162B608BD4004002092
:10149000074B5B6823B12AB120B10068037C1BB104
:1014A0000820704707207047417442610020704750
:1014B0006C0000202DE9F0470746984614468946FF
:1014C00090074FF0000526D12CB303F00FF9134E0F
:1014D00006F11000C6F80C800570457080F8029087
:1014E00044607560357075701420FFF7ADF9072101
:1014F0001420FFF7CAF91420FFF7B1F90848076074
:1015000007211120FFF7C1F90548001F0068B060EE
:101510000020BDE8F0870720FBE700005C0000200A
:10152000081501402DE9F843DFF87090D9F8043030
:101530005BB350B3052902D20720BDE8F8834369A5
:101540001BB3437C012B22D000270446002588468C
:101550001646284600F036F8684603F075FEC0B11E
:10156000012101700E4944600968C0E90218C0E910
:1015700004769DF8000089F80100002000F050F882
:101580001420FFF777F92846D7E70820D5E70F465C
:10159000DBE70425002000F043F8F4E76C000020AE
:1015A000041501400649496839B130B1416921B19A
:1015B00000210174022103F05DB90820704700008A
:1015C0006C00002010B503F053F8012803D004A1EB
:1015D0001E2000F0B9F8BDE8104000F04FB8000040
:1015E0002E2E5C2E2E5C2E2E5C2E2E5C2E2E5C2E35
:1015F0002E5C636F6D706F6E656E74735C6C696288
:101600007261726965735C7574696C5C6170705F3E
:101610007574696C5F706C6174666F726D2E6300B7
:1016200010B503F025F8012803D004A12C2000F008
:101630008BF8BDE8104000F029B800002E2E5C2E7B
:101640002E5C2E2E5C2E2E5C2E2E5C2E2E5C636F5E
:101650006D706F6E656E74735C6C696272617269D5
:1016600065735C7574696C5C6170705F7574696CCE
:101670005F706C6174666F726D2E630072B60248A3
:101680000168491C016070477C000020034908681C
:10169000401E086000D162B6704700007C00002048
:1016A00070B5054608680C46411C04D002F01DFACE
:1016B000206802F050F96068411C02D0002102F05D
:1016C00041F928791F4901EB40102968007F002863
:1016D000A069C1F8240523D0607D227D29681043CC
:1016E000C1F86C05D4E900122868C0F80C15C0F8E0
:1016F000142522E0A068411C02D0002102F022F94A
:10170000E068411C04D002F0F0F9E06802F023F92F
:10171000D4E902122868C0F80825C0F8101570BD79
:10172000607D217D2A680843C2F86C05D4E9001267
:101730002868C0F81425C0F80C15207D0128D9D0E0
:1017400070BD0000C80100201CB56A46ADF800005D
:101750000191002144F20200FFF73AFE1CBD10285F
:1017600002D31038C0B2704740F0800070470000CC
:1017700038B50446042803D30AA15D20FFF7E4FF2F
:101780001448005D0090684602F008F9D0F8100592
:101790000099C84010F0010000D0012080F0010045
:1017A00038BD00002E2E5C2E2E5C2E2E5C2E2E5C64
:1017B0002E2E5C2E2E5C636F6D706F6E656E747373
:1017C0005C626F617264735C626F617264732E63DA
:1017D000000000006C53000038B50446042803D311
:1017E0000BA13620FFF7B0FF1548005D009068465A
:1017F00002F0D4F8D0F80425009B0121994021EA99
:101800000203C0F808351140C0F80C1538BD0000BF
:101810002E2E5C2E2E5C2E2E5C2E2E5C2E2E5C2E02
:101820002E5C636F6D706F6E656E74735C626F615A
:101830007264735C626F617264732E6300000000F7
:101840006853000010B50446042803D305A11E20E8
:10185000FFF77AFF0F480121005DBDE8104002F05C
:101860004EB900002E2E5C2E2E5C2E2E5C2E2E5C91
:101870002E2E5C2E2E5C636F6D706F6E656E7473B2
:101880005C626F617264735C626F617264732E6319
:10189000000000006853000010B50446042803D37C
:1018A00005A11820FFF750FF0F480021005DBDE89B
:1018B000104002F024B900002E2E5C2E2E5C2E2E3D
:1018C0005C2E2E5C2E2E5C2E2E5C636F6D706F6E08
:1018D000656E74735C626F617264735C626F617277
:1018E00064732E63000000006853000038B504469E
:1018F000042803D30AA11120FFF726FF1448005D36
:101900000090684602F04AF8D0F804050099C840F3
:1019100010F0010000D0012080F0010038BD00006F
:101920002E2E5C2E2E5C2E2E5C2E2E5C2E2E5C2EF1
:101930002E5C636F6D706F6E656E74735C626F6149
:101940007264735C626F617264732E6300000000E6
:10195000685300007CB50024084E25460122305D06
:10196000009500231146019501F098FF641C042C9A
:10197000F4D3BDE87C4000F003B8000068530000D9
:1019800010B500242046FFF75DFF641C042CF9D33A
:1019900010BD10B500242046FFF77EFF641C042C08
:1019A000F9D310BD10B50246064B4FF0FF300021B1
:1019B0005C5C944201D1084610BD491C0429F7D350
:1019C00010BD00006C5300002DE9F0470D46814624
:1019D000FFF7E8FF0446042838D2DFF878801C4877
:1019E0001D4EA8F1100735B3012D0ED0022D2DD1BB
:1019F00004EB440030444578002D27D0F9680029D5
:101A000024D02846BDE8F047084704EB4401755C44
:101A10000E44717859B179680E4A01EB8101490091
:101A20000E3A8068FFF77EFD08B987F80290B1781A
:101A300008F80410E0E78068FFF7B4FD04EB440108
:101A4000314418F804008D78A842D5D0BDE8F0875D
:101A5000705300001C0000202001002070B50023FE
:101A6000042810D20D4D00EB4004012A02D10129B7
:101A70000CD00022094E00EB4000304461B1012936
:101A800006D0022906D00723184670BD0E30C2B218
:101A90002A55F9E74270F7E78270F5E72001002048
:101AA0000C2802D101490120C870704700000020B5
:101AB0002DE9F04106461F4800240F464160C0E969
:101AC0000262B0071FD50025012211462846FFF704
:101AD000C5FF6D1C0446042D02D2002CF4D012E088
:101AE0008CB97A0804211448FFF73AFC04000AD1A3
:101AF000FFF700FC040006D10F48104A0021001F28
:101B0000FFF7C6FC0446F00701D0FFF723FF74B9C6
:101B100009480B4A00210C38FFF7BAFC040006D133
:101B20000548084A01210838FFF7B2FC0446204660
:101B3000BDE8F0810C0000207C530000451D000032
:101B400089210000ED1200002DE9F047594C0546AF
:101B50000026607818B100206070FFF711FF0120A7
:101B6000554F4FF47A694FF4C87A4FF06408182D36
:101B70002CD2DFE805F0890C0C2C3A4751565A61FB
:101B80005A619B6969696969898C8F929B9B002066
:101B9000FFF7ACFE00284FF0000008D0FFF752FE20
:101BA000022D02D14FF4E16006E0484604E0FFF761
:101BB00073FE022D2ED05046B0FBF8F12570606800
:101BC000414300223868FFF7ADFC064659E000208B
:101BD000FFF78CFE28B10020FFF734FE4FF4487069
:101BE000EAE70020FFF758FE14E00020FFF77EFE32
:101BF00000284FF0000002D0FFF724FED5E7FFF7E2
:101C00004BFED8E70020FFF771FE0028E9D0002046
:101C1000FFF718FEC820CFE70020FFF7DDFD257095
:101C200007E000203FE025702BE060700120FFF707
:101C3000D3FD00226168C5E760700120FFF7CCFD8D
:101C4000606800EB8001BCE77868FFF7ABFC0646F4
:101C5000D5F1110000D01EB10220FFF7F3FD10E016
:101C600001280BD9C82110FB01F1B1FBF8F1606824
:101C7000002241437868FFF755FC06460220FFF733
:101C80000BFE3046BDE8F087FFF77AFECBE7FFF7A3
:101C900077FEC6E7FFF774FE04E0FFF771FE002051
:101CA000FFF7FAFD0120FFF7F7FDBCE7FFF771FE34
:101CB000B9E700000C00002070530000002901DA91
:101CC0000020704702681144016001207047000045
:101CD00070B5461C0D4601240020FFF773FC114A25
:101CE00010682860D2E900109568081A2B1A701C39
:101CF0005B1C98420FD963B10B480C4B294000681C
:101D00001B6802EB810163F39F20C8601068401CD0
:101D10001060002401E0881910600020FFF780FCAB
:101D2000204670BD60050020A454000090000020F3
:101D3000034803C8814201D1012070470020704749
:101D40006005002000780221FFF73EBE05494FF0F4
:101D5000FF32082841F8202002D3084480F8582098
:101D60007047000060010020F0B54FF0FF3512B160
:101D70000023082601E008230C260C4C05E000BFD8
:101D800054F823707F1C04D05B1CB342F8D3284660
:101D9000F0BD26185DB286F8305044F82310002AB2
:101DA000F5D1E11881F85800F1E70000600100204A
:101DB0000249084490F9300070470000600100209B
:101DC00070B5084C050009D010342168002907D0EF
:101DD00008682060496828468847F6E70834F4E731
:101DE00070BD00004C0100202DE9F05F26484168DD
:101DF000F1B3DFF898B00E688146DBF800408768E1
:101E00008078E11B21F07F45ED1CB0B9DFF88080C0
:101E10004FF48030C8F84403C8F804031120FEF7DB
:101E200013FD1120FEF71BFD4FF0010AC8F800A0BA
:101E30002F2000F00DFC89F802A0B54200D23546F3
:101E4000124BE8193C3320F07F401860DBF800109B
:101E50005A46091B21F07F41001B20F07F40C91C1E
:101E600081420FD9106818602F2000F0F1FB00E0CC
:101E700004E0BDE8F05F1120FEF7FCBCBDE8F05FB8
:101E800002F034BCBDE8F09F5C0000200415014066
:101E9000001001402DE9F04100260125144C22E0FC
:101EA0006068226900EBC607387805FA00F1114234
:101EB00017D08A43226100F077FE02463878E36843
:101EC00005FA00F1194002FA00F3994209D1797834
:101ED000012901D0012100E0002151407A6802B1BE
:101EE0009047761CF6B220788642D9D3BDE8F081BF
:101EF000480000200E4910B50A784C780023A24211
:101F000012D0521CD2B20A70022A00D10B70084AB9
:101F10000B78183252F8232002608868104420F0B1
:101F20007F408860012010BD0360002010BD0000CC
:101F30005C00002010B50446010600F00F000928DF
:101F400004D306A14FF4BB70FFF7FEFB6FEA0460F9
:101F5000C10F204661F31F1010BD00002E2E5C2E15
:101F60002E5C2E2E5C2E2E5C2E2E5C2E2E5C636F35
:101F70006D706F6E656E74735C6472697665727392
:101F80005F6E72665C757362645C6E72665F6472CB
:101F9000765F757362642E630000000070B50546BD
:101FA000000605F00F0402D5092C09D301E0092C25
:101FB00008D308A14FF4B270FFF7C6FB280601D57D
:101FC000144801E01348FC38C4EBC40100EB810065
:101FD00070BD00002E2E5C2E2E5C2E2E5C2E2E5CF4
:101FE0002E2E5C2E2E5C636F6D706F6E656E74733B
:101FF0005C647269766572735F6E72665C7573623B
:10200000645C6E72665F6472765F757362642E6381
:1020100000000000E402002010B50446010600F0B4
:102020000F00092804D3034940F24710FFF78CFB47
:10203000204610BD104E00002DE9F041124E07461B
:102040000125BD403068FFF7ADFA00280DD10F4CD7
:102050002069284207D1384600F0A6FD0028E06834
:1020600005D0284304E0A8432061BDE8F081A843DF
:10207000E060206928432061A1683068BDE8F04134
:102080000022FFF74FBA00007C54000048000020F7
:1020900010B500F0AFFB20B1154A40F26931FFF7EF
:1020A000B9F9002000F0DAFD20B1114A40F26B319D
:1020B000FFF7B0F9002000F041FB002000F0EEFB3C
:1020C00000F00CFB0028FBD000F0B6FB0028F7D096
:1020D0000023084A03211846FFF7ECF9002806D030
:1020E000BDE81040024A4FF45D71FFF793B910BD8F
:1020F000302500009800002070B50E460446007997
:1021000018494FF4A27501EB4010017F2068A1B17E
:102110004FF4887101F0E6FF4FF49071206801F0F0
:10212000E1FF4FF49271206801F0DCFF294620683E
:1021300001F0D8FF0C49206809E04FF48E7101F0DE
:10214000C0FF2946206801F0BCFF08492068C0F89C
:102150000413206800F060FC3146BDE8704000F0D8
:1021600033BC0000C8010020100302008000020000
:102170000268134602E08A4204D01268002AFAD1AB
:102180000B600160704700000348017AC90702D064
:102190000078FFF7D9BC70470C0000202DE9F04310
:1021A000264CA4F110092278D9F8048099F803503C
:1021B000404694F801C0D9F8086031E002EB4203D0
:1021C0006168521C01EBC301A378D2B2934200D1E3
:1021D00000220B78022B02D0032B21D11DE00346F5
:1021E0004F68194603E0B94203D00B46C969B9B13B
:1021F000F9E7A9B18B4205D1C06918B9104E012584
:10220000B56000260F68C969D96149B10B683B44C4
:102210000B6005E00174C06900E000210028F9D1DD
:102220009445CBD1C9E9010689F80350404502D055
:102230000120BDE8F0830020FBE700006C000020D7
:10224000001001402DE9F0412A4F0446002607F115
:102250001005D7F804803EE002D02046E4691DE076
:102260002878696800EB4002401CC0B201EBC20153
:102270002870AA78904200D12E700A784868012A06
:102280002BD1027C4ABB8A684260CA6882600A69B4
:10229000C26049698161F97801B146604368BA68F2
:1022A000DFF854C0991A21F07F41614502D282685B
:1022B000114406E0D11A826821F07F418A4202D996
:1022C000511A016000E006604660012186600174D9
:1022D000C66102F0B1FA002CBED128786978884234
:1022E000BED17968414502D00120BDE8F0810020CF
:1022F000FBE700005C000020FFFF7F00224810B5D4
:10230000046822A1032001F061FE1CB925A103206D
:1023100001F05CFEE00703D026A1032001F056FE89
:10232000A00703D528A1032001F050FE600703D5C4
:1023300029A1032001F04AFE200703D52AA103208A
:1023400001F044FEE00303D52CA1032001F03EFE82
:10235000A00303D52DA1032001F038FE600303D5AF
:102360002FA1032001F032FE200303D530A103206A
:1023700001F02CFEE00205D5BDE8104030A103209D
:1023800001F024BE10BD0000000400403A494E4652
:102390004F3A526573657420726561736F6E733A5C
:1023A0000D0A00003A494E464F3A2D204E4F4E45F9
:1023B0000D0A00003A494E464F3A2D2052455345EA
:1023C0005450494E0D0A00003A494E464F3A2D20CE
:1023D000444F470D0A0000003A494E464F3A2D201F
:1023E000535245510D0A00003A494E464F3A2D20AE
:1023F0004C4F434B55500D0A000000003A494E46E1
:102400004F3A2D204F46460D0A0000003A494E46ED
:102410004F3A2D204C50434F4D500D0A0000000004
:102420003A494E464F3A2D204449460D0A000000D5
:102430003A494E464F3A2D204E46430D0A000000C1
:102440003A494E464F3A2D20564255530D0A000048
:10245000FFF71EFE354A40F6CD410220FFF728FB6C
:1024600020B133A240F28131FEF7D4FF0C220021CB
:102470000120FFF7F3FA20B12DA240F28731FEF7D9
:10248000C9FF002001F0FCFD2DA1032001F09EFDFD
:10249000FFF734FF2F49086808602F4801F096F8CD
:1024A0004021002000F076FF4021802000F072FFE4
:1024B000FFF750FA0220FFF7EFF90320FFF7ECF9DE
:1024C000264800F07FFC264CE07888B125A1032047
:1024D00001F07CFD01F0D8FC0028FBD10220FFF7C1
:1024E000B1F90320FFF7AEF9254901200860FEE7A6
:1024F000207850B10020FFF73BF998B121A10320CB
:1025000001F064FD00F04AF80CE001F0BDFC002889
:10251000FBD10220FFF796F920BF40BF20BF022069
:10252000FFF7BAF901F0B0FCCEE70000A11A0000F5
:102530002E2E5C2E2E5C2E2E5C6D61696E2E63003D
:102540003A494E464F3A48656C6C6F2055534221CC
:102550000D0A000000040040BD4F0000885200003A
:10256000000000203A494E464F3A476F696E672097
:10257000746F2073797374656D204F46460D0A00A1
:10258000000500403A494E464F3A2020205458203A
:10259000706F696E7465720D0A00000010B5144CFE
:1025A0002078002823D0A078002820D1607810F06F
:1025B000030006D0012807D0022808D003280CD138
:1025C00008E04FF4206007E04FF4202004E04FF4CF
:1025D000764001E04FF47600A0606078401C6070A7
:1025E00000220449812000F075FF0120A07010BD79
:1025F000000000208C52000008B56A46FDF723FF5A
:10260000009808BDC20800F007030120895C9840CB
:102610000840704700F180400068002800D0012089
:10262000704708B500F1804000210160006800900B
:1026300008BD00000549096840F4803001F001112F
:10264000814201D101207047002070470C040040F6
:1026500000283ED01F49204A096800BF00BF00BFC4
:1026600000BF00BF00BF00BF00BF91422FD000BF1E
:1026700000BF00BF00BF00BF00BF00BF00BF00BF62
:1026800000BF00BF00BF00BF00BF00BF00BF00BF52
:1026900000BF00BF00BF00BF00BF00BF00BF00BF42
:1026A00000BF00BF00BF00BF00BF00BF00BF00BF32
:1026B00000BF00BF00BF00BF00BF00BF00BF00BF22
:1026C00000BF00BF00BF00BF00BF00BF00BF013898
:1026D000C3D17047940000200024F400064810B5D0
:1026E000007820B905A140F24310FFF72DF8BDE8AE
:1026F00010400120FFF79EBF4C0100202E2E5C2EC3
:102700002E5C2E2E5C2E2E5C2E2E5C2E2E5C636F8D
:102710006D706F6E656E74735C64726976657273EA
:102720005F6E72665C636C6F636B5C6E72665F6437
:1027300072765F636C6F636B2E63000070B51C4C28
:102740000546207820B91BA14FF48A70FEF7FCFFE4
:10275000607838B115B16968002088470020FEF71D
:1027600031FF13E00020FEF72DFF25B11048294668
:102770000830FFF7FDFC606840B94FF48070FFF748
:1027800050FF01208107C1F8040308606068401C05
:1027900060600020FEF744FF6068002806D1BDE8B5
:1027A000704004A14FF49870FEF7CEBF70BD0000DA
:1027B0004C0100202E2E5C2E2E5C2E2E5C2E2E5CCC
:1027C0002E2E5C2E2E5C636F6D706F6E656E747353
:1027D0005C647269766572735F6E72665C636C6F5F
:1027E000636B5C6E72665F6472765F636C6F636B63
:1027F0002E63000070B50E4C0025207808B18525A9
:1028000013E00021A16061602161E1604FF0E020F0
:10281000D0F80001012610F0010F03D1072100209C
:1028200000F0D2F8034806602670284670BD00000C
:102830004C01002018050040064810B5007820B96A
:1028400005A14FF48370FEF77FFF13480068C0F3C3
:10285000004010BD4C0100202E2E5C2E2E5C2E2E32
:102860005C2E2E5C2E2E5C2E2E5C636F6D706F6E58
:10287000656E74735C647269766572735F6E72669E
:102880005C636C6F636B5C6E72665F6472765F63D1
:102890006C6F636B2E6300001804004070B51C4C15
:1028A0000546207818B91BA1D720FEF74DFFA07868
:1028B00038B115B16968012088470020FEF782FE13
:1028C00015E00020FEF77EFE25B1114829461030A4
:1028D000FFF74EFCE06850B94FF48270FFF7A1FE9D
:1028E00002204107C1F804031A4901200860E0688A
:1028F000401CE0600020FEF793FEE068002805D150
:10290000BDE8704003A1F320FEF71EBF70BD0000BC
:102910004C0100202E2E5C2E2E5C2E2E5C2E2E5C6A
:102920002E2E5C2E2E5C636F6D706F6E656E7473F1
:102930005C647269766572735F6E72665C636C6FFD
:10294000636B5C6E72665F6472765F636C6F636B01
:102950002E630000080000402DE9F0414FF480771D
:102960003846FFF757FE0124104EA50748B13846F8
:10297000FFF757FE0120C5F8080374700020FFF729
:102980001FFA4FF482773846FFF744FE00280BD039
:102990003846FFF746FE0220C5F80803B470BDE8CC
:1029A000F0410120FFF70CBABDE8F0814C01002096
:1029B00000F01F02012191404009800000F1E02059
:1029C000C0F880117047000070B50D460446082914
:1029D00003D31049FE20FEF7B7FE6807000E002C57
:1029E00006DA04F00F0101F1E02181F8140D03E093
:1029F00004F1E02181F8000404F01F010120884067
:102A00006109890001F1E021C1F88002C1F80001EB
:102A100070BD000050550000000B40B27047000030
:102A20002DE9F0410E468046302804D329494FF461
:102A30000070FEF789FE404601F048FD20B92549A7
:102A400040F20120FEF780FE404601F049FD224D94
:102A50000028404616D0FFF7ABF9284490F85800FC
:102A60008009032802D001280AD003E0404601F083
:102A700031F828B103214046BDE8F04100F075BFB0
:102A80000221F8E701F038FD002820D04046FFF78A
:102A90008FF90446114F4FF4807007EB840100EB6F
:102AA0008400D1F8102580B242F00102C1F810254F
:102AB00001F072F8002E0AD04046FFF779F955F878
:102AC0002000002803D00120A040C7F80403BDE87F
:102AD000F08100009455000060010020006000407B
:102AE0002DE9FC4114460E460546302804D32A49F8
:102AF0004FF4E970FEF728FE0027284601F0E6FCB7
:102B000008B1082744E0F27821462846FFF72CF95F
:102B10000446401C3BD0B07868B16846009500F090
:102B200071FF009900EB8100D0F8001721F002013D
:102B3000C0F8001707E000217378284600910A4684
:102B4000019100F0C4FEF078C0B11448317800EB78
:102B50008400D0F81025124B1A40C0F810254FF40D
:102B6000FE424FF4403302EA052203EA01410A43E0
:102B7000D0F810150A43C0F8102509E0094832784A
:102B8000204410F8581F41EA8211017000E0042728
:102B90003846BDE8FC81000094550000006000400C
:102BA000FF80FCFF6001002010B50446302804D3EC
:102BB000054940F24D20FEF7C7FD204600F08AFF90
:102BC000002800D0012010BD9455000070B5144DB0
:102BD00095F8640008B1082070BD0020411E2A1835
:102BE000401CC0B282F830103028F8D300242046B0
:102BF000FFF7ACF8641CE4B20C2CF8D307210620D4
:102C0000FFF7E2FE4FF4BE7000F0C6FF05494FF03B
:102C10000040C1F80403012085F86400002070BD65
:102C20006001002000600040034890F86400002824
:102C300000D0012070470000600100200121B1EBAD
:102C4000507F01D101207047002070470121B1EB76
:102C5000507F01D1012070470020704770B5104CA3
:102C6000217809B1852070BD00B90E480E4A01785F
:102C700001F0010111600C4900780831C0F34000F7
:102C800008604FF0E020D0F80001012510F0010F9E
:102C900003D107210020FFF797FE2570002070BDAB
:102CA00020000020A45300007805004070B54FF0CC
:102CB0008040D0F80453324C68070CD54FF4847030
:102CC00001F0F0F938B1606818B92EA1C320FEF701
:102CD0003BFD60688047A8060DD54FF48A7001F06F
:102CE000E1F940B1A06818B926A1CA20FEF72CFD71
:102CF000A1680020884768060DD54FF48C7001F05C
:102D0000D1F940B1A06818B91EA1D020FEF71CFD72
:102D1000A1680120884728060DD54FF48E7001F078
:102D2000C1F940B1E06818B916A1D820FEF70CFD32
:102D3000E16800208847E8050DD54FF4907001F058
:102D4000B1F940B1E06818B90EA1DE20FEF7FCFC35
:102D5000E16801208847A80510D54FF4927001F072
:102D6000A1F900280AD0E06818B906A1E420FEF70E
:102D7000EBFCE168BDE870400220084770BD000030
:102D8000200000202E2E5C2E2E5C2E2E5C2E2E5C23
:102D90002E2E5C2E2E5C636F6D706F6E656E74737D
:102DA0005C647269766572735F6E72665C706F7771
:102DB00065725C6E72665F6472765F706F77657263
:102DC0002E63000000B5024600F00EF810680028DF
:102DD00007D00449C8604FF080414FF46070C1F8DB
:102DE000040300BD200000204FF080414FF46070CC
:102DF000C1F8080301490020C86070472000002086
:102E000010B50446B0F5000F03D307496D20FEF757
:102E10009BFC4FF0E020816982698A1A22F07F4290
:102E2000A242F9D310BD0000D855000070B50B4D7B
:102E300004460B4E28680B49B0FBF6F0B1FBF0F0EE
:102E4000A04203D208497820FEF77EFC2868B0FB38
:102E5000F6F06043BDE87040FFF7D2BF9400002059
:102E600040420F00FFFF7F00D85500004FF0E020E8
:102E70006FF07F4141610521016170472DE9F0410B
:102E800090460D00064603D118A1E420FEF75CFC35
:102E90003079264F07EB4014E07E10B10820BDE8E2
:102EA000F081687F207729463046FEF7F9FB5FEA1C
:102EB000080060602969216003D0297F3046FFF750
:102EC0001BF9307907EB4010007F0028306801D0F3
:102ED000082100E00421C0F800150020E0752076EC
:102EE000A0750121E176A076D9E700002E2E5C2E98
:102EF0002E5C2E2E5C2E2E5C2E2E5C2E2E5C636F96
:102F00006D706F6E656E74735C64726976657273F2
:102F10005F6E72665C756172745C6E72665F64721D
:102F2000765F756172742E6300000000C801002096
:102F30002DE9F0470E460179DFF82881044608EBB9
:102F400041151746E87E012804D047A140F27110D0
:102F5000FEF7FAFB27B944A14FF4B970FEF7F4FB72
:102F600026B941A140F27310FEF7EEFB217908EB80
:102F70004110007F18B13046FFF760FE30B12046A7
:102F800000F092F820B11120BDE8F0871020FBE797
:102F9000AF750027AE60AF8221793E4608EB411540
:102FA0004FF00108287F0028206825D04FF4907941
:102FB000494601F097F84FF4AC7A5146206801F089
:102FC00091F82068A97DAA68C0F84425C0F8481582
:102FD0002068C0F808806868F0B94946206801F0A8
:102FE0007CF880465146206801F077F858EA0001E5
:102FF000F3D058BBAF750FE04FF48E7A514601F015
:1030000060F82068C0F808802946206801F0D0FCEC
:1030100069684FF4807089B13046B5E75146206841
:1030200001F04AF810B9A88A4845F7D1A88A48455E
:1030300005D02946206801F0BBFC00E08146A88A43
:10304000A97D8842EAD3A88A484501D10F26D1E755
:103050005146206801F030F80028F9D02068C0F807
:103060000C80C7E7C80100202E2E5C2E2E5C2E2E71
:103070005C2E2E5C2E2E5C2E2E5C636F6D706F6E40
:10308000656E74735C647269766572735F6E726686
:103090005C756172745C6E72665F6472765F756196
:1030A00072742E63000000000079044901EB4010A7
:1030B000807D002800D0012070470000C80100205A
:1030C00070B5044600791149002601EB40152068CF
:1030D0002A7FC0F80065686888B1207901EB40104C
:1030E000007F0028206801D0094901E008498C3997
:1030F000C0F808132068FFF78FFCFFF759FC204643
:1031000001F006FAEE766E6070BD0000C801002086
:103110001003020010B50D4C207820B90CA140F22C
:103120007A50FEF711FB00F031FB1949D1F8040386
:10313000C1F80803174900200860BFF36F8FBFF381
:103140004F8FA0700120207010BD000030000020C3
:103150002E2E5C2E2E5C2E2E5C2E2E5C2E2E5C2EA9
:103160002E5C636F6D706F6E656E74735C647269F4
:10317000766572735F6E72665C757362645C6E72A4
:10318000665F6472765F757362642E630000000090
:10319000007002400075024070B5154C207801287F
:1031A00004D014A140F26150FEF7CEFA4FF400654E
:1031B000284601F075F91F4901200860BFF36F8FA1
:1031C000BFF34F8F1C4801680905FCD5284601F064
:1031D00067F9184980201C31086040F2FF10A06098
:1031E0000020E060A07060700220207070BD0000C0
:1031F000300000202E2E5C2E2E5C2E2E5C2E2E5C9F
:103200002E2E5C2E2E5C636F6D706F6E656E747308
:103210005C647269766572735F6E72665C75736208
:10322000645C6E72665F6472765F757362642E634F
:1032300000000000007502400074024070B50646B0
:10324000FEF7EAFE00F00F040546082C04D90E49EB
:1032500040F26740FEF778FA29064FF0010001D5E9
:103260000A4901E00949091D0A68A04082430A6031
:10327000BFF36F8FBFF34F8F304600F0EFF8044974
:10328000C1F8080370BD00009043000010750240B3
:10329000007002407CB50646FEF7BEFE00F00F054A
:1032A0000446082D04D9244940F25640FEF74CFA52
:1032B00020064FF0010401D5204801E01F48001D01
:1032C000016804FA05F211430160BFF36F8FBFF389
:1032D0004F8F304600F0C2F81949C1F80403300797
:1032E00029D0300627D40020FEF76CF93046FEF7CF
:1032F00021FE8440134881680C4384603046FEF709
:103300004DFE044606F00F0008280DD20020009064
:10331000024601906946304600F0DCF820B10AA16F
:1033200040F2E550FEF710FA0320A076BDE87C409D
:103330000020FEF775B97CBD904300001075024077
:1033400000700240300000202E2E5C2E2E5C2E2EAF
:103350005C2E2E5C2E2E5C2E2E5C636F6D706F6E5D
:10336000656E74735C647269766572735F6E7266A3
:103370005C757362645C6E72665F6472765F7573AF
:1033800062642E630000000010B5FEF707FE008B9C
:1033900010BD000070B50C00054602D0601E04424E
:1033A00004D00DA140F2C450FEF7CEF905F00F0095
:1033B000082805D3284601F0F3FDA04207D201E01A
:1033C000402C04D904A140F2C650FEF7BDF92846AE
:1033D000FEF7E4FD048370BD2E2E5C2E2E5C2E2E97
:1033E0005C2E2E5C2E2E5C2E2E5C636F6D706F6ECD
:1033F000656E74735C647269766572735F6E726613
:103400005C757362645C6E72665F6472765F75731E
:1034100062642E630000000010B5FEF7FDFD044657
:1034200000F00F00082804D3064940F27F40FEF761
:103430008BF9054944F480700860BFF36F8FBFF3C8
:103440004F8F10BD904300001875024010B5FEF775
:10345000E3FDBDE8104000F073BE000070B5054606
:10346000000605F00F0402D5092C09D301E0092C50
:1034700008D307A14FF48F70FEF766F9280601D52F
:10348000134801E012480930015D0120884070BDF9
:103490002E2E5C2E2E5C2E2E5C2E2E5C2E2E5C2E66
:1034A0002E5C636F6D706F6E656E74735C647269B1
:1034B000766572735F6E72665C757362645C6E7261
:1034C000665F6472765F757362642E63000000004D
:1034D000685400002DE9F04716460D460746FEF7F2
:1034E00029FD804625B923A140F2FB50FEF72CF9B7
:1034F0000020FEF767F82F48390704D141788F4242
:1035000001D0102430E001898146C943C06889B2E6
:103510000124014304FA08F4214201D0112423E0DC
:10352000384600F00DFE08B10F241DE03846FEF7C6
:1035300035FD002126B1D6E90023C0E9002300E0D3
:103540000160D5E90023C0E90223D5E90023C0E9E1
:1035500004238176D9F80C100C43C9F80C401649A5
:1035600000248020C1F800020020FEF759F8204610
:10357000BDE8F0872E2E5C2E2E5C2E2E5C2E2E5C4F
:103580002E2E5C2E2E5C636F6D706F6E656E747385
:103590005C647269766572735F6E72665C75736285
:1035A000645C6E72665F6472765F757362642E63CC
:1035B000000000003000002004E000E010B5FEF73D
:1035C0002BFDBDE8104000F001BF00002DE9F041E7
:1035D0000446FFF74BFC2CB1214D287820B1082080
:1035E000BDE8F0810720FBE70020FFF7A7F800BF48
:1035F000FFF774F80028FBD06C60012000242870CD
:103600004602254644F0800707F00F00082801D342
:10361000314600E040213846FFF7BCFE3846FEF751
:10362000BDFC8576641C4561E4B2C560092CE9D314
:103630005FF0000404F00F00082801D3314600E0D9
:1036400040212046FFF7A6FE2046FEF7A7FC857620
:10365000641C4561E4B2C560092CEBD30020BFE7D0
:103660003000002003480078022801D30120704771
:10367000002070473000002000B5FFF7F3FF38B19D
:103680000448D0F8000110F0800F01D0012000BDE7
:10369000002000BD04E000E010B54C2000F00AFF5F
:1036A000BDE81040502000F005BF0000002101607F
:1036B00041601149096801700F49091D096841708D
:1036C0000D49083109680C4A0C32126841EA02219E
:1036D0004180094910310968074A1432126841EAE9
:1036E00002218180044918310968034A1C3212689A
:1036F00041EA0221C180704780740240542000F0EA
:10370000D9BE00000C4810B50078022804D00BA1E7
:103710004FF4B160FEF718F819491848C1F80403CE
:10372000184A01208021C2F8001117490860BFF330
:103730006F8FBFF34F8F10BD300000202E2E5C2EF8
:103740002E5C2E2E5C2E2E5C2E2E5C2E2E5C636F3D
:103750006D706F6E656E74735C647269766572739A
:103760005F6E72665C757362645C6E72665F6472D3
:10377000765F757362642E63000000000714E00337
:103780000070024004E000E0047502400B4810B5F0
:103790000078022804D00AA140F2A650FDF7D4FF19
:1037A00001F0BEFB164900200860BFF36F8FBFF326
:1037B0004F8F14498020C1F8800110BD30000020D7
:1037C0002E2E5C2E2E5C2E2E5C2E2E5C2E2E5C2E33
:1037D0002E5C636F6D706F6E656E74735C6472697E
:1037E000766572735F6E72665C757362645C6E722E
:1037F000665F6472765F757362642E63000000001A
:103800000475024004E000E01CB50446000604D53F
:1038100011A14FF4CF60FDF797FF2046FEF78AFB1A
:103820000146012088401C498968084212D004F0F2
:103830000F0008280ED20020009002460190694631
:103840002046FFF747FE002804D003A140F2816024
:10385000FDF77AFF1CBD00002E2E5C2E2E5C2E2E56
:103860005C2E2E5C2E2E5C2E2E5C636F6D706F6E48
:10387000656E74735C647269766572735F6E72668E
:103880005C757362645C6E72665F6472765F75739A
:1038900062642E6300000000300000202DE9FF412B
:1038A0001C46DDE90A7815460E46684600F076F8B3
:1038B00046EA450141EA840141EA072242EA084119
:1038C000009A00EB8200C0F80017BDE8FF812DE9E7
:1038D000FF411C46DDE90A7815460E46684600F0B1
:1038E00091F846EA450141EA840141EA072242EAA9
:1038F0000841009A00EB8200C0F80017BDE8FF8184
:103900002DE9FF411C46DDE90A7815460E4668465A
:1039100000F0ACF846EA450141EA840141EA072299
:1039200042EA0841009A00EB8200C0F80017BDE8A7
:10393000FF811CB5002100910B4601220191FFF788
:10394000DFFF1CBD1CB500220B4600921146019200
:10395000FFF7D6FF1CBD1CB5002100910B460122CC
:1039600001911146FFF7CCFF1CBD13B50C4668460C
:1039700000F048F8009900EB8101D1F8002722F40B
:103980004032C1F80027009900EB8100D0F8001701
:1039900041EA0441C0F800171CBD000010B5044600
:1039A0000068302804D308A14FF4D570FDF7CCFE91
:1039B0002068202802D24FF0A04010BD00F01F0068
:1039C00020600F4810BD00002E2E5C2E2E5C2E2E87
:1039D0005C2E2E5C2E2E5C2E2E5C636F6D706F6ED7
:1039E000656E74735C647269766572735F6E72661D
:1039F0005C68616C5C6E72665F6770696F2E6800F0
:103A00000003005010B504460068302804D308A114
:103A10004FF4D570FDF798FE2068202802D24FF0B1
:103A2000A04010BD00F01F0020600F4810BD000036
:103A30002E2E5C2E2E5C2E2E5C2E2E5C2E2E5C2EC0
:103A40002E5C636F6D706F6E656E74735C6472690B
:103A5000766572735F6E72665C68616C5C6E7266CE
:103A60005F6770696F2E68000003005010B5044650
:103A70000068302804D308A14FF4D570FDF764FE28
:103A80002068202802D24FF0A04010BD00F01F0097
:103A900020600F4810BD00002E2E5C2E2E5C2E2EB6
:103AA0005C2E2E5C2E2E5C2E2E5C636F6D706F6E06
:103AB000656E74735C647269766572735F6E72664C
:103AC0005C68616C5C6E72665F6770696F2E68001F
:103AD0000003005001B56846FFF794FFD0F81005C9
:103AE0000099C84000F0010008BD01B56846FFF725
:103AF000BDFF009A01219140C0F8081508BD38B5F6
:103B000001240090684631B1FFF748FF00998C40CE
:103B1000C0F8084538BDFFF741FF00998C40C0F858
:103B20000C4538BD7CB5154604460C4A6618022E75
:103B3000D2E90002CDE9000204D909A140F2C22075
:103B4000FDF702FE694605E051F82400D0F81005A3
:103B5000641C01C5A642F7D87CBD00009C53000040
:103B60002E2E5C2E2E5C2E2E5C2E2E5C2E2E5C2E8F
:103B70002E5C636F6D706F6E656E74735C647269DA
:103B8000766572735F6E72665C68616C5C6E72669D
:103B90005F6770696F2E6800034908B5084400210B
:103BA00001600068009008BD006000400249405874
:103BB000012800D000207047006000400048704796
:103BC000353C000030B5184C054689B0207828B146
:103BD0006078854202D1002009B030BD202213490F
:103BE0006846FCF795FC00208DF814000620009034
:103BF0000820019005200390072002904FF0EB7001
:103C000006900948001DFFF75BFA0DB1002200E0A5
:103C1000074A05486946001DFFF730F90028DBD147
:103C2000012020706570D6E78400002084540000D5
:103C3000ED4900002DE9F04FC1B00D004FF000013B
:103C400040914D984B991C46174601EB000B01D053
:103C50000A2000E00020804600F08CFD00287CD186
:103C60006E46BCB9409840AA3118284600F086FE3E
:103C7000002872D03846FCF75DFCC22800D9C2206B
:103C8000054640982A4630443946FCF741FC4098A6
:103C9000284440904FF0200A409901EB080231324D
:103CA0000DEB01050DEB0206002002E005F801AB6B
:103CB000401C4045FAD300275C4508D305F801AB0A
:103CC00005F801AB05F801AB06F801AB2DE04B9808
:103CD000844202D24A98005D02E0211A4C98405C6E
:103CE0002B46814602460121880022FA00F000F0AE
:103CF0000F00092801D9373000E03030C1F1010C44
:103D0000491E03F80C00EFD29D1C05F801ABFCF72F
:103D1000FBFB016811F8090010F03E0F01D0484686
:103D200000E02E2006F8010B641C7F1C102FC3D36B
:103D30000D2030700A20707085F800A04099684608
:103D400041444331409100F01BFD30B100F012FDC1
:103D500018B9002040905C459ED341B02046BDE894
:103D6000F08F2DE9F043C7B000251C4690468946E8
:103D70004E9F459500F0FEFC00287AD1459805AE8F
:103D8000311845AA484600F0F9FD002835D0072F24
:103D900027D2DFE807F004121B35424F5D00404692
:103DA000FCF7C8FB054645982918FF2919D8304467
:103DB0002A464146FCF7ACFB13E045982368C0F562
:103DC000807130444246FDF731F809E060680090A8
:103DD00045982368C0F5807130444246FDF726F8C7
:103DE0000546294645A8FDF769FF459978B3B1F521
:103DF000807F3ED805A800F0C3FC47B0BDE8F08343
:103E0000D4E90101CDE9000145982368C0F580712E
:103E100030444246FDF70AF8E2E7201D07C88DE866
:103E2000070045982368C0F5807130444246FCF78E
:103E3000FDFFD5E7201D0FC88DE80F0045982368CA
:103E4000C0F5807130444246FCF7F0FFC8E710E04F
:103E500004F1080001AD0FC885E80F00606800900C
:103E600045982368C0F5807130444246FCF7DEFF78
:103E7000B6E70020C1E7000000487047633D00003E
:103E80000120FFF79FBE00002DE9F04F87B0FDF73E
:103E90004FFF18B1002007B0BDE8F08F454ED6E9BE
:103EA000014704EA070006EB8000A146641CC568D0
:103EB0000CE000BFC5F3891000EB9550044404EA00
:103EC000070006EB8000A146C568641CA807F1D076
:103ED00005F003004FF0000B022805D0AA0A01A844
:103EE000C5F38313002153E004EA070006EB8000CA
:103EF00004F1010A0AEA0704C268381B80004FEA8D
:103F00009558001DC5F38913804521D929490C31E5
:103F100038B106EB840400F0FF0CA8EB00000C3471
:103F200004E00C46002108F0FF0C0846C0B2CDE9C1
:103F30000210CDE9004CD6F81444C5F3C20059462E
:103F4000A047404511D108F103080AEB98042AE084
:103F5000002106EB84000C300090CDE90181039133
:103F6000C5F3C200D6F81444EAE760F38F1509EAF6
:103F7000070006EB8000C56016E000BF04EA070CEE
:103F800006EB8C0C491CDCF80CC040F804CB641C1C
:103F90009942F3D3C5F3C2000093D6F8105401AB95
:103FA0005946A84700B17460FDF7C2FE80F00100D9
:103FB00071E7000060050020034AFF23936000239F
:103FC0001360536000F054B8600500202DE9F843F9
:103FD0000F4F88460446002569462846BE68FDF70F
:103FE00077FE002812D00B480021406861F3820060
:103FF000009964F3C50001EA060265F3891007EB36
:10400000820268F39F20491CD0600091BDE8F883CC
:1040100060050020A45400002DE9F843124D8846A5
:1040200004460127914669463846AE68FDF750FEC2
:10403000002817D00D480021806861F382000099A4
:1040400064F3C50001EA060267F3891005EB8202FA
:1040500068F39F20491CD0600091314005EB81013D
:10406000C1F80C90BDE8F88360050020A45400005E
:10407000024A02F5826203C2704700006005002018
:1040800070B506460020FFF79DFD040008D1FFF73C
:1040900095FD0546FFF7F0FE32462946FFF78CFFF7
:1040A000204670BD00F180410868002210B1012057
:1040B0000A607047104670474058002800D0012021
:1040C000704708B5002242504058009008BDD0F813
:1040D0000403084000D0012070474058002800D059
:1040E0000120704708B5002242504058009008BD9A
:1040F00030B5050600F00F030E4C03EB830004EB14
:1041000080000AD5082B03D30B480160001D09E08D
:10411000C0F80016C0F8042630BD082B04D30748A9
:104120000160001D026030BDC0F80017C0F8042710
:1041300030BD000000700240A0760240A07702402F
:1041400000F00F0108290DD2020607494FEA00705E
:1041500001EB906002D5D0F8200401E0D0F84404CF
:10416000012800D0002070470070024010B50446BE
:10417000000604D413A140F28220FDF7E5FA04F012
:104180000F00082804D30FA140F28320FDF7DCFACA
:104190001C49002088702046FDF700FF4169002976
:1041A0000FD100F09BFF00280BD12046FDF7C2FE87
:1041B000012181401348C943BDE810400C30FEF78F
:1041C0001BBA10BD2E2E5C2E2E5C2E2E5C2E2E5C6D
:1041D0002E2E5C2E2E5C636F6D706F6E656E747329
:1041E0005C647269766572735F6E72665C75736229
:1041F000645C6E72665F6472765F757362642E6370
:10420000000000003000002038B50446000604D449
:10421000164940F29A20FDF797FA04F00F0008289B
:1042200004D2124940F29B20FDF78EFA104D002077
:10423000A8702046FDF7B2FE4169002915D100F0B3
:104240004DFF002811D12046FDF774FE0121814069
:10425000C94305F10C00FEF7CFF9064880680090CD
:104260008DF8024069686846884738BD104E0000E6
:1042700030000020A85300002DE9F84F0446000646
:1042800004D531A140F2D920FDF75EFA04F00F0504
:10429000082D04D32CA140F2DA20FDF755FA3A4E4E
:1042A0004FF0000A204686F802A0FDF777FE817ED7
:1042B000032921D04169DFF8D4904FF0010800298B
:1042C00030D02046FFF77AF907462046FFF75CF822
:1042D000874211D22046FDF72DFE08FA00F0C143B7
:1042E00006F10C00FEF788F9D9F8140000908DF85B
:1042F0000240716868468847200601D4082D04D31F
:1043000023A140F22540FDF71FFA2F4A02EB850159
:10431000C1F8A0A4BFF36F8FBFF34F8FBDE8F84F74
:1043200000F074BC00F0DAFE0028E5D12046FDF76D
:1043300001FE08FA00F0C14313480C30FEF75CF9A7
:10434000D9F81000D2E700002E2E5C2E2E5C2E2E07
:104350005C2E2E5C2E2E5C2E2E5C636F6D706F6E4D
:10436000656E74735C647269766572735F6E726693
:104370005C757362645C6E72665F6472765F75739F
:1043800062642E630000000030000020A85300008B
:104390002E2E5C2E2E5C2E2E5C2E2E5C2E2E5C2E57
:1043A0002E5C636F6D706F6E656E74735C647269A2
:1043B000766572735F6E72665C68616C5C6E726665
:1043C0005F757362642E68000070024010B5044689
:1043D000000604D50B494FF48360FDF7B5F904F0EE
:1043E0000F00082808D304D0064940F21B40FDF70F
:1043F000ABF90548006810BD044901EB8000D0F816
:10440000A00410BD90430000C07402400070024040
:1044100038B5044600F00F00082804D2134940F2D2
:104420000930FDF791F9124D0020A8702046FDF7E4
:10443000B5FD817E032918D04169002915D100F00E
:104440004DFE002811D12046FDF774FD0121814069
:10445000C94305F10C00FEF7CFF8064880690090CB
:104460008DF8024069686846884738BD104E0000E4
:1044700030000020A853000002494058002800D016
:104480000120704700700240044908440021016087
:10449000BFF36F8FBFF34F8F704700000070024073
:1044A00003490860BFF36F8FBFF34F8F7047000061
:1044B000007402400449084401210160BFF36F8F7A
:1044C000BFF34F8F7047000000700240034908445B
:1044D00090F93000C017401C7047000060010020B8
:1044E0000449084490F93000082801DB0120704796
:1044F00000207047600100200449084490F9300012
:10450000082801D201207047002070476001002078
:1045100070B5034600791B4901EB40101968027F12
:104520004FF0FF30002AD1F80C25D1F81465D1F8EE
:104530000855D1F8104504D0C1F80C05C1F8140590
:1045400003E0C1F81405C1F80C051968C1F80805A5
:10455000C1F81005501C02D01046FFF7EAF9701C94
:1045600002D03046FFF7E5F9601C02D02046FFF785
:10457000E0F9681C04D02846BDE87040FFF7D9B9BF
:1045800070BD0000C801002010B550B1012814D042
:1045900002282CD0BDE810401DA14FF45570FDF746
:1045A000D3B81FA10320FFF711FDFFF75BF8002828
:1045B0002DD1BDE81040FEF7EFBD20A10320FFF78D
:1045C00005FD2549002008708870FFF755F808B1EF
:1045D000FFF7DCF8FFF746F808B1FEF79BFD002077
:1045E000FDF730F9BDE810400120FDF72BB91BA104
:1045F0000320FFF7EBFC0120FDF74EF9FFF73CF835
:10460000002804D1BDE810400120FFF77BB810BDA1
:104610002E2E5C2E2E5C2E2E5C6D61696E2E63003C
:104620003A494E464F3A55534220706F7765722093
:1046300064657465637465640D0A00003A494E460A
:104640004F3A55534220706F7765722072656D6FD7
:104650007665640D0A000000000000203A494E46CD
:104660004F3A5553422072656164790D0A0000008B
:10467000EFF30580C005C00D01D001207047EFF3B6
:10468000148040F30000401C704700001CB5C08837
:10469000904200D20246CDE90012002269468020F5
:1046A000FEF718FF020008D004A10120FFF7B4FCB8
:1046B0000AA140F27110FDF747F81CBD3A4552526D
:1046C0004F523A5472616E73666572206661696C0E
:1046D00065643A2025303878000000002E2E5C2ECC
:1046E0002E5C2E2E5C6D61696E2E630070B5012606
:1046F00070044FF0E0210025C1F88001084C401003
:10470000C4F84803C4F8080366602F20FDF7A0FF33
:10471000A660044C2F20A560FDF79AFFA57070BD20
:10472000001001405C00002070B50546C87D0C46B5
:1047300000284FF4847128460AD0FFF7C2FCD5F850
:104740001805627EE1688854607E401C607670BD0A
:10475000FFF7B7FCD5F8180570BD1FB501238DF81C
:1047600000308DF808100192D0E900126846904799
:104770001FBD00000148FEF797BC00008800002024
:1047800070B50D460A46014601240648FBF7C0FEF7
:10479000EAB204490448FEF7CBFB00B100242046EE
:1047A00070BD000060040020880000202DE9F84F53
:1047B000204C00256846D4E901B6FDF79BFB8046F6
:1047C000FDF7ECFC0746A946B8F1000F25D0002301
:1047D000009ACC46606819E007680146974202D902
:1047E000BA1A026014E0C1F800C0D1F80C80D21BE4
:1047F000C8693B448A46B8F1000F07D0F71827F084
:104800007F47C1E90178CAF81C500D460028E3D162
:1048100060602846FDF716FD04E02846FDF712FD0E
:1048200000B917B15846FDF7DFFA84F80390BDE8E8
:10483000F88F00005C0000200D4B10B5596831B1B5
:1048400002680C68A24204D8A21A0A60C1615860CA
:1048500010BD0B4603E00B46C969121B21B10C6861
:104860009442F8D3A41A0C600260C161D86110BDF3
:104870005C000020F8B5064600240D462046FCF7F3
:10488000A1FE684600F0E0FC68B10570084946608A
:104890009DF8000048700020FCF7C2FE1420FBF7D2
:1048A000E9FF2046F8BD04240020FCF7B9FEF8E734
:1048B0006C0000202DE9F0411F4D6C68002C38D0B1
:1048C0001E4800270068A968B846401A20F07F46B5
:1048D0002068B04218D82246361A0744E469107C92
:1048E00080B182F81080EB684BB1D2E9050198479E
:1048F00040B113A240F24311FCF78CFD02E0D2E973
:1049000005108847002CE3D129786878814206D1C8
:10491000401CC0B26870022801D185F801800648A9
:104920006978183040F82170BDE8F0411420FBF799
:10493000A1BFBDE8F08100005C000020041501402B
:104940002E2E5C2E2E5C2E2E5C2E2E5C2E2E5C2EA1
:104950002E5C636F6D706F6E656E74735C6C6962F4
:104960007261726965735C74696D65725C617070A7
:104970005F74696D65722E630000000010B5144607
:1049800002004FF001000CD00846136806A24FF455
:104990008071FCF74BFA01462046BDE81040FDF758
:1049A0008DB90021216010BD5B253038645D0000A9
:1049B00070B50C4605464FF48E71FFF782FBA18A55
:1049C000A068415CA08A401CA082C5F81C1570BD7F
:1049D0001FB500228DF800208DF808108168019124
:1049E0008275D0E90012684690471FBD0078012803
:1049F00001D1014988707047840000202DE9FF47EC
:104A00000C4605464FF40071FFF761FB01274FF498
:104A10000178002618B34FF4927949462846FFF7EB
:104A20004BFBE0B149462846FFF74BFBC5F808832E
:104A3000A07E00B96F6002208DF80000D5F88004D8
:104A4000C5F880040390E07D8DF80800E0680190CF
:104A5000E6752676D4E900126846904727E00421DF
:104A60002846FFF734FB10B34FF484712846FFF754
:104A700023FBE0B121462846FFF756FEE07D617E2C
:104A8000884214D1207E38B1617EE268E0752069E9
:104A9000E0602676667607E0A07E00B96F60C5F814
:104AA0000883E675617EE2682046FFF756FE4FF404
:104AB0008E7841462846FFF7FFFA88B1A08AA17D8B
:104AC000884204D221462846FFF772FF08E041469B
:104AD0002846FFF7F6FAA17D11B12046FFF778FFCF
:104AE0004FF4A27841462846FFF7E6FA002812D094
:104AF00041462846FFF7E5FAA07E00B12F60E07D31
:104B0000002808D0E675617EE26804B02046BDE862
:104B1000F047FFF722BEBDE8FF872DE9FF410C46B5
:104B20004FF4927705463946FFF7D7FA0026C0B111
:104B300039462846FFF7D6FA02208DF80000D5F84E
:104B40008004C5F880040390D5F83C058DF8080072
:104B5000E0680190E6752676D4E900126846904731
:104B600024E04FF4887739462846FFF7B6FAE8B1D3
:104B700039462846FFF7B6FAD5F83C05C1B2E07DC4
:104B8000884213D1207E60B1E268D5F8000220F09F
:104B90002000C5F80002207EE0752069E0602676DE
:104BA00001E0E675E2682046FFF7D7FD4FF4A277F3
:104BB00039462846FFF791FA68B139462846FFF78B
:104BC00091FAE07D38B1E675D5F83C05E268C1B2EE
:104BD0002046FFF7C2FD4FF4907631462846FFF796
:104BE0007CFA00280FD031462846FFF77BFAA07DDB
:104BF000002808D0D5F84C0504B0C1B22046BDE865
:104C0000F041FFF7E5BEBDE8FF8100002DE9F84F58
:104C10006C488178002956D14FF0010A80464DE05A
:104C200090FAA0F0B0FA80F08146FCF798FD0546B6
:104C3000FDF7B4F900F11006446928061AD505F00D
:104C40000F000828284609D300F0AAF9A0420AD28A
:104C50005DA140F20A40FCF777FD04E0FEF794FB0B
:104C6000844200D9044684B33068FDF7EFFF68B38F
:104C7000376842E04CB33068FDF7E8FF20B952A135
:104C800040F21B40FCF760FD2846FEF797FC80B21F
:104C9000A042E7D92846FDF781F9022181760AFA78
:104CA00009F0C14347480C30FDF7A6FC5648006B9D
:104CB00000908DF802507968684688474746D7E9E2
:104CC00002100840ACD1BDE8F88F00E001E00027F9
:104CD00013E0402C04D93CA140F23740FCF734FDEE
:104CE000280604D438A140F23940FCF72DFD474F87
:104CF000224638463168FBF70BFC88F802A0D8F84A
:104D000008200AFA09F18A43C8F8082022463946E1
:104D10002846FFF7EDF94FF4827A05F00F0700BF40
:104D20004FF4AA79D0464046FFF7AEFB280602D5DD
:104D3000092F08D301E0092F07D335A14846FCF716
:104D400003FD280601D5042000E0282000EB8700A1
:104D5000FFF7B0FB0220FEF769F84046FFF78CFB37
:104D60000028E0D01420FEF761F8DFF8E48002E0CC
:104D70000220FEF75BF8D8F800008006F8D5012085
:104D8000FEF754F8280602D5092F08D301E0092FB1
:104D900008D31FA1F620FCF7D7FC280602D51A4835
:104DA0009C3001E01848AE3030F81700FFF764FB84
:104DB0000028B5D03068204430607068001B7060F7
:104DC00081E70000300000202E2E5C2E2E5C2E2E5F
:104DD0005C2E2E5C2E2E5C2E2E5C636F6D706F6EC3
:104DE000656E74735C647269766572735F6E726609
:104DF0005C757362645C6E72665F6472765F757315
:104E000062642E6300000000A8530000E00300204D
:104E10002E2E5C2E2E5C2E2E5C2E2E5C2E2E5C2ECC
:104E20002E5C636F6D706F6E656E74735C64726917
:104E3000766572735F6E72665C757362645C6E72C7
:104E4000665F6472765F757362642E6300000000B3
:104E5000747402402DE9F84307460020FCF7B2FBCA
:104E60003846FDF79BF8064638062B4D4FF00008F4
:104E70004FF003094FF00104384620D4FDF75AF8EB
:104E8000E96804FA00F0884303D03846FEF7BCFC1A
:104E900012E0C6F814803846C6F80C80FDF74AF8D0
:104EA000E96804FA00F081433846E960FDF742F80A
:104EB0008440A868A043A86086F81A9026E0FDF711
:104EC00039F8D5E9022104FA00F061EA020108424A
:104ED0001CD03846FDF72EF8E96804FA00F081434B
:104EE0003846E960FDF726F88440A8680443AC60C2
:104EF000C6F814800948C6F80C8086F81A90006835
:104F000000908DF80270696868468847BDE8F843EC
:104F10000020FCF785BB000030000020A8530000F3
:104F20002DE9F0410D4EB068040CF06824040443F0
:104F300001270BE094FAA4F0B0FA80F52846FCF7BC
:104F40000EFCFFF787FF07FA05F08443002CF1D130
:104F500040F2FF10B060BDE8F0810000300000209A
:104F6000012238B58A400C490C468B6813438B608C
:104F70006168E468094B050602EA040203D5002AC9
:104F800009D1DA6902E0002A05D11A6A00928DF887
:104F900002006846884738BD30000020A853000052
:104FA00005480068C0B2802802D04FF48060704786
:104FB0004FF40070704700001C7502407CB501780A
:104FC000444C79B10025042925D005291ED18178CA
:104FD00081291AD0802919D1C078C0B1BDE87C40A0
:104FE000FEF78CBB6068401C6060217811B14FF403
:104FF000FA7100E06421B0FBF1F201FB120000281D
:1050000004D1BDE87C40FCF7E7BBA5707CBDBDE8E2
:105010007C40FEF741BB6846FEF748FB9DF8010067
:105020000C2850D2DFE800F0070B4F0B4F061C4F47
:10503000202C4649EAE7684600F0C6F87CBD9DF89A
:10504000000002283FD1BDF8020038BBBDF80400C3
:10505000010A38D1C0B2812835D1FEF7DDF935E03B
:10506000684600F04DF87CBD217868464FF001029B
:1050700009B1194901E01849491CFFF707FB7CBD3C
:105080009DF8000050B9BDF8040038B9BDF806001D
:1050900020B9BDF80200012801D030B113E0812011
:1050A000FEF7F8F80120207010E08120FEF7C6F826
:1050B00025700BE09DF8000003E09DF8000001283A
:1050C00001D0212802D0FEF719FB7CBDFEF7E4FADF
:1050D0007CBD0000000000207852000010B502687E
:1050E000044652B104F1080061689047002803D0DB
:1050F000D4E90212C4E9041210BD002010BD000062
:1051000041880A0A042A32D006DC012A0BD0022A7E
:105110000FD0032A4FD113E0052A32D0212A3AD0EA
:10512000222A48D141E00178802944D11222254920
:1051300046E0017880293ED12249222212313FE007
:105140000278802A37D111F0FF0104D0012906D05E
:10515000022930D107E01B490422123930E01949F5
:105160002A2234312CE0174948225E3128E00278A7
:10517000802A20D111F0FF0F1DD1124909221B31C5
:105180001EE00278802A16D1C9B2012913D10D4937
:1051900007222D3114E00278812A0CD111F0FF0F83
:1051A00009D10849092224310AE00278812A02D172
:1051B00011F0FF0F01D0FEF7A1BA02492E22A6314D
:1051C000FFF764BA9452000010B5044601781C48F9
:1051D000802904D081290AD082291BD111E00078CE
:1051E000207910F0FF0F15D10222164922E0007835
:1051F00080B1207910F0FF0F0CD112490222891CD6
:1052000018E0A18811F0FF0F08D0007810B1C8B2E3
:10521000812807D0BDE81040FEF770BA0949022284
:10522000891D07E08120FEF711F90028F6D0054915
:105230000222091D2046BDE81040FFF727BA0000F2
:10524000000000207A5200000A4A10B55378947882
:10525000591CC9B28C4200D1002114788C4201D172
:10526000002010BD0170506803EB430100EBC1004A
:1052700010BD00006C0000200100010000000100D2
:105280000000040309040000894500000800002014
:1052900004000000120100020000004015190A522B
:1052A00001010102000109022200010100C03109CF
:1052B0000400000103010200092111010001222E56
:1052C00000070581030800082A034E006F007200E2
:1052D0006400690063002000530065006D006900F0
:1052E00063006F006E0064007500630074006F005F
:1052F000720048036E005200460035003200200064
:10530000550053004200200048004900440020009E
:105310006D006F0075007300650020006F006E0067
:1053200020006E00720066005F006400720076006C
:105330002000440065006D006F0005010902A10115
:105340000901A10005091901290815002501950881
:105350007501810205011581257F75080930093124
:10536000093895038106C0C00D0E0F100B0C1819DB
:10537000E0000020000100202C0100200B000300B1
:10538000C91900000C000300C9190000180003002F
:10539000C919000019000300C919000000000050DD
:1053A00000030050000000000500000301000000A1
:1053B00005000000050000000500000005000000D9
:1053C00005000000050000000500000104000000C9
:1053D000020000000300000005000002190D00009B
:1053E000E50C00003D0D0000810D0000870D000060
:1053F0008D0D0000930D0000990D00009F0D000021
:10540000A50D00008D0C0000AB0D0000B10D0000DB
:10541000FD0D0000030E0000090E00000F0E00003D
:10542000150E00001B0E0000210E0000270E0000CC
:10543000A90C0000D10B0000150C0000790B000036
:10544000750B000008010C011001140118011C016A
:10545000200124012C013001340138013C014001BC
:10546000440148014C0150010203040506070809E4
:105470000B0C0D0E0F10111213140000200400204D
:1054800003000000FFFFFFFFFFFFFFFFFFFFFFFF25
:10549000FFFFFFFF00000000000000000000D60139
:1054A00007010000290000000100000001000000C9
:1054B00001000000010000000100000001000000E8
:1054C0000100000002000000004040404040404019
:1054D00040404141414141404040404040404040C7
:1054E000404040404040404040050202020202026B
:1054F00002020202020202020220202020202020BA
:1055000020202002020202020202909090909090CD
:10551000101010101010101010101010101010108B
:1055200010101010020202020202888888888888FF
:1055300008080808080808080808080808080808EB
:10554000080808080202020240000000C9540000D6
:105550002E2E5C2E2E5C2E2E5C2E2E5C2E2E5C2E85
:105560002E5C636F6D706F6E656E74735C647269D0
:10557000766572735F6E72665C636F6D6D6F6E5C85
:105580006E72665F6472765F636F6D6D6F6E2E63B1
:10559000000000002E2E5C2E2E5C2E2E5C2E2E5C2B
:1055A0002E2E5C2E2E5C636F6D706F6E656E747345
:1055B0005C647269766572735F6E72665C6770694F
:1055C0006F74655C6E72665F6472765F6770696F38
:1055D00074652E63000000002E2E5C2E2E5C2E2E95
:1055E0005C2E2E5C2E2E5C2E2E5C636F6D706F6EAB
:1055F000656E74735C647269766572735F6E7266F1
:105600005C7379737469636B5C6E72665F647276E7
:105610005F7379737469636B2E6300004F766572F4
:10562000666C6F770D0A00004856000000000020ED
:1056300098000000540E0000E05600009800002082
:10564000E0280000640E00000000000000000000E0
:10565000000000000000000000000000000000004A
:10566000000000000000000000000000000000003A
:10567000000000000000000000000000000000002A
:10568000000000000000000000000000000000001A
:10569000000000000000000000000000000000000A
:1056A00000000000000000000000000000000000FA
:1056B00000000000000000000000000000000000EA
:1056C00000000000000000000000000000000000DA
:1056D00000200040000000001C5600000090D00395
:0400000500000401F2
:00000001FF
