:020000040000FA
:10000000C8200020150400001D0400001F0400008B
:10001000210400002304000025040000000000006B
:1000200000000000000000000000000027040000A5
:1000300029040000000000002B0400002D04000033
:100040002F0400002F0400000D0900002F04000001
:100050005D0600002F040000810400002F04000052
:100060002F0400002F0400002F0400002F040000C4
:100070002F0400002F0400002F0400002F040000B4
:100080002F040000390600002F0400002F04000098
:100090006D0600002F0400002F0400002F04000054
:1000A0002F0400002F0400002F0400002F04000084
:1000B0002F0400002F0400000000000000000000DA
:1000C0002F0400002F0400002F0400002F04000064
:1000D0002F0400002F0400002F0400000000000087
:1000E0000000000000000000000000000000000010
:1000F0000000000000000000000000000000000000
:1001000000000000000000000000000000000000EF
:1001100000000000000000000000000000000000DF
:10040000DFF80CD000F02AF800480047550C000037
:10041000C82000200648804706480047FEE7FEE760
:10042000FEE7FEE7FEE7FEE7FEE7FEE7FEE7FEE7A4
:10043000710600000104000040EA01039B0703D09D
:1004400009E008C9121F08C0042AFAD203E011F813
:10045000013B00F8013B521EF9D27047064C074D94
:1004600006E0E06840F0010394E807009847103484
:10047000AC42F6D3FFF7C8FFCC150000EC15000026
:100480002DE9F04700268CB0DFF86091B0464FF4BC
:100490008075012437460696284600F0CBFD38B11A
:1004A000D9F80403204203D0284600F0B9FD2643C2
:1004B0002D1D64007F1CADB2082FEDD34FF4BE7428
:1004C000204600F0B7FD48B1204600F0A9FD46F0F7
:1004D000004606AA0121002000F08EFD444D16F0D2
:1004E000FF0F15D00127002437420DD009EB8401FE
:1004F000D1F81005D1F81015C0F3042055F82420C8
:10050000C1F3014102B190477F00641C082CEBD37A
:10051000002E67DA4FF0FF30CDE908800026344620
:10052000281910F8507F90F9000027F0C008401CEF
:1005300044D009A9404600F0CBFB58B34FEA9719C5
:10054000404600F059FA55F820701FB1B9F1030F79
:1005500003D00FE0B9F1030F30D108A84FEAD80259
:1005600008F00703815C4FF0010C0CFA03FC41EA30
:100570000C0181544FF0A04101EB8800D0F8000736
:1005800006A9C0F3014A404600F0A2FB18B1BAF137
:10059000020F03D012E0BAF1030F0FD1B9F1030F2C
:1005A00008D1BAF1020F1BD00221404600F008FD2D
:1005B000761CF6B217B149464046B847641C042C75
:1005C000AED3002E0ED06A460121002000F014FDAB
:1005D00006990098884205D00690089809909DE7F2
:1005E0000321E2E70CB0BDE8F087000000600040A6
:1005F0003400002000F01F020121914040098000DA
:1006000000F1E020C0F88012704700F01F020121C5
:1006100091404009800000F1E020C0F800117047CF
:1006200000F01F02012191404009800000F1E0200C
:10063000C0F800127047000007480021C0F84011C0
:10064000C0F84411C0F84811C0F84C11C0F80011AE
:10065000C0F8041100F03CBE0010014002494FF008
:10066000402000F063BD00008C00002000F0CCBDF5
:10067000F0B598480023021D01780125101D4FF0A8
:100680008056062907D11478240704D10478C4F3CE
:100690000314032C02D0062904D00FE08F4F8E4C98
:1006A0007C670EE01478240708D10478C4F303149F
:1006B000032C06D0042C04D0052C02D0062907D028
:1006C0000EE0D6F84442864FC4F342343C6002E068
:1006D0001478240704D10478C4F30314032C02D043
:1006E000062906D011E07F4C276827F08077276025
:1006F0000EE01478240708D10478C4F30314032C03
:1007000006D0042C04D0052C02D006290AD011E012
:100710004FF08044C4F80C31C4F81031704C241FE1
:10072000236002E01478240704D10478C4F303148E
:10073000032C02D0062905D00CE0694F032464374E
:100740003C600AE01478240704D10478C4F303144D
:10075000032C02D006290DD014E0634F05243C6021
:10076000614C78342560604C083423603F243F1D81
:100770003C6002E01478240704D10478C4F3031425
:10078000052C02D0062957D068E058490968584A14
:1007900011605649091D0968121D1160534908313D
:1007A0000968121D116051490C310968121D116050
:1007B0004E4910310968121D11604C491431096805
:1007C000121D1160494918310968494A20321160E7
:1007D00046491C310968121D1160444920310968DD
:1007E000121D1160414924310968121D11603F49F1
:1007F00028310968121D11603C492C310968121D0D
:1008000011603A4930310968394A4032116037493C
:1008100034310968121D1160344938310968121DDC
:10082000116032493C310968121D11602F49403175
:100830000968121D116002E0117809070ED10078D5
:10084000C0F30310032803D0042801D0052805D1E4
:10085000D6F85802274900F04F0008602148743844
:10086000016841F470010160BFF34F8FBFF36F8FD8
:100870004FF01021D1F80002002803DBD1F8040268
:10088000002822DA1C4A15601C480468002CFCD0A1
:100890001524C1F800420568002DFCD0C1F80442BF
:1008A00001680029FCD0136001680029FCD0BFF367
:1008B0004F8F0C48F0380168114A01F4E061114390
:1008C0000160BFF34F8F00BFFDE70F490D4808607F
:1008D000F0BD0000E00F00F00DF0ADBA00C0074021
:1008E0003C050040FCED00E0105600400404001000
:1008F00020C50040E40E004004E5014000E4014052
:100900000400FA050090D003300000200448017F65
:1009100004480029024901D000F0C9BD00F038BDEB
:10092000A40000200020004002E008C8121F08C1F7
:10093000002AFAD170477047002001E001C1121F60
:10094000002AFBD170470000BFF34F8F05480168B4
:10095000054A01F4E06111430160BFF34F8F00BF0E
:10096000FDE700000CED00E00400FA050EB50021E3
:100970000091CDE901106A4644F20100FFF7E4FF5F
:100980000EBD000007490B5C4FF0A041D1F80425D3
:100990000120984020EA0203C1F808351040C1F850
:1009A0000C057047C01500000249085C012100F0E9
:1009B00018BB0000C01500007CB50024084E254679
:1009C0000122305D009500231146019500F0D4FA14
:1009D000641C042CF4D3BDE87C4000F003B8000094
:1009E000C015000010B500242046FFF7DDFF641C91
:1009F000042CF9D310BD00000249084490F93000DE
:100A000070470000340000202DE9F05F264841685F
:100A1000F1B3DFF898B00E688146DBF800408768D4
:100A20008078E11B21F07F45ED1CB0B9DFF88080B4
:100A30004FF48030C8F84403C8F804031120FFF7CE
:100A4000D9FD1120FFF7E1FD4FF0010AC8F800A021
:100A50002F2000F045F989F802A0B54200D23546B2
:100A6000124BE8193C3320F07F401860DBF800108F
:100A70005A46091B21F07F41001B20F07F40C91C12
:100A800081420FD9106818602F2000F029F900E08A
:100A900004E0BDE8F05F1120FFF7C2BDBDE8F05FE4
:100AA00000F0F8BABDE8F09F1000002004150140E6
:100AB000001001400E4910B50A784C780023A2427C
:100AC00012D0521CD2B20A70022A00D10B70084A0E
:100AD0000B78183252F8232002608868104420F006
:100AE0007F408860012010BD0360002010BD000021
:100AF000100000202DE9F043264CA4F110092278C3
:100B0000D9F8048099F80350404694F801C0D9F808
:100B1000086031E002EB42036168521C01EBC30143
:100B2000A378D2B2934200D100220B78022B02D0DC
:100B3000032B21D11DE003464F68194603E0B9425B
:100B400003D00B46C969B9B1F9E7A9B18B4205D108
:100B5000C06918B9104E0125B56000260F68C96933
:100B6000D96149B10B683B440B6005E00174C06971
:100B700000E000210028F9D19445CBD1C9E9010654
:100B800089F80350404502D00120BDE8F0830020E1
:100B9000FBE7000020000020001001402DE9F0419B
:100BA0002A4F0446002607F11005D7F804803EE0DE
:100BB00002D02046E4691DE02878696800EB400215
:100BC000401CC0B201EBC2012870AA78904200D14B
:100BD0002E700A784868012A2BD1027C4ABB8A68A9
:100BE0004260CA6882600A69C26049698161F978B5
:100BF00001B146604368BA68DFF854C0991A21F021
:100C00007F41614502D28268114406E0D11A8268B0
:100C100021F07F418A4202D9511A016000E006604A
:100C20004660012186600174C66100F033FB002C30
:100C3000BED1287869788842BED17968414502D012
:100C40000120BDE8F0810020FBE70000100000203B
:100C5000FFFF7F000120810788B08867FFF7ACFEA7
:100C60001822184901A8FFF7E7FB1D2004901C205B
:100C7000019004200290032003901248124A01A917
:100C8000083800F0D1F808B1FFF770FE00250F4CCE
:100C90000726A560A581A57325700C4B094808336C
:100CA0000722D91F0838009600F084F818B1FFF722
:100CB0005DFE00E020BF20780028FBD00020FFF779
:100CC00061FEE6E7A81500001D11000000000020ED
:100CD000C20800F007030120895C98400840704773
:100CE00000283ED01F49204A096800BF00BF00BF4E
:100CF00000BF00BF00BF00BF00BF91422FD000BFA8
:100D000000BF00BF00BF00BF00BF00BF00BF00BFEB
:100D100000BF00BF00BF00BF00BF00BF00BF00BFDB
:100D200000BF00BF00BF00BF00BF00BF00BF00BFCB
:100D300000BF00BF00BF00BF00BF00BF00BF00BFBB
:100D400000BF00BF00BF00BF00BF00BF00BF00BFAB
:100D500000BF00BF00BF00BF00BF00BF00BF013821
:100D6000C3D17047300000200024F4004907090E69
:100D7000002806DA00F00F0202F1E02282F8141DCA
:100D800003E000F1E02282F8001400F01F020121CC
:100D900091404009800000F1E020C0F88012C0F8C6
:100DA000001170470121B1EB507F01D10120704744
:100DB000002070472DE9F04706460F460079194993
:100DC00000EB4000DDF820901D00904601EBC004D0
:100DD00014D09FB13846FFF7E5FF88B12846FFF7EA
:100DE000E1FF68B1607D68B1012818D0022809D000
:100DF000032807D003252846BDE8F0870E20FBE72F
:100E00001020F9E7C4E90375C4F80080C4F8049021
:100E1000002501222146306800F0C4F9EBE70825DF
:100E2000E9E700008C0000202DE9FC5F074600790F
:100E30000D4600EB40014F483C6800EBC10A934669
:100E40009AF8140010B10820BDE8FC9F287C032804
:100E500001D90720F8E7BBF1000F10D02868002661
:100E60004FF0FF38FF280CD0E97CCDE900160023B5
:100E70001A46194600F092F8D5F8009002E00E20CC
:100E8000E2E7C1466868FF2808D0002300961A46AA
:100E90001946019600F082F8D5F804800096019674
:100EA0000022AB7C1146E86800F078F80023009639
:100EB00001961A461946A86800F070F8D5E9022391
:100EC000C4F80825C4F81085C4F80C95C4F8143586
:100ED000C4F83465C4F83865C4F84465C4F8486596
:100EE000297C687C00B10120012904D0022905D0A9
:100EF000032908D105E040F0020004E040F00400BE
:100F000001E040F00600C4F85405287DC4F85C05F3
:100F1000687DC4F8C0054FF48271204600F097F850
:100F20004FF49471204600F092F8D4F8000240F09B
:100F30000400C4F80002387900EB40010D4800EBD2
:100F4000C1014E753A7902EB420200EBC200C0F8D3
:100F500008B040F20240C4F80403A97D97F90500E7
:100F6000FFF704FF01218AF814100220C4F80005DD
:100F7000304669E78C00002070B541EA4201DDE9A6
:100F800004564FF0A04441EA830141EA052104EBF5
:100F9000800041EA0641C0F8001770BD70B541EA13
:100FA0004201DDE904564FF0A04441EA830141EAE1
:100FB000052104EB800041EA0641C0F8001770BD2E
:100FC0004FF0A04202EB8000D0F8002722F440321C
:100FD000C0F80027D0F8002742EA0141C0F8001706
:100FE000704701224FF0A043824011B1C3F8082599
:100FF0007047C3F80C25704718B5084B6C46014480
:101000001B68009306E000BF54F82030D3F8103579
:10101000401C08C28142F7D818BD0000C815000066
:10102000034908B50844002101600068009008BD2C
:101030000060004002494058012800D0002070475D
:10104000006000404058002800D00120704708B5DB
:10105000002242504058009008BD4058002800D05F
:101060000120704708B5002242504058009008BD4A
:10107000D0F80403084000D00120704740580028F1
:1010800000D00120704708B500224250405800901F
:1010900008BD000070B5012670044FF0E021002566
:1010A000C1F88001084C4010C4F84803C4F8080394
:1010B00066602F20FFF714FEA660044C2F20A56069
:1010C000FFF70EFEA57070BD00100140100000205B
:1010D00070B50546C87D0C4600284FF4847128463B
:1010E0000AD0FFF7BFFFD5F81805627EE168885483
:1010F000607E401C607670BDFFF7B4FFD5F8180520
:1011000070BD1FB501238DF800308DF808100192D5
:10111000D0E90012684690471FBD0000C0B2012808
:1011200001D10149087070470000002070B50D46DC
:101130004FF4947604463146FFF784FFD8B1314628
:101140002046FFF784FF687D012814D1E9682868EC
:10115000C4F84415C0B2C4F8480529696868C4F8E1
:101160003415C0B2C4F838050120A0620222294615
:10117000204600F017F84FF4827631462046FFF7FC
:1011800061FF00280DD031462046FFF760FF687DE3
:10119000022806D129462046BDE87040032200F00F
:1011A00001B870BD4A75AFF300802DE9F0414A7D6A
:1011B0000D460121012A0ED0022A0FD0032A0BD19D
:1011C00061F30704D0F83C15D0F84C05CEB2C7B295
:1011D000A86890B90EE04162BDE8F0810026A868D9
:1011E00066F3070410B90020FFF7C0FB3246114632
:1011F000AB6805E00020FFF7B9FBAB683A46314623
:101200002046BDE8F04118472DE9F84F204C002555
:101210006846D4E901B6FFF74DFC8046FFF76AFC4B
:101220000746A946B8F1000F25D00023009ACC4606
:10123000606819E007680146974202D9BA1A02604D
:1012400014E0C1F800C0D1F80C80D21BC8693B443F
:101250008A46B8F1000F07D0F71827F07F47C1E999
:101260000178CAF81C500D460028E3D1606028467A
:10127000FFF794FC04E02846FFF790FC00B917B193
:101280005846FFF7C1FB84F80390BDE8F88F0000D3
:10129000100000200D4B10B5596831B102680C6880
:1012A000A24204D8A21A0A60C161586010BD0B4660
:1012B00003E00B46C969121B21B10C689442F8D3B4
:1012C000A41A0C600260C161D86110BD100000203A
:1012D0002DE9F0411D4D6C68002C35D01C480027CD
:1012E0000068A968B846401A20F07F462068B042DE
:1012F00015D82246361A0744E469107C68B182F892
:101300001080EB6833B1D2E90501984728B1FFF7A7
:101310002DFB02E0D2E905108847002CE6D12978A0
:101320006878814206D1401CC0B26870022801D1A1
:1013300085F8018005486978183040F82170BDE8CB
:10134000F0411420FFF76CB9BDE8F08110000020D7
:101350000415014070B50C4605464FF48E71FFF739
:1013600081FEA18AA068415CA08A401CA082C5F8C9
:101370001C1570BD1FB500228DF800208DF80810D7
:10138000816801918275D0E90012684690471FBDBF
:101390002DE9FF470C4605464FF40071FFF768FE44
:1013A00001274FF40178002618B34FF4927949468B
:1013B0002846FFF752FEE0B149462846FFF752FEA5
:1013C000C5F80883A07E00B96F6002208DF8000088
:1013D000D5F88004C5F880040390E07D8DF80800FE
:1013E000E0680190E6752676D4E9001268469047D9
:1013F00027E004212846FFF73BFE10B34FF4847129
:101400002846FFF72AFEE0B121462846FFF760FE96
:10141000E07D617E884214D1207E38B1617EE26831
:10142000E0752069E0602676667607E0A07E00B968
:101430006F60C5F80883E675617EE2682046FFF7B5
:1014400060FE4FF48E7841462846FFF706FE88B1CD
:10145000A08AA17D884204D221462846FFF77AFF60
:1014600008E041462846FFF7FDFDA17D11B1204669
:10147000FFF780FF4FF4A27841462846FFF7EDFDC5
:10148000002812D041462846FFF7ECFDA07E00B1AF
:101490002F60E07D002808D0E675617EE26804B028
:1014A0002046BDE8F047FFF72CBEBDE8FF872DE9D9
:1014B000FF410C464FF4927705463946FFF7DEFDB3
:1014C0000026C0B139462846FFF7DDFD02208DF821
:1014D0000000D5F88004C5F880040390D5F83C05D9
:1014E0008DF80800E0680190E6752676D4E90012D0
:1014F0006846904724E04FF4887739462846FFF73E
:10150000BDFDE8B139462846FFF7BDFDD5F83C05DD
:10151000C1B2E07D884213D1207E60B1E268D5F887
:10152000000220F02000C5F80002207EE07520694E
:10153000E060267601E0E675E2682046FFF7E1FD0F
:101540004FF4A27739462846FFF798FD68B139462F
:101550002846FFF798FDE07D38B1E675D5F83C05E3
:10156000E268C1B22046FFF7CCFD4FF490763146D9
:101570002846FFF783FD00280FD031462846FFF7A5
:1015800082FDA07D002808D0D5F84C0504B0C1B27A
:101590002046BDE8F041FFF7EDBEBDE8FF81000049
:1015A0000040004000040000FF000000FF000000B9
:1015B000FF000000FF00000000000000FFFF070028
:1015C000111213140D0E0F1000000050EC15000046
:1015D0000000002034000000280900002016000050
:1015E000340000209420000038090000004E6F7283
:1015F00064696300000000000000000000000000BB
:1016000000000000000000000000000000000000DA
:101610000000000000000000000000000090D00367
:0400000500000401F2
:00000001FF
