:020000040000FA
:100000009826002029040000310400003304000079
:10001000350400003704000039040000000000002F
:100020000000000000000000000000003B04000091
:100030003D040000000000003F04000041040000F7
:100040004304000043040000E909000031070000F8
:1000500041070000430400004D0500004304000078
:100060004304000043040000430400004304000074
:100070004304000043040000430400004304000064
:10008000430400000D070000430400004304000087
:10009000470700004304000043040000430400003D
:1000A0004304000043040000430400004304000034
:1000B00043040000430400000000000000000000B2
:1000C0004304000043040000430400004304000014
:1000D000430400004304000043040000000000004B
:1000E0000000000000000000000000000000000010
:1000F0000000000000000000000000000000000000
:1001000000000000000000000000000000000000EF
:1001100000000000000000000000000000000000DF
:10040000DFF80CD000F070F800480047E917000052
:100410009826002003464FF0000153E8000F43E800
:1004200000128A42F9D170470648804706480047C3
:10043000FEE7FEE7FEE7FEE7FEE7FEE7FEE7FEE794
:10044000FEE7FEE74D07000001040000004870478A
:10045000F83C000040EA01039B0703D009E008C90B
:10046000121F08C0042AFAD203E011F8013B00F879
:10047000013B521EF9D27047421C10F8011B0029A3
:10048000FBD1801A70472DE9F05F054600209246A7
:100490009B4688460646814640241BE02846414646
:1004A0004746224600F041F853465A46C01A914149
:1004B00010D311461846224600F028F82D1A67EB93
:1004C00001084F4622460120002100F01FF817EBDB
:1004D00000094E41201EA4F10104DFDC48463146EC
:1004E0002A464346BDE8F09F064C074D06E0E0680B
:1004F00040F0010394E8070098471034AC42F6D36B
:10050000FFF782FF903E0000B03E0000202A04DB8F
:10051000203A00FA02F1002070479140C2F1200316
:1005200020FA03F3194390407047202A04DB203A55
:1005300021FA02F00021704721FA02F3D040C2F103
:100540002002914008431946704700002DE9F0470A
:1005500000268CB0DFF86891B0464FF48075012416
:1005600037460696284602F085FA38B1D9F80403D2
:10057000204203D0284602F073FA26432D1D640062
:100580007F1CADB2082FEDD34FF4BE74204602F0AD
:1005900071FA48B1204602F063FA46F0004606AA16
:1005A0000121002002F024FA464D16F0FF0F15D06D
:1005B0000127002437420DD009EB8401D1F8100542
:1005C000D1F81015C0F3042055F82420C1F30141DF
:1005D00002B190477F00641C082CEBD3002E6BDA2D
:1005E0004FF0FF30CDE9088000263446281910F876
:1005F000507F90F9000027F0C008401C48D009A99E
:10060000404601F0B9F978B34FEA9719404600F037
:10061000E7FD55F820701FB1B9F1030F03D00FE0CB
:10062000B9F1030F34D108A84FEAD80108F0070246
:10063000435C4FF0010C0CFA02FC43EA0C034354F8
:1006400004A8CDF8108002F033F9049900EB810082
:10065000D0F8000706A9C0F3014A404601F08CF922
:1006600018B1BAF1020F03D012E0BAF1030F0FD1A3
:10067000B9F1030F08D1BAF1020F1BD00221404695
:1006800002F0CBF8761CF6B217B149464046B8479F
:10069000641C042CAAD3002E0ED06A46012100202F
:1006A00002F0A6F906990098884205D006900898AD
:1006B000099099E70321E2E70CB0BDE8F08700005C
:1006C00000600040D000002000F01F020121914096
:1006D0004009800000F1E020C0F88012704700F06F
:1006E0001F02012191404009800000F1E020C0F884
:1006F0000011704700F01F02012191404009800065
:1007000000F1E020C0F80012704700000748002107
:10071000C0F84011C0F84411C0F84811C0F84C119D
:10072000C0F80011C0F8041102F03CBE00100140F6
:100730000149024800F044BF280100200030004079
:10074000002001F0FBBB02F0C9BD0000F0B59848E5
:100750000023021D01780125101D4FF08056062947
:1007600007D11478240704D10478C4F30314032CAC
:1007700002D0062904D00FE08F4F8E4C7C670EE02C
:100780001478240708D10478C4F30314032C06D08A
:10079000042C04D0052C02D0062907D00EE0D6F890
:1007A0004442864FC4F342343C6002E0147824078C
:1007B00004D10478C4F30314032C02D0062906D014
:1007C00011E07F4C276827F0807727600EE01478CF
:1007D000240708D10478C4F30314032C06D0042C96
:1007E00004D0052C02D006290AD011E04FF0804435
:1007F000C4F80C31C4F81031704C241F236002E09F
:100800001478240704D10478C4F30314032C02D011
:10081000062905D00CE0694F032464373C600AE0E8
:100820001478240704D10478C4F30314032C02D0F1
:1008300006290DD014E0634F05243C60614C7834E8
:100840002560604C083423603F243F1D3C6002E07B
:100850001478240704D10478C4F30314052C02D0BF
:10086000062957D068E058490968584A1160564926
:10087000091D0968121D1160534908310968121DCC
:10088000116051490C310968121D11604E49103137
:100890000968121D11604C4914310968121D11605C
:1008A000494918310968494A2032116046491C31CA
:1008B0000968121D1160444920310968121D116038
:1008C000414924310968121D11603F4928310968E6
:1008D000121D11603C492C310968121D11603A4902
:1008E00030310968394A403211603749343109687A
:1008F000121D1160344938310968121D11603249E6
:100900003C310968121D11602F4940310968121DE0
:10091000116002E0117809070ED10078C0F30310CE
:10092000032803D0042801D0052805D1D6F85802A1
:10093000274900F04F00086021487438016841F4ED
:1009400070010160BFF34F8FBFF36F8F4FF0102125
:10095000D1F80002002803DBD1F80402002822DAD3
:100960001C4A15601C480468002CFCD01524C1F8F2
:1009700000420568002DFCD0C1F80442016800293E
:10098000FCD0136001680029FCD0BFF34F8F0C48E6
:10099000F0380168114A01F4E06111430160BFF3CE
:1009A0004F8F00BFFDE70F490D480860F0BD000004
:1009B000E00F00F00DF0ADBA00C007403C0500406C
:1009C000FCED00E0105600400404001020C500407B
:1009D000E40E004004E5014000E401400400FA0593
:1009E0000090D003400000200448017F0448002903
:1009F000024901D003F013B802F082BF5C0100206D
:100A0000002000400FB41CB50A46521ECDE900027A
:100A100007A9054B6A46069800F018F8009A0021CD
:100A200011701CBC5DF814FBAF0E000002E008C89A
:100A3000121F08C1002AFAD170477047002001E058
:100A400001C1121F002AFBD1704700002DE9FF4FA2
:100A50008DB00F460546002606E025280BD0DDE9BF
:100A60000F1290476D1C761C28780028F5D111B024
:100A70003046BDE8F08F0024A246A1460122EC4991
:100A800000E0044315F8013F203B02FA03F008425E
:100A9000F7D128782A2810D06FF02F022878A0F1FB
:100AA0003001092914D80AEB8A0102EB410144F014
:100AB000020400EB010A6D1CF0E701CF5FEA000AB7
:100AC00003D544F40054CAF1000A44F002046D1C3A
:100AD00028782E2817D115F8010F44F004042A288D
:100AE0000ED06FF02F022878A0F1300109290AD822
:100AF00009EB890102EB410100EB01096D1CF2E7F2
:100B000057F8049B6D1C28786C280FD006DC4C2805
:100B100017D068280DD06A2814D104E0742810D0AA
:100B20007A280FD10DE044F400140AE044F4801454
:100B300001E044F440146978814202D104F5801444
:100B40006D1C6D1C2A786E2A1FD00CDC632A31D0F4
:100B500004DC002A8BD0582A11D1A3E0642A68D083
:100B6000692A0CD165E0732A2ED004DC6F2A73D079
:100B7000702A04D19BE0752A6FD0782A6ED0104677
:100B8000DDE90F129047761C50E1C4F302500228B1
:100B900006D0032809D0042801CF09D0066045E11A
:100BA00001CFF117C0E9006140E101CF06803DE1CE
:100BB00006703BE117F8040B8DF8000000208DF85B
:100BC0000100EB46012003E057F804BB4FF0FF3073
:100BD00061074FF0000102D40DE008F101018846E1
:100BE00049450FDA8045F8DB1BF808100029F4D1DD
:100BF00008E008F1010188468142FADB1BF8081081
:100C00000029F6D1DDE90F23AAEB08008146214631
:100C100000F036F9304400EB080604E0DDE90F127D
:100C20001BF8010B9047B8F10108F7D2214648465E
:100C3000F7E00A21C4F302534FF0000B0891022B96
:100C400004D001CFC117032B09D00AE0FF1D27F004
:100C50000707F7E8020108E032E01FE020E000B2F9
:100C6000C117042B01D140B2C117031E71F100035B
:100C700007DA4FF0000CD0EB0C006CEB01012D23D8
:100C800002E0230504D52B238DF82430012303E053
:100C9000E30701D02023F7E7984658E00A2110E047
:100CA00010210EE010204FF0000B08900CE01021F6
:100CB0004FF0000B44F004044FF00809089103E0E2
:100CC00008214FF0000B0891C4F30253022B04D00B
:100CD00001CF0021032B06D006E0FF1D27F00707F8
:100CE000F7E8020103E080B2042B00D1C0B24FF05C
:100CF000000823072BD5702A07D0DDF820C08CF020
:100D0000100C5CEA0B0C05D00EE040238DF824306B
:100D1000012308E050EA010306D030238DF8243087
:100D20008DF8252002239846DDF820C08CF0080CB1
:100D30005CEA0B0C0BD150EA010301D1630706D525
:100D400030238DF824304FF00108A9F10109582A09
:100D500004D038A20B9208AA0A920BE03AA2F9E753
:100D60005B46089AFFF78FFB0B9B9B5C0A9A521E0F
:100D70000A92137050EA0102F2D10A98ADEB00001A
:100D800000F1200B600702D524F4803401E04FF01D
:100D90000109D94502DDA9EB0B0000E0002000EBC2
:100DA0000B0141440890AAEB010AE00306D4DDE9F7
:100DB0000F232146504600F063F806444FF0000927
:100DC00008E009A911F80900DDE90F12904709F1BF
:100DD0000109761CC145F4DBE0030CD5DDE90F23E6
:100DE0002146504600F04CF8064404E0DDE90F12BD
:100DF00030209047761C0899481E08900029F5DCA1
:100E000008E00A980A990078491C0A91DDE90F1256
:100E10009047761CBBF10001ABF1010BF1DC2146E0
:100E20005046DDE90F2300F019F806446D1C1BE65F
:100E300009280100303132333435363738396162B0
:100E40006364656600000000303132333435363774
:100E50003839414243444546000000002DE9F04145
:100E6000044600251E461746880404D405E039468A
:100E70002020B0476D1C641EF9D52846BDE8F081DE
:100E80002DE9F041044600251E469046C80301D5D1
:100E9000302700E02027880404D505E04146384685
:100EA000B0476D1C641EF9D52846BDE8F0814A683C
:100EB000002A06D00A68531C0B6010704868401E58
:100EC000486070470BA1012002F046F801F056FF80
:100ED00001F058FF0028FBD1BFF34F8F0B4801688A
:100EE0000B4A01F4E06111430160BFF34F8F00BF73
:100EF000FDE700004150505F4552524F523A455273
:100F0000524F523A466174616C0D0A000CED00E0DC
:100F10000400FA050EB500210091CDE901106A46E2
:100F200044F20100FFF7CEFF0EBD000010B502F045
:100F30001BF9012803D004A11E2000F0B9F8BDE878
:100F4000104000F04FB800002E2E5C2E2E5C2E2E8E
:100F50005C2E2E5C2E2E5C2E2E5C636F6D706F6E81
:100F6000656E74735C6C69627261726965735C75DD
:100F700074696C5C6170705F7574696C5F706C61D2
:100F800074666F726D2E630010B502F0EDF80128E3
:100F900003D004A12C2000F08BF8BDE8104000F035
:100FA00029B800002E2E5C2E2E5C2E2E5C2E2E5C80
:100FB0002E2E5C2E2E5C636F6D706F6E656E74737B
:100FC0005C6C69627261726965735C7574696C5C92
:100FD0006170705F7574696C5F706C6174666F725C
:100FE0006D2E630072B602480168491C01607047AB
:100FF0002C00002003490868401E086000D162B63A
:10100000704700002C00002070B5054608680C46AB
:10101000411C04D001F0CEFC206801F0F4FB6068B4
:10102000411C02D0002101F0E5FB28791F4901EBAA
:1010300040102968007F0028A069C1F8240523D04A
:10104000607D227D29681043C1F86C05D4E9001247
:101050002868C0F80C15C0F8142522E0A068411CCF
:1010600002D0002101F0C6FBE068411C04D001F071
:10107000A1FCE06801F0C7FBD4E902122868C0F8BF
:101080000825C0F8101570BD607D217D2A680843D1
:10109000C2F86C05D4E900122868C0F81425C0F81D
:1010A0000C15207D0128D9D070BD00005C01002006
:1010B0001CB56A46ADF800000191002144F202001F
:1010C000FFF700FF1CBD000010B50446042803D341
:1010D00005A11E20FFF7ECFF0F480121005DBDE8D0
:1010E000104001F071BC00002E2E5C2E2E5C2E2EC6
:1010F0005C2E2E5C2E2E5C2E2E5C636F6D706F6EE0
:10110000656E74735C626F617264735C626F61724E
:1011100064732E6300000000143C00007CB50024C2
:10112000084E25460122305D0095002311460195A9
:1011300001F0E8FA641C042CF4D3BDE87C4000F014
:1011400003B80000143C000010B500242046FFF74F
:10115000BBFF641C042CF9D310BD002901DA002068
:1011600070470268114401600120704770B5461C49
:101170000D4601240020FFF7D9FE114A10682860AF
:10118000D2E900109568081A2B1A701C5B1C984253
:101190000FD963B10B480C4B294000681B6802EB68
:1011A000810163F39F20C8601068401C1060002418
:1011B00001E0881910600020FFF7E6FE204670BDB0
:1011C0007C020020503C00003C000020034803C883
:1011D000814201D101207047002070477C0200202D
:1011E0000249084490F9300070470000D000002008
:1011F0002DE9F05F26484168F1B3DFF898B00E683A
:101200008146DBF8004087688078E11B21F07F454C
:10121000ED1CB0B9DFF880804FF48030C8F844038B
:10122000C8F804031120FFF74FFA1120FFF757FA0F
:101230004FF0010AC8F800A02F2000F0EBFB89F85E
:1012400002A0B54200D23546124BE8193C3320F0DB
:101250007F401860DBF800105A46091B21F07F41DF
:10126000001B20F07F40C91C81420FD91068186014
:101270002F2000F0CFFB00E004E0BDE8F05F11207C
:10128000FFF738BABDE8F05F01F07CBFBDE8F09F22
:101290000C00002004150140001001402DE9F04130
:1012A0000025441C17460E462846FFF73FFE174808
:1012B000016839608368016801EA03029A1A521CC6
:1012C000944208D84A1C1A4021440160002100EBD6
:1012D000820531600AE047681F40A74207D90B1911
:1012E000511E1944521E0160084D32600C35D0E980
:1012F00000128068891A401A401C00D10025002085
:10130000FFF742FE2846BDE8F08100007C02002085
:1013100070B5002486B001268DF8144001AD01237C
:1013200005AA50211248009600F098FC28B9102315
:101330002A4650210E4800F07FFC28B10D490220BA
:1013400001F00AFE06B070BD22460BA1132001F089
:1013500029FE102301AA0AA1132001F0ABFD1034CD
:10136000802CD9D301F00EFD0028FBD1EAE7000064
:101370002C3B000024190000252E32783A20000072
:101380000000000070B5A2B0002516A1132001F0E6
:10139000E3FD00BF01F0F6FC0028FBD18021684688
:1013A00001F044FF6E46701908220146002403E054
:1013B000521E04F1010403D010F8013B002BF7D1B9
:1013C00054B12246284600F05FF840B10D49022092
:1013D00001F0C2FD22B070BD0BA11320F8E7254437
:1013E000E1E7000057616974696E6720666F7220DB
:1013F000737472696E6720746F2077726974653ACE
:101400000D0A0000241900004F4B0D0A00000000D7
:1014100001480078704700000000002010B5034824
:1014200000F0BCFC024A0021117010BD103B00000E
:101430000000002010B586B018220F496846FFF75B
:1014400009F880210D4A0020491EC9B21154401CE0
:101450008028F9D30A4900200A4A486006486946AC
:10146000001F00F0BDFC040003D10348001F00F082
:101470004DFC06B0204610BD143B00004400002087
:1014800000000020253800001FB51446082A02D9A4
:10149000092004B010BD0219C308521EB3EBD20FCD
:1014A00001D01020F5E78DF8040022460DF105006B
:1014B000FEF7D0FF0020641C0090E3B201AA502187
:1014C000014800F0CBFBE4E72C3B00000E4910B5CF
:1014D0000A784C780023A24212D0521CD2B20A7071
:1014E000022A00D10B70084A0B78183252F82320D8
:1014F00002608868104420F07F408860012010BDA1
:101500000360002010BD00000C00002010B50C4A44
:101510000CA1132001F046FD094A0AA15432132000
:1015200001F040FD064A07A18332132001F03AFD85
:10153000034ABDE81040AA3202A1132001F032BDD7
:10154000343B00002573000070B50E460446007958
:1015500018494FF4A27501EB4010017F2068A1B13A
:101560004FF4887101F0BDFD4FF49071206801F0D7
:10157000B8FD4FF49271206801F0B3FD2946206850
:1015800001F0AFFD0C49206809E04FF48E7101F0C5
:1015900097FD2946206801F093FD08492068C0F8AE
:1015A0000413206800F0BEFA3146BDE8704000F038
:1015B00091BA00005C0100201003020080000200CC
:1015C0007FB5054608680C4620B92E4940F2F53033
:1015D000FFF76EFD94F8211094F82000CDE900018A
:1015E00004F12602D11E2846E36901F0FCFF002821
:1015F00023D194F8230008BB207B022801D00328C4
:101600001CD12269E169914218D16269E261E37BF0
:1016100084F82030217E0328C1F3401184F8211082
:1016200006D004B029462046BDE8704001F077BFDF
:1016300000912946204602F05BF87FBD04F10C00C2
:1016400001AB07C883E8070094F82300002168B1C4
:10165000D5F8C404C5F8C404820701D5012002E00E
:10166000400705D502208DF8000001E08DF800103C
:1016700084F82410207E4007DFD4D4E90021684696
:1016800090477FBDFC3D00002DE9F043264CA4F1BE
:1016900010092278D9F8048099F80350404694F84C
:1016A00001C0D9F8086031E002EB42036168521CC6
:1016B00001EBC301A378D2B2934200D100220B7890
:1016C000022B02D0032B21D11DE003464F6819469F
:1016D00003E0B94203D00B46C969B9B1F9E7A9B132
:1016E0008B4205D1C06918B9104E0125B56000269E
:1016F0000F68C969D96149B10B683B440B6005E0CB
:101700000174C06900E000210028F9D19445CBD1D3
:10171000C9E9010689F80350404502D00120BDE81F
:10172000F0830020FBE700001C00002000100140B7
:101730002DE9F0412A4F0446002607F11005D7F89D
:1017400004803EE002D02046E4691DE02878696804
:1017500000EB4002401CC0B201EBC2012870AA7825
:10176000904200D12E700A784868012A2BD1027C61
:101770004ABB8A684260CA6882600A69C260496975
:101780008161F97801B146604368BA68DFF854C0F6
:10179000991A21F07F41614502D28268114406E026
:1017A000D11A826821F07F418A4202D9511A016020
:1017B00000E006604660012186600174C66101F0A8
:1017C000D3FD002CBED1287869788842BED17968D3
:1017D000414502D00120BDE8F0810020FBE7000078
:1017E0000C000020FFFF7F001FB5FFF797FC0020D3
:1017F00001F00EFC08B1FFF78DFBFFF71BFE08B1EF
:10180000FFF788FB334B0FCB8DE80F0031480023E7
:101810001A466946D83800F0B7F9C0B1FFF77AFB2D
:101820002D49132001F098FBFFF770FE01F0AAFA92
:101830000028FBD101F0E2FB0246702826D00BDC29
:101840000A2A17D00D2A15D0632A09D124E021488D
:10185000D83800F07BF9E3E7772A1AD0782A30D01D
:101860001EA1132001F09EFB21A1132001F074FBA7
:10187000FFF74CFEFFF7CCFD18B12949132001F00A
:101880006BFB01F07FFA0028FBD1D3E7FFF740FDA7
:10189000F0E7FFF777FDEDE7FF208DF8000000246B
:1018A000012269462046FFF7EFFD10B11DA102207D
:1018B00004E0641C802CF3D323A1132001F04CFB23
:1018C000D8E7FFF7ABFD024623A1022001F06AFB37
:1018D000D0E70000043C0000503D0000596F752027
:1018E00073656C65637465642025630D0A000000F0
:1018F000556E6B6E6F776E20636F6D6D616E642CCD
:1019000020747279206F6E65206F66207468652080
:10191000666F6C6C6F77696E673A0D0A00000000A5
:10192000FC3C00004150503A5741524E494E473A14
:10193000436F6D6D756E69636174696F6E2065725A
:10194000726F720D0A0000004D656D6F727920652F
:1019500072617365640D0A004150503A5741524E0E
:10196000494E473A4572726F7220776F72643A201F
:1019700025780D0A00000000C20800F007030120CE
:10198000895C98400840704700283ED01F49204A93
:10199000096800BF00BF00BF00BF00BF00BF00BF9D
:1019A00000BF91422FD000BF00BF00BF00BF00BFEB
:1019B00000BF00BF00BF00BF00BF00BF00BF00BF2F
:1019C00000BF00BF00BF00BF00BF00BF00BF00BF1F
:1019D00000BF00BF00BF00BF00BF00BF00BF00BF0F
:1019E00000BF00BF00BF00BF00BF00BF00BF00BFFF
:1019F00000BF00BF00BF00BF00BF00BF00BF00BFEF
:101A000000BF00BF00BF0138C3D1704740000020B5
:101A10000024F40000283ED01F49204A096800BF76
:101A200000BF00BF00BF00BF00BF00BF00BF9142AA
:101A30002FD000BF00BF00BF00BF00BF00BF00BF6E
:101A400000BF00BF00BF00BF00BF00BF00BF00BF9E
:101A500000BF00BF00BF00BF00BF00BF00BF00BF8E
:101A600000BF00BF00BF00BF00BF00BF00BF00BF7E
:101A700000BF00BF00BF00BF00BF00BF00BF00BF6E
:101A800000BF00BF00BF00BF00BF00BF00BF00BF5E
:101A900000BF0138C3D17047400000200024F4008B
:101AA000054A00EB400002EB80004268002A01D0AA
:101AB00008461047704700005001002000F01F0248
:101AC000012191404009800000F1E020C0F8801120
:101AD0007047000070B50D460446082903D310492D
:101AE000FE20FFF7E5FA6807000E002C06DA04F086
:101AF0000F0101F1E02181F8140D03E004F1E02170
:101B000081F8000404F01F01012088406109890068
:101B100001F1E021C1F88002C1F8000170BD0000B0
:101B2000B83D0000000B40B270470121B1EB507F7F
:101B300001D101207047002070470121B1EB507F97
:101B400001D10120704700207047000070B50546A4
:101B500000790B4900EB800001EBC00494F82200EF
:101B6000012804D007494FF4A270FFF7A1FA2868B2
:101B70000521C0F80015022084F8220070BD000085
:101B800028010020FC3D00002DE9F0419846174651
:101B90000C00064603D12649CB20FFF789FAD4E989
:101BA0000001884203D12249CC20FFF781FA307925
:101BB000204900EB800001EBC00595F8220010B130
:101BC0000820BDE8F081C5E900780020A86085F80C
:101BD000250085F82400A07B85F82700607B10B1E4
:101BE000204601F03BFC216840F20C60890001F1C5
:101BF000A041C1F800076168890001F1A041C1F866
:101C00000007D4E900123068C0F80815C0F80C25A8
:101C1000A168C0F82415286828B13068217B000B22
:101C200040B2FFF757FF012085F822000020C8E7E7
:101C3000FC3D0000280100203EB5074D2C68AD6832
:101C400000948DF80110019202958DF80230002267
:101C5000694600F015F83EBD203C00003EB5002569
:101C60000095069C8DF8011002958DF802300192C6
:101C70000CB1202200E00022694600F001F83EBDD0
:101C80002DE9F04106460D460079134900EB80002E
:101C900001EBC0041746206888B92878022806D1CD
:101CA0000E4940F23930FFF703FA206838B9287836
:101CB000032804D1094940F23A30FFF7F9F9B8078F
:101CC00002D00620BDE8F0813B462A462046316816
:101CD000BDE8F04101F05FBD28010020FC3D00009F
:101CE000A1F580718A0801219140014201D00120B3
:101CF0007047002070471CB500230622CDE9002361
:101D00000B460122002100F017FD1CBD70B50078C4
:101D10001E4951F8205000EB40011D4800EB8104A2
:101D200010F82100012804D01A4940F29D20FFF745
:101D3000BFF94FF48271284601F0B7F94FF4927160
:101D4000284601F0B2F94FF4A671284601F0ADF92A
:101D50004FF4A871284601F0A8F94FF4B271284653
:101D600001F0A3F94FF4B471284601F09EF96068C0
:101D700010B10948C5F804030920C5F80005002082
:101D8000A06002212170607070BD00002C3C00003A
:101D900050010020403E00000202180610B50178F4
:101DA000064A01EB410002EB8004084600F07AF895
:101DB00004F10800BDE81040FEF72CBB50010020E4
:101DC00070B542580C461AB1012501F06EF900E0D9
:101DD0000025A4F58074A00805FA00F070BD00008D
:101DE0002DE9F04792460C00054604D1294940F2FE
:101DF0003120FFF75DF92169A068884204D12549A7
:101E000040F23220FFF754F92F782348DFF88C9006
:101E100007EB470850F8275019F82800002610B1A2
:101E20000820BDE8F087284600F0AAF9217BA068C9
:101E3000FFF761FF217D2069FFF75DFFD4E9000115
:101E400050EA010223D000B1012609B146F0020692
:101E5000280B40B2617DFFF73DFEA1682069C5F8FF
:101E60000815C5F80C052078C5F888052079C5F84F
:101E70008C05C5F894650A49002009EB8802C8550D
:101E800050700123C2F804A009F82830C9E70126E0
:101E9000DEE70000403E00002C3C00005001002026
:101EA00008000020054A00EB400102EB810149686F
:101EB000002901D100F042B8704700005001002015
:101EC0001CB50AB94FF480728DF80010064900EB7A
:101ED000400301EB830101928B6813438B606946D9
:101EE000FFF7DEFD1CBD00005001002070B50D465F
:101EF00000781049164651F820400F4900EB400089
:101F000011F82000022801D0082070BD2846FFF7F4
:101F10000CFE18B1300A03D0092070BD102070BD2E
:101F2000F0B2C4F83455C4F838050120206300200D
:101F300070BD00002C3C0000500100202DE9FC5F2A
:101F400006468C48815D002968D14FF0010B82461E
:101F500000F806B0884806EB460150F8265087483E
:101F600000EB8100814644784FF482712846FFF7E8
:101F700027FF80464FF492712846FFF721FF40EA81
:101F800008074FF4A6712846FFF71AFF40EA070832
:101F90004FF4A8712846FFF713FF40EA08074FF4F3
:101FA000B2712846FFF70CFF40EA07084FF4B471FE
:101FB0002846FFF705FF40EA08074FF0000827E032
:101FC000052C70D2DFE804F0034C6888A4004FF4BD
:101FD00082713846FFF784FE10B127F0020717E040
:101FE0004FF4B4713846FFF77BFEC8B18DF800801E
:101FF0004FF4A8713846FFF773FE08B102241FE0C2
:10200000012421E069463046FFF74AFD27F0C36707
:10201000002FD5D189F801400AF80680BDE8FC9F61
:102020004FF4B2713846FFF75BFE80B103208DF8A4
:1020300000004FF4A6713846FFF752FE18B1042491
:102040008DF80480DEE703248DF804B0DAE7D5F8D4
:10205000D024C5F8D02406213046FFF731FFD9E758
:102060004FF4A8713846FFF73BFE88B94FF4B271C0
:102070003846FFF735FE58B94FF4B4713846FFF7CC
:102080002FFE28B94FF482713846FFF729FE58B168
:10209000022437F48017BDD04FF4B2713846FFF7F1
:1020A0001FFEA0B906E060E0D5F8D024C5F8D02422
:1020B000022155E04FF4B4713846FFF711FE30B9F4
:1020C0004FF482713846FFF70BFE0028ECD08DF8F4
:1020D00000B0D5F84C0532E04FF4A6713846FFF752
:1020E000FFFD88B94FF4B2713846FFF7F9FD58B9D2
:1020F0004FF4B4713846FFF7F3FD28B94FF48271FD
:102100003846FFF7EDFD30B3042437F4002781D0C3
:102110004FF4B2713846FFF7E3FD58B94FF4B4718C
:102120003846FFF7DDFD28B94FF482713846FFF7D6
:10213000D7FD80B104208DF80000D5F83C05694634
:10214000C0B201903046FFF7ABFC002437F0020725
:102150007FF43DAF5EE7D5F8D024C5F8D024052143
:102160003046FFF7ADFE002454E70024002FEFD1E6
:1021700050E70000080000202C3C00005001002027
:1021800010B50021C0F80015491EC0F80815C0F8A8
:102190000C15020B52B202F01F040123A340520996
:1021A000920002F1E022C2F88031C0F8081310BD9D
:1021B0002DE9F0410D46007810490027164651F8E8
:1021C00020400F4900EB400011F82000022802D007
:1021D0000820BDE8F0812846FFF7A7FC18B1300AB7
:1021E00003D00920F5E71020F3E7F0B2C4F8445516
:1021F000C4F84805012060633846EAE72C3C00003B
:10220000500100202DE9F04190460D00064603D113
:1022100018A1E420FEF74CFF3079264F07EB40145D
:10222000E07E10B10820BDE8F081687F2077294664
:102230003046FEF7E9FE5FEA080060602969216028
:1022400003D0297F3046FFF77FF9307907EB401044
:10225000007F0028306801D0082100E00421C0F888
:1022600000150020E0752076A0750121E176A076AA
:10227000D9E700002E2E5C2E2E5C2E2E5C2E2E5CBE
:102280002E2E5C2E2E5C636F6D706F6E656E747398
:102290005C647269766572735F6E72665C7561729A
:1022A000745C6E72665F6472765F756172742E63C1
:1022B000000000005C0100202DE9F0410546007996
:1022C000304E174606EB40148846E07E012804D0C5
:1022D0002DA140F22F20FEF7EBFE27B92AA14FF4E3
:1022E0000C70FEF7E5FE287906EB4010007F18B170
:1022F0004046FFF722FC80B1626800234FF404706F
:102300004FF4017172B12A7906EB4212127F002A52
:102310002A6805D0C2F8080304E01020BDE8F08167
:10232000C2F80813E27DB2B1227E7AB162685AB176
:102330002A7906EB4212127F1AB12968C1F8040308
:1023400002E02868C0F804131120E7E7C4F8108001
:102350000123277605E0E7750020C4F80C8060763D
:10236000207628793A4606EB40104146007F002847
:10237000284603D0BDE8F04100F07AB8BDE8F0414E
:1023800000F022B85C0100202E2E5C2E2E5C2E2E3A
:102390005C2E2E5C2E2E5C2E2E5C636F6D706F6E2D
:1023A000656E74735C647269766572735F6E726673
:1023B0005C756172745C6E72665F6472765F756183
:1023C00072742E63000000002DE9F05F044600796E
:1023D000264901EB4015A87E184302D1204600F0A3
:1023E00014FF68680028206806D04FF40171C0F817
:1023F00004130020BDE8F09F4FF4A276314600F0B0
:102400005FFEB1464FF4927A4FF4847B51462068C8
:1024100000F051FE06465946206800F04CFE80460A
:102420004946206800F047FE074648EA0700304367
:10243000ECD056EA070007D12946206800F0C0FE1C
:10244000E87D697E8842E1D80020E8750EB103205E
:10245000D0E70FB10F20CDE7A97E01200029216828
:1024600001D00860C5E74860C3E700005C010020B8
:102470002DE9F05F894604464FF488759A469046E8
:1024800000260068294600F02CFE4FF4A27739465A
:10249000206800F026FE2068C0F83495C0F8388522
:1024A0002068BAF1000F14D0D0F8001241F02001DA
:1024B000C0F800122179DFF8648008EB4110406811
:1024C00050B120684FF40471C0F804133046BDE8E1
:1024D000F09F01210160EDE7AA46B9464FF4927BD7
:1024E0005146206800F0F8FD07464946206800F094
:1024F000F3FD05465946206800F0EEFD014647EA27
:1025000005000843ECD02379002208EB4310C27584
:1025100001B10326002DD9D00F26D7E75C0100209A
:102520002DE9F0470E460179DFF82881044608EBD3
:1025300041151746E87E012804D047A140F27110EA
:10254000FEF7B6FD27B944A14FF4B970FEF7B0FD10
:1025500026B941A140F27310FEF7AAFD217908EBDC
:102560004110007F18B13046FFF7E7FA30B120463E
:1025700000F092F820B11120BDE8F0871020FBE7B1
:10258000AF750027AE60AF8221793E4608EB41155A
:102590004FF00108287F0028206825D04FF490795B
:1025A000494600F09EFD4FF4AC7A5146206800F099
:1025B00098FD2068A97DAA68C0F84425C0F8481590
:1025C0002068C0F808806868F0B94946206800F0C3
:1025D00083FD80465146206800F07EFD58EA0001E8
:1025E000F3D058BBAF750FE04FF48E7A514600F030
:1025F00067FD2068C0F808802946206801F05AF974
:1026000069684FF4807089B13046B5E7514620685B
:1026100000F051FD10B9A88A4845F7D1A88A48456D
:1026200005D02946206801F045F900E08146A88AD6
:10263000A97D8842EAD3A88A484501D10F26D1E76F
:102640005146206800F037FD0028F9D02068C0F816
:102650000C80C7E75C0100202E2E5C2E2E5C2E2EF7
:102660005C2E2E5C2E2E5C2E2E5C636F6D706F6E5A
:10267000656E74735C647269766572735F6E7266A0
:102680005C756172745C6E72665F6472765F7561B0
:1026900072742E63000000000079044901EB4010C1
:1026A000807D002800D00120704700005C010020E0
:1026B00070B5044600791149002601EB40152068E9
:1026C0002A7FC0F80065686888B1207901EB401066
:1026D000007F0028206801D0094901E008498C39B1
:1026E000C0F808132068FFF71DFAFFF7E7F9204646
:1026F00000F0FEFCEE766E6070BD00005C01002014
:10270000100302002DE9FF411C46DDE90A78154659
:102710000E46684600F0A4F846EA450141EA840105
:1027200041EA072242EA0841009A00EB8200C0F821
:102730000017BDE8FF8100002DE9F0471D46DDE9E7
:10274000088916460F460446202804D30AA14FF4F0
:10275000D570FEF7ADFC47EA46014FF0A04041EAD4
:10276000850242EA082200EB840042EA0941C0F8EF
:102770000017BDE8F08700002E2E5C2E2E5C2E2E5A
:102780005C2E2E5C2E2E5C2E2E5C636F6D706F6E39
:10279000656E74735C647269766572735F6E72667F
:1027A0005C68616C5C6E72665F6770696F2E680052
:1027B0002DE9FF411C46DDE90A7815460E466846BC
:1027C00000F0C6F846EA450141EA840141EA0722E1
:1027D00042EA0841009A00EB8200C0F80017BDE809
:1027E000FF811CB5002100910B4601220191FFF7EA
:1027F000DFFF1CBD1CB500220B4600921146019262
:10280000FFF7D6FF1CBD1CB5002100910B4601222D
:1028100001911146FFF7CCFF1CBD13B50C4668466D
:1028200000F046F8009900EB8101D1F8002722F46E
:102830004032C1F80027009900EB8100D0F8001762
:1028400041EA0441C0F800171CBD01B5684600F01C
:1028500057F8009A01219140C0F80C1508BD0000FE
:1028600010B50068202804D303A14FF4D570FEF7FB
:102870001FFC4FF0A04010BD2E2E5C2E2E5C2E2E85
:102880005C2E2E5C2E2E5C2E2E5C636F6D706F6E38
:10289000656E74735C647269766572735F6E72667E
:1028A0005C68616C5C6E72665F6770696F2E680051
:1028B00010B50068202804D303A14FF4D570FEF7AB
:1028C000F7FB4FF0A04010BD2E2E5C2E2E5C2E2E5E
:1028D0005C2E2E5C2E2E5C2E2E5C636F6D706F6EE8
:1028E000656E74735C647269766572735F6E72662E
:1028F0005C68616C5C6E72665F6770696F2E680001
:1029000010B50068202804D303A14FF4D570FEF75A
:10291000CFFB4FF0A04010BD2E2E5C2E2E5C2E2E35
:102920005C2E2E5C2E2E5C2E2E5C636F6D706F6E97
:10293000656E74735C647269766572735F6E7266DD
:102940005C68616C5C6E72665F6770696F2E6800B0
:1029500010B50068202804D303A14FF4D570FEF70A
:10296000A7FB4FF0A04010BD2E2E5C2E2E5C2E2E0D
:102970005C2E2E5C2E2E5C2E2E5C636F6D706F6E47
:10298000656E74735C647269766572735F6E72668D
:102990005C68616C5C6E72665F6770696F2E680060
:1029A00001B56846FFF7ACFF009A01219140C0F8DD
:1029B000081508BD01B56846FFF7CAFF009A012156
:1029C0009140C0F8081508BD38B50124009068464C
:1029D00031B1FFF745FF00998C40C0F8084538BD7C
:1029E000FFF73EFF00998C40C0F80C4538BD000051
:1029F000F8B504460B486618154600680090012E8D
:102A000004D909A140F2C220FEF752FB694605E055
:102A100051F82400D0F81005641C01C5A642F7D86F
:102A2000F8BD00001C3C00002E2E5C2E2E5C2E2ECD
:102A30005C2E2E5C2E2E5C2E2E5C636F6D706F6E86
:102A4000656E74735C647269766572735F6E7266CC
:102A50005C68616C5C6E72665F6770696F2E68009F
:102A6000034908B50844002101600068009008BDD2
:102A70000060004002494058012800D00020704703
:102A80000060004038B50B4C607828B101226946DF
:102A9000201DFFF711FC0AE00020A070054801226C
:102AA0006946001DFFF708FCA0780028FCD09DF8BF
:102AB000000038BD3000002000487047312B000076
:102AC00030B5184C054689B0207828B16078854229
:102AD00002D1002009B030BD202213496846FDF71D
:102AE000B9FC00208DF81400062000900820019009
:102AF00005200390072002904FF0EB7006900948E4
:102B0000001DFFF7D5FD0DB1002200E0074A054882
:102B10006946001DFFF776FB0028DBD101202070FD
:102B20006570D6E730000020303C0000F13800002E
:102B30002DE9F04FC1B00D004FF0000140914D98CC
:102B40004B991C46174601EB000B01D00A2000E010
:102B50000020804600F0A6FB00287CD16E46BCB960
:102B6000409840AA3118284600F05EFC002872D038
:102B70003846FDF781FCC22800D9C220054640989E
:102B80002A4630443946FDF765FC40982844409079
:102B90004FF0200A409901EB080231320DEB01059C
:102BA0000DEB0206002002E005F801AB401C404599
:102BB000FAD300275C4508D305F801AB05F801AB53
:102BC00005F801AB06F801AB2DE04B98844202D228
:102BD0004A98005D02E0211A4C98405C2B468146E1
:102BE00002460121880022FA00F000F00F000928B7
:102BF00001D9373000E03030C1F1010C491E03F833
:102C00000C00EFD29D1C05F801ABFDF71FFC01681D
:102C100011F8090010F03E0F01D0484600E02E20C8
:102C200006F8010B641C7F1C102FC3D30D203070DD
:102C30000A20707085F800A04099684641444331ED
:102C4000409100F035FB30B100F02CFB18B90020AA
:102C500040905C459ED341B02046BDE8F08F2DE901
:102C6000F043C7B000251C46904689464E9F4595C7
:102C700000F018FB00287AD1459805AE311845AA16
:102C8000484600F0D1FB002835D0072F27D2DFE8D7
:102C900007F004121B35424F5D004046FDF7ECFB88
:102CA000054645982918FF2919D830442A46414637
:102CB000FDF7D0FB13E045982368C0F580713044E0
:102CC0004246FDF79FFE09E0606800904598236842
:102CD000C0F5807130444246FDF794FE0546294612
:102CE00045A8FEF73AFA459978B3B1F5807F3ED80A
:102CF00005A800F0DDFA47B0BDE8F083D4E9010192
:102D0000CDE9000145982368C0F580713044424602
:102D1000FDF778FEE2E7201D07C88DE8070045981B
:102D20002368C0F5807130444246FDF76BFED5E75D
:102D3000201D0FC88DE80F0045982368C0F58071ED
:102D400030444246FDF75EFEC8E710E004F108009B
:102D500001AD0FC885E80F006068009045982368B2
:102D6000C0F5807130444246FDF74CFEB6E70020C6
:102D7000C1E70000004870475F2C00000120FFF70A
:102D80009FBE00002DE9F04F87B0FEF71FFA18B183
:102D9000002007B0BDE8F08F454ED6E9014704EAB0
:102DA000070006EB8000A146641CC5680CE000BF6C
:102DB000C5F3891000EB9550044404EA070006EBC4
:102DC0008000A146C568641CA807F1D005F0030087
:102DD0004FF0000B022805D0AA0A01A8C5F38313FF
:102DE000002153E004EA070006EB800004F1010A29
:102DF0000AEA0704C268381B80004FEA9558001D94
:102E0000C5F38913804521D929490C3138B106EB26
:102E1000840400F0FF0CA8EB00000C3404E00C4626
:102E2000002108F0FF0C0846C0B2CDE90210CDE940
:102E3000004CD6F81444C5F3C2005946A04740459B
:102E400011D108F103080AEB98042AE0002106EBEF
:102E500084000C300090CDE901810391C5F3C200DC
:102E6000D6F81444EAE760F38F1509EA070006EB89
:102E70008000C56016E000BF04EA070C06EB8C0C6E
:102E8000491CDCF80CC040F804CB641C9942F3D315
:102E9000C5F3C2000093D6F8105401AB5946A847B9
:102EA00000B17460FEF792F980F0010071E7000054
:102EB0007C0200202DE9F843894607461F4CD81CA8
:102EC000012101EB90001D4690466946A668FEF779
:102ED0004DF9002830D01A48016A002060F38201C1
:102EE000009867F3C50100EA060204EB820265F36D
:102EF0009F51401CD16000EA060204EB8202401C94
:102F0000C2F80C900090A1683040091A8E00361D5E
:102F1000B54204EB800002D82A46414609E0324619
:102F200041460C30FDF796FAA81B82B2034808EB25
:102F300006010C30FDF78EFABDE8F8837C02002014
:102F4000503C0000034AFF2393600023136053604A
:102F500000F056B87C0200202DE9F8430F4F884658
:102F60000446002569462846BE68FEF7FFF800289B
:102F700012D00B480021406861F38200009964F38D
:102F8000C50001EA060265F3891007EB820268F3C7
:102F90009F20491CD0600091BDE8F8837C0200208E
:102FA000503C00002DE9F843124D884604460127A5
:102FB000914669463846AE68FEF7D8F8002817D023
:102FC0000D480021806861F38200009964F3C50018
:102FD00001EA060267F3891005EB820268F39F207D
:102FE000491CD0600091314005EB8101C1F80C9083
:102FF000BDE8F8837C020020503C0000FFF742BD92
:10300000024A02F5826203C2704700007C0200207F
:1030100070B506460020FFF753FD040008D1FFF706
:103020004BFD0546FFF7A6FE32462946FFF78AFF0D
:10303000204670BD2DE9FC47DFF854908246D9F850
:103040000870FDF719FA441C001D86084FF00008AF
:1030500001AA69463046CDF80080FEF71FF9050049
:1030600012D00099404661F38F10019966F39F508A
:1030700001EA070209EB8202491CD0600191224655
:1030800051462846FDF7E6F92846BDE8FC870000D2
:103090007C0200204058002800D00120704708B56D
:1030A000002242504058009008BD08B5002343500C
:1030B0004058009008BD4058002800D001207047BB
:1030C00008B5002242504058009008BDD0F80403D3
:1030D000084000D0012070474058002800D001204F
:1030E000704708B5002242504058009008BD0000CB
:1030F00070B5034600791B4901EB40101968027F47
:103100004FF0FF30002AD1F80C25D1F81465D1F822
:103110000855D1F8104504D0C1F80C05C1F81405C4
:1031200003E0C1F81405C1F80C051968C1F80805D9
:10313000C1F81005501C02D01046FFF752FB701C5E
:1031400002D03046FFF74DFB601C02D02046FFF74F
:1031500048FB681C04D02846BDE87040FFF741BB1F
:1031600070BD00005C010020EFF30580C005C00DBC
:1031700001D001207047EFF3148040F30000401CA1
:103180007047000070B5012670044FF0E021002563
:10319000C1F88001084C4010C4F84803C4F8080383
:1031A00066602F20FEF736FCA660044C2F20A56039
:1031B000FEF730FCA57070BD001001400C0000202F
:1031C00070B50546C87D0C4600284FF4847128462A
:1031D0000AD0FFF775FFD5F81805627EE1688854BC
:1031E000607E401C607670BDFFF76AFFD5F8180559
:1031F00070BD1FB501238DF800308DF808100192C5
:10320000D0E90012684690471FBD10B5044600681B
:103210004FF49271FFF754FF4FF484712068FFF769
:103220004FFF20680121016010BD0000F8B50027A4
:103230000D4604460097FDF709F90646FFF7DEFE46
:1032400001463068405C10F03E0F12D004F8011BBC
:103250008DF800106846FFF7EDFE024610A113201E
:10326000FFF7A0FEFFF78EFD0028FBD16D1EE5D114
:1032700003E00A2901D00D29E0D127700A208DF83A
:1032800000006846FFF7D6FE024605A11320FFF7AF
:1032900089FE00BFFFF776FD0028FBD1F8BD0000D6
:1032A000257300000148FFF7F7B900003400002043
:1032B00070B50D460A46014601240648FDF7CAF8D6
:1032C000EAB204490448FFF72BF900B10024204674
:1032D00070BD00007C010020340000202DE9F84F73
:1032E000204C00256846D4E901B6FEF7EFF8804689
:1032F000FEF7CAF90746A946B8F1000F25D000230A
:10330000009ACC46606819E007680146974202D9E6
:10331000BA1A026014E0C1F800C0D1F80C80D21BC8
:10332000C8693B448A46B8F1000F07D0F71827F068
:103330007F47C1E90178CAF81C500D460028E3D147
:1033400060602846FEF7F4F904E02846FEF7F0F93D
:1033500000B917B15846FDF74BFF84F80390BDE85C
:10336000F88F00000C0000200D4B10B5596831B1EA
:1033700002680C68A24204D8A21A0A60C1615860AF
:1033800010BD0B4603E00B46C969121B21B10C6846
:103390009442F8D3A41A0C600260C161D86110BDD8
:1033A0000C0000202DE9F0411D4D6C68002C35D03B
:1033B0001C4800270068A968B846401A20F07F46DC
:1033C0002068B04215D82246361A0744E469107CBA
:1033D00068B182F81080EB6833B1D2E905019847F3
:1033E00028B1FDF797FD02E0D2E905108847002CCF
:1033F000E6D129786878814206D1401CC0B2687055
:10340000022801D185F8018005486978183040F814
:103410002170BDE8F0411420FDF76CB9BDE8F081E2
:103420000C0000200415014010B5144602004FF0B6
:1034300001000CD00846136806A24FF48071FDF716
:10344000E1FA01462046BDE81040FDF786BE0021A6
:10345000216010BD5B253038645D000038B504463E
:1034600040F20C602168890001F1A041C1F8000719
:103470006168890001F1A041C1F800072068FFF7E9
:103480008FFA6068FFF78CFA216840F20D608900BE
:1034900001F1A041C1F800076168890001F1A04174
:1034A000C1F800070420FEF76FFA0025606800905D
:1034B0006846FFF725FAD0F810050099C84010F0CB
:1034C000010F02D0002D1AD00EE02068FFF7BDF9E1
:1034D0000420FEF759FA2068FFF762FA0420FEF78D
:1034E00053FA6D1C092DE1DB6068FFF7AEF904208B
:1034F000FEF74AFA6068BDE83840FFF751BA38BDB8
:1035000001460320CA0701D04FF402408A0701D5C3
:1035100048F20120490701D548F2022070472DE901
:10352000FC5F0C4605461F4693464FF0000A4FF4D9
:1035300082712046FFF7B3FD4FF492712046FFF7EA
:10354000AEFD4FF48E712046FFF7A9FD4FF4847154
:103550002046FFF7A4FD002685F8266085F8236045
:10356000012F0ED00120C4F800020120206220604B
:10357000286840B140F28620A860A868C4F8040317
:103580001AE00220EFE705F1260905F12308CDE94D
:1035900000765B464A464146204600F024F8002863
:1035A000F5D195F8230038B1D4F8C404C4F8C404A4
:1035B00010B1FFF7A5FF82465046BDE8FC9F30B52D
:1035C0001C78039D944206D2095DC0F81C1518783A
:1035D000401C187005E0012115B1C161002030BD0B
:1035E0004161012030BD2DE9FF4F81B004460878CC
:1035F0000E9E90460F4618B998F80010B14201D1BE
:10360000012100E0002189464FF48E7B4FF4927136
:1036100060B12046FFF743FD59462046FFF73FFDC6
:103620004FF484712046FFF73AFD4DE08A4620466C
:10363000FFF730FD012540BB59462046FFF72AFD24
:1036400098B159462046FFF72AFD51462046FFF71C
:1036500021FDD0B90F980090434632462046049988
:10366000FFF7ADFF00283ED02EE04FF4847B594693
:103670002046FFF70FFD38B359462046FFF70FFDF0
:1036800051462046FFF706FD30B151462046FFF770
:1036900006FD65613D7017E098F8002004994046EA
:1036A000B24211D2D4F818358B540178701E491CDF
:1036B000C9B288F80010814203D10220C4F8000288
:1036C00001E0B14200D02562B9F1000F0ED04FF4F5
:1036D000827529462046FFF7DDFC38B12946204691
:1036E000FFF7DDFC002005B0BDE8F08F0120FAE710
:1036F0002DE9FC5F0C4605461E4692464FF0000938
:103700004FF4827120460C9FFFF7C9FC4FF4927171
:103710002046FFF7C4FC4FF48E712046FFF7BFFC34
:103720004FF484712046FFF7BAFC0020C4F8000271
:1037300085F8260085F8230001202062A06005F1AD
:1037400026039B463246514620460097FFF737FF37
:10375000286830B140F28620A860A868C4F8040345
:1037600016E005F1230853465A4641462046CDE966
:103770000067FFF738FF0028F5D195F8230038B12E
:10378000D4F8C404C4F8C40410B1FFF7B9FE8146EC
:103790004846BDE8FC9FF8B504464FF0FF30C1F83D
:1037A000080394F8240020B1A068C1F80403112094
:1037B000F8BD43F38000401C84F82400180701D5AD
:1037C0000620F8BDA36192E8610004F10C0787E8C8
:1037D0006100907884F820005068E0615078C1F86A
:1037E00088051078002501280ED008B9980601D563
:1037F000012000E0002084F82100009093785268B6
:103800002046FFF775FF06E084F821509378526850
:103810002046FFF784FE21680029D2D184F8245085
:10382000F8BD0000F0B420490478204B4A68072C0A
:1038300035D2DFE804F0041436172136360000795B
:1038400000282CD0802A01D2104601E000204860D8
:10385000F0BCC0F1800219181548FEF7A9BC4068F9
:1038600010441BE00079002819D0F0BC0F49092250
:1038700080310F48FEF73ABB4468002C0FD00B4D47
:10388000803501222878486006E0AE5C802800D3AD
:1038900000201E54401C521CA242F6D34860F0BCCB
:1038A000704701200870FAE7000000204400002063
:1038B000103B000070B50C4605464FF48E71FFF7C3
:1038C000FFFBA18AA068415CA08A401CA082C5F8C9
:1038D0001C1570BD1FB500228DF800208DF8081052
:1038E000816801918275D0E90012684690471FBD3A
:1038F0000078012801D1014988707047300000200C
:103900002DE9FF470C4605464FF40071FFF7DEFB3B
:1039100001274FF40178002618B34FF492794946F5
:103920002846FFF7C8FBE0B149462846FFF7C8FB29
:10393000C5F80883A07E00B96F6002208DF80000F2
:10394000D5F88004C5F880040390E07D8DF8080068
:10395000E0680190E6752676D4E900126846904743
:1039600027E004212846FFF7B1FB10B34FF4847120
:103970002846FFF7A0FBE0B121462846FFF720FCD0
:10398000E07D617E884214D1207E38B1617EE2689C
:10399000E0752069E0602676667607E0A07E00B9D3
:1039A0006F60C5F80883E675617EE2682046FFF720
:1039B00020FC4FF48E7841462846FFF77CFB88B107
:1039C000A08AA17D884204D221462846FFF772FFD3
:1039D00008E041462846FFF773FBA17D11B1204660
:1039E000FFF778FF4FF4A27841462846FFF763FBC4
:1039F000002812D041462846FFF762FBA07E00B1A6
:103A00002F60E07D002808D0E675617EE26804B092
:103A10002046BDE8F047FFF7ECBBBDE8FF872DE986
:103A2000FF410C464FF4927705463946FFF754FBA9
:103A30000026C0B139462846FFF753FB02208DF817
:103A40000000D5F88004C5F880040390D5F83C0543
:103A50008DF80800E0680190E6752676D4E900123A
:103A60006846904724E04FF4887739462846FFF7A8
:103A700033FBE8B139462846FFF733FBD5F83C0560
:103A8000C1B2E07D884213D1207E60B1E268D5F8F2
:103A9000000220F02000C5F80002207EE0752069B9
:103AA000E060267601E0E675E2682046FFF7A1FBBC
:103AB0004FF4A27739462846FFF70EFB68B1394626
:103AC0002846FFF70EFBE07D38B1E675D5F83C05DA
:103AD000E268C1B22046FFF78CFB4FF49076314686
:103AE0002846FFF7F9FA00280FD031462846FFF79D
:103AF000F8FAA07D002808D0D5F84C0504B0C1B272
:103B00002046BDE8F041FFF7E5BEBDE8FF810000BB
:103B10000000000050000000000000001F00000036
:103B2000030000001E0000000302000000300040FF
:103B30000000000020202070202D205072696E743B
:103B40002074686520454550524F4D20636F6E7458
:103B5000656E747320696E206120666F726D3A2005
:103B6000616464726573732C2038206279746573A4
:103B7000206F6620636F64652C20415343494920C0
:103B8000666F726D2E0D0A0020202077202D2057A1
:103B90007269746520737472696E672073746172E0
:103BA00074696E672066726F6D20616464726573FC
:103BB0007320302E0D0A0020202063202D20436C1E
:103BC00065617220746865206D656D6F727920285B
:103BD00077726974652030786666290D0A002020A6
:103BE0002078202D20476574207472616E736D6992
:103BF0007373696F6E206572726F7220627974657B
:103C00002E0D0A00030000000400000000006806FA
:103C100002000000111213140D0E0F1000000050CE
:103C20000100000000000000000000000040004013
:103C3000FFFFFFFFFFFFFFFFFFFFFFFFFFFFFFFF94
:103C400000000000000000000000D6010701000095
:103C50002900000001000000010000000100000038
:103C60000100000001000000010000000100000050
:103C70000200000000404040404040404040414180
:103C80004141414040404040404040404040404031
:103C900040404040400502020202020202020202CB
:103CA00002020202022020202020202020202002C8
:103CB0000202020202029090909090901010101058
:103CC00010101010101010101010101010101010F4
:103CD0000202020202028888888888880808080888
:103CE0000808080808080808080808080808080854
:103CF0000202020240000000753C00005741524E93
:103D0000494E473A20454550524F4D207472616EDE
:103D1000736D697373696F6E206572726F72206460
:103D2000657465637465642E0D0A55736520277884
:103D30002720636F6D6D616E6420746F2072656102
:103D400064206572726F7220776F72642E0D0A00A4
:103D500054686973206973205457495320616E6415
:103D600020545749207573616765206578616D70CF
:103D70006C650D0A596F752063616E206163636520
:103D800073732073696D756C61746564204545506B
:103D9000524F4D206D656D6F7279207573696E6736
:103DA00020666F6C6C6F77696E6720636F6D6D61F5
:103DB0006E64733A0D0A00002E2E5C2E2E5C2E2EA1
:103DC0005C2E2E5C2E2E5C2E2E5C636F6D706F6EE3
:103DD000656E74735C647269766572735F6E726629
:103DE0005C636F6D6D6F6E5C6E72665F6472765F42
:103DF000636F6D6D6F6E2E63000000002E2E5C2EC3
:103E00002E5C2E2E5C2E2E5C2E2E5C2E2E5C636F76
:103E10006D706F6E656E74735C64726976657273D3
:103E20005F6E72665C7477695F6D61737465725CF6
:103E30006E72665F6472765F7477692E630000004D
:103E40002E2E5C2E2E5C2E2E5C2E2E5C2E2E5C2EAC
:103E50002E5C636F6D706F6E656E74735C647269F7
:103E6000766572735F6E72665C747769735F736C8C
:103E70006176655C6E72665F6472765F7477697393
:103E80002E6300004F766572666C6F770D0A000036
:103E9000B03E000000000020440000002C0A00009A
:103EA000F43E000044000020542600003C0A0000BC
:103EB0000000000000000000000000000000000002
:103EC00000000000000000000000000000000000F2
:103ED00000000000000000000000000000000000E2
:103EE000000000000020004000000000843E0000B0
:043EF0000090D0036B
:0400000500000401F2
:00000001FF
