:020000040000FA
:10000000280F0020D5000000EF000000F1000000E4
:1000100000000000000000000000000000000000E0
:10002000000000000000000000000000F3000000DD
:100030000000000000000000F5000000F7000000D4
:10004000F9030000F900000015050000F9000000A8
:10005000F9000000000000003D020000F90000006F
:10006000F9000000F9000000F9000000F9000000AC
:10007000F9000000F9000000F9000000F90000009C
:10008000F90000004D040000F9000000F900000034
:100090006D040000F9000000F9000000F900000004
:1000A000F9000000F900000000000000000000005E
:1000B0000000000000000000000000000000000040
:1000C0000348854600F086F800480047F517000011
:1000D000280F00200321094802680A4302600848EB
:1000E00002680A4302600748804707480047FEE766
:1000F000FEE7FEE7FEE7FEE7FEE70000240500401E
:100100005405004075040000C100000030B50B46E6
:10011000014600202022012409E00D46D5409D42E1
:1001200005D31D469540491B254695404019154667
:10013000521E002DF1DC30BD00487047D02C00006D
:1001400003460B439B0703D009E008C9121F08C0F0
:10015000042AFAD203E00B780370401C491C521E9B
:10016000F9D27047421C0178401C0029FBD1801A4B
:100170007047F0B51FB40646002082B00546402403
:10018000019100901BE0019922460F46304600F095
:1001900043F8049A059B801A994110D310461946DA
:1001A000224600F029F8361A8F4101972246012095
:1001B0000021009F00F020F838184D4100902046A3
:1001C000641E0028DFDC019B00982946324607B0F8
:1001D000F0BD0000064C0125064E05E0E36807CCA3
:1001E0002B430C3C98471034B442F7D3FFF76CFF15
:1001F000E02C0000002D000010B5202A04DB014691
:10020000203A9140002010BD914020239C1A0346C3
:10021000E3401943904010BD10B5202A04DB084686
:10022000203AD040002110BD0B46D340D0402024BE
:10023000A21A91400843194610BD0000F0B50024F1
:10024000FF268BB00136012527460694304601F083
:100250005DFE002807D054484068284203D030464D
:1002600001F04CFE2C43361D6D007F1CB6B2042FEE
:10027000ECD3FF257D35284601F048FE002809D043
:10028000284601F03BFE6807044306AA012100202E
:1002900001F020FE454D200714D0012700262742FB
:1002A0000CD04348B200111808690969C004C00E97
:1002B0008903AA58890F002A00D090477F00761C36
:1002C000042EECD3002C6DDA00200890401E63E071
:1002D000281940300778B906890E0091002141564F
:1002E000491C49D009A9009801F0C8FA002843D058
:1002F000B8090190009801F0A5F880002F580198E6
:10030000002F02D0032802D00DE0032834D100983A
:1003100008ABC20841079446985C490F01228A4005
:100320001043624698540098052109078000401840
:10033000072109024018006806A98003800F029077
:10034000009801F09BFA0028029802D0022802D0FF
:1003500012E0032810D10198032808D1029802283E
:100360001ED00221009801F098FD761CF6B2002FF5
:1003700002D001990098B847641C042CA8D3002E21
:1003800010D06A460121002001F0A4FD06990098D2
:10039000884207D00690089800263446099097E7CF
:1003A0000321DFE70BB0F0BD006300406C010020CB
:1003B000006500408307FF22DB0E9A408907090E83
:1003C000994000280BDA0007000F08388308084816
:1003D0009B001818C36993430B43C361704783089C
:1003E00004489B001B181868904308431860704726
:1003F00000ED00E000E400E0F8B5FF20013001F07E
:1004000045FA002401250E4E0E4F002807D00E4855
:1004100004600120B0607D70002001F01BF8FF2017
:10042000053001F033FA002808D00748001D0460A9
:100430000220B060BD70012001F00CF8F8BD000092
:1004400000030040580100200001004010B506499B
:100450000020086048608860C8600349403908602F
:10046000486002F087FA10BD4011014010B502F05B
:10047000F7F910BD10B501F0CDF8002805D01F49DF
:100480001D484860C8131E4988611E48018CC9B2C6
:1004900001290BD1828C120708D1028D1206120F8E
:1004A000042A03D1828D1206120F0AD0012921D10C
:1004B000818C09071ED1018D0906090F0A2904D074
:1004C00007E0114A01219160F5E7828D1206120FB3
:1004D00005D00D290ED1808D0006000F0AD10B48E2
:1004E0000168012904D00A49016001680129FCD191
:1004F000C021416110BD0000DFFF07C000050040C2
:10050000006C0040C00F00F00006004000EC064008
:100510007593000010B50249024802F0A9FA10BD17
:10052000B4010020002000400FB41CB50A46521E42
:100530000192009007A9064B6A46069800F026F83B
:10054000009A002111701CBC08BC04B018470000C0
:10055000010A000030B47446641E2578641CAB4266
:1005600000D21D46635D5B00E31830BC184702E013
:1005700008C8121F08C1002AFAD17047704700202E
:1005800001E001C1121F002AFBD17047FFB591B0F5
:100590000F460546002606E025280AD0149A13992E
:1005A00090476D1C761C28780028F5D1304615B090
:1005B000F0BD002400940121F34A029400E00443BA
:1005C0006D1C2B780846203B98401042F7D12878C4
:1005D0002A280ED0022128780246303A092A15D856
:1005E000009A0A235A43303A80180C436D1C00903D
:1005F000F1E701CF0090002805DA01204003044311
:10060000009840420090022004436D1C28782E2858
:1006100015D10420044368786D1C2A280AD101CF23
:100620006D1C02900BE002990A22514330394018A8
:100630006D1C02902878014630390929F3D92878B1
:100640006C2810D006DC4C281AD068280ED06A28F6
:1006500017D104E0742813D07A2812D110E00120B9
:10066000400504430CE00121090501E003210905CF
:100670000C436978814203D10120000524186D1CC8
:100680006D1C287803906E281ED00CDC632831D0B6
:1006900004DC00288AD0582811D1B2E064287BD02D
:1006A00069280CD178E073282DD004DC6F2870D035
:1006B000702804D1A7E075286CD078286BD0149AE4
:1006C00013999047761C62E06002400F022807D021
:1006D00003280AD0042838680AD006603F1D56E077
:1006E0003868F11706604160F8E738680680F5E77A
:1006F0000670F3E73878694608740020487404A847
:100700000390012003E0386803900020C0433F1DA0
:1007100061070FD5002101E00199491C029A01915E
:10072000914213DA8142F7DB019A0399895C00292F
:10073000F2D10BE0002101E00199491C01918142B5
:10074000FADB019A0399895C0029F5D10199009897
:10075000139A401A00902146149B00F03BF901992E
:100760008019461807E0039803990078491C039103
:10077000149A139990470198401E0190401CF2D1A1
:100780002146149B139A009800F014F986196D1CE9
:1007900009E741E033E034E00A20002104900591AC
:1007A0006002410F022905D001CFC21794460329E8
:1007B00005D007E0FF1DFF08FF0003CF06E000B2F1
:1007C000C2179446042902D140B2C1178C460022B8
:1007D0006146944506DA0A460021404291418C4622
:1007E0002D2102E0210504D52B216A461176012135
:1007F00003E0E10701D02021F7E7019154E00A204E
:100800000BE0102009E01020049000210420044394
:1008100008200591029003E0082000210591049032
:100820006002410F022905D001CF0022944603291E
:1008300006D006E0FF1DFF08FF0003CF8C4603E053
:1008400080B2042900D1C0B20021019121072BD52B
:100850000399702906D0049A1021059B4A401A4337
:1008600005D00EE040216A461176012108E061467C
:10087000014306D030216A46117603995176022150
:100880000191049A0821059B4A401A430CD1614604
:10089000014301D1610707D530216A461176012154
:1008A00001910299491E02910399582904D037A158
:1008B00003910FA90F910DE039A1F9E76146059B5E
:1008C000049AFFF756FC039B8C469B5C0F9A521EC2
:1008D0000F92137061460143F0D10F9807A9081ACF
:1008E00020300390600704D501200004844302985F
:1008F00001E0012002900399884201DD401A00E0E6
:10090000002041180290019809180098401A0090A0
:10091000E00306D42146149B139A009800F05AF87D
:1009200086190020049008E006A9085C149A13991F
:1009300090470498401C761C049001998842F3DB90
:10094000E0030CD52146149B139A009800F042F85E
:10095000861904E0149A302013999047761C029966
:10096000481E02900029F5DC08E00F980F990078E6
:10097000491C0F91149A13999047761C0399481EAD
:1009800003900029F1DCFBE6092801003031323305
:1009900034353637383961626364656600000000BB
:1009A00030313233343536373839414243444546A5
:1009B00000000000F8B5044600251E4617468804CE
:1009C00004D405E039462020B0476D1C641EF9D5DB
:1009D0002846F8BDFFB50446002581B01E46C80371
:1009E00001D5302700E02027880404D505E03846EB
:1009F0000399B0476D1C641EF9D5284605B0F0BDBB
:100A00004A68002A06D00A68531C0B6010704868B8
:100A1000401E4860704710B5022000F001FA10BD7A
:100A200070B50024074D05E06968E000085C00F03F
:100A3000CFFF641C28788442F6D30348006800F096
:100A40006BF970BD18000020FC2B000070B500246D
:100A5000064D06E06968E000085C012100F0DCFF5B
:100A6000641C28788442F5D3002070BD1800002053
:100A7000F8B515460C460646052A01D20720F8BDF2
:100A800001F0A2F8002803D101F070F80028F6D197
:100A9000104900204E600C70C8608D6008610E4DDA
:100AA0000DE0E00069688019009181786A46517014
:100AB00000780A4A694600F0FBFF0028DFD1204693
:100AC000641EE4B20028ECD1054A0021024800F07F
:100AD00093F8F8BD18000020FC2B0000C51500009D
:100AE0002515000009A1012001F032FC01F078FB7E
:100AF00001F07CFB0028FBD1BFF34F8F0A49094866
:100B0000C860BFF34F8F00BFFDE700004150505F4A
:100B10004552524F523A4552524F523A46617461D1
:100B20006C0D0A000400FA0500ED00E00EB500218E
:100B3000029000916A4601910148FFF7D3FF0EBD74
:100B40000140000010B516494A78002A06D0002856
:100B50000FD0012806D0022814D11BE00120887094
:100B6000002010BD00F012FA00280BD0FFF7DEFFC6
:100B700008E0012000F0DEFB002801D0FFF7D6FFDF
:100B800000F0D6FB00F0DCF8002801D0FFF7CEFF24
:100B9000012010BD03A1012001F0DAFB9020E5E760
:100BA000000000204150503A4552524F523A456E93
:100BB000746572696E6720444655206973206E6FB4
:100BC0007420737570706F7274656420627920741C
:100BD000686973206578616D706C652E0D0A000080
:100BE000401A0002000A1060002070470148406867
:100BF0007047000000150140094B5B68002B07D0CF
:100C0000002A07D0002805D00068037C002B03D001
:100C100008207047072070474174426100207047E8
:100C20003C000020FFB507469007002581B01E4616
:100C30001446002825D1002C23D001F0FDFC3046BD
:100C4000114EF06030461030057045700299817089
:100C500044607560357001240C487570240504608B
:100C600003211420FFF7A6FB09480460094CA76084
:100C700003211120FFF79EFB6068B060002005B0E3
:100C8000F0BD0720FBE700002C00002080E200E020
:100C900000E100E000150140FEB51D4B5B68002B34
:100CA0002DD000282BD0052901D20720FEBD436995
:100CB000002B24D0437C012B23D0002704460025A1
:100CC00016462846019100F049F8684601F064FF95
:100CD000002818D0012101700E49446049688160E4
:100CE000019907614661C16068460949007848700A
:100CF000002000F037F801F0F5FD2846FEBD082081
:100D0000FEBD0F46DAE70425002000F02BF8F4E7DB
:100D10003C0000200015014010B508494968002931
:100D20000AD0002808D04169002905D000210174AB
:100D3000022101F0FFFD10BD082010BD3C00002085
:100D400010B505484068002804D00321002001F0B8
:100D5000F1FD10BD082010BD3C00002000B500F0E2
:100D600005F800BD00B500F009F800BD72B60248F4
:100D70000168491C016070474C0000200349086865
:100D8000401E086000D162B6704700004C00002091
:100D9000F8B5074608680C460526411C01253602B1
:100DA000002906D02946814019488160206801F059
:100DB00059F86068411C02D0002101F04AF83968F6
:100DC000A06989194862607D217D3A6808439119BC
:100DD000C866386806CC80194261C160207B083C37
:100DE000012814D1A068411C02D0002101F031F883
:100DF000E068411C05D0854005488560E06801F049
:100E000031F83A68E1689219A06891601061F8BD04
:100E1000000500500149085C70470000C82B000025
:100E200005490B5C05494A680120984003469343F5
:100E30008B601040C8607047C42B00000005005054
:100E400010B50349085C012101F038F810BD00001D
:100E5000C42B000010B50349085C002101F02EF8F6
:100E600010BD0000C42B00000549095C054840681E
:100E7000C840C007C00F00D0012001214840704782
:100E8000C42B0000000500507CB50024074E254609
:100E9000305D0122009500231146019500F094FF7A
:100EA000641C042CF4D300F003F87CBDC42B0000B8
:100EB00010B500242046FFF7C3FF641C042CF9D3AF
:100EC00010BD10B500242046FFF7C4FF641C042C9D
:100ED000F9D310BD0246002010B5C043054B0021D8
:100EE0005C5C944201D1084610BD491C0429F7D32B
:100EF00010BD0000C82B0000F3B581B00D4601986D
:100F0000FFF7E8FF0446042813D21D481D4F1E4E6C
:100F1000002D27D0012D0DD0022D0AD16000201800
:100F2000C0194578002D04D0F168002901D0284669
:100F30008847FEBD610061187D5CCF197978002972
:100F40000BD071680A2251430F4A8068921CFFF748
:100F5000A3FE002801D10198B0700B48B978103079
:100F60000155DFE78068FFF7D7FE07486100611889
:100F70001030C919005D8D78A842D3D0FEBD0000A5
:100F8000CC2B00002C0100200400002010B5FFF73E
:100F900047FD10BD10B5174A1749022000F0BCF8F4
:100FA000002801D0FFF7C2FD0C220221012000F031
:100FB00025F8002801D0FFF7B9FD0A220021012001
:100FC00000F01CF8002801D0FFF7B0FD002201213D
:100FD000104600F013F8002801D0FFF7A7FD00210C
:100FE0000E22084600F00AF8002801D0FFF79EFD07
:100FF00010BD000045100000CD0C000070B50023AE
:10100000042811D2440004190D4D012A02D10129EE
:101010000DD0002246008019094E801900290CD0FD
:10102000012906D0022906D00723184670BD0E30CC
:10103000C2B22A55F9E74270F7E78270F5E700007F
:101040002C01002070B5054601F0F0F914A1032031
:1010500001F07EF91A4C0A2D1AD001200C2D15D062
:101060000E2D14D16178002903D00020607015A1E5
:1010700001E060701EA1032001F06AF9A078002849
:1010800005D06078002802D0032005E0207070BDF4
:101090002078002800D0012001F036FA70BD000051
:1010A0004150503A494E464F3A506F776572206D25
:1010B000616E6167656D656E74206665640D0A001A
:1010C000000000204150503A494E464F3A53797340
:1010D00074656D206973206E6F7420726561647928
:1010E00020666F722073687574646F776E0D0A00E6
:1010F0004150503A494E464F3A53797374656D20CA
:10110000697320726561647920666F7220736875F7
:1011100074646F776E0D0A00F8B506461F48002408
:101120008660C26041600F46B00720D500250122CD
:1011300011462846FFF762FF6D1C0446042D02D2BB
:10114000002CF4D013E0002C11D17A0804211448AB
:10115000FFF78EFC04000AD1FFF778FC040006D1EB
:101160000F48104A0021001FFFF746FD0446F00714
:1011700001D0FFF789FE002C0ED109480A4A002150
:101180000C38FFF739FD040006D10548074A012154
:101190000838FFF731FD04462046F8BD0400002062
:1011A000D82B0000D513000075160000170A0000A8
:1011B000F8B55D4C054660780026002803D0002075
:1011C0006070FFF775FE0120584F2B00FFF7C2F942
:1011D00018970D0D2E3D4A5F64686F686FA9777789
:1011E000777777979A9DA0A9A9950020FFF73CFEF5
:1011F00000280AD00020FFF723FE022D02D1E120B3
:10120000C0000BE07D20400108E00020FFF722FE37
:10121000022D01D1C82001E0FF209130257064210A
:10122000FEF774FF6168414300222BE00020FFF7C6
:101230001BFE002805D00020FFF702FE1920400108
:10124000ECE70020FFF706FEE4E70020FFF70CFEC6
:10125000002803D00020FFF7F3FDD3E70020FFF7BD
:10126000F9FDD9E70020FFF7FFFD002803D000209B
:10127000FFF7E6FD02E00020FFF7ECFD2570606857
:10128000410000223868FFF707FD064635E00020E0
:10129000FFF7C6FD257007E000203FE025702CE039
:1012A00060700120FFF7BCFD00226168EAE7607012
:1012B0000120FFF7B5FD606881004118E1E778681B
:1012C000FFF72AFD06461120401B01D0002E03D057
:1012D0000220FFF7B5FD10E001280BD9C8214843D3
:1012E0006421FEF713FF6168002241437868FFF72D
:1012F000D3FC06460220FFF7ADFD3046F8BDFFF7F0
:10130000D7FDCBE7FFF7D4FDC6E7FFF7D1FD04E03B
:10131000FFF7CEFD0020FFF79DFD0120FFF79AFDAE
:10132000BCE7FFF7CEFDB9E704000020CC2B00009E
:101330000620704710B5FFF76DFD032100F09CFDFE
:10134000002010BD002901DA002070470268511802
:10135000016001207047000070B5461C0D46012455
:101360000020FFF7FBFC134A1068286011685068E2
:101370009368081A1D1A701C6D1CA84212D9002D02
:101380000ED00D480D4C0088246880051940800D52
:10139000A402890020438918C8601068401C1060AE
:1013A000002401E0881910600020FFF7DBFC2046D4
:1013B00070BD000010030020282C00006C000020ED
:1013C000034803C8814201D10120704700207047C3
:1013D0001003002010B500780221FFF78DFD10BD2D
:1013E0000022D243830004490428CA5002D30818BB
:1013F00020300277704700006C010020F0B5002516
:10140000ED43002A02D00023042601E0042308262D
:101410000B4C04E09F00E7597F1C04D05B1CB342D7
:10142000F8D32846F0BD26185DB2203635709E00F0
:10143000A151002AF5D1E11820310877F1E7000029
:101440006C0100200249091820200856704700004E
:101450006C01002070B5084C050009D010342168DB
:10146000002907D008682060496828468847F6E7C1
:101470000834F4E770BD000058010020F8B5234897
:10148000416800293ED00E6821494C688768807801
:10149000E11B0D022D0AED1C002814D101201D4A6C
:1014A000000450601B4A403A50601B4940000860ED
:1014B0001A4908601A49012008602F2000F0EEF94F
:1014C000124901208870B54200D23546E819000261
:1014D0000F4B000A403318600D4A5168001B091B6E
:1014E0000902090A0002000AC91C814209D9506890
:1014F00018602F2000F0D2F90120074940048039FC
:101500000860F8BD01F098F8F8BD00002C0000203C
:10151000001501404013014080E200E000E100E0DE
:1015200000100140F8B500260124154D23E069683C
:10153000F0004718387821462A698140114218D0B6
:101540008A432A6100F008FB3A782146EB68914013
:1015500019400346934099420BD17978012901D073
:10156000012100E000217B684140002B01D01046A2
:101570009847761CF6B228788642D8D3F8BD00008A
:101580001800002010B50E4900230A784C78A242BA
:1015900012D0521CD2B20A70022A00D10B700A7803
:1015A000074B920018339A5802608868101800029E
:1015B000000A8860012010BD0360002010BD0000FB
:1015C0002C000020F8B50746104E0125BD403068BC
:1015D000FFF7A2FB00280DD10D4C2069284207D14E
:1015E000384600F0B9FA0028E06804D0284303E048
:1015F000A8432061F8BDA843E06020690022284389
:101600002061A1683068FFF747FBF8BDFC2B0000A4
:10161000180000201048018CC9B2012917D1818C13
:10162000090714D1018D09060A0F03D1828D120614
:10163000120F0ED0090F012903D1828D1206120F4D
:1016400007D0032903D1808D0006000F01D00020B0
:101650007047012070470000C00F00F00268134679
:1016600002E08A4204D01268002AFAD10B600160BD
:101670007047000010B50448017AC90702D000780D
:10168000FFF796FD10BD000004000020F0B5284CC7
:101690002146103948688B68227886469C46CF7868
:1016A000667836E0182353436168521CC918A37842
:1016B000D2B2934200D100220B78022B02D0032B2E
:1016C00027D123E003464D68194603E0A94204D020
:1016D0000B46C96900291CD0F8E7002919D08B42B4
:1016E00008D1C069002805D1124F0125BD60002531
:1016F000AC4601270D68C969D961002909D00B687A
:101700005B190B6005E00174C06900E0002100284E
:10171000F9D19642C6D10649624610398A604860BE
:10172000CF70704501D00120F0BD0020F0BD000059
:101730003C00002000100140F8B52C4E04467068B3
:101740000025009041E0002C02D02046E46920E012
:10175000264818231030017842684B43491CC9B20F
:10176000D21801708378994200D1057011785068C1
:1017700001292CD1017C002929D191684160D168CF
:1017800081601169C16051698161F178002900D0DF
:1017900045604368B268164F991A0902090AB942AE
:1017A00002D28268891806E0D11A09028268090A01
:1017B0008A4202D9511A016000E0056045600121AA
:1017C00085600174C56101F095F8002CBBD1074814
:1017D0001030017840788142BAD171680098814216
:1017E00001D00120F8BD0020F8BD00002C00002031
:1017F000FFFF7F00002000F007FE002801D0FFF768
:1018000095F914A1032000F0A3FD00F05FF8002873
:1018100001D0FFF78BF9002000F078F80023164A7A
:1018200005211846FFF7FEF9002801D0FFF77EF9E1
:10183000FFF7B0FB0120C00300F012FE002801D02A
:10184000FFF774F900F0D2FC0028FBD100F040FE55
:10185000F8E700004150503A494E464F3A506F77F2
:101860006572204D616E6167656D656E7420657887
:10187000616D706C650D0A0074000020C20843079A
:101880005B0F0120895C984008407047012189075F
:1018900040180068002800D00120704700280FD0B1
:1018A0000849094A096800BF00BF00BF00BF00BF68
:1018B00000BF00BF00BF914200D000BF0138F2D18D
:1018C00070470000700000200024F40070B50C4C3C
:1018D00000252078002801D085250FE00021A16097
:1018E00061602161E160074800680126304002D153
:1018F000032100F03DF8044886612670284670BD3B
:101900005801002000E100E00005004070B5154CD2
:101910000546A078002808D0002D02D06968012073
:1019200088470020FFF71AFA15E00020FFF716FAA3
:10193000002D04D00B4829461030FFF78FFEE068D9
:10194000002808D108490860084902204860064973
:101950000120FC390860E068401CE0600020FFF7CF
:1019600001FA70BD5801002004010040000300404E
:101970008207D30EFF229A408907090E10B59940BD
:1019800000280BDA03071B0F083B9C080C4BA40034
:10199000E318DC6994430C43DC6107E08408094BDD
:1019A000A400E418236893430B432360C106C90EC7
:1019B00001208840044908600449086010BD000007
:1019C00000ED00E000E400E080E200E000E100E083
:1019D00010B5044600F018FE002804D0002120466F
:1019E00000F05BFA10BD204600F01AFE0028F9D086
:1019F0002046FFF727FD0649820051180A69520860
:101A000052000A61012181400248816010BD00003E
:101A10000065004000630040F3B581B0054600F06A
:101A2000F3FD1F4F0028284617D0FFF70BFDC01904
:101A30002030007F8009032802D001280BD005E068
:101A400018480069E840C007C00F04D003212846A9
:101A500000F023FAFEBD0221F9E700F0E1FD0028C5
:101A6000F8D02846FFF7EEFC04468000C11D0E4A60
:101A7000F9318018026989B20126324302610846B1
:101A800000F03CFA02980028E4D02846FFF7DAFC80
:101A9000800038580028DDD00448A6404660FEBDCE
:101AA0006C0100200005005000650040006300400C
:101AB000FEB5044625480E46001920214156002750
:101AC000C8171346401C01D008273CE0F27819469D
:101AD0002046FFF793FC0546401C33D0B078002821
:101AE0000BD005200007A1000918072000020918E3
:101AF000086802229043086007E0002173782046BE
:101B000000910A46019100F073F9F078002810D096
:101B10000F48AA001018317802690E4B1A40026172
:101B2000E206D20C8907890B0A4301690A43026164
:101B300009E00648327840192030017F92011143B4
:101B4000017700E004273846FEBD00006C0100204C
:101B500000650040FFE0FCFF03490969C140C80778
:101B6000C00F00D0012070470005005070B5144D23
:101B70002879002801D0082070BD11490020403983
:101B8000421E0B182033401CC0B21A702028F8D314
:101B900000242046FFF724FC641CE4B2082CF8D390
:101BA00003210620FFF7E4FEFF207D3000F0A6F9B8
:101BB00001200449C007486001202871002070BD41
:101BC000AC0100200063004002480079002800D0EA
:101BD00001207047AC010020F8B506460F46007999
:101BE0001C2148431A4915464418E07E002801D0BC
:101BF0000820F8BD39463046FFF7CAF865603869F5
:101C0000206028460025002813D0FF223068397F45
:101C10001D328550FF2230684532855003233068DD
:101C20001B020C4AC01842603068000B40B2FFF73C
:101C30009FFE052230680421120280180160E575BC
:101C40002576A5750121E1762846A576F8BD000028
:101C5000B40100208000020070B505460C460079F2
:101C60001C21484308494318284600F055F800282D
:101C700001D0112070BD9A7500209C609882284682
:101C800000F004F870BD0000B4010020F8B504466F
:101C900000791C2148431F4900264518FF2720686A
:101CA0001D37C6512068012181602946206800F057
:101CB000BBFE6968002913D027E0FF270137FF2109
:101CC0001D31206800F092FC002802D1A88AB84299
:101CD000F5D1A88AB84203D02946206800F0A4FEB6
:101CE000A88AA97D8842E8D3A98AC81FF9380ED0EE
:101CF000FF271D373946206800F078FC0028F9D00E
:101D000020680121C1600020A8753046F8BD0F266B
:101D1000F9E70000B401002000791C214843034981
:101D20004018807D002800D001207047B4010020B9
:101D3000F8B501791C225143204A00238D18052251
:101D40000168120289180B60696800290CD003240D
:101D5000016824021A4B09198B600168C903CB0E74
:101D600001219940174B19600522016812028A1857
:101D7000D3685669976814690021C9435161D160DD
:101D8000006805221202801881600161581C02D08F
:101D9000184600F055F8701C02D0304600F050F89C
:101DA000601C02D0204600F04BF8781C02D0384668
:101DB00000F046F80020E8766860F8BDB401002025
:101DC0008402020080E100E070B552000A439900ED
:101DD000049D0A432902059E0A43310405240A434F
:101DE000240780000721001909024018026070BD15
:101DF00070B552000A439900049D0A432902059ECA
:101E00000A43310405240A432407800007210019EE
:101E100009024018026070BD70B552000A43990073
:101E2000049D0A432902059E0A43310405240A43FE
:101E3000240780000721001909024018026070BDC4
:101E40001CB5002100910B4601220191FFF7E4FF30
:101E50001CBD1CB500220B46009211460192FFF7F3
:101E6000DBFF1CBD1CB5002100910B460122019136
:101E70001146FFF7D1FF1CBD052212078000821812
:101E8000072000021018026803231B049A43026013
:101E9000026809040A4302607047052212078000A5
:101EA0008218072000021018026803231B049A43BB
:101EB0000260026809040A430260704701228240FE
:101EC0000348002901D082607047C260704700005B
:101ED0000005005038B5084B05241B680093240208
:101EE0006B46411805E085005D592D192D69401C90
:101EF00020C28142F7D838BDF82B000002494018B3
:101F00000021016070470000006000400349401854
:101F10000068012800D000207047000000600040E9
:101F200000487047A11F000030B5194C05462078C5
:101F300089B0002805D06078854202D1002009B020
:101F400030BD202213496846FEF7FAF800206946A2
:101F50000875092000900B200190082003900A20AA
:101F600002900D4806900A48001DFFF7E1FE002D83
:101F700001D0002200E0094A05486946001DFFF72C
:101F80002BFE0028DBD1012020706570D6E7000011
:101F900060000020082C000000E0D701612A00004A
:101FA000F0B5C5B00C46002100914D984B991E46E6
:101FB000081817460390002C01D00A2000E00020EA
:101FC000019000F079FB00287ED104AD002E17D1DE
:101FD00000986A462918204600F00CFD002875D0AC
:101FE0003846FEF7BFF8C22800D9C2200446009840
:101FF000224628183946FEF7A3F8009800190090E9
:10200000009901980A1804A8441831328518002054
:1020100003E020212170401C641C01998842F8D300
:1020200000270398864207D3202020706070A0709C
:102030002870E41C6D1C2CE04B98864202D24A9812
:10204000805D02E0311A4C98405C224684460121B2
:1020500002908B006046D8400007000F092801D984
:10206000373000E0303001235B1AD054491EF0D2E3
:1020700020209070D41CFEF75FF801680298085C7D
:102080008006C00E01D0029800E02E2028706D1C42
:10209000761C7F1C102FC4D30D2028700A20687076
:1020A00020202070009901980918433104A800915C
:1020B00000F00AFB002809D000F0FEFA002805D144
:1020C00000900398864200E000E099D3304645B086
:1020D000F0BDFFB5C7B00025509F1C46059500F028
:1020E000EBFA002875D1059806AE311805AA489874
:1020F00000F080FC002836D03846FF270137030067
:10210000FEF728FA0705131B333F4B572500499864
:10211000FEF728F8059905464018FF2817D87018CB
:102120002A464999FEF70CF811E005982368391AF8
:102130003018499AFEF7F8F908E0606800900598B1
:102140002368391A3018499AFEF7EEF905462946F0
:1021500005A8FFF7F7F8059900283AD0B94238D812
:1021600006A800F0B1FA4BB0F0BDA168606800901D
:10217000019105982368391A3018499AFEF7D4F965
:10218000E4E7201D07C86B4607C305982368391A82
:102190003018499AFEF7C8F9D8E7201D0FC86D46D8
:1021A0000FC505982368391A3018499AFEF7BCF90B
:1021B000CCE7204608300FC801AD0FC5606800901D
:1021C00005982368391A3018499AFEF7ADF9BDE72A
:1021D000FFE70020C7E7000000487047D320000059
:1021E00010B50120FFF7A0FE10BD0000F0B595B0BE
:1021F000FFF7E6F8002802D0002015B0F0BD4B48EC
:102200004468866821463140890009180C94CD68DD
:102210000BE02904A80D890D401804192046304010
:10222000810042480C940818C568641CA807F0D0C7
:1022300000200890A807800F3D4B022807D0AA0A6B
:10224000A805000F84460EA99646002059E02046B6
:10225000304081003548641C0818C06804948646E4
:102260002804800D84463440301B8000AF0D001DD3
:10227000874222D92D490C31002807D02B4AA400CF
:10228000A21814460C34C2B2381A03E00C460021DE
:10229000FAB20846C0B20390019202910094A806D7
:1022A0005C69400F634672460899A047B84213D153
:1022B000FF1C0498B9080C1830E01C48A200101844
:1022C00000210C300090029101970391A8065C69EF
:1022D000400F63467246E8E7164980050D40000C42
:1022E00005430C983040810010480818C56017E07D
:1022F00027463740BA000D4F401CD719FF68641CB1
:1023000080C167466045F3D3A80600971D69400F5A
:102310000EAB72460899A847002801D003484460D4
:10232000FFF74EF80121484067E700001003002046
:10233000100700203F00FFFF00B5044AFF23936011
:1023400000231360536000F059F800BD1003002013
:10235000F8B5104D0E46074600206946AC68FEF7FA
:10236000FBFF002815D00C483C2180888843790762
:10237000890E08430F21890188438105890DB00228
:10238000014300980246224092005219401CD1603D
:102390000090F8BD10030020282C0000F7B5154C64
:1023A00082B00E46074601206946A568FEF7D4FFB5
:1023B00000281CD010483C21008988437907890EE9
:1023C00008430F2189018843402108438105890D75
:1023D000B0020143009802462A4092001219D160CF
:1023E000401C00902840800000190499C16005B08D
:1023F000F0BD000010030020282C0000014A5161AC
:10240000106170471007002070B506460020FFF7E6
:102410008BFD040008D1FFF783FD0546FFF7DCFEC6
:1024200032462946FFF788FF204670BD10B504A14B
:102430000420FFF78DFF09490020888010BD0000AF
:102440004E52465F5057525F4D474D543A444542B5
:1024500055473A466565640D0A00000050000020AB
:1024600010B504460FA10320FFF772FF144801695D
:10247000102211430161134A002010709060D06057
:1024800090809070D070104A01211048FEF7B4FB84
:10249000002805D10D48002221460068FEF7FCFB0C
:1024A00010BD00004E52465F5057525F4D474D548D
:1024B0003A494E464F3A496E69740D0A00000000D1
:1024C00000ED00E05000002071250000042C000009
:1024D00038B50020FEF742FCFEF788FB044620BF1B
:1024E00040BF20BFFEF782FB6A462146FEF778FB1D
:1024F0000448009A8168891881600020FEF732FC48
:1025000038BD00005000002070B50446032810D0EC
:102510000020FEF723FC0B4DA878002803D00020F4
:10252000FEF720FC70BD0120A8700020FEF71AFC09
:102530006C70224604A10320FFF730FF00F0DAF8A8
:1025400070BD0000500000204E52465F5057525F51
:102550004D474D543A494E464F3A53687574646F2F
:10256000776E20726571756573742025640D0A009D
:10257000F8B5FEF73BFB124C06466A46E168FEF7EB
:102580002FFB0099A0686422081A5043FDF7BEFD96
:10259000C5B22A460BA10420FFF700FF2078A8420D
:1025A00000D225700020E660A060A088032802D237
:1025B000401CA080F8BD0020FFF7A6FFF8BD00007A
:1025C000500000204E52465F5057525F4D474D54C9
:1025D0003A44454255473A43505520557361676523
:1025E0003A20256425250D0A0000000040580028E7
:1025F00000D0012070470322120280184068084072
:1026000000D00120704700000449081820214156DD
:10261000042901DB01207047002070476C01002075
:102620000449081820214156042901D2012070478D
:10263000002070476C01002070B501240B49600434
:1026400008600B4940108860094940398860094D8D
:102650006C602F20FFF722F9AC60074D00242F207B
:10266000AC60FFF71BF9AC7070BD000080E100E0CA
:1026700040130140001001402C00002030B5FF2223
:102680000523CD7D002409321B02C318002D845080
:10269000986905D04B7ECA68D054487E401C487665
:1026A00030BD1FB501246B461C701972019206C81B
:1026B000684690471FBD000010B50248FFF72CFB8D
:1026C00010BD00006400002070B50D460A460146AA
:1026D00001240648FDF734FDEAB204490448FFF737
:1026E000BBFA002800D00024204670BD1002002054
:1026F0006400002070B51C4C1CA162780320FFF719
:102700004DFE264D2648401B86080FE080002958C4
:10271000607888470028E0781ED080002A5821A1E0
:102720000320FFF73BFEE078401CE070E078864233
:10273000ECD8227828A10320FFF730FE31A1022037
:10274000FFF706FEFFF74CFDFFF750FD0028FBD119
:1027500034490120086070BD80002A5832A103204E
:10276000FFF71CFE70BD0000500000204E52465F77
:102770005057525F4D474D543A494E464F3A536871
:102780007574646F776E20737461727465642E2043
:10279000547970652025640D0A000000002D0000AA
:1027A000042D00004E52465F5057525F4D474D5426
:1027B0003A494E464F3A5379734F66662068616EC8
:1027C000646C657220307825303858203D3E207288
:1027D000656164790D0A00004E52465F5057525FA2
:1027E0004D474D543A494E464F3A4D6178696D75A3
:1027F0006D204350552075736167653A2025752516
:10280000250D0A004E52465F5057525F4D474D54BA
:102810003A5741524E494E473A53687574646F7740
:102820006E0D0A00000500404E52465F5057525F41
:102830004D474D543A494E464F3A5379734F666669
:102840002068616E646C65722030782530385820BD
:102850003D3E20626C6F636B696E670D0A0000007D
:10286000FEB51F4C0025A768606802906846FEF719
:1028700089FE0190FEF70AFF06460198002822D043
:1028800000230098616817E00E680A46864202D964
:10289000301A086012E0801BF31800261660D66814
:1028A000D169B446002E07D0FE183602360A5660AB
:1028B00066469660D56115460029E5D128466160D7
:1028C000FEF73AFF06E02846FEF736FF002801D162
:1028D000002E02D00298FEF7D1FD0020E070FEBD70
:1028E0002C0000200120024900050860704700000C
:1028F00000E200E010B50E4B5968002906D00268CE
:102900000C68A24204D8A21A0A60C161586010BDC6
:102910000B4604E00B46C969121B002904D00C6861
:102920009442F7D3A41A0C600260C161D86110BD53
:102930002C000020F8B5064600240D462046FEF780
:102940000DFA684600F028F900280CD005704660A2
:1029500068460749007848700020FEF703FAFFF741
:10296000C1FF2046F8BD04240020FEF7FBF9F8E77C
:102970003C000020F8B51D4D6C68002C34D01C487C
:1029800000274068A968401A0602360A2068B0424B
:1029900018D8361AC7192246107CE46900280FD0CF
:1029A00000201074EB68002B07D09169506998479C
:1029B000002805D0FEF7BAF802E05169906988470F
:1029C000002CE3D129786878814206D1401CC0B23E
:1029D0006870022801D10020687004490006800D4B
:1029E00018310F50FFF77EFFF8BD00002C000020CB
:1029F0000015014010B5144602460120002A0BD0F4
:102A000008461368FF2106A20131FDF78DFD01463E
:102A10002046FEF797FC10BD0021216010BD00008C
:102A20005B253038645D0000FF221D320023835097
:102A30008B8A8A68D25C8B8A5B1C8B820521090297
:102A40004018C26170471FB500226B461A70197298
:102A500081680191827506C8684690471FBD0000D5
:102A60000078012801D1014988707047600000207A
:102A7000F0B50C46012185B005464902FFF7BBFDC4
:102A8000032109026F180026002826D0FF212531D6
:102A90002846FFF7ABFD00281FD0FF2025302E5021
:102AA00081208000B860A07E002801D101206860EC
:102AB0000221684601700920C001291808680860D1
:102AC0000390E17D68460172E0680190E675267624
:102AD00006CC6846083C90472DE004212846FFF7C5
:102AE0008AFD002827D0FF2109312846FFF77EFD07
:102AF000002820D021462846FFF7C0FDE07D617EFA
:102B0000884218D1207E002807D0617EE268E075F7
:102B10002069E060267666760AE0A07E002801D172
:102B20000120686081208000B860E675617EE268FF
:102B30002046FFF7B6FDFF271D3739462846FFF729
:102B400055FD00280FD0A08AA17D884204D22146DD
:102B50002846FFF769FF06E0EE51A17D002902D06B
:102B60002046FFF770FFFF27453739462846FFF715
:102B70003DFD00280ED0EE51A07E002801D001209E
:102B80002860E07D002805D0E675617EE268204679
:102B9000FFF787FD05B0F0BD10B509494B788C787B
:102BA0005A1CD2B2944200D100220C78944201D136
:102BB000002010BD0270486818214B43C01810BD9A
:102BC0003C0000201516171811121314EC000020F9
:102BD0000C0100203801002011000300F90E000054
:102BE00012000300F90E000013000300F90E0000AC
:102BF00014000300F90E000000000050D001002076
:102C000003000000F0010020FFFFFFFFFFFFFFFFB8
:102C1000FFFFFFFFFFFFFFFF0000000000000000BC
:102C200000E0D701030000002900000001000000BF
:102C30000100000001000000010000000100000090
:102C400001000000010000000200000000404040C0
:102C5000404040404040414141414140404040406F
:102C6000404040404040404040404040400502021B
:102C700002020202020202020202020202202020DA
:102C80002020202020202002020202020202909036
:102C90009090909010101010101010101010101034
:102CA0001010101010101010020202020202888888
:102CB0008888888808080808080808080808080894
:102CC000080808080808080802020202400000007C
:102CD0004D2C00004F766572666C6F770D0A000010
:102CE000042D000000000020740000006E050000AC
:102CF000782D000074000020B40E00007E05000056
:102D0000450B000000000000000000000000000073
:102D100000000000000000000000000000000000B3
:102D200000000000000000000000000000000000A3
:102D30000000000000000000000000000000000093
:102D40000000000000000000000000000000000083
:102D50000000000000000000000000000000000073
:102D60000000000000000000002000400000000003
:082D7000D42C00000024F40043
:04000005000000C136
:00000001FF
