:020000040000FA
:10000000F80F00204D0200006702000069020000A6
:1000100000000000000000000000000000000000E0
:100020000000000000000000000000005901000076
:100030000000000000000000ED0100003902000097
:1000400071020000710200007102000071020000E4
:100050007102000000000000710200007102000047
:1000600071020000710200007102000071020000C4
:1000700071020000710200007102000071020000B4
:1000800071020000E5000000710200007102000032
:100090007102000071020000710200007102000094
:1000A000710200007102000000000000000000006A
:1000B0000000000000000000000000000000000040
:1000C0000748854600F046F900F054FB002103483C
:1000D00000F0C4FB00F062FBFEE700000800002017
:1000E000F80F002000F0ACF880F309887047EFF3B8
:1000F00009807047684680F3098806480078C00781
:1001000003D1032080F314887047022080F3148801
:1001100070470000A41C0000064B9C46EFF30583CB
:100120001B0605D1EFF31483DB0701D000DF704716
:1001300060470000650A0000064B9C46EFF305830C
:100140001B0605D1EFF31483DB0701D000DF7047F6
:1001500060470000ED0C0000EFF309808169891E03
:10016000097800292BD1A6461FC8A4467446E0474B
:10017000EFF3098307C31A4B06CB91421CD0083B0F
:1001800000290DD0EFF3098020388862F0C0444682
:100190004D4656465F46F0C00CB401F0C1F80CBCA9
:1001A0001A60906A1030F0C8A046A946B246BB4615
:1001B00080F309882038F0C80220C043004710B5FA
:1001C000084A1268914209D8074C89006458A6462B
:1001D0001FC8A446F047EFF309840FC410BD000008
:1001E0002C000020780300007803000000F034FFAA
:1001F000104B06CB91421AD0083BEFF30980203810
:100200008862F0C044464D4656465F46F0C00CB486
:1002100001F086F80CBC1A60906A1030F0C8A04655
:10022000A946B246BB4680F309882038F0C80220B0
:10023000C04300472C00002001F038F9D8E7000047
:1002400000F000FC01F032F9D2E700000321094878
:1002500002680A430260084802680A4302600748CD
:10026000804707480047FEE7FEE7FEE7FEE7FEE7B8
:10027000FEE700002405004054050040C1030000D3
:10028000C100000030B50B460146002020220124A9
:1002900009E00D46D5409D4205D31D469540491BBA
:1002A0002546954040191546521E002DF1DC30BD03
:1002B000F0B51FB40646002082B0054640240191E7
:1002C00000901BE0019922460F46304600F030F8BE
:1002D000049A059B801A994110D31046194622466C
:1002E00000F016F8361A8F410197224601200021AE
:1002F000009F00F00DF838184D4100902046641E14
:100300000028DFDC019B00982946324607B0F0BD8B
:1003100010B5202A04DB0146203A9140002010BD90
:10032000914020239C1A0346E3401943904010BD9E
:1003300010B5202A04DB0846203AD040002110BD29
:100340000B46D340D0402024A21A914008431946BE
:1003500010BD0000064C0125064E05E0E36807CC01
:100360002B430C3C98471034B442F7D3FFF7ACFE54
:10037000E41C0000041D0000000000008307FF22B1
:10038000DB0E9A408907090E994000280BDA000716
:10039000000F0838830808489B001818C369934366
:1003A0000B43C3617047830804489B001B181868FF
:1003B000904308431860704700ED00E000E400E05F
:1003C00010B500F0DDF8002805D01F491D48486031
:1003D000C8131E4988611E48018CC9B201290BD17E
:1003E000828C120708D1028D1206120F042A03D143
:1003F000828D1206120F0AD0012921D1818C0907A2
:100400001ED1018D0906090F0A2904D007E0114AFF
:1004100001219160F5E7828D1206120F05D00D299A
:100420000ED1808D0006000F0AD10B48016801290A
:1004300004D00A49016001680129FCD1C021416151
:1004400010BD0000DFFF07C000050040006C004049
:10045000C00F00F00006004000EC0640759300005D
:10046000F8B5040C8BB2264682B25E430D0C1046E2
:10047000370C5843360480190021794116466E43E3
:10048000370C36048019794126466E438919F8BD28
:1004900002E008C8121F08C1002AFAD1704770474D
:1004A000002001E001C1121F002AFBD1704710B5E6
:1004B000002A06DA52005208D21DD308DB001022AF
:1004C00003E0D21C93089B000C22002B02D09C1846
:1004D0008C4201D9012010BD82188360411802604E
:1004E0004160C91AD018884202D810600246F9E764
:1004F0000020106010BD0024E4432146012000F0DC
:100500009FF90828F9D1012000F002F8F5E7000072
:1005100005490B5C05494A6801209840034693430E
:100520008B601040C8607047901C000000050050B0
:1005300010B50349085C012100F002F910BD00006C
:10054000901C00007CB50024074E2546305D01223A
:10055000009500231146019500F0DEF8641C042C80
:10056000F4D300F003F87CBD901C000010B500240B
:100570002046FFF7DDFF641C042CF9D310BD0000FA
:100580001048018CC9B2012917D1818C090714D1F7
:10059000018D09060A0F03D1828D1206120F0ED0AB
:1005A000090F012903D1828D1206120F07D00329EA
:1005B00003D1808D0006000F01D00020704701207C
:1005C00070470000C00F00F00EB502468020002AE0
:1005D0000DD000290BD11178012908D1104601A9AD
:1005E00000F046F8042801D0002000E01020029A14
:1005F000019903B000BD70B50D46040004D0002A77
:1006000002D12078012801D0802070BD204600F062
:100610002BFC002805D02946204600F04FF800208A
:1006200070BD812070BD70B50C4600F05DFF0121EA
:10063000C907002801D0220C01D0084670BD058BE7
:10064000C178A0B200F002F8284670BD0A46014603
:100650009000064A10B580188038C06F002803D07B
:1006600000F042FD00F030FD10BD0000840B0020C2
:1006700010B50446808900281FD0608980000019C9
:10068000006908606068002808D06078022805D1F9
:100690000021204600F028FD00F016FD72B6A0896A
:1006A000401EA08162B66089401C80B26081E189F1
:1006B000884201D100206081042010BD10B500F0F7
:1006C00013FD00F001FD10BD10B50020FFF720FF65
:1006D00010BD0000FFF736FF00210E4800F0BEF805
:1006E00004460C4800220121083800F0E5F8642196
:1006F00000F0FCF8002C01D0002800D0FEE7FF2518
:1007000091350121204600F08DF8284600F024F8AC
:10071000F7E70000801C000070B552000A43990002
:10072000049D0A432902059E0A43310405240A4315
:10073000240780000721001909024018026070BDDB
:10074000012282400348002901D082607047C260C4
:10075000704700000005005080B5EFF305810029C7
:1007600001D0822080BD024FBC4600DF80BD00006A
:100770008118000080B5EFF30580002801D08220A9
:1007800080BDEFF31480C00703D0034FBC4600DFE9
:1007900080BD01F07FF880BD9518000080B588B05D
:1007A000EFF30580002802D0822008B080BDEFF36F
:1007B000148081071248890F06D001291AD0022916
:1007C00010D0032918D112E008A981F30988007814
:1007D000C0070AD0022080F31488BFF34F8FBFF305
:1007E0006F8F09E00078C00706D10320F3E7007897
:1007F000C00701D0FF20D8E7024FBC4600DFD4E796
:10080000A41C00000D19000080B5EFF30582002A3A
:1008100002D0FFF7D9FE80BD014FBC4600DF80BD8E
:100820008319000080B5EFF30582002A02D0FFF79C
:10083000FAFE80BD014FBC4600DF80BDBF1900003D
:1008400080B5EFF30583002B01D0822080BD024FDD
:10085000BC4600DF80BD0000E519000080B5EFF365
:100860000582002A01D0002080BDEFF31482064BE0
:10087000D2075B78D20F1A4303D0044FBC4600DF87
:1008800080BD01F0DDF880BD24000020411A000089
:10089000034FBC4600DF034FBC4600DFFEE700000D
:1008A000B91A0000D51A000080B5024FBC4600DF1F
:1008B00080BD0000111B0000B0B5EFF30583002BD5
:1008C00001D00020B0BDEFF31483064CDB07647841
:1008D000DB0F234303D0044FBC4600DFB0BD01F063
:1008E00025F9B0BD240000202D1B000080B5EFF3DA
:1008F0000582002A01D0822080BD024FBC4600DF65
:1009000080BD00006D1B00000025094CED43294609
:100910002068FFF779FF02460846102AF7D1FFF753
:10092000C3FF0028F3D0024608469047EFE70000D7
:100930001C000020FEE7000021480068012400049C
:10094000810FE01EFFF71AFD1E4E1F4D346000F0B0
:100950004DF80102090A02292BD91C4A50681C4B88
:100960000918994201D95B42C918184B40331960E4
:10097000AC600121174B4904196072B63168002937
:1009800007D001273F046F6030BF134B002119606F
:10099000AF6062B66C605168814201D30F1A02E009
:1009A0000B4A101A4718384600F018F8002FCDD11E
:1009B00002E0002000F012F840BF20BF20BFC5E7D2
:1009C00010E400E004000020001301400015014085
:1009D000FFFFFF0000E100E04011014080B5024F41
:1009E000BC4600DF80BD0000F911000080B5024F59
:1009F000BC4600DF80BD00004913000010B50C4864
:100A0000012484610B480021416081058C604168AC
:100A10000029FCD002211120FFF7B0FC064920205C
:100A200088600648446006480460112010BD00003C
:100A30000005004000010040001501400013014086
:100A40000010014005480168002905D004494968A3
:100A5000C90701D00021016070470000001101406A
:100A6000001301400146EFF31080C207D20F72B6A7
:100A70000868002801D003680B60002A00D162B624
:100A8000704710B500280ED000290CD00B318A0811
:100A90009200016844680B1A1B1B934205D208465A
:100AA00009680029F5D1002010BD210007D02118C8
:100AB00003680B604A6001600846083010BD426060
:100AC000083010BD70B50D4600280FD00849094CFC
:100AD000884204D222680146104600F025FB2068B7
:100AE0004570054800F02DF900F042FC70BD000093
:100AF000FFFF00002C000020C80B002010B50E489E
:100B00000C4942680D480B680068934204D00A60A3
:100B1000CB88421E9A188A808A8880B2824208D185
:100B200000200860044800F00CF90146024800F07B
:100B300023FB10BD40000020C80B00203C0000201B
:100B400070B51A4DE86800282FD0A88A401EA882E8
:100B5000002624E0A068002808D061684160606831
:100B6000002802D0A16881606660A6600F48214617
:100B7000183800F001FBA08AA8826078042804D10C
:100B80000B49E08A09884018A08201206070E06863
:100B9000E860E068002801D00561E6602661A88A67
:100BA000002802D1EC68002CD4D170BDE00B0020ED
:100BB0003C00002070B504000ED00C4DA1782868D0
:100BC0000126827891420BD900F0F4FA2868467029
:100BD000204600F0CDFB70BD054800F0B2F8F8E704
:100BE00066702146024800F0C7FA70BD2C00002054
:100BF000C80B002010B50321FFF764FF10BD0000F3
:100C000010B50446008B084320836278618B062A66
:100C100017D0052A14D1084212D00A460240628336
:100C200088432083204600F032FB01206070628BF5
:100C30000821204600F027FB2146044800F09CFADA
:100C400010BD0A468243EBD010BD0000C80B002047
:100C500002468800144910B540188038C46F002C33
:100C60001CD0208B104320836278618B062A16D01B
:100C7000052A13D1084211D00A46024062838843F4
:100C80002083204600F003FB01206070628B082166
:100C9000204600F0F8FA2046FFF78CFF10BD0A4608
:100CA0008243ECD010BD0000840B002070B50346D9
:100CB0000D480D460468002A208B08D01946814350
:100CC00001D0062109E098432083022070BD01462F
:100CD000194001D06183F6E7052163832846FFF7B9
:100CE000F1FE012070BD00002C000020814202D3E3
:100CF00042688A4201D801207047EFF31082D20780
:100D0000D20F72B603680B60016000D162B600209A
:100D10007047002810D000290ED00022083903E0C7
:100D200002460068002807D08842F9D1002A05D081
:100D3000006810600020704701207047002141606A
:100D4000F8E70146406842684A600B780022022BAF
:100D500005D0012B03D0032B01D0426070474368BC
:100D6000002B01D09960426082607047810700D0FB
:100D70000020704770B504461546002020700122FF
:100D800062702246A170203211716060A060E06044
:100D900020612062A082E082208360835071E08C19
:100DA000002803D10448FFF75DFEE0622946204693
:100DB00000F01EF870BD000070010020002801D076
:100DC000082901D2012070474118091F0022016043
:100DD0000A604260104670470348002101600349E1
:100DE0000988C1807047000040000020A01C00005E
:100DF000F0B5C28C194D930802D12A881204930CC5
:100E0000C26A9C001219540700D5121F012424063F
:100E1000403AD463002491632646A700641CD6514F
:100E20000E2CFAD3C4691462826201632968C90076
:100E30000FD5112B0DD9103B5908094B02E0083A88
:100E400053601360491EFAD1C16A121F8A4200D949
:100E50001360C06A03490160F0BD00009C1C0000E3
:100E6000CCCCCCCCA52E5AE2C1898089081A704717
:100E7000012202700022427082704260028142812F
:100E80008281034A89038918090CC18170470000D7
:100E90000000FCFFF8B50446406800270D46002816
:100EA00044D060780126012837D0022813D00328C7
:100EB00032D10846FFF7D6FD05002DD02046FFF7BA
:100EC00040FF0446294600F0DBF96670204600F03A
:100ED000DEF921461DE02046FFF733FF05460021DD
:100EE00000F0CEF92189E86989000919086172B614
:100EF000A089401CA08162B62089401C80B220815C
:100F0000E189884200D127816E70284600F0BFF940
:100F10002946134800F030F9F8BD2046FFF711FFCD
:100F200004462A46102100F0AEF9CEE7A089E189F7
:100F3000884211D2208980000019056172B6A0890B
:100F4000401CA08162B62089401C80B22081E189CA
:100F50008842E1D12781F8BD0320FFF7EBFCF8BD03
:100F6000C80B002070B5044680890026154600286D
:100F700034D0608980000019006908606089401CD5
:100F800080B26081E189884200D166816068002872
:100F900002D06078022806D072B6A089401EA081D7
:100FA00062B6002070BD2046FFF7CBFE054600214B
:100FB00000F066F92189E86989000919086120892A
:100FC000401C80B22081E189884200D126812846D8
:100FD00000F05DF92846FFF7EDFDE2E7002D08D0AF
:100FE0000B4862680168002A05D0204600F0C4F86A
:100FF00008E0012070BD616001684E600068846097
:101000000120607008212846FFF75CFDF1E7000031
:101010002C00002010B5002812D0411C11D00B4923
:101020000B4C88420BD87D21C900484309490A6806
:1010300080181146401EFFF725F9A04204D920462A
:1010400010BD0348401C10BD80B210BD00093D001A
:10105000FEFF0000B01C000070B5184801210268B6
:101060005170006800F0A6F8154C657813E0E800B0
:10107000011948680278002A17D0012A1AD000F016
:1010800035F9E0786D1C854200D1002572B6A07854
:10109000401EA07062B6A0780028E8D165700948AB
:1010A000FFF74FFE00F064F970BD098989B2FFF7C0
:1010B000A7FDE6E78968FFF7EDFEE2E72C000020D8
:1010C000000B0020C80B002005480178002902D041
:1010D00001214170704701200249000748607047B4
:1010E0003400002000ED00E070B50E4BDD789C1C54
:1010F0001E4672B69A78AA4207D2521C22703278E3
:10110000541CAC4200D10024347062B6DC789442A6
:1011100004D9D200D2189160506070BD0220FFF750
:1011200009FC70BD000B002010B5124AD368002BDB
:1011300017D013469B8A04E0002C12D02246A48AC2
:10114000E318D4688B42F7D3C460D0600261C468EE
:10115000002C00D02061591A8182908A401A908216
:1011600010BD0024C460D060C91A026191828482DB
:1011700010BD0000E00B002030B502780023022AE9
:1011800003D0012A01D0032A00D101238C7800E08A
:1011900010464268002A02D09578A542F8D24A60EB
:1011A0004160002B04D0002A00D09160886030BDDF
:1011B0000020FBE703494A684260002282604860E1
:1011C00070470000C80B002010B583680446002B50
:1011D00005D1607801280CD1064B03E09B68187894
:1011E0000028FBD0204600F067F821461846FFF79C
:1011F000C3FF10BDC80B0020F8B505461B480127EA
:1012000001684F700068FFF7D5FF1949002008609A
:101210001848194CC16800291AD0818AA94211D8EE
:1012200022686E1A8918216087820746FFF788FCBA
:10123000002E10D02068761E401C2060F868002820
:10124000F4D108E023685A19491B2260818202E028
:10125000206840192060284600F0EAFC0748FFF7A4
:1012600070FD00F085F800F0E1FAF8BD2C000020D8
:1012700040000020E00B00203C000020C80B0020B4
:10128000806A01627047806A42620162704710B5ED
:10129000016900290FD0C268CA60C3680022002B10
:1012A00007D08B8A848A1B198B82C3681961C2603C
:1012B00000E08A82026110BD8168002907D042687F
:1012C0004A604168002901D08068886070470649FB
:1012D00006E04A68824202D1406848607047114681
:1012E0000029F6D170470000C80B002010B54168F6
:1012F00000290FD0FFF725FD0446FFF7C8FF0120A6
:10130000607001462046FFF7BBFF21460348FFF708
:1013100033FF10BD4188491C418010BDC80B00201F
:1013200010B507480068816AC06A814203D300682B
:101330000449884202D00120FFF7FCFA10BD0000EA
:101340002C000020A52E5AE210B5074C00F0FCF945
:101350000648C168002900D0848A00F081FCA042C0
:1013600000D20446204610BDFFFF0000E00B002025
:101370000249486002214170704700002C000020A3
:1013800070B5002004462049204A02E08300CC507A
:10139000401C13889842F9D31D48342201881D4807
:1013A000FFF785F81C4801210088C90780B2421860
:1013B0001A4801681A48FFF77AF81A480822018883
:1013C00019480068FFF773F8184DFF20E870EC84A7
:1013D000174A00212846FFF7CDFC1648042101706A
:1013E000446015480170C460046184821348154943
:1013F0000560022068701248047044700978C1705A
:10140000FFF7EAFC70BD0000840B0020981C000070
:10141000B81C0000900000209C1C0000BC1C0000B8
:1014200070010020E01C000000000020940B002050
:1014300039090000C80B0020E00B00202C00002020
:10144000000B0020C41C000010B51448016AFF22E4
:10145000120411430162C169026A5202920E92069D
:101460001143C161FFF7CAFA0D490028086013DB78
:1014700082080C49920051180A688307DC0EFF238A
:10148000A3401A430A60C206D20E012191404009CE
:10149000054A80008018016010BD000000ED00E0EA
:1014A0003800002000E400E000E100E010B50B4847
:1014B0000121026851700068FFF77CFEFFF71EFBF8
:1014C00007480168491C0160FFF73AFB00F084FB04
:1014D0000448FFF736FCFFF74BFF10BD2C0000203F
:1014E0003C000020C80B0020002805D0810702D155
:1014F0000178002900D000207047000030B50C4C66
:101500000023626805E095688D4204D8134612688E
:10151000491B002AF7D102608160002A02D0956839
:10152000691A9160002B01D0186030BD606030BD39
:10153000240000200F4B0022596803E0814204D0B0
:101540000A4609680029F9D106E0002904D001689B
:10155000002A04D0116003E00020C04370475960A6
:101560000168002903D08A6880681018886000200C
:101570007047000024000020FFB5080681B01E4619
:1015800017460D46000E00D14D1C1648FFF76AFAAB
:10159000041E18D02802000CE762E084E661E9B27C
:1015A0002046019AFFF7E6FB01250F480F4906E0A8
:1015B000AA001218803AD26F002A06D06D1C0A8841
:1015C0009542F5D9002005B0F0BD002DFAD0A90054
:1015D00008188038C467E5702046FFF7EBFA284604
:1015E000F1E7000090000020840B0020981C000010
:1015F000F8B54F4D00262968002802D0CA788242EB
:101600003ED14E70FEF773FD29688862FFF788FEB1
:101610002868046A20E06068002818D02046FFF798
:1016200090FB07460021FFF72BFE3846FFF72FFE01
:101630000120787039463F48FFF79EFD0120E168A0
:101640006080A760386AE0603C620C4604E0E068B5
:101650006680A660E6600446002CDCD12868C1786C
:101660008A00354951188039CE67C16A3348FFF77F
:101670003DFB29683248CE62FFF738FB2E6051E00F
:101680003049098888420FD881002B4808188038D3
:101690000090C56F002D07D02846FFF70DFE2846A5
:1016A000FFF7F5FD2C6A22E0FF20F8BD60680028F6
:1016B00018D02046FFF745FB07460021FFF7E0FD65
:1016C0003846FFF7E4FD0120787039461948FFF7E6
:1016D00053FD0120E1686080A760386AE0603C62E9
:1016E0000C4604E0E0686680A660E6600446002CD4
:1016F000DCD10098C6671148E96AFFF7F7FA294676
:101700000F48EE62FFF7F2FA0A484068817808480D
:1017100002689378994208D90121517001680548FF
:10172000FFF72AFD0020FFF745FA0020F8BD000072
:101730002C000020C80B0020840B0020700100202A
:1017400090000020981C000030B5104B01215A6811
:101750000F48002A09DA0F4C0522226119704168EE
:10176000890E1140997049060EE0D506ED0E0C4623
:10177000AC405209084D920052191460197041682A
:10178000C900C90F9970C906416030BD34000020FE
:1017900000ED00E000E000E080E100E070B51B4DEE
:1017A000002811D01A4A1288904220D88200194885
:1017B00010188038C46F002C19D0A1702420015556
:1017C0002868A04205D014E028688170286820307D
:1017D0000171114840688078884215D90E482968FF
:1017E000FFF7CAFC29680120487000200AE0FF20AA
:1017F00070BD2046FFF7E8FC6078012804D1064858
:10180000FFF79FFAFFF7D6F9002070BD2C000020EB
:10181000981C0000840B0020C80B002002480068C0
:10182000002800D0C07870472C00002070B5104907
:1018300000200A464B680F4C9278002B08DA0E4DB8
:1018400007232B6108704B789B0013439A060CE02A
:10185000DE06F60E0125B5405B09084E9B009B197C
:101860001D6008704B781A4312076260487070BDA3
:101870003400002000ED00E000E000E000E100E0C6
:1018800010B5002804D0FFF7C5FBFFF7B3F94020DF
:1018900010BD000010B5154C207800280DD114485B
:1018A000400706D1134801681148FFF787FA00285E
:1018B00001D0852010BDFFF763FD0F49FF200968A7
:1018C0008870207800280BD100210C4800F044F8E3
:1018D0000B49086000210B4800F0B2F80A49086083
:1018E000012020700020607010BD00002400002046
:1018F000D8030020C01C00002C000020D81C0000D1
:101900001C000020C81C00001800002070B5104DFD
:101910006878002801D0002070BD0E4C206820306F
:1019200001790020FFF73AFF2068C178FF2903D131
:10193000816A203181F309886168002902D16060E1
:1019400000202060FFF780FD01206870E3E70000C1
:10195000240000202C00002010B5040008D02168CD
:10196000002905D06068002802D00278002A01D042
:10197000002010BD8900103189B2FFF779FA606844
:1019800010BD3EB5044680200D46002C13D02178B2
:10199000012910D12846FFF73DFB0246204601A948
:1019A000FFF7E0FA012801D0102004E0002D01D05B
:1019B000402000E00020029A019903B030BD70B5CC
:1019C0000C46FFF791FD0121C907002801D0220C28
:1019D00001D0084670BD058BC178A0B2FFF738F979
:1019E000284670BD70B504460E46000C01D0862016
:1019F0001FE0002C084605D0FFF70CFB0146A0B203
:101A0000012204E0FFF706FB014600220A48FFF727
:101A10004DF9022803D0002E09D0402008E008200C
:101A2000002C02D1054909684C8B214601E00020B9
:101A300000212A4670BD0000FFFF00002C0000209E
:101A400070B50E4604002ED0206800282BD004204C
:101A5000205EC11C27DB032825DCE168002905D0B6
:101A60001248FFF70EF8051E16D000E000250421ED
:101A7000615EE068091D0002014333462A46206882
:101A8000FFF77AFD002808D0094980004018803807
:101A9000C06F0849826A516370BD002D03D029468A
:101AA0000248FFF736F9002070BD0000D80300207F
:101AB000840B00209108000010B5FFF7AFFE00284E
:101AC00004D00349800040188038C06F10BD00006A
:101AD000840B002010B5FFF707FD002804D0C18C4F
:101AE000002903D0C46A02E0802010BD0024C07821
:101AF000FFF77EFDFF2807D0002C03D021460348C6
:101B0000FFF707F9002010BD812010BDD803002089
:101B100010B5FFF72BF9002805D041690269096863
:101B20000846114610BD0020014610BD10B5030047
:101B300010D0186800280DD0586800280BD0002954
:101B400001D0012906D1084C2468002C02D0047968
:101B5000002C01D0002010BD002404600124047179
:101B600041714361026110BD1800002070B50D463F
:101B7000FFF7FCF8040019D0002D19D07D2128466C
:101B8000C900FEF76DFC134B00221D68561E6D1E2A
:101B90007241401951411A680023FEF789FB05463E
:101BA000207901280DD0022809D103E0802070BDE2
:101BB000862070BD2046FFF7BDFC002804D08120A0
:101BC00070BD02202071E56029462046FFF796FC93
:101BD000002070BDB01C0000F8B5134E7468002CD6
:101BE0001BD0A068114F401EA06013E0254624685A
:101BF0007460002229463868FEF7FDFC002802D0F8
:101C00000420FEF797FE6879012807D0012028718B
:101C1000002C02D0A0680028E8D0F8BD2846E9686A
:101C2000FFF76CFCF4E70000240000201C000020FB
:101C300070B504460126094D06E08168A14209D825
:101C4000641A8660FFF7C8FF6868002801D0002C7E
:101C5000F3D170BD8168091B816070BD2400002034
:101C600004484068002801D0806870470020C043C5
:101C70007047000024000020C90600004800002032
:101C8000F704000001000000010000000000000057
:101C9000151617181112131404000000C8000201D1
:101CA00005000100010000000200010050000400D6
:101CB000E803000000000000DC00000068020000F3
:101CC00028070000100000000909000002000000C1
:101CD0000100000020030000080000006000002058
:101CE00000000000041D000000000020480000006B
:101CF000900400004C1D000048000020B00F0000C0
:101D0000A00400000000000000000000D506000054
:101D10000000000001000000E803000000000000D7
:101D2000000000000024F40000000000000000009B
:101D300000000000000000000000000000000000A3
:0C1D400000000000000000000000000097
:04000005000000C136
:00000001FF
