:020000040000FA
:10000000A00E0020D5000000EF000000F10000006D
:1000100000000000000000000000000000000000E0
:10002000000000000000000000000000F3000000DD
:100030000000000000000000F5000000F7000000D4
:10004000F9000000F900000029030000510200003F
:10005000F900000000000000F9000000F9000000B5
:10006000F9000000F9000000F9000000F9000000AC
:10007000F9000000F9000000F9000000F90000009C
:10008000F9000000F9000000F9000000F90000008C
:10009000F9000000F9000000F9000000F90000007C
:1000A000F9000000F900000000000000000000005E
:1000B0000000000000000000000000000000000040
:1000C0000348854600F090F800480047952100005D
:1000D000A00E00200321094802680A430260084874
:1000E00002680A4302600748804707480047FEE766
:1000F000FEE7FEE7FEE7FEE7FEE70000240500401E
:100100005405004089020000C100000030B50B46D4
:10011000014600202022012409E00D46D5409D42E1
:1001200005D31D469540491B254695404019154667
:10013000521E002DF1DC30BD00487047443B0000EA
:1001400003460B439B0703D009E008C9121F08C0F0
:10015000042AFAD203E00B780370401C491C521E9B
:10016000F9D27047421C0178401C0029FBD1801A4B
:1001700070470321001D401E037812021A43491ED6
:10018000F9D510467047F0B51FB40646002082B07E
:1001900005464024019100901BE0019922460F463C
:1001A000304600F043F8049A059B801A994110D319
:1001B00010461946224600F029F8361A8F41019759
:1001C000224601200021009F00F020F838184D4100
:1001D00000902046641E0028DFDC019B0098294621
:1001E000324607B0F0BD0000064C0125064E05E082
:1001F000E36807CC2B430C3C98471034B442F7D348
:10020000FFF762FF5C3B00007C3B000010B5202A3A
:1002100004DB0146203A9140002010BD914020238C
:100220009C1A0346E3401943904010BD10B5202AA4
:1002300004DB0846203AD040002110BD0B46D340D5
:10024000D0402024A21A91400843194610BD000056
:1002500070B5FF210B480931094C00254550214656
:1002600003F0D4FA002809D1A07EFF2801D002F0C3
:100270006FFA657625712168201D884770BD0000E2
:10028000EC0400200030004010B501F03BFF0028D6
:1002900005D01F491D484860C8131E4988611E4883
:1002A000018CC9B201290BD1828C120708D1028DB1
:1002B0001206120F042A03D1828D1206120F0AD0E1
:1002C000012921D1818C09071ED1018D0906090F51
:1002D0000A2904D007E0114A01219160F5E7828DD7
:1002E0001206120F05D00D290ED1808D0006000FC9
:1002F0000AD10B480168012904D00A49016001684C
:100300000129FCD1C021416110BD0000DFFF07C001
:1003100000050040006C0040C00F00F000060040E7
:1003200000EC06407593000010B50249024803F046
:10033000B9FA10BD0C050020002000400FB41CB518
:100340000A46521E0192009007A9064B6A4606987B
:1003500000F026F8009A002111701CBC08BC04B003
:10036000184700001508000030B47446641E257854
:10037000641CAB4200D21D46635D5B00E31830BCD9
:10038000184702E008C8121F08C1002AFAD17047B6
:100390007047002001E001C1121F002AFBD1704705
:1003A000FFB591B00F460546002606E025280AD085
:1003B000149A139990476D1C761C28780028F5D163
:1003C000304615B0F0BD002400940121F34A029498
:1003D00000E004436D1C2B780846203B98401042F7
:1003E000F7D128782A280ED0022128780246303A00
:1003F000092A15D8009A0A235A43303A80180C4328
:100400006D1C0090F1E701CF0090002805DA012073
:1004100040030443009840420090022004436D1CB6
:1004200028782E2815D10420044368786D1C2A28CA
:100430000AD101CF6D1C02900BE002990A225143B0
:10044000303940186D1C029028780146303909294E
:10045000F3D928786C2810D006DC4C281AD06828EC
:100460000ED06A2817D104E0742813D07A2812D14C
:1004700010E00120400504430CE00121090501E0E2
:10048000032109050C436978814203D1012000054D
:1004900024186D1C6D1C287803906E281ED00CDC6F
:1004A000632831D004DC00288AD0582811D1B2E06A
:1004B00064287BD069280CD178E073282DD004DC27
:1004C0006F2870D0702804D1A7E075286CD07828E8
:1004D0006BD0149A13999047761C62E06002400F2B
:1004E000022807D003280AD0042838680AD00660FA
:1004F0003F1D56E03868F11706604160F8E738683C
:100500000680F5E70670F3E738786946087400203E
:10051000487404A80390012003E038680390002089
:10052000C0433F1D61070FD5002101E00199491C1F
:10053000029A0191914213DA8142F7DB019A039901
:10054000895C0029F2D10BE0002101E00199491CEE
:1005500001918142FADB019A0399895C0029F5D166
:1005600001990098139A401A00902146149B00F0BC
:100570003BF901998019461807E003980399007820
:10058000491C0391149A139990470198401E0190B9
:10059000401CF2D12146149B139A009800F014F9E4
:1005A00086196D1C09E741E033E034E00A200021A0
:1005B000049005916002410F022905D001CFC217B6
:1005C0009446032905D007E0FF1DFF08FF0003CF75
:1005D00006E000B2C2179446042902D140B2C11706
:1005E0008C4600226146944506DA0A4600214042C4
:1005F00091418C462D2102E0210504D52B216A462C
:100600001176012103E0E10701D02021F7E70191F4
:1006100054E00A200BE0102009E010200490002193
:100620000420044308200591029003E008200021E3
:10063000059104906002410F022905D001CF0022EC
:100640009446032906D006E0FF1DFF08FF0003CFF4
:100650008C4603E080B2042900D1C0B20021019190
:1006600021072BD50399702906D0049A1021059BE8
:100670004A401A4305D00EE040216A461176012116
:1006800008E06146014306D030216A46117603999D
:10069000517602210191049A0821059B4A401A4390
:1006A0000CD16146014301D1610707D530216A466B
:1006B0001176012101910299491E0291039958294D
:1006C00004D037A103910FA90F910DE039A1F9E7EB
:1006D0006146059B049AFFF756FD039B8C469B5C85
:1006E0000F9A521E0F92137061460143F0D10F987A
:1006F00007A9081A20300390600704D501200004E0
:100700008443029801E0012002900399884201DDB0
:10071000401A00E000204118029001980918009842
:10072000401A0090E00306D42146149B139A0098C7
:1007300000F05AF886190020049008E006A9085C29
:10074000149A139990470498401C761C04900199C0
:100750008842F3DBE0030CD52146149B139A0098E2
:1007600000F042F8861904E0149A3020139990475B
:10077000761C0299481E02900029F5DC08E00F98CB
:100780000F990078491C0F91149A13999047761C81
:100790000399481E03900029F1DCFBE609280100BB
:1007A00030313233343536373839616263646566E7
:1007B00000000000303132333435363738394142A9
:1007C0004344454600000000F8B5044600251E4697
:1007D0001746880404D405E039462020B0476D1C34
:1007E000641EF9D52846F8BDFFB50446002581B042
:1007F0001E46C80301D5302700E02027880404D511
:1008000005E038460399B0476D1C641EF9D52846AB
:1008100005B0F0BD4A68002A06D00A68531C0B6078
:1008200010704868401E48607047000006A1012013
:1008300002F016F9BFF34F8F0A490948C860BFF3A9
:100840004F8F00BFFDE700004150505F4552524FAF
:10085000523A4552524F523A466174616C0D0A0049
:100860000400FA0500ED00E00EB5002102900091B1
:100870006A4601910148FFF7D9FF0EBD0140000013
:1008800010B5154B9C78002C04D09C78032C03D019
:10089000112010BD082010BD002A11D004249C7026
:1008A0000D4B203B9C7A240700D449021961D86083
:1008B0009A820020DA829883012A03D9522002E02A
:1008C000072010BD5120012202F0D2F9002801D0EA
:1008D000FFF7CAFF002010BD4805002070B5144680
:1008E000194A9378002B04D09378032B03D011205E
:1008F00070BD082070BD002C1ED005239370124BD4
:10090000203B9A7A150700D449021961D8609C826D
:100910000020DC829883012C10D05007400F012862
:100920000FD001222146D72002F0A2F9002801D0E1
:10093000FFF79AFF002070BD072070BD01225820EC
:10094000F2E701225920EFE74805002005488178A9
:10095000032904D08078002801D0012070470020AE
:10096000704700004805002004488078032802D31F
:1009700002481C38704700207047000048050020DE
:10098000F0B52E4D0446A87887B00F46002802D057
:10099000082007B0F0BD002F4ED0E078FF284BD0E4
:1009A0006178FF2948D02178FF2945D0A178FF2917
:1009B00042D0224E00212036307600910B46012293
:1009C0000191114601F08AFE307E01F0C9FE1C4BF8
:1009D00002AE0FCB0FC6A178684601722178417232
:1009E000617881721648174A02A9083801F050FC54
:1009F000002801D0FFF738FF104820380121076098
:100A0000A970817AF722C908C900114081720020BB
:100A1000E870FF2028720A20084B0090183308481D
:100A2000194601221039083801F0BCFC002801D019
:100A3000FFF71AFF0020ACE70720AAE748050020CF
:100A4000303A0000893400007CB50E4CA0780028B4
:100A500004D0A078032803D011207CBD08207CBDE1
:100A6000094801F0ABFC074800252030007E0095C6
:100A70002B462A462946019501F030FEE570A57007
:100A800000207CBD48050020283A0000F8B5074644
:100A900008680C460526411C01253602002906D0AF
:100AA0002946814019488160206801F047FE60684E
:100AB000411C02D0002101F02EFE3968A06989197D
:100AC0004862607D217D3A6808439119C86638689C
:100AD00006CC80194261C160207B083C012814D1FA
:100AE000A068411C02D0002101F015FEE068411C05
:100AF00005D0854005488560E06801F01FFE3A6832
:100B0000E1689219A06891601061F8BD000500507D
:100B10000A78087A002A05D0012A03D0022A01D0D7
:100B2000032A08D14A780C214843034949684018F0
:100B300002720021817270470C00002080697047AA
:100B4000F7B584B004980E4601698469CB1FFF3B5A
:100B5000FA3B02D0062007B0F0BD154D69680029A8
:100B600001D01120F7E7A660A26168601149143036
:100B7000FFF706FF070009D1002E15D1FFF7E6FEAB
:100B80000028FBD12878002810D00D2700206860AD
:100B9000002E09D0084A6B4607CA07C3A069029015
:100BA000A2686946049890473846D4E70027FBE7D7
:100BB0001C000020052D0000703A0000002903D021
:100BC000012907D006207047002A01D000201070AC
:100BD00000207047002A02D0001D1060F8E70720AF
:100BE00070470000FEB51E4F0646846978680D46C2
:100BF000B04203D1FFF7AAFE002801D01120FEBDAC
:100C000007CD23460C3307C30C3DA888296882B260
:100C1000A868FFF735FE05000AD1A06800281AD1A0
:100C2000FFF794FE0028FBD13878002815D00D2559
:100C3000A06800280FD0002D0DD00A49086B896BE1
:100C40000090204602910C300190A0690290A268A9
:100C50006946304690472846FEBD0025E8E700007B
:100C60001C000020583A0000FEB5134F0446856969
:100C70007868A04203D1FFF769FE002801D0112057
:100C8000FEBDFFF7E1FE060000D17860A8680028ED
:100C90000FD00A496B4607C907C3002E01D00120B7
:100CA00000E0002069464870A8690290AA682046C2
:100CB00090473046FEBD00001C0000207C3A00003A
:100CC000FEB51E4F0646846978680D46B04203D1D2
:100CD000FFF73CFE002801D01120FEBD07CD2346C2
:100CE0000C3307C30C3DA888296882B2A868FFF7B7
:100CF000F5FD05000AD1A06800281AD1FFF726FEED
:100D00000028FBD13878002815D00D25A0680028D0
:100D10000FD0002D0DD00A49C86B496C00902046B9
:100D200002910C300190A0690290A2686946304699
:100D300090472846FEBD0025E8E700001C00002083
:100D4000583A000010B50349085C012101F010FD7C
:100D500010BD0000203A00007CB50024074E254657
:100D6000305D0122009500231146019501F07AFCC7
:100D7000641C042CF4D300F003F87CBD203A00007E
:100D800010B500242046FFF7DDFF641C042CF9D3C6
:100D900010BD002901DA0020704702685118016077
:100DA0000120704710B504460020E070401EE0624C
:100DB000204601F020FA002801D0042010BD13487D
:100DC000201801F0E1F91249884201D0032010BD3A
:100DD00021462031087CE92804D0EB2813D1887CF7
:100DE000902810D12046663001F0C3F9094900026D
:100DF000884206D02046823001F0BBF9064988427D
:100E000001D1002010BD022010BD00002E02000004
:100E100055AA000000464154464154334269891E98
:100E2000921E8A4201D8002070474289806A4A4354
:100E300010187047F3B581B001980F00056805D010
:100E400001F0B5F8022809D20120FEBDEE68002E9F
:100E500002D06869B04207D8012605E0411CF4D0F1
:100E600069698142F1D83E4634466869641CA042F3
:100E700002D80224022E0BD32146019801F097F8E4
:100E8000002807D00128E0D0411CDED0B442ECD1CC
:100E90000020FEBD0026F64332462146284601F0DA
:100EA00019FE002808D1002F0BD0224639462846CB
:100EB00001F010FE002804D001280FD001242046A4
:100EC000FEBDEC6069692869891E884201D2401E16
:100ED00028612879012108432871F0E73446EEE7BC
:100EE000F3B581B0029920300D6804460B22202111
:100EF00001F07BF900200146082222E06A5C491CCF
:100F0000202A13D92F2A0CD05C2A0AD02E2A01D0ED
:100F1000604518D360460B2836D02E2A34D10EE017
:100F2000491C6B5C2F2BFBD05C2BF9D06B18029902
:100F300000280B6028D02078E52831D032E0082046
:100F40000B229446DAE71346813B1E2B02D95F3B06
:100F50001C2B10D86B5C491C1E46403E3F2E02D312
:100F6000403E7D2E10D26646761EB0420CD22254F0
:100F7000401C235412E00FA3164600E05B1C1F78B0
:100F8000002F03D0B742F9D10620FEBD1346613BC6
:100F9000192B02D83246203AD2B22254401CADE777
:100FA00005202070202A01D8042000E00020E072F3
:100FB0000020FEBD222A2B2C3A3B3C3D3E3F5B5D90
:100FC0007C7F000020BF7047F8B50446002105680B
:100FD00000F00AF9002828D12846A16901F00BF990
:100FE000020021D1E0690178002913D0C17A890675
:100FF000890EA171C17A090710D4214620310B2333
:1010000006780F78401CF61B491C5B1E04D0002E8E
:10101000F6D003E0042207E0002E05D00021204690
:1010200000F004F80200D7D01046F8BDF3B505462D
:10103000076904688069203781B0002803D0012146
:1010400049058F4201D30420FEBDF9055CD1401C47
:10105000A8616969002922D06289780A521E10426B
:1010600052D1284600F0A3FF0646012820D9701C63
:1010700035D06069B04241D80298002813D0284684
:101080006969FFF7D7FE060010D0012E10D0701C42
:1010900025D0204602F076FB002820D10AE02189E5
:1010A0007809884230D30020A861CCE70720FEBD34
:1010B0000220FEBD0122204652020021303001F004
:1010C00094F80020009031462046FFF7A7FE0DE07F
:1010D0000120E070204602F055FB002801D00120DD
:1010E000FEBD0098401C0090E06A401CE0626189EF
:1010F00000988142ECD8E16A081AE0623146204645
:101100006E61FFF78BFEA861F805C00D0019303045
:101110002F61E8610020FEBD70B504460E46042034
:10112000256824E0284601F066F8002824D1E1690A
:101130000A78002A17D0C97A8906890EA171E52A92
:101140000AD02E2A08D00F2906D0DF221140082904
:101150000BD00021B14211D000212046FFF766FFDD
:10116000002804D008E0042006E00121F2E7A1698C
:101170000029D7D1002801D00021A16170BD70B530
:1011800004460021066800F02FF80FE03046A16900
:1011900001F031F800280BD1E0690078E5280AD089
:1011A000002808D001212046FFF740FF0028EDD09D
:1011B000042807D007E03046A16901F01CF80500BB
:1011C00003D00FE0072005460CE020220021E06953
:1011D00001F00BF821460B222031E06900F0FCFF02
:1011E0000120F070284670BDF8B50546076801205B
:1011F00040050E46814238D2F00636D12E61AC68E9
:10120000002C05D13878032806D37C6A002C03D043
:1012100078894002009012E039897009884224D20E
:10122000786A12E0284600F0C2FE0446401C1AD03C
:10123000022C1AD37869A04217D90098361A864230
:101240002146EFD23846FFF7E9FD6C61A86100281E
:101250000BD0710A4018A861F005C00DC0193030DC
:10126000E8610020F8BD0120F8BD0220F8BD0000B3
:1012700070B51C4D297888420ED20C2104466A684C
:101280004C431159002907D0A1184B7ADB0705D030
:101290004B68002B04D005E0032070BD487A70BD78
:1012A000114B4B6001238B721359024618680F498A
:1012B00006681846B047002802D00FE04068804713
:1012C00068682018817A0029F8D169686118097A5C
:1012D000002903D1417A4908490041726868201801
:1012E000407A70BD0C000020C50F0000110B0000FB
:1012F00038B51E4D2B78984201D3042038BD0C23FD
:1013000058430446002907D018480129406815D0E1
:1013100002291DD0012038BD012069460870686887
:101320006A460059002100F080FF002801D01128F2
:1013300017D1684600780028F1D112E00059002842
:1013400011D001681446496988470068206008E0A8
:101350000059002807D001681446496988478088E9
:101360002080002038BD032038BD00000C00002084
:10137000FEB51C4D2C78A0420DD2002B0BD00C24B6
:101380006E6844433059002803D0A019477AFF07FC
:1013900003D00320FEBD0420FEBD02910193009204
:1013A0000121817236596F4630684169304688475D
:1013B00000680099884213D93068394682683046FF
:1013C0009047002802D00BE04068804768682018EA
:1013D000817A0029F8D168682018007A0028DBD0CB
:1013E0000120FEBD0C00002005490A78904201D37F
:1013F000012070470C22496850434018407A7047DA
:101400000C000020FEB51F4C2578A8420DD2002B01
:101410000BD00C25666845437059002803D0A819E5
:10142000477AFF0703D00320FEBD0420FEBD477AA4
:101430007F0701D50220FEBD029101930092012198
:10144000817276596F463068416930468847006836
:101450000099884213D930683946C26830469047AF
:10146000002802D00BE04068804760682818817A25
:101470000029F8D160682818007A0028DBD0012004
:10148000FEBD00000C000020014A50601170704742
:101490000C00002038B5044600F066F9002807D19A
:1014A0006946204602F092FA002801D1002121600D
:1014B00038BD000017B581B0029800901446684608
:1014C00000F001FE002802DA0B2004B010BD0C4928
:1014D0008300C8580022002800D00270019800281C
:1014E00000D00270C850002801D0012C01D000208B
:1014F000EBE7002201A902A800F0E2FBE5E700000B
:1015000018000020F7B592B0050009D09606B60E77
:1015100032460BA913A800F0D3FB040003D0C4E0AB
:10152000092015B0F0BD0B9800906846139900F0A3
:1015300003FD040004D108A8C07A000600D50624E3
:10154000F006400F4FD0002C0AD0042C03D168467F
:10155000FFF715FE044608200643002C0BD0A4E03C
:10156000684680791121084201D007249DE0700768
:1015700001D5082499E0300745D54F4F07983946E3
:101580000E3002F0A8F807983946163002F0A3F89A
:1015900007992020C87207990B9800F0D7FD0746DD
:1015A000002207990B9802F084F8079800211C305C
:1015B00002F091F801200B99002FC87021D0C86A61
:1015C0000C9000223946684601F0FBFA04006CD109
:1015D0000C990B9800F00FFE04467F1E0B98002C10
:1015E000C7600CD061E0002C5FD168468079C106ED
:1015F00001D5042459E0B10701D5C007B5D13007A2
:1016000001D5402006430B98C16A29620799696297
:10161000079900F09BFDA86007981C3000F0A9FD19
:10162000E8600B982860C088A88000202E74687439
:10163000E8610146686128460122283052020F9075
:1016400000F0D3FDB00632D5EE68002E2FD06E61CB
:101650000B98A968408947020FE0284600F0A7FCD4
:101660000146012800D80224481C03D0F61B002C98
:1016700003D004E00124F61B01E0BE42EDD8A961CD
:10168000002C12D1F00512D00B98FFF7C7FB0028F1
:101690000FD0710A0A18EA610B98012340780F995C
:1016A000FFF766FE002802D00124002028602046B3
:1016B00037E70224F9E700000000214813B582B0A3
:1016C000040007D00022694603A800F0F9FA0028B8
:1016D00003D021E0092004B010BD0099216020460C
:1016E000039900F029FC002812D12B20005D000690
:1016F00007D4A079C00612D5E169009800F026FD54
:10170000A0600098C188A18020460021FFF76CFDF1
:10171000042804D00028DED000212160DBE705206A
:10172000FAE738B50C460546694602F04FF900283D
:1017300014D1002C13D000212846FFF7EDFC04281B
:1017400001D000280AD12146284600F08DFC002156
:101750002846FFF76BFC042800D1002038BD00218B
:101760002846FFF741FD38BDF8B50446694602F04A
:101770002DF900280FD1217C4A060CD508060FD57B
:1017800000982146E269407801232831FFF73AFEAC
:10179000002801D00120F8BD207C4006400E2074B6
:1017A000144E216A009800F026FD0028F3D1656AE6
:1017B0002021E87A0843E8722946A268206801F0EF
:1017C00078FF28461C30E16801F085FF2846314645
:1017D000163001F080FF28460021123001F083FF0F
:1017E00000980121C17001F083FF217CBF221140CC
:1017F0002174F8BD00002148FFB589B0044600916E
:101800000C9800210160154603A9204602F0DEF87D
:10181000002806D1607C002803D1207C800702D4F8
:1018200007200DB0F0BD606922462832411901271A
:101830000192814200D2C5439EE06069C10575D125
:101840000399460A4989491E0E4015D1002801D046
:10185000A16903E0A068002805D100212046FFF718
:10186000E9FA00287ED0012831D0411C58D0A0616F
:10187000A168002900D1A060207C00060CD5039847
:10188000E269407801230199FFF7BCFD002847D1A8
:10189000207C4006400E2074A1690398FFF7BEFA31
:1018A000002814D080190290680A049027D03218BA
:1018B000039841898A4201D9891B04914078049B8D
:1018C000029A0099FFF79EFD002829D102E002202C
:1018D0006074A6E7E1690298081A049988420BD25D
:1018E00041020098012209185202019800F074FC8C
:1018F000207C4006400E20740498460229E0E169ED
:101900000298814210D0E168606988420CD2039845
:1019100001234078029A0199FFF72AFD002803D09D
:10192000677401207DE701E00298E061A08AC105AB
:101930000120C90D4002461AAE4200D92E460819B0
:1019400032462830009900F047FC207C8021084373
:101950002074009880190090606980196061E168C6
:10196000884200E00BE000D80846E0600C98006870
:1019700081190C98AD1B0160002D00D05DE7207C23
:1019800040210843207400204BE7000038B50121B6
:101990004848FFF779FD48A1032001F061F80324CE
:1019A0000020FFF765FC641E02D00028F8D103E098
:1019B000002801D04AA161E0534D54486969884725
:1019C000416801200005FEF7A1FB044669694F4804
:1019D000884700682146FEF799FB02464CA1032088
:1019E00001F044F851A1032001F03AF8012257A177
:1019F0005748FFF75FFD002801D056A13EE05CA1EB
:101A0000032001F02DF863A16348FFF757FE00287B
:101A100001D062A132E0604C2C34254609355E4984
:101A20005D482C31FFF77DFE002801D065A125E03F
:101A3000607A002811D0207AC00605D52A4669A10F
:101A4000132001F013F805E02B466AA11320226849
:101A500001F013F8607A0028E1D12AA1132000F0E8
:101A6000FFFF67A1032000F0FBFF4B4833226FA16B
:101A70004430FFF747FD002804D06FA1032000F099
:101A8000EFFF38BD44486B46122279A14430FFF77E
:101A9000B3FE002804D07BA1032000F0E1FF04E0A6
:101AA0007FA10320009A00F0E1FF3B484430FFF79C
:101AB000F1FC38BD000000204150503A494E464FDD
:101AC0003A496E697469616C697A696E6720646904
:101AD000736B20302028534443292E2E2E0D0A00EC
:101AE0004150503A494E464F3A4469736B20696EF3
:101AF000697469616C697A6174696F6E2066616985
:101B00006C65642E0D0A0000403A0000043A0000A3
:101B10004150503A494E464F3A436170616369748F
:101B2000793A202564204D420D0A00004150503A78
:101B3000494E464F3A4D6F756E74696E6720766FE9
:101B40006C756D652E2E2E0D0A0000000000000041
:101B5000340000204150503A494E464F3A4D6F757F
:101B60006E74206661696C65642E0D0A00000000C9
:101B70004150503A494E464F3A0D0A204C69737411
:101B8000696E67206469726563746F72793A202F99
:101B90000D0A00002F000000640200204150503A5E
:101BA000494E464F3A4469726563746F7279206C8E
:101BB000697374696E67206661696C6564210D0ADA
:101BC000000000004150503A494E464F3A44697275
:101BD0006563746F72792072656164206661696CF7
:101BE00065642E002020203C4449523E20202025C0
:101BF000730D0A0025396C75202025730D0A00002D
:101C00004150503A494E464F3A57726974696E676F
:101C100020746F2066696C65204E4F524449432EF4
:101C20005458542E2E2E0D0A000000004E4F5244E0
:101C300049432E54585400004150503A494E464FA3
:101C40003A556E61626C6520746F206F70656E200E
:101C50006F72206372656174652066696C653A20F5
:101C60004E4F524449432E5458542E0D0A00000042
:101C700053442063617264206578616D706C652ED9
:101C80000D0A00004150503A494E464F3A5772698A
:101C90007465206661696C65640D0A2E00000000A1
:101CA0004150503A494E464F3A2564206279746556
:101CB00073207772697474656E2E0D0A000000003F
:101CC000F7B588B000270E460F6000F0FCF905005C
:101CD00002D50B200BB0F0BD9049A8000C58002C89
:101CE00015D034600A98460820787600002804D081
:101CF0006078FFF779FBC1070BD000202070E8B2B5
:101D00006070FFF7B5FAC10709D00320E2E70C20A5
:101D1000E0E7002E01D0400705D40020DAE7002ECE
:101D200003D0400701D50A20D4E7002529462046E4
:101D3000FFF738F8022821D102AF28010019FF303F
:101D4000EF300179002903D0083000F012FA00E0EA
:101D50000020A9006D1C7850042DEED30026B000A1
:101D60003D58002D06D029462046FFF71BF80228D3
:101D700001D203E00320761C042EF0D3042810D0F7
:101D8000022876D220463B3000F0FEF9C11FFF3911
:101D9000FA396ED12046463000F0F6F9010002D043
:101DA00006E0012096E72046543000F0E2F90146B3
:101DB0004020A161005DA070012801D0022858D107
:101DC000484301903D20005D6081002851D0411EB4
:101DD00008424ED12046413000F0D6F9208100075C
:101DE00047D12046433000F0CFF9060004D1204609
:101DF000503000F0BEF9064620463E3000F0C4F9EF
:101E0000070036D001983918208906900009081873
:101E1000009086422DD36189301AFEF777F90028A9
:101E200027D03F490326884200D802263D498842F0
:101E300000D80126E919E561801C21626061009AE1
:101E4000AA18A262032E16D0069A002A11D0019A6F
:101E500089186162022E1FD041004118C00749084D
:101E6000C00F0818FF30FF300130A169400A8142DD
:101E700014D20D202EE720465A3000F085F90028B4
:101E8000F7D120890028F4D120465C3000F071F9A8
:101E9000606260698000E5E74000E3E70020C0433E
:101EA0002061E06080202071032E2ED1204660301A
:101EB00000F06AF9012828D1691C204600F09BF93E
:101EC000002822D120711848201800F05DF9174928
:101ED00088421AD12046303000F04BF9144988422C
:101EE00013D185208000201800F043F91149884261
:101EF0000BD14320C000201800F03BF9206187205F
:101F00008000201800F035F9E06004492670091FB0
:101F10000888401C0880E080FFE6000018000020D0
:101F2000F5FF0000F50F00002E02000055AA00008A
:101F3000525261417272416173B50446066801985C
:101F400001E0401C019001782F29FAD05C29F8D0DB
:101F50000021A1600198254600782035202805D26F
:101F60008020E8722046FFF73FF97CBD01A920469A
:101F7000FEF7B6FF0028F8D12046FFF725F8E97AEA
:101F8000002805D00428F0D14907EED405207CBDF7
:101F90004907FCD4A079C006F8D5208AC005C00D39
:101FA00081193046303100F0D1F8A060DEE7F8B595
:101FB00004680D4602290BD36069A84208D900269F
:101FC0002078F643012806D002282CD003283AD0E6
:101FD00001263046F8BD68084719206A790A411879
:101FE000204600F008F90028F3D1F805C00D0019CB
:101FF0002030007C00907F1C206A790A411820461E
:1020000000F0F9F80028E4D1F805C00D00192030DF
:10201000007C009900020843E90701D00609D8E7CF
:102020000605360DD5E7206A290A4118204600F03A
:10203000E2F80028CDD12806C00D0019303000F09C
:10204000A3F80646C5E7206AE9094118204600F0D2
:10205000D2F80028BDD16806C00D0019303000F05C
:1020600088F806013609B4E7F8B5002305464B7237
:1020700080690C46002825D000210A462E26E869F2
:10208000805C521C20280AD0052800D1E520092AAE
:1020900002D167187E72491C67187872491C0B2A96
:1020A000EDD360184372E869C07A2072E8691C3089
:1020B00000F05FF82060E869163000F05AF8E08020
:1020C000000CA080F8BD10B5044600202268C04373
:1020D000002A13D0114600E0491C0B78212B0ED3A7
:1020E0003A2BF9D11378521C303B0A2B06D28A4284
:1020F00004D1002B02D1491C1846216010BD0020DC
:1021000010BD00001048018CC9B2012917D1818C83
:10211000090714D1018D09060A0F03D1828D120619
:10212000120F0ED0090F012903D1828D1206120F52
:1021300007D0032903D1808D0006000F01D00020B5
:102140007047012070470000C00F00F070B50646D0
:1021500008460D461A3000F017F804463078032878
:1021600005D12846143000F00FF80004044320463F
:1021700070BDC17882780902114342780902114387
:102180000078090208437047014640780978000248
:1021900008437047FEF7E0FD002000F07DFC0028BA
:1021A00001D0FEF761FB04A1032000F059FCFFF70A
:1021B000EDFB20BFFDE700004150503A494E464F2D
:1021C0003A0D0A4641544653206578616D706C653E
:1021D0002E0D0A0D0A000000002A05D00B780370AE
:1021E000401C491C521EF9D17047C9B20170401CF5
:1021F000521EFBD1704770B50446C06A0D460026DA
:10220000A84210D0204601F0BDFA06000BD12146AD
:10221000607801232A463031FFF7AAF8002801D060
:10222000751E0126E562304670BD03681B691847BC
:102230008207D30EFF229A408907090E10B59940F4
:1022400000280BDA03071B0F083B9C080C4BA4006B
:10225000E318DC6994430C43DC6107E08408094B14
:10226000A400E418236893430B432360C106C90EFE
:1022700001208840044908600449086010BD00003E
:1022800000ED00E000E400E080E200E000E100E0BA
:10229000FEB5074640790C4641013F480E18307E96
:1022A000002801D00820FEBD3260207B01250128D6
:1022B00005D82178284688403849C86002E020784F
:1022C00000F046FA2178364A012089008918086012
:1022D0006578FF2D06D03149A840C860284600F037
:1022E00023FA01E00025ED43A078FF2808D0002361
:1022F00000931A4619460193029000F0C7F902E0D4
:102300000020C0430290E078FF2804D000F020FABB
:10231000E07800F009FA7879E17842011E48101857
:10232000817639680520000223780818029A8360B4
:10233000C5600261A2684262627B237B002A00D0F2
:102340000122012B04D0022B04D0032B06D103E081
:10235000022302E0042300E006231A4342657A794F
:10236000637955010C4AAA18D3763268002A04D042
:10237000032304221B02C9184A6001250560306846
:10238000002804D0042021793856FFF751FF00209F
:1023900070763576FEBD0000EC040020000500508C
:1023A000000700501FB50091069C029369460A7110
:1023B0000C73002200F026F804B010BD41790F4ADA
:1023C000490189180A68002A06D00279D306DB0E73
:1023D00001229A400A4B1A600A680068002A05D058
:1023E00000220323D2431B02C3189A600523002254
:1023F0001B02C01802600A7670470000EC0400203F
:1024000080E100E0F8B50D464179184B4901C91843
:10241000002300934B7E002B01D01120F8BD0B68E8
:10242000002B04D014231A4201D101234B76D8CDBE
:102430000831D8C14B79FD245B085B0023404B7108
:102440008C781839103DFF2C03D00123A340084C91
:10245000E360002A04D00020487606200090F8BDF2
:1024600000682A4601F0ECF80098F8BDEC04002062
:1024700000050050F8B506460F4600791C21484378
:102480001A4915464418E07E002801D00820F8BDFE
:1024900039463046FEF7FAFA65603869206028460A
:1024A0000025002813D0FF223068397F1D32855067
:1024B000FF22306845328550032330681B020C4AE6
:1024C000C01842603068000B40B2FFF7B1FE052231
:1024D00030680421120280180160E5752576A57523
:1024E0000121E1762846A576F8BD00000C05002004
:1024F0008000020070B505460C4600791C21484357
:1025000008494318284600F055F8002801D011204A
:1025100070BD9A7500209C609882284600F004F8EF
:1025200070BD00000C050020F8B5044600791C21A0
:1025300048431F4900264518FF2720681D37C6510C
:102540002068012181602946206801F087F96968C7
:10255000002913D027E0FF270137FF211D31206814
:1025600000F0ABFA002802D1A88AB842F5D1A88AB7
:10257000B84203D02946206801F070F9A88AA97DE5
:102580008842E8D3A98AC81FF9380ED0FF271D3723
:102590003946206800F091FA0028F9D0206801211E
:1025A000C1600020A8753046F8BD0F26F9E700008D
:1025B0000C05002000791C21484303494018807D08
:1025C000002800D0012070470C050020F8B50179E3
:1025D0001C225143204A00238D1805220168120253
:1025E00089180B60696800290CD003240168240253
:1025F0001A4B09198B600168C903CB0E0121994060
:10260000174B19600522016812028A18D3685669AF
:10261000976814690021C9435161D160006805229F
:102620001202801881600161581C02D0184600F027
:1026300069F8701C02D0304600F064F8601C02D0CB
:10264000204600F05FF8781C02D0384600F05AF8B7
:102650000020E8766860F8BD0C05002084020200C6
:1026600080E100E070B552000A439900049D0A43DE
:102670002902059E0A43310405240A4324078000E9
:102680000721001909024018026070BD70B55200A0
:102690000A439900049D0A432902059E0A43310416
:1026A00005240A4324078000072100190902401865
:1026B000026070BD70B552000A439900049D0A4340
:1026C0002902059E0A43310405240A432407800099
:1026D0000721001909024018026070BD70B5520050
:1026E0000A439900049D0A432902059E0A433104C6
:1026F00005240A4324078000072100190902401815
:10270000026070BD1CB5002100910B4601220191B1
:10271000FFF7D0FF1CBD1CB500220B4600921146EE
:102720000192FFF7C7FF1CBD1CB5002100910B46AD
:10273000012201911146FFF7A9FF1CBD1CB5002124
:1027400000910B46012201911146FFF7B3FF1CBD1A
:102750000121814001488160704700000005005060
:102760000121814001488160704700000005005050
:10277000012282400348002901D082607047C26074
:10278000704700000005005000487047092800000D
:1027900030B5194C0546207889B0002805D06078FE
:1027A000854202D1002009B030BD2022134968467D
:1027B000FDF7C6FC002069460875092000900B2033
:1027C0000190082003900A2002900D4806900A48C4
:1027D000001DFFF7FBFE002D01D0002200E0094A9A
:1027E00005486946001DFFF745FE0028DBD10120A2
:1027F00020706570D6E7000024000020A03A000099
:1028000000E0D70195380000F0B5C5B00C460021B6
:1028100000914D984B991E46081817460390002CBE
:1028200001D00A2000E00020019000F00FFE0028F7
:102830007ED104AD002E17D100986A462918204693
:1028400000F0CAFF002875D03846FDF78BFCC2287F
:1028500000D9C22004460098224628183946FDF7C0
:102860006FFC009800190090009901980A1804A8BC
:10287000441831328518002003E020212170401CCB
:10288000641C01998842F8D300270398864207D335
:10289000202020706070A0702870E41C6D1C2CE05B
:1028A0004B98864202D24A98805D02E0311A4C98D9
:1028B000405C22468446012102908B006046D8404D
:1028C0000007000F092801D9373000E0303001231C
:1028D0005B1AD054491EF0D220209070D41CFDF712
:1028E0002BFC01680298085C8006C00E01D002989B
:1028F00000E02E2028706D1C761C7F1C102FC4D386
:102900000D2028700A2068702020207000990198FE
:102910000918433104A8009100F0A0FD002809D057
:1029200000F094FD002805D100900398864200E055
:1029300000E099D3304645B0F0BDFFB5C7B00025E3
:10294000509F1C46059500F081FD002875D1059823
:1029500006AE311805AA489800F03EFF002836D090
:102960003846FF2701370300FDF7FEFC0705131B60
:10297000333F4B5725004998FDF7F4FB0599054671
:102980004018FF2817D870182A464999FDF7D8FB38
:1029900011E005982368391A3018499AFDF7CEFCE2
:1029A00008E06068009005982368391A3018499A41
:1029B000FDF7C4FC0546294605A8FEF7EAF9059986
:1029C00000283AD0B94238D806A800F047FD4BB0ED
:1029D000F0BDA16860680090019105982368391ADC
:1029E0003018499AFDF7AAFCE4E7201D07C86B469A
:1029F00007C305982368391A3018499AFDF79EFCD9
:102A0000D8E7201D0FC86D460FC505982368391AF1
:102A10003018499AFDF792FCCCE7204608300FC8E1
:102A200001AD0FC56068009005982368391A301809
:102A3000499AFDF783FCBDE7FFE70020C7E70000E8
:102A4000004870473B29000038B50093034B0D4602
:102A50005C69134600212A46A04738BD8406002041
:102A600010B500231A46FFF7EFFF10BD08B500921E
:102A700001236A46FFF7E8FF08BD1CB501930092E9
:102A800002236A46FFF7E0FF1CBD0000014A916186
:102A9000506170478406002070B50120FFF778FE72
:102AA000040008D1FFF7CCFF0546FFF76DFE014695
:102AB0002846FFF7EBFF204670BD4058002800D0A5
:102AC000012070470322120280184068084000D09D
:102AD00001207047F8B5022617460D460446022924
:102AE0006DD36069A8426AD92078012804D00228F1
:102AF0003CD0032863D149E0680840190090216A5E
:102B0000400A09182046FFF776FB060057D10098C7
:102B10000099C005C00D491C001930300091E9072B
:102B200005D001780907090F3A01114300E0394641
:102B300001700120E0700098216A400A09182046BF
:102B4000FFF759FB06003AD10098C005C00D0019E7
:102B50003030E90702D03905090E05E001783A0561
:102B600009090901120F1143017026E0206A290AA0
:102B700041182046FFF73FFB060020D12806C00D74
:102B80000019B9B2303000F0AEFD16E0206AE90954
:102B900041182046FFF72FFB060010D16806C00D34
:102BA000001930300546FFF7E4FA010F3801090734
:102BB00000090143284600F08EFD0120E0703046F8
:102BC000F8BDF8B5056813460E46074602292DD311
:102BD0006869B0422AD9002B07D00022D243194697
:102BE0002846FFF777FF00281FD131463846FFF708
:102BF000DEF9040018D0012C18D0601C18D0002277
:102C000031462846FFF766FF00280ED1696928691A
:102C10008A1E904205D2401C286128790122104367
:102C200028712646B142E0D80020F8BD0220F8BD48
:102C30000120F8BD30B5FF220523CD7D00240932E7
:102C40001B02C318002D8450986905D04B7ECA68BA
:102C5000D054487E401C487630BD1FB501246B46D9
:102C60001C701972019206C8684690471FBD00008B
:102C7000F8B5234BDC78002C01D01120F8BD0125DC
:102C80000027DD7004060BD50224DC7077241C724B
:102C900000245C729C72DC7206271C73FF245C7338
:102CA000174C4606203CE419760E203426720E0E90
:102CB00066720E0CA6720E0AE672217340280DD0C1
:102CC00048280DD0FF2161730521022A0AD0032A6A
:102CD00008D01D71000607D5012006E09521F2E716
:102CE0008721F0E71971F5E71879054A0E30C3B26C
:102CF000183210460621103800F08CFB0020F8BD79
:102D000048050020FEB50546204E407830707768B3
:102D10002978BC69002908D01D4801291CD0022946
:102D20002FD00320FDF7A0FDFEBDFDF71DFE0068BE
:102D3000206001204002606070688069806800281F
:102D4000F2D000200090019002906878002800D016
:102D50000120694648700EE0A1680029E4D007C848
:102D60006B4607C36878002800D001206946487088
:102D700020460C300190A0690290A2683846904726
:102D8000FEBDA1680029FBD00C30E8E71C00002044
:102D9000583A0000F7B582B0029817460678401CF2
:102DA000FDF7E7F9029900BA000A09790002A14C7F
:102DB0000843864625462846A18B48300090288C3B
:102DC000AD7A9D4A401CAC468B1A002580B29142D8
:102DD0007CD013DC994A8B1A914236D005DC00294D
:102DE0001CD0FF39E72915D124E09249897AC90816
:102DF000C900062B38D0132B0CD150E0292B71D0F1
:102E000004DC152B6FD01B2B04D193E0332B6BD03C
:102E1000382B6AD0A583032005B0F0BD0122002124
:102E20004020FFF725FF002801D0FDF71DFDFF2002
:102E3000E730AAE0012200214020FFF719FF002817
:102E400001D0FDF711FD7D489FE0B00871D1FF2151
:102E50000322AB314820FFF70BFF002801D0FDF71C
:102E600003FDFF20F03090E0700703D4C91CA1726D
:102E7000B0085ED12584A07A4007400F03280BD00C
:102E800000210222E920FFF7F3FE002801D0FDF720
:102E9000EBFCFF20FD3078E001218907F1E77207A4
:102EA00038D5491CA1727D2109012084884217D898
:102EB000022200214120FFF7DBFE002801D0FDF7B0
:102EC000D3FC5D4861E001E038708CE0B10861D16D
:102ED000F107E8D137E07D2109012084884205D936
:102EE0000220F1E740E015E052E060E06046400774
:102EF000400F03280BD000210222E920FFF7B8FE83
:102F0000002801D0FDF7B0FC4B4815303DE0012111
:102F10008907F1E7B1083DD1F107DCD102227A201F
:102F2000FFF7A6FE002801D0FDF79EFC42481B30AB
:102F30002BE02FE0B0082DD17046400003D560464D
:102F400008210843A072A07A4007400F03280DD043
:102F5000012251025020FFF78BFE002801D0FDF71F
:102F600083FC3548293010E0B00813D10098E060A8
:102F70000120A082024600214920FFF779FE0028A7
:102F800001D0FDF771FC2C483330A083012043E7CA
:102F9000B00801D0042097E70298401C02900398E3
:102FA000401EC0B203902448E5833830A08301ABB3
:102FB00010220399029800F087F8022801D200201D
:102FC0002AE76846007900288BD1009801788909A2
:102FD0000CD0012921D0022908D029460120400225
:102FE000616020813D70A583022015E7017AC279D6
:102FF0008909920089188279837A9207120D8918BB
:103000004279407A12078007DB09400F120F181827
:103010001018C01F491C8140E0E7017A0A02C179FB
:10302000407A0904511808180121800289024118C8
:10303000D4E70000280500200E020000E90100008E
:10304000F8B51F4C1646A28B0025002A07D01D4B51
:10305000D21810D00A2A2ED0A5830320F8BD0278FA
:10306000920801D0042013E0164A491E5242E5831B
:10307000C9B2A283401C01226B46520200F024F820
:10308000022801D20020F8BD68460078002801D04F
:10309000307011E0A08A01280DD9012200214C20B6
:1030A000FFF7E6FD002801D0FDF7DEFB4F20C00052
:1030B000A0830120F8BD3570A5830220F8BD000073
:1030C0002805002092FDFFFFFFB5044654489646B0
:1030D000C28B03461846FF253830B0358446561B50
:1030E0001038203381B0AA425BD005DC002A0DD015
:1030F000FF3A9E2A04D151E0072E78D0132E75D0C6
:1031000047490020C883032005B0F0BD444A958A92
:10311000D5826DE000222A841E722A830322DA708F
:103120003F4F404A3D8C6D1CADB23D84954204D961
:1031300002210BE0491EC9B2641C00290BD0227881
:10314000FF2AF7D0D2B2FE2A0FD0052104980170D1
:103150000020F88361E010236246012100F05AF953
:10316000FF219E31F9830120CEE70422491EC9B216
:10317000DA70641C7246714501D9164600E00E46AD
:10318000002504E0264F625DFF687A556D1CB5424C
:10319000F8D3234A1683D568AD19D560DA78032AA7
:1031A000BED01F4C7246218B714513D2511A8DB27D
:1031B000F02D00D9F025EBB20121E26800F02AF9E8
:1031C000E0684019E060208B40192083FF20B03078
:1031D000E083C8E7E18A0223491EE18262460121B9
:1031E00000F018F9FF20B730F2E700E00FE000210F
:1031F0000B4DFF26EA8A002A8CD11E7202236246FA
:10320000012100F007F9FF20C330E883ABE700207D
:10321000D870049908700249C883022074E700003E
:1032200028050020204E0000F7B5764C16462246B1
:103230003832114610390B468C46083B82B0A78BBA
:10324000D97800912146898A6F4D8E46781B0021DE
:10325000AF4269D009DC002F11D06C48381826D055
:1032600010284ED0212806D14BE01E287ED03428CD
:103270007AD0442879D0A183032005B0F0BD02980C
:103280000078800859D1A07A4007400F012812D059
:10329000704601280FD9012259202169FFF7E8FC67
:1032A000002801D0FDF7E0FA5748293817E00298C6
:1032B0000078800841D1704669E021830420D870ED
:1032C00070461D72012801D9FC2000E0FE205872D2
:1032D00002231946604600F09DF84B481938A08338
:1032E00020E0731A9DB2F02D00D9F0254018E9B204
:1032F000012300F08FF8208B4019208342480838C2
:10330000EDE74048218B01267602C068B142E8D340
:103310008019E0600320D87003460121604600F068
:1033200079F8A5830120A8E7987EC006C00E05287D
:1033300008D00B2803D00D2801D0042000E0052080
:10334000307043E021841DE0208C314B401C80B262
:103350002084984238D810230121604600F05AF8A2
:1033600017204001BBE701E024E03AE0002006E03E
:10337000029D2D5C002D01D0D97006E0401C039DFC
:10338000A842F5D300980328DED0E08A401EE082F0
:1033900080B2FF25002890D17046012830D91D72D7
:1033A000FD20587203230221604600F033F81648CE
:1033B000343094E721840320D870208C144B401CB7
:1033C00080B22084984204D90220B9E7A183022068
:1033D00053E710230121604600F01CF80A484430EE
:1033E0007DE7002006E0029D2D5C002D01D0D97004
:1033F00006E0401C039DA842F5D300980328DCD0CA
:103400003170E3E728050020C202000067FDFFFFDE
:10341000204E000038B50D46094914460A7E0121A8
:103420009140084AD1600093014623462A46064847
:10343000FEF7B8FF002801D0FDF716FA38BD0000EE
:103440006805002000050050283A000010B5024829
:10345000FFF7B0F810BD00002800002070B50D4641
:103460000A46014601240648FCF76AFEEAB204490E
:103470000448FFF73FF8002800D00024204670BD24
:103480008405002028000020F1B588B008986A4F14
:10349000067CC56868484037C08A002802D1387E5B
:1034A000FFF75EF9644C2034E078022801D001284F
:1034B0004DD10899B61F4968AD1D0978F6B24C295F
:1034C00004D1002E0CD0761EF6B26D1C002E03D057
:1034D0002A78FF2AF7D005E04C2901D0002503E027
:1034E00001266D1E002D29D1A178012926D00120A9
:1034F00069464870A178012907D0022905D004291E
:103500000FD0052918D0032008E000206946087074
:103510000320A070FDF798FA002804D0FDF7A4F965
:1035200001E069460870387EFFF71AF90320A070A1
:1035300041480168684665E00220F2E7022804D1AC
:103540000120E0702878400812D00020E0700620AA
:1035500069460874A078012815D0022818D00428DC
:1035600038D0052850D00320FDF77EF909B0F0BD12
:103570002079314A0E30C3B23832104606210A385B
:10358000FFF748FFF2E70220A0702B490020888354
:1035900004AA31462846FFF7FDFB0228E6D30021A6
:1035A00068460173017C41730320A070387EFFF7E9
:1035B000D7F86846007C002805D0FDF745FA0028BA
:1035C00001D0FDF751F901201C49800748621A48D3
:1035D000016816E004AA31462846FFF731FD0228AB
:1035E000C4D3012168460173017C41730320A0709C
:1035F000114D0020A882E882E070387EFFF7B0F815
:10360000296803A88847B1E704AA31462846FFF78E
:103610000BFE0228AAD3022168460173017C417384
:103620000320A0700020E070034CA082E082387E6E
:10363000FFF796F82168E4E72805002000350040F0
:10364000F8B500270E460F7704460321042009022F
:1036500061188860FF25093567511079002802D06C
:103660001068007800E0F07E05231B02E318D861A3
:103670001079012802D91068407803E0107B0128F6
:1036800001D9F07ED8613068002802D0042048605B
:10369000F8BD60590028FCD067513146204600F043
:1036A000B5F80028F5D1B07EFF28F1D0FFF750F82B
:1036B000F8BD70B50C4606462046154691B21A3044
:1036C00000F011F83078032804D12046290C14307A
:1036D00000F009F870BD0170090A4170090A817093
:1036E000090AC17070470170090A417070470000F3
:1036F00070B5044600F046F8050039D1207803285B
:103700002ED1207901282BD14202204630300021D1
:103710000646FEF76AFD184816492018FFF7E3FF32
:1037200016493046FFF7D7FF85208000144920183E
:10373000FFF7D1FF4320C00020182169FFF7CBFF1E
:10374000872080002018E168FFF7C5FFE2690123A8
:10375000521CE26260783146FDF754FE0020207171
:10376000002260781146FDF7C3FD002800D0012536
:10377000284670BD55AA00002E0200005252614139
:1037800072724161F8B50446C0780027002820D045
:10379000E56A21466078303101232A460091FDF721
:1037A00031FE002801D0012713E00020E070206ADC
:1037B000A169281A88420CD2A67808E0A0690123E2
:1037C000451960782A460099FDF71CFE761E022EE8
:1037D000F4D23846F8BD000010B514460246012068
:1037E000002A0BD008461368FF2106A20131FCF71E
:1037F000A5FD01462046FDF7CCFA10BD0021216051
:1038000010BD00005B253038645D000038B505222E
:103810001202831898696A461070087F0A7D9042E8
:1038200003D26A4612780C692254087F401CC2B247
:103830000A770C7B501C844202D98968085C03E03B
:103840000D7D854202D9C87ED86103E0A24201D332
:10385000AA4201D2012038BD002038BDFF221D320E
:10386000002383508B8A8A68D25C8B8A5B1C8B8294
:10387000052109024018C26170471FB500226B463E
:103880001A70197281680191827506C8684690475E
:103890001FBD00000078012801D1014988707047E0
:1038A00024000020F0B50C46012185B005464902F0
:1038B000FFF708F9032109026F180026002826D017
:1038C000FF2125312846FFF7F8F800281FD0FF20F8
:1038D00025302E5081208000B860A07E002801D1C4
:1038E000012068600221684601700920C001291882
:1038F000086808600390E17D68460172E068019005
:10390000E675267606CC6846083C90472DE00421F3
:103910002846FFF7D7F8002827D0FF21093128468D
:10392000FFF7CBF8002820D021462846FFF782F980
:10393000E07D617E884218D1207E002807D0617E1C
:10394000E268E0752069E060267666760AE0A07E8F
:10395000002801D10120686081208000B860E675F0
:10396000617EE2682046FFF778F9FF271D37394668
:103970002846FFF7A2F800280FD0A08AA17D884230
:1039800004D221462846FFF769FF06E0EE51A17DEB
:10399000002902D02046FFF770FFFF274537394640
:1039A0002846FFF78AF800280ED0EE51A07E0028A6
:1039B00001D001202860E07D002805D0E675617EF9
:1039C000E2682046FFF749F905B0F0BD70B50D4635
:1039D00004000ED0206800280BD00178002908D000
:1039E000C188A288914204D14078FDF7FDFCC00750
:1039F00003D000202860092070BD206828600020C6
:103A000070BD0000403A0000543B0000503B0000F5
:103A1000483B000000020000191C1D18D0040020C3
:103A2000151617181112131400300040030000007F
:103A3000000000FF03FF0000000000040000000081
:103A4000410B0000690C0000E50B0000C10C0000F8
:103A5000BD0B00003D0B0000020000000000000054
:103A60000000000003000000000000000000000053
:103A70000001000000000000000000000100000044
:103A80000000000000000000020100000000000033
:103A90000000000002010000000000000000000023
:103AA000FFFFFFFFFFFFFFFFFFFFFFFFFFFFFFFF26
:103AB000000000000000000000E0D701030000004B
:103AC0000040404040404040404041414141414031
:103AD00040404040404040404040404040404040E6
:103AE0004005020202020202020202020202020275
:103AF000022020202020202020202002020202027A
:103B000002029090909090901010101010101010D1
:103B100010101010101010101010101002020202DD
:103B20000202888888888888080808080808080821
:103B3000080808080808080808080808020202021D
:103B400040000000C13A0000312E3030000000007B
:103B5000534443004E6F7264696300007C3B000075
:103B6000000000203400000082030000B03B000091
:103B7000340000206C0E000092030000043A0000A4
:103B80000000000000010000000000000000000034
:103B90000000000000000000000000000000000025
:103BA0000000000000200040000000000024F4009D
:04000005000000C136
:00000001FF
